{
  "address": "0xc4f2bfA9f6D4A7cf2F3FA96429745a606c1CcC9D",
  "abi": [
    {
      "inputs": [],
      "stateMutability": "nonpayable",
      "type": "constructor"
    },
    {
      "anonymous": false,
      "inputs": [
        {
          "indexed": true,
          "internalType": "address",
          "name": "owner",
          "type": "address"
        },
        {
          "indexed": true,
          "internalType": "address",
          "name": "approved",
          "type": "address"
        },
        {
          "indexed": true,
          "internalType": "uint256",
          "name": "tokenId",
          "type": "uint256"
        }
      ],
      "name": "Approval",
      "type": "event"
    },
    {
      "anonymous": false,
      "inputs": [
        {
          "indexed": true,
          "internalType": "address",
          "name": "owner",
          "type": "address"
        },
        {
          "indexed": true,
          "internalType": "address",
          "name": "operator",
          "type": "address"
        },
        {
          "indexed": false,
          "internalType": "bool",
          "name": "approved",
          "type": "bool"
        }
      ],
      "name": "ApprovalForAll",
      "type": "event"
    },
    {
      "anonymous": false,
      "inputs": [],
      "name": "ArtifactConjured",
      "type": "event"
    },
    {
      "anonymous": false,
      "inputs": [
        {
          "indexed": true,
          "internalType": "address",
          "name": "previousOwner",
          "type": "address"
        },
        {
          "indexed": true,
          "internalType": "address",
          "name": "newOwner",
          "type": "address"
        }
      ],
      "name": "OwnershipTransferred",
      "type": "event"
    },
    {
      "anonymous": false,
      "inputs": [
        {
          "indexed": true,
          "internalType": "address",
          "name": "from",
          "type": "address"
        },
        {
          "indexed": true,
          "internalType": "address",
          "name": "to",
          "type": "address"
        },
        {
          "indexed": true,
          "internalType": "uint256",
          "name": "tokenId",
          "type": "uint256"
        }
      ],
      "name": "Transfer",
      "type": "event"
    },
    {
      "inputs": [
        {
          "internalType": "address",
          "name": "to",
          "type": "address"
        },
        {
          "internalType": "uint256",
          "name": "tokenId",
          "type": "uint256"
        }
      ],
      "name": "approve",
      "outputs": [],
      "stateMutability": "nonpayable",
      "type": "function"
    },
    {
      "inputs": [
        {
          "internalType": "address",
          "name": "owner",
          "type": "address"
        }
      ],
      "name": "balanceOf",
      "outputs": [
        {
          "internalType": "uint256",
          "name": "",
          "type": "uint256"
        }
      ],
      "stateMutability": "view",
      "type": "function"
    },
    {
      "inputs": [],
      "name": "conjureArtifact",
      "outputs": [],
      "stateMutability": "payable",
      "type": "function"
    },
    {
      "inputs": [
        {
          "internalType": "uint256",
          "name": "tokenId",
          "type": "uint256"
        }
      ],
      "name": "getApproved",
      "outputs": [
        {
          "internalType": "address",
          "name": "",
          "type": "address"
        }
      ],
      "stateMutability": "view",
      "type": "function"
    },
    {
      "inputs": [
        {
          "internalType": "uint256",
          "name": "tokenId",
          "type": "uint256"
        }
      ],
      "name": "getClassification",
      "outputs": [
        {
          "internalType": "string",
          "name": "",
          "type": "string"
        }
      ],
      "stateMutability": "view",
      "type": "function"
    },
    {
      "inputs": [],
      "name": "getCurrentAvailability",
      "outputs": [
        {
          "internalType": "uint256",
          "name": "",
          "type": "uint256"
        }
      ],
      "stateMutability": "view",
      "type": "function"
    },
    {
      "inputs": [],
      "name": "getCurrentConjured",
      "outputs": [
        {
          "internalType": "uint256",
          "name": "",
          "type": "uint256"
        }
      ],
      "stateMutability": "view",
      "type": "function"
    },
    {
      "inputs": [],
      "name": "getCurrentPrice",
      "outputs": [
        {
          "internalType": "uint256",
          "name": "",
          "type": "uint256"
        }
      ],
      "stateMutability": "view",
      "type": "function"
    },
    {
      "inputs": [
        {
          "internalType": "uint256",
          "name": "tokenId",
          "type": "uint256"
        }
      ],
      "name": "getGear",
      "outputs": [
        {
          "internalType": "string",
          "name": "",
          "type": "string"
        }
      ],
      "stateMutability": "view",
      "type": "function"
    },
    {
      "inputs": [
        {
          "internalType": "uint256",
          "name": "tokenId",
          "type": "uint256"
        }
      ],
      "name": "getStorm",
      "outputs": [
        {
          "internalType": "string",
          "name": "",
          "type": "string"
        }
      ],
      "stateMutability": "view",
      "type": "function"
    },
    {
      "inputs": [
        {
          "internalType": "address",
          "name": "_adventurer",
          "type": "address"
        },
        {
          "internalType": "string",
          "name": "_type",
          "type": "string"
        }
      ],
      "name": "hasHelm",
      "outputs": [
        {
          "internalType": "bool",
          "name": "",
          "type": "bool"
        }
      ],
      "stateMutability": "view",
      "type": "function"
    },
    {
      "inputs": [
        {
          "internalType": "address",
          "name": "owner",
          "type": "address"
        },
        {
          "internalType": "address",
          "name": "operator",
          "type": "address"
        }
      ],
      "name": "isApprovedForAll",
      "outputs": [
        {
          "internalType": "bool",
          "name": "",
          "type": "bool"
        }
      ],
      "stateMutability": "view",
      "type": "function"
    },
    {
      "inputs": [
        {
          "internalType": "uint256",
          "name": "_max",
          "type": "uint256"
        }
      ],
      "name": "makeAvailable",
      "outputs": [],
      "stateMutability": "nonpayable",
      "type": "function"
    },
    {
      "inputs": [],
      "name": "name",
      "outputs": [
        {
          "internalType": "string",
          "name": "",
          "type": "string"
        }
      ],
      "stateMutability": "view",
      "type": "function"
    },
    {
      "inputs": [],
      "name": "owner",
      "outputs": [
        {
          "internalType": "address",
          "name": "",
          "type": "address"
        }
      ],
      "stateMutability": "view",
      "type": "function"
    },
    {
      "inputs": [],
      "name": "ownerClaim",
      "outputs": [],
      "stateMutability": "nonpayable",
      "type": "function"
    },
    {
      "inputs": [
        {
          "internalType": "uint256",
          "name": "tokenId",
          "type": "uint256"
        }
      ],
      "name": "ownerOf",
      "outputs": [
        {
          "internalType": "address",
          "name": "",
          "type": "address"
        }
      ],
      "stateMutability": "view",
      "type": "function"
    },
    {
      "inputs": [],
      "name": "renounceOwnership",
      "outputs": [],
      "stateMutability": "nonpayable",
      "type": "function"
    },
    {
      "inputs": [
        {
          "internalType": "uint256",
          "name": "",
          "type": "uint256"
        },
        {
          "internalType": "uint256",
          "name": "value",
          "type": "uint256"
        }
      ],
      "name": "royaltyInfo",
      "outputs": [
        {
          "internalType": "address",
          "name": "receiver",
          "type": "address"
        },
        {
          "internalType": "uint256",
          "name": "royaltyAmount",
          "type": "uint256"
        }
      ],
      "stateMutability": "view",
      "type": "function"
    },
    {
      "inputs": [
        {
          "internalType": "address",
          "name": "from",
          "type": "address"
        },
        {
          "internalType": "address",
          "name": "to",
          "type": "address"
        },
        {
          "internalType": "uint256",
          "name": "tokenId",
          "type": "uint256"
        }
      ],
      "name": "safeTransferFrom",
      "outputs": [],
      "stateMutability": "nonpayable",
      "type": "function"
    },
    {
      "inputs": [
        {
          "internalType": "address",
          "name": "from",
          "type": "address"
        },
        {
          "internalType": "address",
          "name": "to",
          "type": "address"
        },
        {
          "internalType": "uint256",
          "name": "tokenId",
          "type": "uint256"
        },
        {
          "internalType": "bytes",
          "name": "_data",
          "type": "bytes"
        }
      ],
      "name": "safeTransferFrom",
      "outputs": [],
      "stateMutability": "nonpayable",
      "type": "function"
    },
    {
      "inputs": [
        {
          "internalType": "address",
          "name": "operator",
          "type": "address"
        },
        {
          "internalType": "bool",
          "name": "approved",
          "type": "bool"
        }
      ],
      "name": "setApprovalForAll",
      "outputs": [],
      "stateMutability": "nonpayable",
      "type": "function"
    },
    {
      "inputs": [
        {
          "internalType": "address",
          "name": "recipient",
          "type": "address"
        },
        {
          "internalType": "uint256",
          "name": "value",
          "type": "uint256"
        }
      ],
      "name": "setRoyalties",
      "outputs": [],
      "stateMutability": "nonpayable",
      "type": "function"
    },
    {
      "inputs": [
        {
          "internalType": "bytes4",
          "name": "interfaceId",
          "type": "bytes4"
        }
      ],
      "name": "supportsInterface",
      "outputs": [
        {
          "internalType": "bool",
          "name": "",
          "type": "bool"
        }
      ],
      "stateMutability": "view",
      "type": "function"
    },
    {
      "inputs": [],
      "name": "symbol",
      "outputs": [
        {
          "internalType": "string",
          "name": "",
          "type": "string"
        }
      ],
      "stateMutability": "view",
      "type": "function"
    },
    {
      "inputs": [
        {
          "internalType": "uint256",
          "name": "index",
          "type": "uint256"
        }
      ],
      "name": "tokenByIndex",
      "outputs": [
        {
          "internalType": "uint256",
          "name": "",
          "type": "uint256"
        }
      ],
      "stateMutability": "view",
      "type": "function"
    },
    {
      "inputs": [
        {
          "internalType": "address",
          "name": "owner",
          "type": "address"
        },
        {
          "internalType": "uint256",
          "name": "index",
          "type": "uint256"
        }
      ],
      "name": "tokenOfOwnerByIndex",
      "outputs": [
        {
          "internalType": "uint256",
          "name": "",
          "type": "uint256"
        }
      ],
      "stateMutability": "view",
      "type": "function"
    },
    {
      "inputs": [
        {
          "internalType": "uint256",
          "name": "tokenId",
          "type": "uint256"
        }
      ],
      "name": "tokenURI",
      "outputs": [
        {
          "internalType": "string",
          "name": "",
          "type": "string"
        }
      ],
      "stateMutability": "view",
      "type": "function"
    },
    {
      "inputs": [],
      "name": "totalSupply",
      "outputs": [
        {
          "internalType": "uint256",
          "name": "",
          "type": "uint256"
        }
      ],
      "stateMutability": "view",
      "type": "function"
    },
    {
      "inputs": [
        {
          "internalType": "address",
          "name": "from",
          "type": "address"
        },
        {
          "internalType": "address",
          "name": "to",
          "type": "address"
        },
        {
          "internalType": "uint256",
          "name": "tokenId",
          "type": "uint256"
        }
      ],
      "name": "transferFrom",
      "outputs": [],
      "stateMutability": "nonpayable",
      "type": "function"
    },
    {
      "inputs": [
        {
          "internalType": "address",
          "name": "newOwner",
          "type": "address"
        }
      ],
      "name": "transferOwnership",
      "outputs": [],
      "stateMutability": "nonpayable",
      "type": "function"
    },
    {
      "inputs": [
        {
          "internalType": "address",
          "name": "_adventurer",
          "type": "address"
        }
      ],
      "name": "troveFor",
      "outputs": [
        {
          "internalType": "uint256[]",
          "name": "",
          "type": "uint256[]"
        }
      ],
      "stateMutability": "view",
      "type": "function"
    }
  ],
  "transactionHash": "0x19afde8f3eb95c059d966f8eefe7d8f601fca28b91c6c90e55a5bbed8ae120b1",
  "args": [],
  "solcInputHash": "d98ab0c30c786db6f25fb96b03b32cd9",
  "bytecode": "0x608060405260c8600d556001600e556701aa535d3d0c0000600f556040518061014001604052806040518060400160405280600781526020017f416e6369656e740000000000000000000000000000000000000000000000000081525081526020016040518060400160405280600581526020017f52756e696300000000000000000000000000000000000000000000000000000081525081526020016040518060400160405280600881526020017f456c64726974636800000000000000000000000000000000000000000000000081525081526020016040518060400160405280600881526020017f4c6f76656c65737300000000000000000000000000000000000000000000000081525081526020016040518060400160405280600681526020017f556e64656164000000000000000000000000000000000000000000000000000081525081526020016040518060400160405280600681526020017f427269676874000000000000000000000000000000000000000000000000000081525081526020016040518060400160405280600481526020017f4461726b0000000000000000000000000000000000000000000000000000000081525081526020016040518060400160405280600481526020017f566f69640000000000000000000000000000000000000000000000000000000081525081526020016040518060400160405280600681526020017f4769616e7473000000000000000000000000000000000000000000000000000081525081526020016040518060400160405280600581526020017f456e6c696c000000000000000000000000000000000000000000000000000000815250815250601090600a6200028492919062000805565b506040518060a001604052806040518060400160405280600481526020017f466972650000000000000000000000000000000000000000000000000000000081525081526020016040518060400160405280600481526020017f53616e640000000000000000000000000000000000000000000000000000000081525081526020016040518060400160405280600381526020017f496365000000000000000000000000000000000000000000000000000000000081525081526020016040518060400160405280600481526020017f57696e640000000000000000000000000000000000000000000000000000000081525081526020016040518060400160405280600981526020017f4c696768746e696e6700000000000000000000000000000000000000000000008152508152506011906005620003c79291906200086c565b506040518061010001604052806040518060400160405280600481526020017f48656c6d0000000000000000000000000000000000000000000000000000000081525081526020016040518060400160405280600581526020017f536861726400000000000000000000000000000000000000000000000000000081525081526020016040518060400160405280600581526020017f506c61746500000000000000000000000000000000000000000000000000000081525081526020016040518060400160405280600581526020017f53776f726400000000000000000000000000000000000000000000000000000081525081526020016040518060400160405280600381526020017f47656d000000000000000000000000000000000000000000000000000000000081525081526020016040518060400160405280600481526020017f536565640000000000000000000000000000000000000000000000000000000081525081526020016040518060400160405280600681526020017f416d756c6574000000000000000000000000000000000000000000000000000081525081526020016040518060400160405280600781526020017f4372797374616c000000000000000000000000000000000000000000000000008152508152506012906008620005bc929190620008d3565b50348015620005ca57600080fd5b506040518060400160405280601481526020017f53746f726d57696e6473204172746966616374730000000000000000000000008152506040518060400160405280600581526020017f53544f524d000000000000000000000000000000000000000000000000000000815250620006576200064b620006a560201b60201c565b620006ad60201b60201c565b81600190805190602001906200066f9291906200093a565b508060029080519060200190620006889291906200093a565b5050506200069f336103e86200077160201b60201c565b62000b40565b600033905090565b60008060009054906101000a900473ffffffffffffffffffffffffffffffffffffffff169050816000806101000a81548173ffffffffffffffffffffffffffffffffffffffff021916908373ffffffffffffffffffffffffffffffffffffffff1602179055508173ffffffffffffffffffffffffffffffffffffffff168173ffffffffffffffffffffffffffffffffffffffff167f8be0079c531659141344cd1fd0a4f28419497f9722a3daafe3b4186f6b6457e060405160405180910390a35050565b612710811115620007b9576040517f08c379a0000000000000000000000000000000000000000000000000000000008152600401620007b09062000a7f565b60405180910390fd5b81600b60006101000a81548173ffffffffffffffffffffffffffffffffffffffff021916908373ffffffffffffffffffffffffffffffffffffffff16021790555080600c819055505050565b82805482825590600052602060002090810192821562000859579160200282015b8281111562000858578251829080519060200190620008479291906200093a565b509160200191906001019062000826565b5b509050620008689190620009cb565b5090565b828054828255906000526020600020908101928215620008c0579160200282015b82811115620008bf578251829080519060200190620008ae9291906200093a565b50916020019190600101906200088d565b5b509050620008cf9190620009cb565b5090565b82805482825590600052602060002090810192821562000927579160200282015b8281111562000926578251829080519060200190620009159291906200093a565b5091602001919060010190620008f4565b5b509050620009369190620009cb565b5090565b828054620009489062000ab2565b90600052602060002090601f0160209004810192826200096c5760008555620009b8565b82601f106200098757805160ff1916838001178555620009b8565b82800160010185558215620009b8579182015b82811115620009b75782518255916020019190600101906200099a565b5b509050620009c79190620009f3565b5090565b5b80821115620009ef5760008181620009e5919062000a12565b50600101620009cc565b5090565b5b8082111562000a0e576000816000905550600101620009f4565b5090565b50805462000a209062000ab2565b6000825580601f1062000a34575062000a55565b601f01602090049060005260206000209081019062000a549190620009f3565b5b50565b600062000a67601a8362000aa1565b915062000a748262000b17565b602082019050919050565b6000602082019050818103600083015262000a9a8162000a58565b9050919050565b600082825260208201905092915050565b6000600282049050600182168062000acb57607f821691505b6020821081141562000ae25762000ae162000ae8565b5b50919050565b7f4e487b7100000000000000000000000000000000000000000000000000000000600052602260045260246000fd5b7f45524332393831526f79616c746965733a20546f6f2068696768000000000000600082015250565b614f9f8062000b506000396000f3fe6080604052600436106101e35760003560e01c806370a0823111610102578063ae1a7f5011610095578063e5c946ab11610064578063e5c946ab1461071e578063e985e9c51461075b578063eb91d37e14610798578063f2fde38b146107c3576101e3565b8063ae1a7f5014610664578063b88d4fde1461068f578063baa39e05146106b8578063c87b56dd146106e1576101e3565b80638d2bfe05116100d15780638d2bfe05146105db5780638da5cb5b146105e557806395d89b4114610610578063a22cb4651461063b576101e3565b806370a0823114610521578063715018a61461055e57806383196955146105755780638c7ea24b146105b2576101e3565b80632f745c591161017a5780634dbe5889116101495780634dbe5889146104535780634f6ccce71461046a5780635454d388146104a75780636352211e146104e4576101e3565b80632f745c591461038557806342842e0e146103c2578063441e56b9146103eb5780634a36e36714610428576101e3565b806318160ddd116101b657806318160ddd146102b657806323b872dd146102e1578063248457211461030a5780632a55205a14610347576101e3565b806301ffc9a7146101e857806306fdde0314610225578063081812fc14610250578063095ea7b31461028d575b600080fd5b3480156101f457600080fd5b5061020f600480360381019061020a919061387a565b6107ec565b60405161021c9190614006565b60405180910390f35b34801561023157600080fd5b5061023a610866565b6040516102479190614045565b60405180910390f35b34801561025c57600080fd5b50610277600480360381019061027291906138cc565b6108f8565b6040516102849190613f54565b60405180910390f35b34801561029957600080fd5b506102b460048036038101906102af919061383e565b61097d565b005b3480156102c257600080fd5b506102cb610a95565b6040516102d891906142e7565b60405180910390f35b3480156102ed57600080fd5b50610308600480360381019061030391906136e0565b610aa2565b005b34801561031657600080fd5b50610331600480360381019061032c91906137e6565b610b02565b60405161033e9190614006565b60405180910390f35b34801561035357600080fd5b5061036e600480360381019061036991906138f5565b610d3b565b60405161037c929190613fbb565b60405180910390f35b34801561039157600080fd5b506103ac60048036038101906103a7919061383e565b610d87565b6040516103b991906142e7565b60405180910390f35b3480156103ce57600080fd5b506103e960048036038101906103e491906136e0565b610e2c565b005b3480156103f757600080fd5b50610412600480360381019061040d919061367b565b610e4c565b60405161041f9190613fe4565b60405180910390f35b34801561043457600080fd5b5061043d610f46565b60405161044a91906142e7565b60405180910390f35b34801561045f57600080fd5b50610468610f50565b005b34801561047657600080fd5b50610491600480360381019061048c91906138cc565b610fd9565b60405161049e91906142e7565b60405180910390f35b3480156104b357600080fd5b506104ce60048036038101906104c991906138cc565b611070565b6040516104db9190614045565b60405180910390f35b3480156104f057600080fd5b5061050b600480360381019061050691906138cc565b61118a565b6040516105189190613f54565b60405180910390f35b34801561052d57600080fd5b506105486004803603810190610543919061367b565b61123c565b60405161055591906142e7565b60405180910390f35b34801561056a57600080fd5b506105736112f4565b005b34801561058157600080fd5b5061059c600480360381019061059791906138cc565b61137c565b6040516105a99190614045565b60405180910390f35b3480156105be57600080fd5b506105d960048036038101906105d4919061383e565b611496565b005b6105e3611520565b005b3480156105f157600080fd5b506105fa611603565b6040516106079190613f54565b60405180910390f35b34801561061c57600080fd5b5061062561162c565b6040516106329190614045565b60405180910390f35b34801561064757600080fd5b50610662600480360381019061065d91906137aa565b6116be565b005b34801561067057600080fd5b5061067961183f565b60405161068691906142e7565b60405180910390f35b34801561069b57600080fd5b506106b660048036038101906106b1919061372f565b611849565b005b3480156106c457600080fd5b506106df60048036038101906106da91906138cc565b6118ab565b005b3480156106ed57600080fd5b50610708600480360381019061070391906138cc565b61194e565b6040516107159190614045565b60405180910390f35b34801561072a57600080fd5b50610745600480360381019061074091906138cc565b611d7b565b6040516107529190614045565b60405180910390f35b34801561076757600080fd5b50610782600480360381019061077d91906136a4565b611e95565b60405161078f9190614006565b60405180910390f35b3480156107a457600080fd5b506107ad611f29565b6040516107ba91906142e7565b60405180910390f35b3480156107cf57600080fd5b506107ea60048036038101906107e5919061367b565b611f33565b005b60007f2a55205a000000000000000000000000000000000000000000000000000000007bffffffffffffffffffffffffffffffffffffffffffffffffffffffff1916827bffffffffffffffffffffffffffffffffffffffffffffffffffffffff1916148061085f575061085e8261202b565b5b9050919050565b6060600180546108759061459f565b80601f01602080910402602001604051908101604052809291908181526020018280546108a19061459f565b80156108ee5780601f106108c3576101008083540402835291602001916108ee565b820191906000526020600020905b8154815290600101906020018083116108d157829003601f168201915b5050505050905090565b6000610903826120a5565b610942576040517f08c379a000000000000000000000000000000000000000000000000000000000815260040161093990614207565b60405180910390fd5b6005600083815260200190815260200160002060009054906101000a900473ffffffffffffffffffffffffffffffffffffffff169050919050565b60006109888261118a565b90508073ffffffffffffffffffffffffffffffffffffffff168373ffffffffffffffffffffffffffffffffffffffff1614156109f9576040517f08c379a00000000000000000000000000000000000000000000000000000000081526004016109f090614267565b60405180910390fd5b8073ffffffffffffffffffffffffffffffffffffffff16610a18612111565b73ffffffffffffffffffffffffffffffffffffffff161480610a475750610a4681610a41612111565b611e95565b5b610a86576040517f08c379a0000000000000000000000000000000000000000000000000000000008152600401610a7d90614187565b60405180910390fd5b610a908383612119565b505050565b6000600980549050905090565b610ab3610aad612111565b826121d2565b610af2576040517f08c379a0000000000000000000000000000000000000000000000000000000008152600401610ae990614287565b60405180910390fd5b610afd8383836122b0565b505050565b600080610b0e8561123c565b905060005b81811015610d2d576000610b278783610d87565b90506000811415610b3e5760019350505050610d34565b6004811015610b9d57610b8786866040518060400160405280600481526020017f466972650000000000000000000000000000000000000000000000000000000081525061250c565b15610b985760019350505050610d34565b610d19565b6007811015610bfc57610be686866040518060400160405280600481526020017f53616e640000000000000000000000000000000000000000000000000000000081525061250c565b15610bf75760019350505050610d34565b610d18565b600a811015610c5b57610c4586866040518060400160405280600381526020017f496365000000000000000000000000000000000000000000000000000000000081525061250c565b15610c565760019350505050610d34565b610d17565b600d811015610cba57610ca486866040518060400160405280600481526020017f57696e640000000000000000000000000000000000000000000000000000000081525061250c565b15610cb55760019350505050610d34565b610d16565b6010811015610d1557610d0386866040518060400160405280600981526020017f4c696768746e696e67000000000000000000000000000000000000000000000081525061250c565b15610d145760019350505050610d34565b5b5b5b5b5b508080610d2590614602565b915050610b13565b5060009150505b9392505050565b600080600b60009054906101000a900473ffffffffffffffffffffffffffffffffffffffff16612710600c5485610d72919061445b565b610d7c919061442a565b915091509250929050565b6000610d928361123c565b8210610dd3576040517f08c379a0000000000000000000000000000000000000000000000000000000008152600401610dca906140a7565b60405180910390fd5b600760008473ffffffffffffffffffffffffffffffffffffffff1673ffffffffffffffffffffffffffffffffffffffff168152602001908152602001600020600083815260200190815260200160002054905092915050565b610e4783838360405180602001604052806000815250611849565b505050565b60606000610e598361123c565b905060008167ffffffffffffffff811115610e9d577f4e487b7100000000000000000000000000000000000000000000000000000000600052604160045260246000fd5b604051908082528060200260200182016040528015610ecb5781602001602082028036833780820191505090505b50905060005b82811015610f3b57610ee38582610d87565b828281518110610f1c577f4e487b7100000000000000000000000000000000000000000000000000000000600052603260045260246000fd5b6020026020010181815250508080610f3390614602565b915050610ed1565b508092505050919050565b6000600d54905090565b610f58612111565b73ffffffffffffffffffffffffffffffffffffffff16610f76611603565b73ffffffffffffffffffffffffffffffffffffffff1614610fcc576040517f08c379a0000000000000000000000000000000000000000000000000000000008152600401610fc390614227565b60405180910390fd5b610fd7336000612568565b565b6000610fe3610a95565b8210611024576040517f08c379a000000000000000000000000000000000000000000000000000000000815260040161101b906142a7565b60405180910390fd5b6009828154811061105e577f4e487b7100000000000000000000000000000000000000000000000000000000600052603260045260246000fd5b90600052602060002001549050919050565b6060611183826040518060400160405280600481526020017f47454152000000000000000000000000000000000000000000000000000000008152506012805480602002602001604051908101604052809291908181526020016000905b8282101561117a5783829060005260206000200180546110ed9061459f565b80601f01602080910402602001604051908101604052809291908181526020018280546111199061459f565b80156111665780601f1061113b57610100808354040283529160200191611166565b820191906000526020600020905b81548152906001019060200180831161114957829003601f168201915b5050505050815260200190600101906110ce565b50505050612586565b9050919050565b6000806003600084815260200190815260200160002060009054906101000a900473ffffffffffffffffffffffffffffffffffffffff169050600073ffffffffffffffffffffffffffffffffffffffff168173ffffffffffffffffffffffffffffffffffffffff161415611233576040517f08c379a000000000000000000000000000000000000000000000000000000000815260040161122a906141c7565b60405180910390fd5b80915050919050565b60008073ffffffffffffffffffffffffffffffffffffffff168273ffffffffffffffffffffffffffffffffffffffff1614156112ad576040517f08c379a00000000000000000000000000000000000000000000000000000000081526004016112a4906141a7565b60405180910390fd5b600460008373ffffffffffffffffffffffffffffffffffffffff1673ffffffffffffffffffffffffffffffffffffffff168152602001908152602001600020549050919050565b6112fc612111565b73ffffffffffffffffffffffffffffffffffffffff1661131a611603565b73ffffffffffffffffffffffffffffffffffffffff1614611370576040517f08c379a000000000000000000000000000000000000000000000000000000000815260040161136790614227565b60405180910390fd5b61137a600061263a565b565b606061148f826040518060400160405280600581526020017f53544f524d0000000000000000000000000000000000000000000000000000008152506011805480602002602001604051908101604052809291908181526020016000905b828210156114865783829060005260206000200180546113f99061459f565b80601f01602080910402602001604051908101604052809291908181526020018280546114259061459f565b80156114725780601f1061144757610100808354040283529160200191611472565b820191906000526020600020905b81548152906001019060200180831161145557829003601f168201915b5050505050815260200190600101906113da565b50505050612586565b9050919050565b61149e612111565b73ffffffffffffffffffffffffffffffffffffffff166114bc611603565b73ffffffffffffffffffffffffffffffffffffffff1614611512576040517f08c379a000000000000000000000000000000000000000000000000000000000815260040161150990614227565b60405180910390fd5b61151c82826126fe565b5050565b600d54600e5410611566576040517f08c379a000000000000000000000000000000000000000000000000000000000815260040161155d906142c7565b60405180910390fd5b600f543410156115ab576040517f08c379a00000000000000000000000000000000000000000000000000000000081526004016115a290614067565b60405180910390fd5b6000600e549050600e60008154809291906115c590614602565b91905055506115d43382612568565b7f4272913264d3d5b2db92a5c96fd95b01c7a18745ee56b8bd44c981967bda64e160405160405180910390a150565b60008060009054906101000a900473ffffffffffffffffffffffffffffffffffffffff16905090565b60606002805461163b9061459f565b80601f01602080910402602001604051908101604052809291908181526020018280546116679061459f565b80156116b45780601f10611689576101008083540402835291602001916116b4565b820191906000526020600020905b81548152906001019060200180831161169757829003601f168201915b5050505050905090565b6116c6612111565b73ffffffffffffffffffffffffffffffffffffffff168273ffffffffffffffffffffffffffffffffffffffff161415611734576040517f08c379a000000000000000000000000000000000000000000000000000000000815260040161172b90614147565b60405180910390fd5b8060066000611741612111565b73ffffffffffffffffffffffffffffffffffffffff1673ffffffffffffffffffffffffffffffffffffffff16815260200190815260200160002060008473ffffffffffffffffffffffffffffffffffffffff1673ffffffffffffffffffffffffffffffffffffffff16815260200190815260200160002060006101000a81548160ff0219169083151502179055508173ffffffffffffffffffffffffffffffffffffffff166117ee612111565b73ffffffffffffffffffffffffffffffffffffffff167f17307eab39ab6107e8899845ad3d59bd9653f200f220920489ca2b5937696c31836040516118339190614006565b60405180910390a35050565b6000600e54905090565b61185a611854612111565b836121d2565b611899576040517f08c379a000000000000000000000000000000000000000000000000000000000815260040161189090614287565b60405180910390fd5b6118a58484848461278f565b50505050565b6118b3612111565b73ffffffffffffffffffffffffffffffffffffffff166118d1611603565b73ffffffffffffffffffffffffffffffffffffffff1614611927576040517f08c379a000000000000000000000000000000000000000000000000000000000815260040161191e90614227565b60405180910390fd5b610fa081111561193657600080fd5b600d54811161194457600080fd5b80600d8190555050565b6060611958613539565b61196183611d7b565b8160006005811061199b577f4e487b7100000000000000000000000000000000000000000000000000000000600052603260045260246000fd5b60200201819052506040518060400160405280600181526020017f200000000000000000000000000000000000000000000000000000000000000081525081600160058110611a13577f4e487b7100000000000000000000000000000000000000000000000000000000600052603260045260246000fd5b6020020181905250611a248361137c565b81600260058110611a5e577f4e487b7100000000000000000000000000000000000000000000000000000000600052603260045260246000fd5b60200201819052506040518060400160405280600181526020017f200000000000000000000000000000000000000000000000000000000000000081525081600360058110611ad6577f4e487b7100000000000000000000000000000000000000000000000000000000600052603260045260246000fd5b6020020181905250611ae783611070565b81600460058110611b21577f4e487b7100000000000000000000000000000000000000000000000000000000600052603260045260246000fd5b6020020181905250600081600060058110611b65577f4e487b7100000000000000000000000000000000000000000000000000000000600052603260045260246000fd5b602002015182600160058110611ba4577f4e487b7100000000000000000000000000000000000000000000000000000000600052603260045260246000fd5b602002015183600260058110611be3577f4e487b7100000000000000000000000000000000000000000000000000000000600052603260045260246000fd5b602002015184600360058110611c22577f4e487b7100000000000000000000000000000000000000000000000000000000600052603260045260246000fd5b602002015185600460058110611c61577f4e487b7100000000000000000000000000000000000000000000000000000000600052603260045260246000fd5b6020020151604051602001611c7a959493929190613e8a565b6040516020818303038152906040529050600060405180610120016040528060fd8152602001614e2d60fd9139905060006040518060400160405280600d81526020017f3c2f746578743e3c2f7376673e0000000000000000000000000000000000000081525090506000828483604051602001611cfa93929190613e59565b60405160208183030381529060405290506000611d49611d19896127eb565b86611d2385612998565b604051602001611d3593929190613ed5565b604051602081830303815290604052612998565b905080604051602001611d5c9190613f32565b6040516020818303038152906040529150819650505050505050919050565b6060611e8e826040518060400160405280600e81526020017f434c415353494649434154494f4e0000000000000000000000000000000000008152506010805480602002602001604051908101604052809291908181526020016000905b82821015611e85578382906000526020600020018054611df89061459f565b80601f0160208091040260200160405190810160405280929190818152602001828054611e249061459f565b8015611e715780601f10611e4657610100808354040283529160200191611e71565b820191906000526020600020905b815481529060010190602001808311611e5457829003601f168201915b505050505081526020019060010190611dd9565b50505050612586565b9050919050565b6000600660008473ffffffffffffffffffffffffffffffffffffffff1673ffffffffffffffffffffffffffffffffffffffff16815260200190815260200160002060008373ffffffffffffffffffffffffffffffffffffffff1673ffffffffffffffffffffffffffffffffffffffff16815260200190815260200160002060009054906101000a900460ff16905092915050565b6000600f54905090565b611f3b612111565b73ffffffffffffffffffffffffffffffffffffffff16611f59611603565b73ffffffffffffffffffffffffffffffffffffffff1614611faf576040517f08c379a0000000000000000000000000000000000000000000000000000000008152600401611fa690614227565b60405180910390fd5b600073ffffffffffffffffffffffffffffffffffffffff168173ffffffffffffffffffffffffffffffffffffffff16141561201f576040517f08c379a0000000000000000000000000000000000000000000000000000000008152600401612016906140e7565b60405180910390fd5b6120288161263a565b50565b60007f780e9d63000000000000000000000000000000000000000000000000000000007bffffffffffffffffffffffffffffffffffffffffffffffffffffffff1916827bffffffffffffffffffffffffffffffffffffffffffffffffffffffff1916148061209e575061209d82612b56565b5b9050919050565b60008073ffffffffffffffffffffffffffffffffffffffff166003600084815260200190815260200160002060009054906101000a900473ffffffffffffffffffffffffffffffffffffffff1673ffffffffffffffffffffffffffffffffffffffff1614159050919050565b600033905090565b816005600083815260200190815260200160002060006101000a81548173ffffffffffffffffffffffffffffffffffffffff021916908373ffffffffffffffffffffffffffffffffffffffff160217905550808273ffffffffffffffffffffffffffffffffffffffff1661218c8361118a565b73ffffffffffffffffffffffffffffffffffffffff167f8c5be1e5ebec7d5bd14f71427d1e84f3dd0314c0f7b2291e5b200ac8c7c3b92560405160405180910390a45050565b60006121dd826120a5565b61221c576040517f08c379a000000000000000000000000000000000000000000000000000000000815260040161221390614167565b60405180910390fd5b60006122278361118a565b90508073ffffffffffffffffffffffffffffffffffffffff168473ffffffffffffffffffffffffffffffffffffffff16148061229657508373ffffffffffffffffffffffffffffffffffffffff1661227e846108f8565b73ffffffffffffffffffffffffffffffffffffffff16145b806122a757506122a68185611e95565b5b91505092915050565b8273ffffffffffffffffffffffffffffffffffffffff166122d08261118a565b73ffffffffffffffffffffffffffffffffffffffff1614612326576040517f08c379a000000000000000000000000000000000000000000000000000000000815260040161231d90614247565b60405180910390fd5b600073ffffffffffffffffffffffffffffffffffffffff168273ffffffffffffffffffffffffffffffffffffffff161415612396576040517f08c379a000000000000000000000000000000000000000000000000000000000815260040161238d90614127565b60405180910390fd5b6123a1838383612c38565b6123ac600082612119565b6001600460008573ffffffffffffffffffffffffffffffffffffffff1673ffffffffffffffffffffffffffffffffffffffff16815260200190815260200160002060008282546123fc91906144b5565b925050819055506001600460008473ffffffffffffffffffffffffffffffffffffffff1673ffffffffffffffffffffffffffffffffffffffff168152602001908152602001600020600082825461245391906143d4565b92505081905550816003600083815260200190815260200160002060006101000a81548173ffffffffffffffffffffffffffffffffffffffff021916908373ffffffffffffffffffffffffffffffffffffffff160217905550808273ffffffffffffffffffffffffffffffffffffffff168473ffffffffffffffffffffffffffffffffffffffff167fddf252ad1be2c89b69c2b068fc378daa952ba7f163c4a11628f55a4df523b3ef60405160405180910390a4505050565b60008160405160200161251f9190614045565b604051602081830303815290604052805190602001208484604051602001612548929190614021565b604051602081830303815290604052805190602001201490509392505050565b612582828260405180602001604052806000815250612d4c565b5050565b606060006125bc84612597876127eb565b6040516020016125a8929190613e35565b604051602081830303815290604052612da7565b90506000838451836125ce919061464b565b81518110612605577f4e487b7100000000000000000000000000000000000000000000000000000000600052603260045260246000fd5b602002602001015160405160200161261d9190613e1e565b604051602081830303815290604052905080925050509392505050565b60008060009054906101000a900473ffffffffffffffffffffffffffffffffffffffff169050816000806101000a81548173ffffffffffffffffffffffffffffffffffffffff021916908373ffffffffffffffffffffffffffffffffffffffff1602179055508173ffffffffffffffffffffffffffffffffffffffff168173ffffffffffffffffffffffffffffffffffffffff167f8be0079c531659141344cd1fd0a4f28419497f9722a3daafe3b4186f6b6457e060405160405180910390a35050565b612710811115612743576040517f08c379a000000000000000000000000000000000000000000000000000000000815260040161273a90614087565b60405180910390fd5b81600b60006101000a81548173ffffffffffffffffffffffffffffffffffffffff021916908373ffffffffffffffffffffffffffffffffffffffff16021790555080600c819055505050565b61279a8484846122b0565b6127a684848484612dda565b6127e5576040517f08c379a00000000000000000000000000000000000000000000000000000000081526004016127dc906140c7565b60405180910390fd5b50505050565b60606000821415612833576040518060400160405280600181526020017f30000000000000000000000000000000000000000000000000000000000000008152509050612993565b600082905060005b6000821461286557808061284e90614602565b915050600a8261285e919061442a565b915061283b565b60008167ffffffffffffffff8111156128a7577f4e487b7100000000000000000000000000000000000000000000000000000000600052604160045260246000fd5b6040519080825280601f01601f1916602001820160405280156128d95781602001600182028036833780820191505090505b5090505b6000851461298c576001826128f291906144b5565b9150600a85612901919061464b565b603061290d91906143d4565b60f81b818381518110612949577f4e487b7100000000000000000000000000000000000000000000000000000000600052603260045260246000fd5b60200101907effffffffffffffffffffffffffffffffffffffffffffffffffffffffffffff1916908160001a905350600a85612985919061442a565b94506128dd565b8093505050505b919050565b606060008251905060008114156129c15760405180602001604052806000815250915050612b51565b600060036002836129d291906143d4565b6129dc919061442a565b60046129e8919061445b565b905060006020826129f991906143d4565b67ffffffffffffffff811115612a38577f4e487b7100000000000000000000000000000000000000000000000000000000600052604160045260246000fd5b6040519080825280601f01601f191660200182016040528015612a6a5781602001600182028036833780820191505090505b5090506000604051806060016040528060408152602001614f2a604091399050600181016020830160005b86811015612b0e5760038101905062ffffff818a015116603f8160121c168401518060081b905060ff603f83600c1c1686015116810190508060081b905060ff603f8360061c1686015116810190508060081b905060ff603f831686015116810190508060e01b90508084526004840193505050612a95565b506003860660018114612b285760028114612b3857612b43565b613d3d60f01b6002830352612b43565b603d60f81b60018303525b508484525050819450505050505b919050565b60007f80ac58cd000000000000000000000000000000000000000000000000000000007bffffffffffffffffffffffffffffffffffffffffffffffffffffffff1916827bffffffffffffffffffffffffffffffffffffffffffffffffffffffff19161480612c2157507f5b5e139f000000000000000000000000000000000000000000000000000000007bffffffffffffffffffffffffffffffffffffffffffffffffffffffff1916827bffffffffffffffffffffffffffffffffffffffffffffffffffffffff1916145b80612c315750612c3082612f71565b5b9050919050565b612c43838383612fdb565b600073ffffffffffffffffffffffffffffffffffffffff168373ffffffffffffffffffffffffffffffffffffffff161415612c8657612c8181612fe0565b612cc5565b8173ffffffffffffffffffffffffffffffffffffffff168373ffffffffffffffffffffffffffffffffffffffff1614612cc457612cc38382613029565b5b5b600073ffffffffffffffffffffffffffffffffffffffff168273ffffffffffffffffffffffffffffffffffffffff161415612d0857612d0381613196565b612d47565b8273ffffffffffffffffffffffffffffffffffffffff168273ffffffffffffffffffffffffffffffffffffffff1614612d4657612d4582826132d9565b5b5b505050565b612d568383613358565b612d636000848484612dda565b612da2576040517f08c379a0000000000000000000000000000000000000000000000000000000008152600401612d99906140c7565b60405180910390fd5b505050565b600081604051602001612dba9190613e1e565b6040516020818303038152906040528051906020012060001c9050919050565b6000612dfb8473ffffffffffffffffffffffffffffffffffffffff16613526565b15612f64578373ffffffffffffffffffffffffffffffffffffffff1663150b7a02612e24612111565b8786866040518563ffffffff1660e01b8152600401612e469493929190613f6f565b602060405180830381600087803b158015612e6057600080fd5b505af1925050508015612e9157506040513d601f19601f82011682018060405250810190612e8e91906138a3565b60015b612f14573d8060008114612ec1576040519150601f19603f3d011682016040523d82523d6000602084013e612ec6565b606091505b50600081511415612f0c576040517f08c379a0000000000000000000000000000000000000000000000000000000008152600401612f03906140c7565b60405180910390fd5b805181602001fd5b63150b7a0260e01b7bffffffffffffffffffffffffffffffffffffffffffffffffffffffff1916817bffffffffffffffffffffffffffffffffffffffffffffffffffffffff191614915050612f69565b600190505b949350505050565b60007f01ffc9a7000000000000000000000000000000000000000000000000000000007bffffffffffffffffffffffffffffffffffffffffffffffffffffffff1916827bffffffffffffffffffffffffffffffffffffffffffffffffffffffff1916149050919050565b505050565b600980549050600a600083815260200190815260200160002081905550600981908060018154018082558091505060019003906000526020600020016000909190919091505550565b600060016130368461123c565b61304091906144b5565b9050600060086000848152602001908152602001600020549050818114613125576000600760008673ffffffffffffffffffffffffffffffffffffffff1673ffffffffffffffffffffffffffffffffffffffff168152602001908152602001600020600084815260200190815260200160002054905080600760008773ffffffffffffffffffffffffffffffffffffffff1673ffffffffffffffffffffffffffffffffffffffff168152602001908152602001600020600084815260200190815260200160002081905550816008600083815260200190815260200160002081905550505b6008600084815260200190815260200160002060009055600760008573ffffffffffffffffffffffffffffffffffffffff1673ffffffffffffffffffffffffffffffffffffffff16815260200190815260200160002060008381526020019081526020016000206000905550505050565b600060016009805490506131aa91906144b5565b90506000600a6000848152602001908152602001600020549050600060098381548110613200577f4e487b7100000000000000000000000000000000000000000000000000000000600052603260045260246000fd5b906000526020600020015490508060098381548110613248577f4e487b7100000000000000000000000000000000000000000000000000000000600052603260045260246000fd5b906000526020600020018190555081600a600083815260200190815260200160002081905550600a60008581526020019081526020016000206000905560098054806132bd577f4e487b7100000000000000000000000000000000000000000000000000000000600052603160045260246000fd5b6001900381819060005260206000200160009055905550505050565b60006132e48361123c565b905081600760008573ffffffffffffffffffffffffffffffffffffffff1673ffffffffffffffffffffffffffffffffffffffff168152602001908152602001600020600083815260200190815260200160002081905550806008600084815260200190815260200160002081905550505050565b600073ffffffffffffffffffffffffffffffffffffffff168273ffffffffffffffffffffffffffffffffffffffff1614156133c8576040517f08c379a00000000000000000000000000000000000000000000000000000000081526004016133bf906141e7565b60405180910390fd5b6133d1816120a5565b15613411576040517f08c379a000000000000000000000000000000000000000000000000000000000815260040161340890614107565b60405180910390fd5b61341d60008383612c38565b6001600460008473ffffffffffffffffffffffffffffffffffffffff1673ffffffffffffffffffffffffffffffffffffffff168152602001908152602001600020600082825461346d91906143d4565b92505081905550816003600083815260200190815260200160002060006101000a81548173ffffffffffffffffffffffffffffffffffffffff021916908373ffffffffffffffffffffffffffffffffffffffff160217905550808273ffffffffffffffffffffffffffffffffffffffff16600073ffffffffffffffffffffffffffffffffffffffff167fddf252ad1be2c89b69c2b068fc378daa952ba7f163c4a11628f55a4df523b3ef60405160405180910390a45050565b600080823b905060008111915050919050565b6040518060a001604052806005905b60608152602001906001900390816135485790505090565b600061357361356e84614327565b614302565b90508281526020810184848401111561358b57600080fd5b61359684828561455d565b509392505050565b6000813590506135ad81614dd0565b92915050565b6000813590506135c281614de7565b92915050565b6000813590506135d781614dfe565b92915050565b6000815190506135ec81614dfe565b92915050565b600082601f83011261360357600080fd5b8135613613848260208601613560565b91505092915050565b60008083601f84011261362e57600080fd5b8235905067ffffffffffffffff81111561364757600080fd5b60208301915083600182028301111561365f57600080fd5b9250929050565b60008135905061367581614e15565b92915050565b60006020828403121561368d57600080fd5b600061369b8482850161359e565b91505092915050565b600080604083850312156136b757600080fd5b60006136c58582860161359e565b92505060206136d68582860161359e565b9150509250929050565b6000806000606084860312156136f557600080fd5b60006137038682870161359e565b93505060206137148682870161359e565b925050604061372586828701613666565b9150509250925092565b6000806000806080858703121561374557600080fd5b60006137538782880161359e565b94505060206137648782880161359e565b935050604061377587828801613666565b925050606085013567ffffffffffffffff81111561379257600080fd5b61379e878288016135f2565b91505092959194509250565b600080604083850312156137bd57600080fd5b60006137cb8582860161359e565b92505060206137dc858286016135b3565b9150509250929050565b6000806000604084860312156137fb57600080fd5b60006138098682870161359e565b935050602084013567ffffffffffffffff81111561382657600080fd5b6138328682870161361c565b92509250509250925092565b6000806040838503121561385157600080fd5b600061385f8582860161359e565b925050602061387085828601613666565b9150509250929050565b60006020828403121561388c57600080fd5b600061389a848285016135c8565b91505092915050565b6000602082840312156138b557600080fd5b60006138c3848285016135dd565b91505092915050565b6000602082840312156138de57600080fd5b60006138ec84828501613666565b91505092915050565b6000806040838503121561390857600080fd5b600061391685828601613666565b925050602061392785828601613666565b9150509250929050565b600061393d8383613e00565b60208301905092915050565b613952816144e9565b82525050565b600061396382614368565b61396d8185614396565b935061397883614358565b8060005b838110156139a95781516139908882613931565b975061399b83614389565b92505060018101905061397c565b5085935050505092915050565b6139bf816144fb565b82525050565b60006139d082614373565b6139da81856143a7565b93506139ea81856020860161456c565b6139f381614738565b840191505092915050565b6000613a0a83856143b8565b9350613a1783858461455d565b613a2083614738565b840190509392505050565b6000613a368261437e565b613a4081856143b8565b9350613a5081856020860161456c565b613a5981614738565b840191505092915050565b6000613a6f8261437e565b613a7981856143c9565b9350613a8981856020860161456c565b80840191505092915050565b6000613aa2600b836143b8565b9150613aad82614749565b602082019050919050565b6000613ac5601a836143b8565b9150613ad082614772565b602082019050919050565b6000613ae8602b836143b8565b9150613af38261479b565b604082019050919050565b6000613b0b6032836143b8565b9150613b16826147ea565b604082019050919050565b6000613b2e6026836143b8565b9150613b3982614839565b604082019050919050565b6000613b51601c836143b8565b9150613b5c82614888565b602082019050919050565b6000613b746024836143b8565b9150613b7f826148b1565b604082019050919050565b6000613b976019836143b8565b9150613ba282614900565b602082019050919050565b6000613bba602c836143b8565b9150613bc582614929565b604082019050919050565b6000613bdd6038836143b8565b9150613be882614978565b604082019050919050565b6000613c00602a836143b8565b9150613c0b826149c7565b604082019050919050565b6000613c236029836143b8565b9150613c2e82614a16565b604082019050919050565b6000613c466002836143c9565b9150613c5182614a65565b600282019050919050565b6000613c696020836143b8565b9150613c7482614a8e565b602082019050919050565b6000613c8c6014836143c9565b9150613c9782614ab7565b601482019050919050565b6000613caf602c836143b8565b9150613cba82614ae0565b604082019050919050565b6000613cd26084836143c9565b9150613cdd82614b2f565b608482019050919050565b6000613cf56020836143b8565b9150613d0082614bf0565b602082019050919050565b6000613d186029836143b8565b9150613d2382614c19565b604082019050919050565b6000613d3b6021836143b8565b9150613d4682614c68565b604082019050919050565b6000613d5e601d836143c9565b9150613d6982614cb7565b601d82019050919050565b6000613d816031836143b8565b9150613d8c82614ce0565b604082019050919050565b6000613da4602c836143b8565b9150613daf82614d2f565b604082019050919050565b6000613dc76002836143c9565b9150613dd282614d7e565b600282019050919050565b6000613dea6008836143b8565b9150613df582614da7565b602082019050919050565b613e0981614553565b82525050565b613e1881614553565b82525050565b6000613e2a8284613a64565b915081905092915050565b6000613e418285613a64565b9150613e4d8284613a64565b91508190509392505050565b6000613e658286613a64565b9150613e718285613a64565b9150613e7d8284613a64565b9150819050949350505050565b6000613e968288613a64565b9150613ea28287613a64565b9150613eae8286613a64565b9150613eba8285613a64565b9150613ec68284613a64565b91508190509695505050505050565b6000613ee082613c7f565b9150613eec8286613a64565b9150613ef782613dba565b9150613f038285613a64565b9150613f0e82613cc5565b9150613f1a8284613a64565b9150613f2582613c39565b9150819050949350505050565b6000613f3d82613d51565b9150613f498284613a64565b915081905092915050565b6000602082019050613f696000830184613949565b92915050565b6000608082019050613f846000830187613949565b613f916020830186613949565b613f9e6040830185613e0f565b8181036060830152613fb081846139c5565b905095945050505050565b6000604082019050613fd06000830185613949565b613fdd6020830184613e0f565b9392505050565b60006020820190508181036000830152613ffe8184613958565b905092915050565b600060208201905061401b60008301846139b6565b92915050565b6000602082019050818103600083015261403c8184866139fe565b90509392505050565b6000602082019050818103600083015261405f8184613a2b565b905092915050565b6000602082019050818103600083015261408081613a95565b9050919050565b600060208201905081810360008301526140a081613ab8565b9050919050565b600060208201905081810360008301526140c081613adb565b9050919050565b600060208201905081810360008301526140e081613afe565b9050919050565b6000602082019050818103600083015261410081613b21565b9050919050565b6000602082019050818103600083015261412081613b44565b9050919050565b6000602082019050818103600083015261414081613b67565b9050919050565b6000602082019050818103600083015261416081613b8a565b9050919050565b6000602082019050818103600083015261418081613bad565b9050919050565b600060208201905081810360008301526141a081613bd0565b9050919050565b600060208201905081810360008301526141c081613bf3565b9050919050565b600060208201905081810360008301526141e081613c16565b9050919050565b6000602082019050818103600083015261420081613c5c565b9050919050565b6000602082019050818103600083015261422081613ca2565b9050919050565b6000602082019050818103600083015261424081613ce8565b9050919050565b6000602082019050818103600083015261426081613d0b565b9050919050565b6000602082019050818103600083015261428081613d2e565b9050919050565b600060208201905081810360008301526142a081613d74565b9050919050565b600060208201905081810360008301526142c081613d97565b9050919050565b600060208201905081810360008301526142e081613ddd565b9050919050565b60006020820190506142fc6000830184613e0f565b92915050565b600061430c61431d565b905061431882826145d1565b919050565b6000604051905090565b600067ffffffffffffffff82111561434257614341614709565b5b61434b82614738565b9050602081019050919050565b6000819050602082019050919050565b600081519050919050565b600081519050919050565b600081519050919050565b6000602082019050919050565b600082825260208201905092915050565b600082825260208201905092915050565b600082825260208201905092915050565b600081905092915050565b60006143df82614553565b91506143ea83614553565b9250827fffffffffffffffffffffffffffffffffffffffffffffffffffffffffffffffff0382111561441f5761441e61467c565b5b828201905092915050565b600061443582614553565b915061444083614553565b9250826144505761444f6146ab565b5b828204905092915050565b600061446682614553565b915061447183614553565b9250817fffffffffffffffffffffffffffffffffffffffffffffffffffffffffffffffff04831182151516156144aa576144a961467c565b5b828202905092915050565b60006144c082614553565b91506144cb83614553565b9250828210156144de576144dd61467c565b5b828203905092915050565b60006144f482614533565b9050919050565b60008115159050919050565b60007fffffffff0000000000000000000000000000000000000000000000000000000082169050919050565b600073ffffffffffffffffffffffffffffffffffffffff82169050919050565b6000819050919050565b82818337600083830152505050565b60005b8381101561458a57808201518184015260208101905061456f565b83811115614599576000848401525b50505050565b600060028204905060018216806145b757607f821691505b602082108114156145cb576145ca6146da565b5b50919050565b6145da82614738565b810181811067ffffffffffffffff821117156145f9576145f8614709565b5b80604052505050565b600061460d82614553565b91507fffffffffffffffffffffffffffffffffffffffffffffffffffffffffffffffff8214156146405761463f61467c565b5b600182019050919050565b600061465682614553565b915061466183614553565b925082614671576146706146ab565b5b828206905092915050565b7f4e487b7100000000000000000000000000000000000000000000000000000000600052601160045260246000fd5b7f4e487b7100000000000000000000000000000000000000000000000000000000600052601260045260246000fd5b7f4e487b7100000000000000000000000000000000000000000000000000000000600052602260045260246000fd5b7f4e487b7100000000000000000000000000000000000000000000000000000000600052604160045260246000fd5b6000601f19601f8301169050919050565b7f6465737469747574696f6e000000000000000000000000000000000000000000600082015250565b7f45524332393831526f79616c746965733a20546f6f2068696768000000000000600082015250565b7f455243373231456e756d657261626c653a206f776e657220696e646578206f7560008201527f74206f6620626f756e6473000000000000000000000000000000000000000000602082015250565b7f4552433732313a207472616e7366657220746f206e6f6e20455243373231526560008201527f63656976657220696d706c656d656e7465720000000000000000000000000000602082015250565b7f4f776e61626c653a206e6577206f776e657220697320746865207a65726f206160008201527f6464726573730000000000000000000000000000000000000000000000000000602082015250565b7f4552433732313a20746f6b656e20616c7265616479206d696e74656400000000600082015250565b7f4552433732313a207472616e7366657220746f20746865207a65726f2061646460008201527f7265737300000000000000000000000000000000000000000000000000000000602082015250565b7f4552433732313a20617070726f766520746f2063616c6c657200000000000000600082015250565b7f4552433732313a206f70657261746f7220717565727920666f72206e6f6e657860008201527f697374656e7420746f6b656e0000000000000000000000000000000000000000602082015250565b7f4552433732313a20617070726f76652063616c6c6572206973206e6f74206f7760008201527f6e6572206e6f7220617070726f76656420666f7220616c6c0000000000000000602082015250565b7f4552433732313a2062616c616e636520717565727920666f7220746865207a6560008201527f726f206164647265737300000000000000000000000000000000000000000000602082015250565b7f4552433732313a206f776e657220717565727920666f72206e6f6e657869737460008201527f656e7420746f6b656e0000000000000000000000000000000000000000000000602082015250565b7f227d000000000000000000000000000000000000000000000000000000000000600082015250565b7f4552433732313a206d696e7420746f20746865207a65726f2061646472657373600082015250565b7f7b226e616d65223a202241727469666163742023000000000000000000000000600082015250565b7f4552433732313a20617070726f76656420717565727920666f72206e6f6e657860008201527f697374656e7420746f6b656e0000000000000000000000000000000000000000602082015250565b7f222c20226465736372697074696f6e223a202253746f726d57696e647320617260008201527f7469666163747320617265207573656420746f20636f6e74726f6c207468652060208201527f73746f726d73207468726f7567686f757420746865207265616c6d732e222c2060408201527f22696d616765223a2022646174613a696d6167652f7376672b786d6c3b62617360608201527f6536342c00000000000000000000000000000000000000000000000000000000608082015250565b7f4f776e61626c653a2063616c6c6572206973206e6f7420746865206f776e6572600082015250565b7f4552433732313a207472616e73666572206f6620746f6b656e2074686174206960008201527f73206e6f74206f776e0000000000000000000000000000000000000000000000602082015250565b7f4552433732313a20617070726f76616c20746f2063757272656e74206f776e6560008201527f7200000000000000000000000000000000000000000000000000000000000000602082015250565b7f646174613a6170706c69636174696f6e2f6a736f6e3b6261736536342c000000600082015250565b7f4552433732313a207472616e736665722063616c6c6572206973206e6f74206f60008201527f776e6572206e6f7220617070726f766564000000000000000000000000000000602082015250565b7f455243373231456e756d657261626c653a20676c6f62616c20696e646578206f60008201527f7574206f6620626f756e64730000000000000000000000000000000000000000602082015250565b7f3a20000000000000000000000000000000000000000000000000000000000000600082015250565b7f646f726d616e6379000000000000000000000000000000000000000000000000600082015250565b614dd9816144e9565b8114614de457600080fd5b50565b614df0816144fb565b8114614dfb57600080fd5b50565b614e0781614507565b8114614e1257600080fd5b50565b614e1e81614553565b8114614e2957600080fd5b5056fe3c73766720786d6c6e733d22687474703a2f2f7777772e77332e6f72672f323030302f73766722207072657365727665417370656374526174696f3d22784d696e594d696e206d656574222076696577426f783d223020302033353020333530223e3c7374796c653e2e62617365207b2066696c6c3a2077686974653b20666f6e742d66616d696c793a2073657269663b20666f6e742d73697a653a20313470783b207d3c2f7374796c653e3c726563742077696474683d223130302522206865696768743d2231303025222066696c6c3d22626c61636b22202f3e3c7465787420783d2231302220793d2232302220636c6173733d2262617365223e4142434445464748494a4b4c4d4e4f505152535455565758595a6162636465666768696a6b6c6d6e6f707172737475767778797a303132333435363738392b2fa26469706673582212209f1a6e63bc5ed5498dbb66884ef6883b622fd713a37730204c2b6c29f22ec3ef64736f6c63430008040033",
  "devdoc": {
    "kind": "dev",
    "methods": {
      "approve(address,uint256)": {
        "details": "See {IERC721-approve}."
      },
      "balanceOf(address)": {
        "details": "See {IERC721-balanceOf}."
      },
      "getApproved(uint256)": {
        "details": "See {IERC721-getApproved}."
      },
      "isApprovedForAll(address,address)": {
        "details": "See {IERC721-isApprovedForAll}."
      },
      "name()": {
        "details": "See {IERC721Metadata-name}."
      },
      "owner()": {
        "details": "Returns the address of the current owner."
      },
      "ownerOf(uint256)": {
        "details": "See {IERC721-ownerOf}."
      },
      "renounceOwnership()": {
        "details": "Leaves the contract without owner. It will not be possible to call `onlyOwner` functions anymore. Can only be called by the current owner. NOTE: Renouncing ownership will leave the contract without an owner, thereby removing any functionality that is only available to the owner."
      },
      "royaltyInfo(uint256,uint256)": {
        "params": {
          "_tokenId": "- the NFT asset queried for royalty information",
          "_value": "- the sale price of the NFT asset specified by _tokenId"
        },
        "returns": {
          "receiver": "- address of who should be sent the royalty payment",
          "royaltyAmount": "- the royalty payment amount for value sale price"
        }
      },
      "safeTransferFrom(address,address,uint256)": {
        "details": "See {IERC721-safeTransferFrom}."
      },
      "safeTransferFrom(address,address,uint256,bytes)": {
        "details": "See {IERC721-safeTransferFrom}."
      },
      "setApprovalForAll(address,bool)": {
        "details": "See {IERC721-setApprovalForAll}."
      },
      "setRoyalties(address,uint256)": {
        "details": "Sets token royalties",
        "params": {
          "recipient": "recipient of the royalties",
          "value": "percentage (using 2 decimals - 10000 = 100, 0 = 0)"
        }
      },
      "supportsInterface(bytes4)": {
        "details": "See {IERC165-supportsInterface}."
      },
      "symbol()": {
        "details": "See {IERC721Metadata-symbol}."
      },
      "tokenByIndex(uint256)": {
        "details": "See {IERC721Enumerable-tokenByIndex}."
      },
      "tokenOfOwnerByIndex(address,uint256)": {
        "details": "See {IERC721Enumerable-tokenOfOwnerByIndex}."
      },
      "tokenURI(uint256)": {
        "details": "See {IERC721Metadata-tokenURI}."
      },
      "totalSupply()": {
        "details": "See {IERC721Enumerable-totalSupply}."
      },
      "transferFrom(address,address,uint256)": {
        "details": "See {IERC721-transferFrom}."
      },
      "transferOwnership(address)": {
        "details": "Transfers ownership of the contract to a new account (`newOwner`). Can only be called by the current owner."
      }
    },
    "version": 1
  },
  "userdoc": {
    "kind": "user",
    "methods": {},
    "version": 1
  },
  "storageLayout": {
    "storage": [
      {
        "astId": 7,
        "contract": "contracts/Artifacts.sol:Artifacts",
        "label": "_owner",
        "offset": 0,
        "slot": "0",
        "type": "t_address"
      },
      {
        "astId": 129,
        "contract": "contracts/Artifacts.sol:Artifacts",
        "label": "_name",
        "offset": 0,
        "slot": "1",
        "type": "t_string_storage"
      },
      {
        "astId": 131,
        "contract": "contracts/Artifacts.sol:Artifacts",
        "label": "_symbol",
        "offset": 0,
        "slot": "2",
        "type": "t_string_storage"
      },
      {
        "astId": 135,
        "contract": "contracts/Artifacts.sol:Artifacts",
        "label": "_owners",
        "offset": 0,
        "slot": "3",
        "type": "t_mapping(t_uint256,t_address)"
      },
      {
        "astId": 139,
        "contract": "contracts/Artifacts.sol:Artifacts",
        "label": "_balances",
        "offset": 0,
        "slot": "4",
        "type": "t_mapping(t_address,t_uint256)"
      },
      {
        "astId": 143,
        "contract": "contracts/Artifacts.sol:Artifacts",
        "label": "_tokenApprovals",
        "offset": 0,
        "slot": "5",
        "type": "t_mapping(t_uint256,t_address)"
      },
      {
        "astId": 149,
        "contract": "contracts/Artifacts.sol:Artifacts",
        "label": "_operatorApprovals",
        "offset": 0,
        "slot": "6",
        "type": "t_mapping(t_address,t_mapping(t_address,t_bool))"
      },
      {
        "astId": 1068,
        "contract": "contracts/Artifacts.sol:Artifacts",
        "label": "_ownedTokens",
        "offset": 0,
        "slot": "7",
        "type": "t_mapping(t_address,t_mapping(t_uint256,t_uint256))"
      },
      {
        "astId": 1072,
        "contract": "contracts/Artifacts.sol:Artifacts",
        "label": "_ownedTokensIndex",
        "offset": 0,
        "slot": "8",
        "type": "t_mapping(t_uint256,t_uint256)"
      },
      {
        "astId": 1075,
        "contract": "contracts/Artifacts.sol:Artifacts",
        "label": "_allTokens",
        "offset": 0,
        "slot": "9",
        "type": "t_array(t_uint256)dyn_storage"
      },
      {
        "astId": 1079,
        "contract": "contracts/Artifacts.sol:Artifacts",
        "label": "_allTokensIndex",
        "offset": 0,
        "slot": "10",
        "type": "t_mapping(t_uint256,t_uint256)"
      },
      {
        "astId": 2804,
        "contract": "contracts/Artifacts.sol:Artifacts",
        "label": "_royaltiesRecipient",
        "offset": 0,
        "slot": "11",
        "type": "t_address"
      },
      {
        "astId": 2806,
        "contract": "contracts/Artifacts.sol:Artifacts",
        "label": "_royaltiesValue",
        "offset": 0,
        "slot": "12",
        "type": "t_uint256"
      },
      {
        "astId": 2045,
        "contract": "contracts/Artifacts.sol:Artifacts",
        "label": "currentAvailability",
        "offset": 0,
        "slot": "13",
        "type": "t_uint256"
      },
      {
        "astId": 2048,
        "contract": "contracts/Artifacts.sol:Artifacts",
        "label": "currentConjured",
        "offset": 0,
        "slot": "14",
        "type": "t_uint256"
      },
      {
        "astId": 2051,
        "contract": "contracts/Artifacts.sol:Artifacts",
        "label": "currentPrice",
        "offset": 0,
        "slot": "15",
        "type": "t_uint256"
      },
      {
        "astId": 2080,
        "contract": "contracts/Artifacts.sol:Artifacts",
        "label": "classification",
        "offset": 0,
        "slot": "16",
        "type": "t_array(t_string_storage)dyn_storage"
      },
      {
        "astId": 2089,
        "contract": "contracts/Artifacts.sol:Artifacts",
        "label": "storm",
        "offset": 0,
        "slot": "17",
        "type": "t_array(t_string_storage)dyn_storage"
      },
      {
        "astId": 2101,
        "contract": "contracts/Artifacts.sol:Artifacts",
        "label": "gear",
        "offset": 0,
        "slot": "18",
        "type": "t_array(t_string_storage)dyn_storage"
      }
    ],
    "types": {
      "t_address": {
        "encoding": "inplace",
        "label": "address",
        "numberOfBytes": "20"
      },
      "t_array(t_string_storage)dyn_storage": {
        "base": "t_string_storage",
        "encoding": "dynamic_array",
        "label": "string[]",
        "numberOfBytes": "32"
      },
      "t_array(t_uint256)dyn_storage": {
        "base": "t_uint256",
        "encoding": "dynamic_array",
        "label": "uint256[]",
        "numberOfBytes": "32"
      },
      "t_bool": {
        "encoding": "inplace",
        "label": "bool",
        "numberOfBytes": "1"
      },
      "t_mapping(t_address,t_bool)": {
        "encoding": "mapping",
        "key": "t_address",
        "label": "mapping(address => bool)",
        "numberOfBytes": "32",
        "value": "t_bool"
      },
      "t_mapping(t_address,t_mapping(t_address,t_bool))": {
        "encoding": "mapping",
        "key": "t_address",
        "label": "mapping(address => mapping(address => bool))",
        "numberOfBytes": "32",
        "value": "t_mapping(t_address,t_bool)"
      },
      "t_mapping(t_address,t_mapping(t_uint256,t_uint256))": {
        "encoding": "mapping",
        "key": "t_address",
        "label": "mapping(address => mapping(uint256 => uint256))",
        "numberOfBytes": "32",
        "value": "t_mapping(t_uint256,t_uint256)"
      },
      "t_mapping(t_address,t_uint256)": {
        "encoding": "mapping",
        "key": "t_address",
        "label": "mapping(address => uint256)",
        "numberOfBytes": "32",
        "value": "t_uint256"
      },
      "t_mapping(t_uint256,t_address)": {
        "encoding": "mapping",
        "key": "t_uint256",
        "label": "mapping(uint256 => address)",
        "numberOfBytes": "32",
        "value": "t_address"
      },
      "t_mapping(t_uint256,t_uint256)": {
        "encoding": "mapping",
        "key": "t_uint256",
        "label": "mapping(uint256 => uint256)",
        "numberOfBytes": "32",
        "value": "t_uint256"
      },
      "t_string_storage": {
        "encoding": "bytes",
        "label": "string",
        "numberOfBytes": "32"
      },
      "t_uint256": {
        "encoding": "inplace",
        "label": "uint256",
        "numberOfBytes": "32"
      }
    }
  }
}