{
  "address": "0x91286d351fC27F489Ae32897DEc095E342BF0c0c",
  "abi": [
    {
      "inputs": [],
      "stateMutability": "nonpayable",
      "type": "constructor"
    },
    {
      "anonymous": false,
      "inputs": [
        {
          "indexed": true,
          "internalType": "address",
          "name": "owner",
          "type": "address"
        },
        {
          "indexed": true,
          "internalType": "address",
          "name": "approved",
          "type": "address"
        },
        {
          "indexed": true,
          "internalType": "uint256",
          "name": "tokenId",
          "type": "uint256"
        }
      ],
      "name": "Approval",
      "type": "event"
    },
    {
      "anonymous": false,
      "inputs": [
        {
          "indexed": true,
          "internalType": "address",
          "name": "owner",
          "type": "address"
        },
        {
          "indexed": true,
          "internalType": "address",
          "name": "operator",
          "type": "address"
        },
        {
          "indexed": false,
          "internalType": "bool",
          "name": "approved",
          "type": "bool"
        }
      ],
      "name": "ApprovalForAll",
      "type": "event"
    },
    {
      "anonymous": false,
      "inputs": [
        {
          "indexed": true,
          "internalType": "address",
          "name": "previousOwner",
          "type": "address"
        },
        {
          "indexed": true,
          "internalType": "address",
          "name": "newOwner",
          "type": "address"
        }
      ],
      "name": "OwnershipTransferred",
      "type": "event"
    },
    {
      "anonymous": false,
      "inputs": [
        {
          "indexed": true,
          "internalType": "address",
          "name": "from",
          "type": "address"
        },
        {
          "indexed": true,
          "internalType": "address",
          "name": "to",
          "type": "address"
        },
        {
          "indexed": true,
          "internalType": "uint256",
          "name": "tokenId",
          "type": "uint256"
        }
      ],
      "name": "Transfer",
      "type": "event"
    },
    {
      "inputs": [
        {
          "internalType": "address",
          "name": "to",
          "type": "address"
        },
        {
          "internalType": "uint256",
          "name": "tokenId",
          "type": "uint256"
        }
      ],
      "name": "approve",
      "outputs": [],
      "stateMutability": "nonpayable",
      "type": "function"
    },
    {
      "inputs": [
        {
          "internalType": "address",
          "name": "owner",
          "type": "address"
        }
      ],
      "name": "balanceOf",
      "outputs": [
        {
          "internalType": "uint256",
          "name": "",
          "type": "uint256"
        }
      ],
      "stateMutability": "view",
      "type": "function"
    },
    {
      "inputs": [],
      "name": "conjureArtifact",
      "outputs": [],
      "stateMutability": "payable",
      "type": "function"
    },
    {
      "inputs": [
        {
          "internalType": "uint256",
          "name": "tokenId",
          "type": "uint256"
        }
      ],
      "name": "getApproved",
      "outputs": [
        {
          "internalType": "address",
          "name": "",
          "type": "address"
        }
      ],
      "stateMutability": "view",
      "type": "function"
    },
    {
      "inputs": [
        {
          "internalType": "uint256",
          "name": "tokenId",
          "type": "uint256"
        }
      ],
      "name": "getClassification",
      "outputs": [
        {
          "internalType": "string",
          "name": "",
          "type": "string"
        }
      ],
      "stateMutability": "view",
      "type": "function"
    },
    {
      "inputs": [
        {
          "internalType": "uint256",
          "name": "tokenId",
          "type": "uint256"
        }
      ],
      "name": "getGear",
      "outputs": [
        {
          "internalType": "string",
          "name": "",
          "type": "string"
        }
      ],
      "stateMutability": "view",
      "type": "function"
    },
    {
      "inputs": [
        {
          "internalType": "uint256",
          "name": "tokenId",
          "type": "uint256"
        }
      ],
      "name": "getStorm",
      "outputs": [
        {
          "internalType": "string",
          "name": "",
          "type": "string"
        }
      ],
      "stateMutability": "view",
      "type": "function"
    },
    {
      "inputs": [
        {
          "internalType": "address",
          "name": "_adventurer",
          "type": "address"
        },
        {
          "internalType": "string",
          "name": "_type",
          "type": "string"
        }
      ],
      "name": "hasHelm",
      "outputs": [
        {
          "internalType": "bool",
          "name": "",
          "type": "bool"
        }
      ],
      "stateMutability": "view",
      "type": "function"
    },
    {
      "inputs": [
        {
          "internalType": "address",
          "name": "owner",
          "type": "address"
        },
        {
          "internalType": "address",
          "name": "operator",
          "type": "address"
        }
      ],
      "name": "isApprovedForAll",
      "outputs": [
        {
          "internalType": "bool",
          "name": "",
          "type": "bool"
        }
      ],
      "stateMutability": "view",
      "type": "function"
    },
    {
      "inputs": [
        {
          "internalType": "uint256",
          "name": "_max",
          "type": "uint256"
        }
      ],
      "name": "makeAvailable",
      "outputs": [],
      "stateMutability": "nonpayable",
      "type": "function"
    },
    {
      "inputs": [],
      "name": "name",
      "outputs": [
        {
          "internalType": "string",
          "name": "",
          "type": "string"
        }
      ],
      "stateMutability": "view",
      "type": "function"
    },
    {
      "inputs": [],
      "name": "owner",
      "outputs": [
        {
          "internalType": "address",
          "name": "",
          "type": "address"
        }
      ],
      "stateMutability": "view",
      "type": "function"
    },
    {
      "inputs": [],
      "name": "ownerClaim",
      "outputs": [],
      "stateMutability": "nonpayable",
      "type": "function"
    },
    {
      "inputs": [
        {
          "internalType": "uint256",
          "name": "tokenId",
          "type": "uint256"
        }
      ],
      "name": "ownerOf",
      "outputs": [
        {
          "internalType": "address",
          "name": "",
          "type": "address"
        }
      ],
      "stateMutability": "view",
      "type": "function"
    },
    {
      "inputs": [],
      "name": "renounceOwnership",
      "outputs": [],
      "stateMutability": "nonpayable",
      "type": "function"
    },
    {
      "inputs": [
        {
          "internalType": "uint256",
          "name": "",
          "type": "uint256"
        },
        {
          "internalType": "uint256",
          "name": "value",
          "type": "uint256"
        }
      ],
      "name": "royaltyInfo",
      "outputs": [
        {
          "internalType": "address",
          "name": "receiver",
          "type": "address"
        },
        {
          "internalType": "uint256",
          "name": "royaltyAmount",
          "type": "uint256"
        }
      ],
      "stateMutability": "view",
      "type": "function"
    },
    {
      "inputs": [
        {
          "internalType": "address",
          "name": "from",
          "type": "address"
        },
        {
          "internalType": "address",
          "name": "to",
          "type": "address"
        },
        {
          "internalType": "uint256",
          "name": "tokenId",
          "type": "uint256"
        }
      ],
      "name": "safeTransferFrom",
      "outputs": [],
      "stateMutability": "nonpayable",
      "type": "function"
    },
    {
      "inputs": [
        {
          "internalType": "address",
          "name": "from",
          "type": "address"
        },
        {
          "internalType": "address",
          "name": "to",
          "type": "address"
        },
        {
          "internalType": "uint256",
          "name": "tokenId",
          "type": "uint256"
        },
        {
          "internalType": "bytes",
          "name": "_data",
          "type": "bytes"
        }
      ],
      "name": "safeTransferFrom",
      "outputs": [],
      "stateMutability": "nonpayable",
      "type": "function"
    },
    {
      "inputs": [
        {
          "internalType": "address",
          "name": "operator",
          "type": "address"
        },
        {
          "internalType": "bool",
          "name": "approved",
          "type": "bool"
        }
      ],
      "name": "setApprovalForAll",
      "outputs": [],
      "stateMutability": "nonpayable",
      "type": "function"
    },
    {
      "inputs": [
        {
          "internalType": "address",
          "name": "recipient",
          "type": "address"
        },
        {
          "internalType": "uint256",
          "name": "value",
          "type": "uint256"
        }
      ],
      "name": "setRoyalties",
      "outputs": [],
      "stateMutability": "nonpayable",
      "type": "function"
    },
    {
      "inputs": [
        {
          "internalType": "bytes4",
          "name": "interfaceId",
          "type": "bytes4"
        }
      ],
      "name": "supportsInterface",
      "outputs": [
        {
          "internalType": "bool",
          "name": "",
          "type": "bool"
        }
      ],
      "stateMutability": "view",
      "type": "function"
    },
    {
      "inputs": [],
      "name": "symbol",
      "outputs": [
        {
          "internalType": "string",
          "name": "",
          "type": "string"
        }
      ],
      "stateMutability": "view",
      "type": "function"
    },
    {
      "inputs": [
        {
          "internalType": "uint256",
          "name": "index",
          "type": "uint256"
        }
      ],
      "name": "tokenByIndex",
      "outputs": [
        {
          "internalType": "uint256",
          "name": "",
          "type": "uint256"
        }
      ],
      "stateMutability": "view",
      "type": "function"
    },
    {
      "inputs": [
        {
          "internalType": "address",
          "name": "owner",
          "type": "address"
        },
        {
          "internalType": "uint256",
          "name": "index",
          "type": "uint256"
        }
      ],
      "name": "tokenOfOwnerByIndex",
      "outputs": [
        {
          "internalType": "uint256",
          "name": "",
          "type": "uint256"
        }
      ],
      "stateMutability": "view",
      "type": "function"
    },
    {
      "inputs": [
        {
          "internalType": "uint256",
          "name": "tokenId",
          "type": "uint256"
        }
      ],
      "name": "tokenURI",
      "outputs": [
        {
          "internalType": "string",
          "name": "",
          "type": "string"
        }
      ],
      "stateMutability": "view",
      "type": "function"
    },
    {
      "inputs": [],
      "name": "totalSupply",
      "outputs": [
        {
          "internalType": "uint256",
          "name": "",
          "type": "uint256"
        }
      ],
      "stateMutability": "view",
      "type": "function"
    },
    {
      "inputs": [
        {
          "internalType": "address",
          "name": "from",
          "type": "address"
        },
        {
          "internalType": "address",
          "name": "to",
          "type": "address"
        },
        {
          "internalType": "uint256",
          "name": "tokenId",
          "type": "uint256"
        }
      ],
      "name": "transferFrom",
      "outputs": [],
      "stateMutability": "nonpayable",
      "type": "function"
    },
    {
      "inputs": [
        {
          "internalType": "address",
          "name": "newOwner",
          "type": "address"
        }
      ],
      "name": "transferOwnership",
      "outputs": [],
      "stateMutability": "nonpayable",
      "type": "function"
    }
  ],
  "transactionHash": "0xd6dee456710d4dd211dbbe08bbb698f63cb183d698d190b4e6dfe750d16a7f08",
  "args": [],
  "solcInputHash": "2e12c577a6cd06a99a35311371a80532",
  "bytecode": "0x608060405260c8600d556001600e5567016345785d8a0000600f556040518061014001604052806040518060400160405280600781526020017f416e6369656e740000000000000000000000000000000000000000000000000081525081526020016040518060400160405280600581526020017f52756e696300000000000000000000000000000000000000000000000000000081525081526020016040518060400160405280600881526020017f456c64726974636800000000000000000000000000000000000000000000000081525081526020016040518060400160405280600881526020017f4c6f76656c65737300000000000000000000000000000000000000000000000081525081526020016040518060400160405280600681526020017f556e64656164000000000000000000000000000000000000000000000000000081525081526020016040518060400160405280600681526020017f427269676874000000000000000000000000000000000000000000000000000081525081526020016040518060400160405280600481526020017f4461726b0000000000000000000000000000000000000000000000000000000081525081526020016040518060400160405280600481526020017f566f69640000000000000000000000000000000000000000000000000000000081525081526020016040518060400160405280600681526020017f4769616e7473000000000000000000000000000000000000000000000000000081525081526020016040518060400160405280600581526020017f456e6c696c000000000000000000000000000000000000000000000000000000815250815250601090600a6200028492919062000805565b506040518060a001604052806040518060400160405280600481526020017f466972650000000000000000000000000000000000000000000000000000000081525081526020016040518060400160405280600981526020017f4c696768746e696e67000000000000000000000000000000000000000000000081525081526020016040518060400160405280600481526020017f53616e640000000000000000000000000000000000000000000000000000000081525081526020016040518060400160405280600481526020017f57696e640000000000000000000000000000000000000000000000000000000081525081526020016040518060400160405280600381526020017f49636500000000000000000000000000000000000000000000000000000000008152508152506011906005620003c79291906200086c565b506040518061010001604052806040518060400160405280600481526020017f48656c6d0000000000000000000000000000000000000000000000000000000081525081526020016040518060400160405280600581526020017f536861726400000000000000000000000000000000000000000000000000000081525081526020016040518060400160405280600581526020017f506c61746500000000000000000000000000000000000000000000000000000081525081526020016040518060400160405280600581526020017f53776f726400000000000000000000000000000000000000000000000000000081525081526020016040518060400160405280600381526020017f47656d000000000000000000000000000000000000000000000000000000000081525081526020016040518060400160405280600481526020017f536565640000000000000000000000000000000000000000000000000000000081525081526020016040518060400160405280600681526020017f416d756c6574000000000000000000000000000000000000000000000000000081525081526020016040518060400160405280600781526020017f4372797374616c000000000000000000000000000000000000000000000000008152508152506012906008620005bc929190620008d3565b50348015620005ca57600080fd5b506040518060400160405280601481526020017f53746f726d57696e6473204172746966616374730000000000000000000000008152506040518060400160405280600581526020017f53544f524d000000000000000000000000000000000000000000000000000000815250620006576200064b620006a560201b60201c565b620006ad60201b60201c565b81600190805190602001906200066f9291906200093a565b508060029080519060200190620006889291906200093a565b5050506200069f336103e86200077160201b60201c565b62000b40565b600033905090565b60008060009054906101000a900473ffffffffffffffffffffffffffffffffffffffff169050816000806101000a81548173ffffffffffffffffffffffffffffffffffffffff021916908373ffffffffffffffffffffffffffffffffffffffff1602179055508173ffffffffffffffffffffffffffffffffffffffff168173ffffffffffffffffffffffffffffffffffffffff167f8be0079c531659141344cd1fd0a4f28419497f9722a3daafe3b4186f6b6457e060405160405180910390a35050565b612710811115620007b9576040517f08c379a0000000000000000000000000000000000000000000000000000000008152600401620007b09062000a7f565b60405180910390fd5b81600b60006101000a81548173ffffffffffffffffffffffffffffffffffffffff021916908373ffffffffffffffffffffffffffffffffffffffff16021790555080600c819055505050565b82805482825590600052602060002090810192821562000859579160200282015b8281111562000858578251829080519060200190620008479291906200093a565b509160200191906001019062000826565b5b509050620008689190620009cb565b5090565b828054828255906000526020600020908101928215620008c0579160200282015b82811115620008bf578251829080519060200190620008ae9291906200093a565b50916020019190600101906200088d565b5b509050620008cf9190620009cb565b5090565b82805482825590600052602060002090810192821562000927579160200282015b8281111562000926578251829080519060200190620009159291906200093a565b5091602001919060010190620008f4565b5b509050620009369190620009cb565b5090565b828054620009489062000ab2565b90600052602060002090601f0160209004810192826200096c5760008555620009b8565b82601f106200098757805160ff1916838001178555620009b8565b82800160010185558215620009b8579182015b82811115620009b75782518255916020019190600101906200099a565b5b509050620009c79190620009f3565b5090565b5b80821115620009ef5760008181620009e5919062000a12565b50600101620009cc565b5090565b5b8082111562000a0e576000816000905550600101620009f4565b5090565b50805462000a209062000ab2565b6000825580601f1062000a34575062000a55565b601f01602090049060005260206000209081019062000a549190620009f3565b5b50565b600062000a67601a8362000aa1565b915062000a748262000b17565b602082019050919050565b6000602082019050818103600083015262000a9a8162000a58565b9050919050565b600082825260208201905092915050565b6000600282049050600182168062000acb57607f821691505b6020821081141562000ae25762000ae162000ae8565b5b50919050565b7f4e487b7100000000000000000000000000000000000000000000000000000000600052602260045260246000fd5b7f45524332393831526f79616c746965733a20546f6f2068696768000000000000600082015250565b614c918062000b506000396000f3fe6080604052600436106101b75760003560e01c806370a08231116100ec578063a22cb4651161008a578063c87b56dd11610064578063c87b56dd14610622578063e5c946ab1461065f578063e985e9c51461069c578063f2fde38b146106d9576101b7565b8063a22cb465146105a7578063b88d4fde146105d0578063baa39e05146105f9576101b7565b80638c7ea24b116100c65780638c7ea24b1461051e5780638d2bfe05146105475780638da5cb5b1461055157806395d89b411461057c576101b7565b806370a082311461048d578063715018a6146104ca57806383196955146104e1576101b7565b80632a55205a116101595780634dbe5889116101335780634dbe5889146103bf5780634f6ccce7146103d65780635454d388146104135780636352211e14610450576101b7565b80632a55205a1461031b5780632f745c591461035957806342842e0e14610396576101b7565b8063095ea7b311610195578063095ea7b31461026157806318160ddd1461028a57806323b872dd146102b557806324845721146102de576101b7565b806301ffc9a7146101bc57806306fdde03146101f9578063081812fc14610224575b600080fd5b3480156101c857600080fd5b506101e360048036038101906101de919061364c565b610702565b6040516101f09190613d31565b60405180910390f35b34801561020557600080fd5b5061020e61077c565b60405161021b9190613d70565b60405180910390f35b34801561023057600080fd5b5061024b6004803603810190610246919061369e565b61080e565b6040516102589190613ca1565b60405180910390f35b34801561026d57600080fd5b5061028860048036038101906102839190613610565b610893565b005b34801561029657600080fd5b5061029f6109ab565b6040516102ac9190614012565b60405180910390f35b3480156102c157600080fd5b506102dc60048036038101906102d791906134b2565b6109b8565b005b3480156102ea57600080fd5b50610305600480360381019061030091906135b8565b610a18565b6040516103129190613d31565b60405180910390f35b34801561032757600080fd5b50610342600480360381019061033d91906136c7565b610c51565b604051610350929190613d08565b60405180910390f35b34801561036557600080fd5b50610380600480360381019061037b9190613610565b610c9d565b60405161038d9190614012565b60405180910390f35b3480156103a257600080fd5b506103bd60048036038101906103b891906134b2565b610d42565b005b3480156103cb57600080fd5b506103d4610d62565b005b3480156103e257600080fd5b506103fd60048036038101906103f8919061369e565b610deb565b60405161040a9190614012565b60405180910390f35b34801561041f57600080fd5b5061043a6004803603810190610435919061369e565b610e82565b6040516104479190613d70565b60405180910390f35b34801561045c57600080fd5b506104776004803603810190610472919061369e565b610f9c565b6040516104849190613ca1565b60405180910390f35b34801561049957600080fd5b506104b460048036038101906104af919061344d565b61104e565b6040516104c19190614012565b60405180910390f35b3480156104d657600080fd5b506104df611106565b005b3480156104ed57600080fd5b506105086004803603810190610503919061369e565b61118e565b6040516105159190613d70565b60405180910390f35b34801561052a57600080fd5b5061054560048036038101906105409190613610565b6112a8565b005b61054f611332565b005b34801561055d57600080fd5b506105666113e9565b6040516105739190613ca1565b60405180910390f35b34801561058857600080fd5b50610591611412565b60405161059e9190613d70565b60405180910390f35b3480156105b357600080fd5b506105ce60048036038101906105c9919061357c565b6114a4565b005b3480156105dc57600080fd5b506105f760048036038101906105f29190613501565b611625565b005b34801561060557600080fd5b50610620600480360381019061061b919061369e565b611687565b005b34801561062e57600080fd5b506106496004803603810190610644919061369e565b61172a565b6040516106569190613d70565b60405180910390f35b34801561066b57600080fd5b506106866004803603810190610681919061369e565b611b57565b6040516106939190613d70565b60405180910390f35b3480156106a857600080fd5b506106c360048036038101906106be9190613476565b611c71565b6040516106d09190613d31565b60405180910390f35b3480156106e557600080fd5b5061070060048036038101906106fb919061344d565b611d05565b005b60007f2a55205a000000000000000000000000000000000000000000000000000000007bffffffffffffffffffffffffffffffffffffffffffffffffffffffff1916827bffffffffffffffffffffffffffffffffffffffffffffffffffffffff19161480610775575061077482611dfd565b5b9050919050565b60606001805461078b90614291565b80601f01602080910402602001604051908101604052809291908181526020018280546107b790614291565b80156108045780601f106107d957610100808354040283529160200191610804565b820191906000526020600020905b8154815290600101906020018083116107e757829003601f168201915b5050505050905090565b600061081982611e77565b610858576040517f08c379a000000000000000000000000000000000000000000000000000000000815260040161084f90613f32565b60405180910390fd5b6005600083815260200190815260200160002060009054906101000a900473ffffffffffffffffffffffffffffffffffffffff169050919050565b600061089e82610f9c565b90508073ffffffffffffffffffffffffffffffffffffffff168373ffffffffffffffffffffffffffffffffffffffff16141561090f576040517f08c379a000000000000000000000000000000000000000000000000000000000815260040161090690613f92565b60405180910390fd5b8073ffffffffffffffffffffffffffffffffffffffff1661092e611ee3565b73ffffffffffffffffffffffffffffffffffffffff16148061095d575061095c81610957611ee3565b611c71565b5b61099c576040517f08c379a000000000000000000000000000000000000000000000000000000000815260040161099390613eb2565b60405180910390fd5b6109a68383611eeb565b505050565b6000600980549050905090565b6109c96109c3611ee3565b82611fa4565b610a08576040517f08c379a00000000000000000000000000000000000000000000000000000000081526004016109ff90613fb2565b60405180910390fd5b610a13838383612082565b505050565b600080610a248561104e565b905060005b81811015610c43576000610a3d8783610c9d565b90506000811415610a545760019350505050610c4a565b6004811015610ab357610a9d86866040518060400160405280600481526020017f66697265000000000000000000000000000000000000000000000000000000008152506122de565b15610aae5760019350505050610c4a565b610c2f565b6007811015610b1257610afc86866040518060400160405280600481526020017f73616e64000000000000000000000000000000000000000000000000000000008152506122de565b15610b0d5760019350505050610c4a565b610c2e565b600a811015610b7157610b5b86866040518060400160405280600381526020017f69636500000000000000000000000000000000000000000000000000000000008152506122de565b15610b6c5760019350505050610c4a565b610c2d565b600d811015610bd057610bba86866040518060400160405280600481526020017f77696e64000000000000000000000000000000000000000000000000000000008152506122de565b15610bcb5760019350505050610c4a565b610c2c565b6010811015610c2b57610c1986866040518060400160405280600981526020017f6c696768746e696e6700000000000000000000000000000000000000000000008152506122de565b15610c2a5760019350505050610c4a565b5b5b5b5b5b508080610c3b906142f4565b915050610a29565b5060009150505b9392505050565b600080600b60009054906101000a900473ffffffffffffffffffffffffffffffffffffffff16612710600c5485610c88919061414d565b610c92919061411c565b915091509250929050565b6000610ca88361104e565b8210610ce9576040517f08c379a0000000000000000000000000000000000000000000000000000000008152600401610ce090613dd2565b60405180910390fd5b600760008473ffffffffffffffffffffffffffffffffffffffff1673ffffffffffffffffffffffffffffffffffffffff168152602001908152602001600020600083815260200190815260200160002054905092915050565b610d5d83838360405180602001604052806000815250611625565b505050565b610d6a611ee3565b73ffffffffffffffffffffffffffffffffffffffff16610d886113e9565b73ffffffffffffffffffffffffffffffffffffffff1614610dde576040517f08c379a0000000000000000000000000000000000000000000000000000000008152600401610dd590613f52565b60405180910390fd5b610de933600061233a565b565b6000610df56109ab565b8210610e36576040517f08c379a0000000000000000000000000000000000000000000000000000000008152600401610e2d90613fd2565b60405180910390fd5b60098281548110610e70577f4e487b7100000000000000000000000000000000000000000000000000000000600052603260045260246000fd5b90600052602060002001549050919050565b6060610f95826040518060400160405280600481526020017f47454152000000000000000000000000000000000000000000000000000000008152506012805480602002602001604051908101604052809291908181526020016000905b82821015610f8c578382906000526020600020018054610eff90614291565b80601f0160208091040260200160405190810160405280929190818152602001828054610f2b90614291565b8015610f785780601f10610f4d57610100808354040283529160200191610f78565b820191906000526020600020905b815481529060010190602001808311610f5b57829003601f168201915b505050505081526020019060010190610ee0565b50505050612358565b9050919050565b6000806003600084815260200190815260200160002060009054906101000a900473ffffffffffffffffffffffffffffffffffffffff169050600073ffffffffffffffffffffffffffffffffffffffff168173ffffffffffffffffffffffffffffffffffffffff161415611045576040517f08c379a000000000000000000000000000000000000000000000000000000000815260040161103c90613ef2565b60405180910390fd5b80915050919050565b60008073ffffffffffffffffffffffffffffffffffffffff168273ffffffffffffffffffffffffffffffffffffffff1614156110bf576040517f08c379a00000000000000000000000000000000000000000000000000000000081526004016110b690613ed2565b60405180910390fd5b600460008373ffffffffffffffffffffffffffffffffffffffff1673ffffffffffffffffffffffffffffffffffffffff168152602001908152602001600020549050919050565b61110e611ee3565b73ffffffffffffffffffffffffffffffffffffffff1661112c6113e9565b73ffffffffffffffffffffffffffffffffffffffff1614611182576040517f08c379a000000000000000000000000000000000000000000000000000000000815260040161117990613f52565b60405180910390fd5b61118c600061240c565b565b60606112a1826040518060400160405280600581526020017f53544f524d0000000000000000000000000000000000000000000000000000008152506011805480602002602001604051908101604052809291908181526020016000905b8282101561129857838290600052602060002001805461120b90614291565b80601f016020809104026020016040519081016040528092919081815260200182805461123790614291565b80156112845780601f1061125957610100808354040283529160200191611284565b820191906000526020600020905b81548152906001019060200180831161126757829003601f168201915b5050505050815260200190600101906111ec565b50505050612358565b9050919050565b6112b0611ee3565b73ffffffffffffffffffffffffffffffffffffffff166112ce6113e9565b73ffffffffffffffffffffffffffffffffffffffff1614611324576040517f08c379a000000000000000000000000000000000000000000000000000000000815260040161131b90613f52565b60405180910390fd5b61132e82826124d0565b5050565b600d54600e5410611378576040517f08c379a000000000000000000000000000000000000000000000000000000000815260040161136f90613ff2565b60405180910390fd5b600f543410156113bd576040517f08c379a00000000000000000000000000000000000000000000000000000000081526004016113b490613d92565b60405180910390fd5b6000600e549050600e60008154809291906113d7906142f4565b91905055506113e6338261233a565b50565b60008060009054906101000a900473ffffffffffffffffffffffffffffffffffffffff16905090565b60606002805461142190614291565b80601f016020809104026020016040519081016040528092919081815260200182805461144d90614291565b801561149a5780601f1061146f5761010080835404028352916020019161149a565b820191906000526020600020905b81548152906001019060200180831161147d57829003601f168201915b5050505050905090565b6114ac611ee3565b73ffffffffffffffffffffffffffffffffffffffff168273ffffffffffffffffffffffffffffffffffffffff16141561151a576040517f08c379a000000000000000000000000000000000000000000000000000000000815260040161151190613e72565b60405180910390fd5b8060066000611527611ee3565b73ffffffffffffffffffffffffffffffffffffffff1673ffffffffffffffffffffffffffffffffffffffff16815260200190815260200160002060008473ffffffffffffffffffffffffffffffffffffffff1673ffffffffffffffffffffffffffffffffffffffff16815260200190815260200160002060006101000a81548160ff0219169083151502179055508173ffffffffffffffffffffffffffffffffffffffff166115d4611ee3565b73ffffffffffffffffffffffffffffffffffffffff167f17307eab39ab6107e8899845ad3d59bd9653f200f220920489ca2b5937696c31836040516116199190613d31565b60405180910390a35050565b611636611630611ee3565b83611fa4565b611675576040517f08c379a000000000000000000000000000000000000000000000000000000000815260040161166c90613fb2565b60405180910390fd5b61168184848484612561565b50505050565b61168f611ee3565b73ffffffffffffffffffffffffffffffffffffffff166116ad6113e9565b73ffffffffffffffffffffffffffffffffffffffff1614611703576040517f08c379a00000000000000000000000000000000000000000000000000000000081526004016116fa90613f52565b60405180910390fd5b610fa081111561171257600080fd5b600d54811161172057600080fd5b80600d8190555050565b606061173461330b565b61173d83611b57565b81600060058110611777577f4e487b7100000000000000000000000000000000000000000000000000000000600052603260045260246000fd5b60200201819052506040518060400160405280600181526020017f2000000000000000000000000000000000000000000000000000000000000000815250816001600581106117ef577f4e487b7100000000000000000000000000000000000000000000000000000000600052603260045260246000fd5b60200201819052506118008361118e565b8160026005811061183a577f4e487b7100000000000000000000000000000000000000000000000000000000600052603260045260246000fd5b60200201819052506040518060400160405280600181526020017f2000000000000000000000000000000000000000000000000000000000000000815250816003600581106118b2577f4e487b7100000000000000000000000000000000000000000000000000000000600052603260045260246000fd5b60200201819052506118c383610e82565b816004600581106118fd577f4e487b7100000000000000000000000000000000000000000000000000000000600052603260045260246000fd5b6020020181905250600081600060058110611941577f4e487b7100000000000000000000000000000000000000000000000000000000600052603260045260246000fd5b602002015182600160058110611980577f4e487b7100000000000000000000000000000000000000000000000000000000600052603260045260246000fd5b6020020151836002600581106119bf577f4e487b7100000000000000000000000000000000000000000000000000000000600052603260045260246000fd5b6020020151846003600581106119fe577f4e487b7100000000000000000000000000000000000000000000000000000000600052603260045260246000fd5b602002015185600460058110611a3d577f4e487b7100000000000000000000000000000000000000000000000000000000600052603260045260246000fd5b6020020151604051602001611a56959493929190613bd7565b6040516020818303038152906040529050600060405180610120016040528060fd8152602001614b1f60fd9139905060006040518060400160405280600d81526020017f3c2f746578743e3c2f7376673e0000000000000000000000000000000000000081525090506000828483604051602001611ad693929190613ba6565b60405160208183030381529060405290506000611b25611af5896125bd565b86611aff8561276a565b604051602001611b1193929190613c22565b60405160208183030381529060405261276a565b905080604051602001611b389190613c7f565b6040516020818303038152906040529150819650505050505050919050565b6060611c6a826040518060400160405280600e81526020017f434c415353494649434154494f4e0000000000000000000000000000000000008152506010805480602002602001604051908101604052809291908181526020016000905b82821015611c61578382906000526020600020018054611bd490614291565b80601f0160208091040260200160405190810160405280929190818152602001828054611c0090614291565b8015611c4d5780601f10611c2257610100808354040283529160200191611c4d565b820191906000526020600020905b815481529060010190602001808311611c3057829003601f168201915b505050505081526020019060010190611bb5565b50505050612358565b9050919050565b6000600660008473ffffffffffffffffffffffffffffffffffffffff1673ffffffffffffffffffffffffffffffffffffffff16815260200190815260200160002060008373ffffffffffffffffffffffffffffffffffffffff1673ffffffffffffffffffffffffffffffffffffffff16815260200190815260200160002060009054906101000a900460ff16905092915050565b611d0d611ee3565b73ffffffffffffffffffffffffffffffffffffffff16611d2b6113e9565b73ffffffffffffffffffffffffffffffffffffffff1614611d81576040517f08c379a0000000000000000000000000000000000000000000000000000000008152600401611d7890613f52565b60405180910390fd5b600073ffffffffffffffffffffffffffffffffffffffff168173ffffffffffffffffffffffffffffffffffffffff161415611df1576040517f08c379a0000000000000000000000000000000000000000000000000000000008152600401611de890613e12565b60405180910390fd5b611dfa8161240c565b50565b60007f780e9d63000000000000000000000000000000000000000000000000000000007bffffffffffffffffffffffffffffffffffffffffffffffffffffffff1916827bffffffffffffffffffffffffffffffffffffffffffffffffffffffff19161480611e705750611e6f82612928565b5b9050919050565b60008073ffffffffffffffffffffffffffffffffffffffff166003600084815260200190815260200160002060009054906101000a900473ffffffffffffffffffffffffffffffffffffffff1673ffffffffffffffffffffffffffffffffffffffff1614159050919050565b600033905090565b816005600083815260200190815260200160002060006101000a81548173ffffffffffffffffffffffffffffffffffffffff021916908373ffffffffffffffffffffffffffffffffffffffff160217905550808273ffffffffffffffffffffffffffffffffffffffff16611f5e83610f9c565b73ffffffffffffffffffffffffffffffffffffffff167f8c5be1e5ebec7d5bd14f71427d1e84f3dd0314c0f7b2291e5b200ac8c7c3b92560405160405180910390a45050565b6000611faf82611e77565b611fee576040517f08c379a0000000000000000000000000000000000000000000000000000000008152600401611fe590613e92565b60405180910390fd5b6000611ff983610f9c565b90508073ffffffffffffffffffffffffffffffffffffffff168473ffffffffffffffffffffffffffffffffffffffff16148061206857508373ffffffffffffffffffffffffffffffffffffffff166120508461080e565b73ffffffffffffffffffffffffffffffffffffffff16145b8061207957506120788185611c71565b5b91505092915050565b8273ffffffffffffffffffffffffffffffffffffffff166120a282610f9c565b73ffffffffffffffffffffffffffffffffffffffff16146120f8576040517f08c379a00000000000000000000000000000000000000000000000000000000081526004016120ef90613f72565b60405180910390fd5b600073ffffffffffffffffffffffffffffffffffffffff168273ffffffffffffffffffffffffffffffffffffffff161415612168576040517f08c379a000000000000000000000000000000000000000000000000000000000815260040161215f90613e52565b60405180910390fd5b612173838383612a0a565b61217e600082611eeb565b6001600460008573ffffffffffffffffffffffffffffffffffffffff1673ffffffffffffffffffffffffffffffffffffffff16815260200190815260200160002060008282546121ce91906141a7565b925050819055506001600460008473ffffffffffffffffffffffffffffffffffffffff1673ffffffffffffffffffffffffffffffffffffffff168152602001908152602001600020600082825461222591906140c6565b92505081905550816003600083815260200190815260200160002060006101000a81548173ffffffffffffffffffffffffffffffffffffffff021916908373ffffffffffffffffffffffffffffffffffffffff160217905550808273ffffffffffffffffffffffffffffffffffffffff168473ffffffffffffffffffffffffffffffffffffffff167fddf252ad1be2c89b69c2b068fc378daa952ba7f163c4a11628f55a4df523b3ef60405160405180910390a4505050565b6000816040516020016122f19190613d70565b60405160208183030381529060405280519060200120848460405160200161231a929190613d4c565b604051602081830303815290604052805190602001201490509392505050565b612354828260405180602001604052806000815250612b1e565b5050565b6060600061238e84612369876125bd565b60405160200161237a929190613b82565b604051602081830303815290604052612b79565b90506000838451836123a0919061433d565b815181106123d7577f4e487b7100000000000000000000000000000000000000000000000000000000600052603260045260246000fd5b60200260200101516040516020016123ef9190613b6b565b604051602081830303815290604052905080925050509392505050565b60008060009054906101000a900473ffffffffffffffffffffffffffffffffffffffff169050816000806101000a81548173ffffffffffffffffffffffffffffffffffffffff021916908373ffffffffffffffffffffffffffffffffffffffff1602179055508173ffffffffffffffffffffffffffffffffffffffff168173ffffffffffffffffffffffffffffffffffffffff167f8be0079c531659141344cd1fd0a4f28419497f9722a3daafe3b4186f6b6457e060405160405180910390a35050565b612710811115612515576040517f08c379a000000000000000000000000000000000000000000000000000000000815260040161250c90613db2565b60405180910390fd5b81600b60006101000a81548173ffffffffffffffffffffffffffffffffffffffff021916908373ffffffffffffffffffffffffffffffffffffffff16021790555080600c819055505050565b61256c848484612082565b61257884848484612bac565b6125b7576040517f08c379a00000000000000000000000000000000000000000000000000000000081526004016125ae90613df2565b60405180910390fd5b50505050565b60606000821415612605576040518060400160405280600181526020017f30000000000000000000000000000000000000000000000000000000000000008152509050612765565b600082905060005b60008214612637578080612620906142f4565b915050600a82612630919061411c565b915061260d565b60008167ffffffffffffffff811115612679577f4e487b7100000000000000000000000000000000000000000000000000000000600052604160045260246000fd5b6040519080825280601f01601f1916602001820160405280156126ab5781602001600182028036833780820191505090505b5090505b6000851461275e576001826126c491906141a7565b9150600a856126d3919061433d565b60306126df91906140c6565b60f81b81838151811061271b577f4e487b7100000000000000000000000000000000000000000000000000000000600052603260045260246000fd5b60200101907effffffffffffffffffffffffffffffffffffffffffffffffffffffffffffff1916908160001a905350600a85612757919061411c565b94506126af565b8093505050505b919050565b606060008251905060008114156127935760405180602001604052806000815250915050612923565b600060036002836127a491906140c6565b6127ae919061411c565b60046127ba919061414d565b905060006020826127cb91906140c6565b67ffffffffffffffff81111561280a577f4e487b7100000000000000000000000000000000000000000000000000000000600052604160045260246000fd5b6040519080825280601f01601f19166020018201604052801561283c5781602001600182028036833780820191505090505b5090506000604051806060016040528060408152602001614c1c604091399050600181016020830160005b868110156128e05760038101905062ffffff818a015116603f8160121c168401518060081b905060ff603f83600c1c1686015116810190508060081b905060ff603f8360061c1686015116810190508060081b905060ff603f831686015116810190508060e01b90508084526004840193505050612867565b5060038606600181146128fa576002811461290a57612915565b613d3d60f01b6002830352612915565b603d60f81b60018303525b508484525050819450505050505b919050565b60007f80ac58cd000000000000000000000000000000000000000000000000000000007bffffffffffffffffffffffffffffffffffffffffffffffffffffffff1916827bffffffffffffffffffffffffffffffffffffffffffffffffffffffff191614806129f357507f5b5e139f000000000000000000000000000000000000000000000000000000007bffffffffffffffffffffffffffffffffffffffffffffffffffffffff1916827bffffffffffffffffffffffffffffffffffffffffffffffffffffffff1916145b80612a035750612a0282612d43565b5b9050919050565b612a15838383612dad565b600073ffffffffffffffffffffffffffffffffffffffff168373ffffffffffffffffffffffffffffffffffffffff161415612a5857612a5381612db2565b612a97565b8173ffffffffffffffffffffffffffffffffffffffff168373ffffffffffffffffffffffffffffffffffffffff1614612a9657612a958382612dfb565b5b5b600073ffffffffffffffffffffffffffffffffffffffff168273ffffffffffffffffffffffffffffffffffffffff161415612ada57612ad581612f68565b612b19565b8273ffffffffffffffffffffffffffffffffffffffff168273ffffffffffffffffffffffffffffffffffffffff1614612b1857612b1782826130ab565b5b5b505050565b612b28838361312a565b612b356000848484612bac565b612b74576040517f08c379a0000000000000000000000000000000000000000000000000000000008152600401612b6b90613df2565b60405180910390fd5b505050565b600081604051602001612b8c9190613b6b565b6040516020818303038152906040528051906020012060001c9050919050565b6000612bcd8473ffffffffffffffffffffffffffffffffffffffff166132f8565b15612d36578373ffffffffffffffffffffffffffffffffffffffff1663150b7a02612bf6611ee3565b8786866040518563ffffffff1660e01b8152600401612c189493929190613cbc565b602060405180830381600087803b158015612c3257600080fd5b505af1925050508015612c6357506040513d601f19601f82011682018060405250810190612c609190613675565b60015b612ce6573d8060008114612c93576040519150601f19603f3d011682016040523d82523d6000602084013e612c98565b606091505b50600081511415612cde576040517f08c379a0000000000000000000000000000000000000000000000000000000008152600401612cd590613df2565b60405180910390fd5b805181602001fd5b63150b7a0260e01b7bffffffffffffffffffffffffffffffffffffffffffffffffffffffff1916817bffffffffffffffffffffffffffffffffffffffffffffffffffffffff191614915050612d3b565b600190505b949350505050565b60007f01ffc9a7000000000000000000000000000000000000000000000000000000007bffffffffffffffffffffffffffffffffffffffffffffffffffffffff1916827bffffffffffffffffffffffffffffffffffffffffffffffffffffffff1916149050919050565b505050565b600980549050600a600083815260200190815260200160002081905550600981908060018154018082558091505060019003906000526020600020016000909190919091505550565b60006001612e088461104e565b612e1291906141a7565b9050600060086000848152602001908152602001600020549050818114612ef7576000600760008673ffffffffffffffffffffffffffffffffffffffff1673ffffffffffffffffffffffffffffffffffffffff168152602001908152602001600020600084815260200190815260200160002054905080600760008773ffffffffffffffffffffffffffffffffffffffff1673ffffffffffffffffffffffffffffffffffffffff168152602001908152602001600020600084815260200190815260200160002081905550816008600083815260200190815260200160002081905550505b6008600084815260200190815260200160002060009055600760008573ffffffffffffffffffffffffffffffffffffffff1673ffffffffffffffffffffffffffffffffffffffff16815260200190815260200160002060008381526020019081526020016000206000905550505050565b60006001600980549050612f7c91906141a7565b90506000600a6000848152602001908152602001600020549050600060098381548110612fd2577f4e487b7100000000000000000000000000000000000000000000000000000000600052603260045260246000fd5b90600052602060002001549050806009838154811061301a577f4e487b7100000000000000000000000000000000000000000000000000000000600052603260045260246000fd5b906000526020600020018190555081600a600083815260200190815260200160002081905550600a600085815260200190815260200160002060009055600980548061308f577f4e487b7100000000000000000000000000000000000000000000000000000000600052603160045260246000fd5b6001900381819060005260206000200160009055905550505050565b60006130b68361104e565b905081600760008573ffffffffffffffffffffffffffffffffffffffff1673ffffffffffffffffffffffffffffffffffffffff168152602001908152602001600020600083815260200190815260200160002081905550806008600084815260200190815260200160002081905550505050565b600073ffffffffffffffffffffffffffffffffffffffff168273ffffffffffffffffffffffffffffffffffffffff16141561319a576040517f08c379a000000000000000000000000000000000000000000000000000000000815260040161319190613f12565b60405180910390fd5b6131a381611e77565b156131e3576040517f08c379a00000000000000000000000000000000000000000000000000000000081526004016131da90613e32565b60405180910390fd5b6131ef60008383612a0a565b6001600460008473ffffffffffffffffffffffffffffffffffffffff1673ffffffffffffffffffffffffffffffffffffffff168152602001908152602001600020600082825461323f91906140c6565b92505081905550816003600083815260200190815260200160002060006101000a81548173ffffffffffffffffffffffffffffffffffffffff021916908373ffffffffffffffffffffffffffffffffffffffff160217905550808273ffffffffffffffffffffffffffffffffffffffff16600073ffffffffffffffffffffffffffffffffffffffff167fddf252ad1be2c89b69c2b068fc378daa952ba7f163c4a11628f55a4df523b3ef60405160405180910390a45050565b600080823b905060008111915050919050565b6040518060a001604052806005905b606081526020019060019003908161331a5790505090565b600061334561334084614052565b61402d565b90508281526020810184848401111561335d57600080fd5b61336884828561424f565b509392505050565b60008135905061337f81614ac2565b92915050565b60008135905061339481614ad9565b92915050565b6000813590506133a981614af0565b92915050565b6000815190506133be81614af0565b92915050565b600082601f8301126133d557600080fd5b81356133e5848260208601613332565b91505092915050565b60008083601f84011261340057600080fd5b8235905067ffffffffffffffff81111561341957600080fd5b60208301915083600182028301111561343157600080fd5b9250929050565b60008135905061344781614b07565b92915050565b60006020828403121561345f57600080fd5b600061346d84828501613370565b91505092915050565b6000806040838503121561348957600080fd5b600061349785828601613370565b92505060206134a885828601613370565b9150509250929050565b6000806000606084860312156134c757600080fd5b60006134d586828701613370565b93505060206134e686828701613370565b92505060406134f786828701613438565b9150509250925092565b6000806000806080858703121561351757600080fd5b600061352587828801613370565b945050602061353687828801613370565b935050604061354787828801613438565b925050606085013567ffffffffffffffff81111561356457600080fd5b613570878288016133c4565b91505092959194509250565b6000806040838503121561358f57600080fd5b600061359d85828601613370565b92505060206135ae85828601613385565b9150509250929050565b6000806000604084860312156135cd57600080fd5b60006135db86828701613370565b935050602084013567ffffffffffffffff8111156135f857600080fd5b613604868287016133ee565b92509250509250925092565b6000806040838503121561362357600080fd5b600061363185828601613370565b925050602061364285828601613438565b9150509250929050565b60006020828403121561365e57600080fd5b600061366c8482850161339a565b91505092915050565b60006020828403121561368757600080fd5b6000613695848285016133af565b91505092915050565b6000602082840312156136b057600080fd5b60006136be84828501613438565b91505092915050565b600080604083850312156136da57600080fd5b60006136e885828601613438565b92505060206136f985828601613438565b9150509250929050565b61370c816141db565b82525050565b61371b816141ed565b82525050565b600061372c82614083565b6137368185614099565b935061374681856020860161425e565b61374f8161442a565b840191505092915050565b600061376683856140aa565b935061377383858461424f565b61377c8361442a565b840190509392505050565b60006137928261408e565b61379c81856140aa565b93506137ac81856020860161425e565b6137b58161442a565b840191505092915050565b60006137cb8261408e565b6137d581856140bb565b93506137e581856020860161425e565b80840191505092915050565b60006137fe600b836140aa565b91506138098261443b565b602082019050919050565b6000613821601a836140aa565b915061382c82614464565b602082019050919050565b6000613844602b836140aa565b915061384f8261448d565b604082019050919050565b60006138676032836140aa565b9150613872826144dc565b604082019050919050565b600061388a6026836140aa565b91506138958261452b565b604082019050919050565b60006138ad601c836140aa565b91506138b88261457a565b602082019050919050565b60006138d06024836140aa565b91506138db826145a3565b604082019050919050565b60006138f36019836140aa565b91506138fe826145f2565b602082019050919050565b6000613916602c836140aa565b91506139218261461b565b604082019050919050565b60006139396038836140aa565b91506139448261466a565b604082019050919050565b600061395c602a836140aa565b9150613967826146b9565b604082019050919050565b600061397f6029836140aa565b915061398a82614708565b604082019050919050565b60006139a26002836140bb565b91506139ad82614757565b600282019050919050565b60006139c56020836140aa565b91506139d082614780565b602082019050919050565b60006139e86014836140bb565b91506139f3826147a9565b601482019050919050565b6000613a0b602c836140aa565b9150613a16826147d2565b604082019050919050565b6000613a2e6084836140bb565b9150613a3982614821565b608482019050919050565b6000613a516020836140aa565b9150613a5c826148e2565b602082019050919050565b6000613a746029836140aa565b9150613a7f8261490b565b604082019050919050565b6000613a976021836140aa565b9150613aa28261495a565b604082019050919050565b6000613aba601d836140bb565b9150613ac5826149a9565b601d82019050919050565b6000613add6031836140aa565b9150613ae8826149d2565b604082019050919050565b6000613b00602c836140aa565b9150613b0b82614a21565b604082019050919050565b6000613b236002836140bb565b9150613b2e82614a70565b600282019050919050565b6000613b466008836140aa565b9150613b5182614a99565b602082019050919050565b613b6581614245565b82525050565b6000613b7782846137c0565b915081905092915050565b6000613b8e82856137c0565b9150613b9a82846137c0565b91508190509392505050565b6000613bb282866137c0565b9150613bbe82856137c0565b9150613bca82846137c0565b9150819050949350505050565b6000613be382886137c0565b9150613bef82876137c0565b9150613bfb82866137c0565b9150613c0782856137c0565b9150613c1382846137c0565b91508190509695505050505050565b6000613c2d826139db565b9150613c3982866137c0565b9150613c4482613b16565b9150613c5082856137c0565b9150613c5b82613a21565b9150613c6782846137c0565b9150613c7282613995565b9150819050949350505050565b6000613c8a82613aad565b9150613c9682846137c0565b915081905092915050565b6000602082019050613cb66000830184613703565b92915050565b6000608082019050613cd16000830187613703565b613cde6020830186613703565b613ceb6040830185613b5c565b8181036060830152613cfd8184613721565b905095945050505050565b6000604082019050613d1d6000830185613703565b613d2a6020830184613b5c565b9392505050565b6000602082019050613d466000830184613712565b92915050565b60006020820190508181036000830152613d6781848661375a565b90509392505050565b60006020820190508181036000830152613d8a8184613787565b905092915050565b60006020820190508181036000830152613dab816137f1565b9050919050565b60006020820190508181036000830152613dcb81613814565b9050919050565b60006020820190508181036000830152613deb81613837565b9050919050565b60006020820190508181036000830152613e0b8161385a565b9050919050565b60006020820190508181036000830152613e2b8161387d565b9050919050565b60006020820190508181036000830152613e4b816138a0565b9050919050565b60006020820190508181036000830152613e6b816138c3565b9050919050565b60006020820190508181036000830152613e8b816138e6565b9050919050565b60006020820190508181036000830152613eab81613909565b9050919050565b60006020820190508181036000830152613ecb8161392c565b9050919050565b60006020820190508181036000830152613eeb8161394f565b9050919050565b60006020820190508181036000830152613f0b81613972565b9050919050565b60006020820190508181036000830152613f2b816139b8565b9050919050565b60006020820190508181036000830152613f4b816139fe565b9050919050565b60006020820190508181036000830152613f6b81613a44565b9050919050565b60006020820190508181036000830152613f8b81613a67565b9050919050565b60006020820190508181036000830152613fab81613a8a565b9050919050565b60006020820190508181036000830152613fcb81613ad0565b9050919050565b60006020820190508181036000830152613feb81613af3565b9050919050565b6000602082019050818103600083015261400b81613b39565b9050919050565b60006020820190506140276000830184613b5c565b92915050565b6000614037614048565b905061404382826142c3565b919050565b6000604051905090565b600067ffffffffffffffff82111561406d5761406c6143fb565b5b6140768261442a565b9050602081019050919050565b600081519050919050565b600081519050919050565b600082825260208201905092915050565b600082825260208201905092915050565b600081905092915050565b60006140d182614245565b91506140dc83614245565b9250827fffffffffffffffffffffffffffffffffffffffffffffffffffffffffffffffff038211156141115761411061436e565b5b828201905092915050565b600061412782614245565b915061413283614245565b9250826141425761414161439d565b5b828204905092915050565b600061415882614245565b915061416383614245565b9250817fffffffffffffffffffffffffffffffffffffffffffffffffffffffffffffffff048311821515161561419c5761419b61436e565b5b828202905092915050565b60006141b282614245565b91506141bd83614245565b9250828210156141d0576141cf61436e565b5b828203905092915050565b60006141e682614225565b9050919050565b60008115159050919050565b60007fffffffff0000000000000000000000000000000000000000000000000000000082169050919050565b600073ffffffffffffffffffffffffffffffffffffffff82169050919050565b6000819050919050565b82818337600083830152505050565b60005b8381101561427c578082015181840152602081019050614261565b8381111561428b576000848401525b50505050565b600060028204905060018216806142a957607f821691505b602082108114156142bd576142bc6143cc565b5b50919050565b6142cc8261442a565b810181811067ffffffffffffffff821117156142eb576142ea6143fb565b5b80604052505050565b60006142ff82614245565b91507fffffffffffffffffffffffffffffffffffffffffffffffffffffffffffffffff8214156143325761433161436e565b5b600182019050919050565b600061434882614245565b915061435383614245565b9250826143635761436261439d565b5b828206905092915050565b7f4e487b7100000000000000000000000000000000000000000000000000000000600052601160045260246000fd5b7f4e487b7100000000000000000000000000000000000000000000000000000000600052601260045260246000fd5b7f4e487b7100000000000000000000000000000000000000000000000000000000600052602260045260246000fd5b7f4e487b7100000000000000000000000000000000000000000000000000000000600052604160045260246000fd5b6000601f19601f8301169050919050565b7f6465737469747574696f6e000000000000000000000000000000000000000000600082015250565b7f45524332393831526f79616c746965733a20546f6f2068696768000000000000600082015250565b7f455243373231456e756d657261626c653a206f776e657220696e646578206f7560008201527f74206f6620626f756e6473000000000000000000000000000000000000000000602082015250565b7f4552433732313a207472616e7366657220746f206e6f6e20455243373231526560008201527f63656976657220696d706c656d656e7465720000000000000000000000000000602082015250565b7f4f776e61626c653a206e6577206f776e657220697320746865207a65726f206160008201527f6464726573730000000000000000000000000000000000000000000000000000602082015250565b7f4552433732313a20746f6b656e20616c7265616479206d696e74656400000000600082015250565b7f4552433732313a207472616e7366657220746f20746865207a65726f2061646460008201527f7265737300000000000000000000000000000000000000000000000000000000602082015250565b7f4552433732313a20617070726f766520746f2063616c6c657200000000000000600082015250565b7f4552433732313a206f70657261746f7220717565727920666f72206e6f6e657860008201527f697374656e7420746f6b656e0000000000000000000000000000000000000000602082015250565b7f4552433732313a20617070726f76652063616c6c6572206973206e6f74206f7760008201527f6e6572206e6f7220617070726f76656420666f7220616c6c0000000000000000602082015250565b7f4552433732313a2062616c616e636520717565727920666f7220746865207a6560008201527f726f206164647265737300000000000000000000000000000000000000000000602082015250565b7f4552433732313a206f776e657220717565727920666f72206e6f6e657869737460008201527f656e7420746f6b656e0000000000000000000000000000000000000000000000602082015250565b7f227d000000000000000000000000000000000000000000000000000000000000600082015250565b7f4552433732313a206d696e7420746f20746865207a65726f2061646472657373600082015250565b7f7b226e616d65223a202241727469666163742023000000000000000000000000600082015250565b7f4552433732313a20617070726f76656420717565727920666f72206e6f6e657860008201527f697374656e7420746f6b656e0000000000000000000000000000000000000000602082015250565b7f222c20226465736372697074696f6e223a202253746f726d57696e647320617260008201527f7469666163747320617265207573656420746f20636f6e74726f6c207468652060208201527f73746f726d73207468726f7567686f757420746865207265616c6d732e222c2060408201527f22696d616765223a2022646174613a696d6167652f7376672b786d6c3b62617360608201527f6536342c00000000000000000000000000000000000000000000000000000000608082015250565b7f4f776e61626c653a2063616c6c6572206973206e6f7420746865206f776e6572600082015250565b7f4552433732313a207472616e73666572206f6620746f6b656e2074686174206960008201527f73206e6f74206f776e0000000000000000000000000000000000000000000000602082015250565b7f4552433732313a20617070726f76616c20746f2063757272656e74206f776e6560008201527f7200000000000000000000000000000000000000000000000000000000000000602082015250565b7f646174613a6170706c69636174696f6e2f6a736f6e3b6261736536342c000000600082015250565b7f4552433732313a207472616e736665722063616c6c6572206973206e6f74206f60008201527f776e6572206e6f7220617070726f766564000000000000000000000000000000602082015250565b7f455243373231456e756d657261626c653a20676c6f62616c20696e646578206f60008201527f7574206f6620626f756e64730000000000000000000000000000000000000000602082015250565b7f3a20000000000000000000000000000000000000000000000000000000000000600082015250565b7f646f726d616e6379000000000000000000000000000000000000000000000000600082015250565b614acb816141db565b8114614ad657600080fd5b50565b614ae2816141ed565b8114614aed57600080fd5b50565b614af9816141f9565b8114614b0457600080fd5b50565b614b1081614245565b8114614b1b57600080fd5b5056fe3c73766720786d6c6e733d22687474703a2f2f7777772e77332e6f72672f323030302f73766722207072657365727665417370656374526174696f3d22784d696e594d696e206d656574222076696577426f783d223020302033353020333530223e3c7374796c653e2e62617365207b2066696c6c3a2077686974653b20666f6e742d66616d696c793a2073657269663b20666f6e742d73697a653a20313470783b207d3c2f7374796c653e3c726563742077696474683d223130302522206865696768743d2231303025222066696c6c3d22626c61636b22202f3e3c7465787420783d2231302220793d2232302220636c6173733d2262617365223e4142434445464748494a4b4c4d4e4f505152535455565758595a6162636465666768696a6b6c6d6e6f707172737475767778797a303132333435363738392b2fa2646970667358221220cb65bbb2dd8a2cb3879cb0b9eeedd3ff4d61f7c6648d9402d9d73d71bc9936eb64736f6c63430008040033",
  "devdoc": {
    "kind": "dev",
    "methods": {
      "approve(address,uint256)": {
        "details": "See {IERC721-approve}."
      },
      "balanceOf(address)": {
        "details": "See {IERC721-balanceOf}."
      },
      "getApproved(uint256)": {
        "details": "See {IERC721-getApproved}."
      },
      "isApprovedForAll(address,address)": {
        "details": "See {IERC721-isApprovedForAll}."
      },
      "name()": {
        "details": "See {IERC721Metadata-name}."
      },
      "owner()": {
        "details": "Returns the address of the current owner."
      },
      "ownerOf(uint256)": {
        "details": "See {IERC721-ownerOf}."
      },
      "renounceOwnership()": {
        "details": "Leaves the contract without owner. It will not be possible to call `onlyOwner` functions anymore. Can only be called by the current owner. NOTE: Renouncing ownership will leave the contract without an owner, thereby removing any functionality that is only available to the owner."
      },
      "royaltyInfo(uint256,uint256)": {
        "params": {
          "_tokenId": "- the NFT asset queried for royalty information",
          "_value": "- the sale price of the NFT asset specified by _tokenId"
        },
        "returns": {
          "receiver": "- address of who should be sent the royalty payment",
          "royaltyAmount": "- the royalty payment amount for value sale price"
        }
      },
      "safeTransferFrom(address,address,uint256)": {
        "details": "See {IERC721-safeTransferFrom}."
      },
      "safeTransferFrom(address,address,uint256,bytes)": {
        "details": "See {IERC721-safeTransferFrom}."
      },
      "setApprovalForAll(address,bool)": {
        "details": "See {IERC721-setApprovalForAll}."
      },
      "setRoyalties(address,uint256)": {
        "details": "Sets token royalties",
        "params": {
          "recipient": "recipient of the royalties",
          "value": "percentage (using 2 decimals - 10000 = 100, 0 = 0)"
        }
      },
      "supportsInterface(bytes4)": {
        "details": "See {IERC165-supportsInterface}."
      },
      "symbol()": {
        "details": "See {IERC721Metadata-symbol}."
      },
      "tokenByIndex(uint256)": {
        "details": "See {IERC721Enumerable-tokenByIndex}."
      },
      "tokenOfOwnerByIndex(address,uint256)": {
        "details": "See {IERC721Enumerable-tokenOfOwnerByIndex}."
      },
      "tokenURI(uint256)": {
        "details": "See {IERC721Metadata-tokenURI}."
      },
      "totalSupply()": {
        "details": "See {IERC721Enumerable-totalSupply}."
      },
      "transferFrom(address,address,uint256)": {
        "details": "See {IERC721-transferFrom}."
      },
      "transferOwnership(address)": {
        "details": "Transfers ownership of the contract to a new account (`newOwner`). Can only be called by the current owner."
      }
    },
    "version": 1
  },
  "userdoc": {
    "kind": "user",
    "methods": {},
    "version": 1
  },
  "storageLayout": {
    "storage": [
      {
        "astId": 7,
        "contract": "contracts/Artifacts.sol:Artifacts",
        "label": "_owner",
        "offset": 0,
        "slot": "0",
        "type": "t_address"
      },
      {
        "astId": 129,
        "contract": "contracts/Artifacts.sol:Artifacts",
        "label": "_name",
        "offset": 0,
        "slot": "1",
        "type": "t_string_storage"
      },
      {
        "astId": 131,
        "contract": "contracts/Artifacts.sol:Artifacts",
        "label": "_symbol",
        "offset": 0,
        "slot": "2",
        "type": "t_string_storage"
      },
      {
        "astId": 135,
        "contract": "contracts/Artifacts.sol:Artifacts",
        "label": "_owners",
        "offset": 0,
        "slot": "3",
        "type": "t_mapping(t_uint256,t_address)"
      },
      {
        "astId": 139,
        "contract": "contracts/Artifacts.sol:Artifacts",
        "label": "_balances",
        "offset": 0,
        "slot": "4",
        "type": "t_mapping(t_address,t_uint256)"
      },
      {
        "astId": 143,
        "contract": "contracts/Artifacts.sol:Artifacts",
        "label": "_tokenApprovals",
        "offset": 0,
        "slot": "5",
        "type": "t_mapping(t_uint256,t_address)"
      },
      {
        "astId": 149,
        "contract": "contracts/Artifacts.sol:Artifacts",
        "label": "_operatorApprovals",
        "offset": 0,
        "slot": "6",
        "type": "t_mapping(t_address,t_mapping(t_address,t_bool))"
      },
      {
        "astId": 1068,
        "contract": "contracts/Artifacts.sol:Artifacts",
        "label": "_ownedTokens",
        "offset": 0,
        "slot": "7",
        "type": "t_mapping(t_address,t_mapping(t_uint256,t_uint256))"
      },
      {
        "astId": 1072,
        "contract": "contracts/Artifacts.sol:Artifacts",
        "label": "_ownedTokensIndex",
        "offset": 0,
        "slot": "8",
        "type": "t_mapping(t_uint256,t_uint256)"
      },
      {
        "astId": 1075,
        "contract": "contracts/Artifacts.sol:Artifacts",
        "label": "_allTokens",
        "offset": 0,
        "slot": "9",
        "type": "t_array(t_uint256)dyn_storage"
      },
      {
        "astId": 1079,
        "contract": "contracts/Artifacts.sol:Artifacts",
        "label": "_allTokensIndex",
        "offset": 0,
        "slot": "10",
        "type": "t_mapping(t_uint256,t_uint256)"
      },
      {
        "astId": 2726,
        "contract": "contracts/Artifacts.sol:Artifacts",
        "label": "_royaltiesRecipient",
        "offset": 0,
        "slot": "11",
        "type": "t_address"
      },
      {
        "astId": 2728,
        "contract": "contracts/Artifacts.sol:Artifacts",
        "label": "_royaltiesValue",
        "offset": 0,
        "slot": "12",
        "type": "t_uint256"
      },
      {
        "astId": 2043,
        "contract": "contracts/Artifacts.sol:Artifacts",
        "label": "currentAvailability",
        "offset": 0,
        "slot": "13",
        "type": "t_uint256"
      },
      {
        "astId": 2046,
        "contract": "contracts/Artifacts.sol:Artifacts",
        "label": "currentConjured",
        "offset": 0,
        "slot": "14",
        "type": "t_uint256"
      },
      {
        "astId": 2049,
        "contract": "contracts/Artifacts.sol:Artifacts",
        "label": "currentPrice",
        "offset": 0,
        "slot": "15",
        "type": "t_uint256"
      },
      {
        "astId": 2078,
        "contract": "contracts/Artifacts.sol:Artifacts",
        "label": "classification",
        "offset": 0,
        "slot": "16",
        "type": "t_array(t_string_storage)dyn_storage"
      },
      {
        "astId": 2087,
        "contract": "contracts/Artifacts.sol:Artifacts",
        "label": "storm",
        "offset": 0,
        "slot": "17",
        "type": "t_array(t_string_storage)dyn_storage"
      },
      {
        "astId": 2099,
        "contract": "contracts/Artifacts.sol:Artifacts",
        "label": "gear",
        "offset": 0,
        "slot": "18",
        "type": "t_array(t_string_storage)dyn_storage"
      }
    ],
    "types": {
      "t_address": {
        "encoding": "inplace",
        "label": "address",
        "numberOfBytes": "20"
      },
      "t_array(t_string_storage)dyn_storage": {
        "base": "t_string_storage",
        "encoding": "dynamic_array",
        "label": "string[]",
        "numberOfBytes": "32"
      },
      "t_array(t_uint256)dyn_storage": {
        "base": "t_uint256",
        "encoding": "dynamic_array",
        "label": "uint256[]",
        "numberOfBytes": "32"
      },
      "t_bool": {
        "encoding": "inplace",
        "label": "bool",
        "numberOfBytes": "1"
      },
      "t_mapping(t_address,t_bool)": {
        "encoding": "mapping",
        "key": "t_address",
        "label": "mapping(address => bool)",
        "numberOfBytes": "32",
        "value": "t_bool"
      },
      "t_mapping(t_address,t_mapping(t_address,t_bool))": {
        "encoding": "mapping",
        "key": "t_address",
        "label": "mapping(address => mapping(address => bool))",
        "numberOfBytes": "32",
        "value": "t_mapping(t_address,t_bool)"
      },
      "t_mapping(t_address,t_mapping(t_uint256,t_uint256))": {
        "encoding": "mapping",
        "key": "t_address",
        "label": "mapping(address => mapping(uint256 => uint256))",
        "numberOfBytes": "32",
        "value": "t_mapping(t_uint256,t_uint256)"
      },
      "t_mapping(t_address,t_uint256)": {
        "encoding": "mapping",
        "key": "t_address",
        "label": "mapping(address => uint256)",
        "numberOfBytes": "32",
        "value": "t_uint256"
      },
      "t_mapping(t_uint256,t_address)": {
        "encoding": "mapping",
        "key": "t_uint256",
        "label": "mapping(uint256 => address)",
        "numberOfBytes": "32",
        "value": "t_address"
      },
      "t_mapping(t_uint256,t_uint256)": {
        "encoding": "mapping",
        "key": "t_uint256",
        "label": "mapping(uint256 => uint256)",
        "numberOfBytes": "32",
        "value": "t_uint256"
      },
      "t_string_storage": {
        "encoding": "bytes",
        "label": "string",
        "numberOfBytes": "32"
      },
      "t_uint256": {
        "encoding": "inplace",
        "label": "uint256",
        "numberOfBytes": "32"
      }
    }
  }
}