{
  "address": "0x21C8199182F8925ECB04d14847ACFB7d0c2be8BC",
  "abi": [
    {
      "inputs": [],
      "stateMutability": "nonpayable",
      "type": "constructor"
    },
    {
      "anonymous": false,
      "inputs": [
        {
          "indexed": true,
          "internalType": "address",
          "name": "owner",
          "type": "address"
        },
        {
          "indexed": true,
          "internalType": "address",
          "name": "approved",
          "type": "address"
        },
        {
          "indexed": true,
          "internalType": "uint256",
          "name": "tokenId",
          "type": "uint256"
        }
      ],
      "name": "Approval",
      "type": "event"
    },
    {
      "anonymous": false,
      "inputs": [
        {
          "indexed": true,
          "internalType": "address",
          "name": "owner",
          "type": "address"
        },
        {
          "indexed": true,
          "internalType": "address",
          "name": "operator",
          "type": "address"
        },
        {
          "indexed": false,
          "internalType": "bool",
          "name": "approved",
          "type": "bool"
        }
      ],
      "name": "ApprovalForAll",
      "type": "event"
    },
    {
      "anonymous": false,
      "inputs": [],
      "name": "ArtifactConjured",
      "type": "event"
    },
    {
      "anonymous": false,
      "inputs": [
        {
          "indexed": true,
          "internalType": "address",
          "name": "previousOwner",
          "type": "address"
        },
        {
          "indexed": true,
          "internalType": "address",
          "name": "newOwner",
          "type": "address"
        }
      ],
      "name": "OwnershipTransferred",
      "type": "event"
    },
    {
      "anonymous": false,
      "inputs": [
        {
          "indexed": true,
          "internalType": "address",
          "name": "from",
          "type": "address"
        },
        {
          "indexed": true,
          "internalType": "address",
          "name": "to",
          "type": "address"
        },
        {
          "indexed": true,
          "internalType": "uint256",
          "name": "tokenId",
          "type": "uint256"
        }
      ],
      "name": "Transfer",
      "type": "event"
    },
    {
      "inputs": [
        {
          "internalType": "address",
          "name": "to",
          "type": "address"
        },
        {
          "internalType": "uint256",
          "name": "tokenId",
          "type": "uint256"
        }
      ],
      "name": "approve",
      "outputs": [],
      "stateMutability": "nonpayable",
      "type": "function"
    },
    {
      "inputs": [
        {
          "internalType": "address",
          "name": "owner",
          "type": "address"
        }
      ],
      "name": "balanceOf",
      "outputs": [
        {
          "internalType": "uint256",
          "name": "",
          "type": "uint256"
        }
      ],
      "stateMutability": "view",
      "type": "function"
    },
    {
      "inputs": [],
      "name": "conjureArtifact",
      "outputs": [],
      "stateMutability": "payable",
      "type": "function"
    },
    {
      "inputs": [
        {
          "internalType": "uint256",
          "name": "tokenId",
          "type": "uint256"
        }
      ],
      "name": "getApproved",
      "outputs": [
        {
          "internalType": "address",
          "name": "",
          "type": "address"
        }
      ],
      "stateMutability": "view",
      "type": "function"
    },
    {
      "inputs": [
        {
          "internalType": "uint256",
          "name": "tokenId",
          "type": "uint256"
        }
      ],
      "name": "getClassification",
      "outputs": [
        {
          "internalType": "string",
          "name": "",
          "type": "string"
        }
      ],
      "stateMutability": "view",
      "type": "function"
    },
    {
      "inputs": [],
      "name": "getCurrentAvailability",
      "outputs": [
        {
          "internalType": "uint256",
          "name": "",
          "type": "uint256"
        }
      ],
      "stateMutability": "view",
      "type": "function"
    },
    {
      "inputs": [],
      "name": "getCurrentConjured",
      "outputs": [
        {
          "internalType": "uint256",
          "name": "",
          "type": "uint256"
        }
      ],
      "stateMutability": "view",
      "type": "function"
    },
    {
      "inputs": [],
      "name": "getCurrentPrice",
      "outputs": [
        {
          "internalType": "uint256",
          "name": "",
          "type": "uint256"
        }
      ],
      "stateMutability": "view",
      "type": "function"
    },
    {
      "inputs": [
        {
          "internalType": "uint256",
          "name": "tokenId",
          "type": "uint256"
        }
      ],
      "name": "getGear",
      "outputs": [
        {
          "internalType": "string",
          "name": "",
          "type": "string"
        }
      ],
      "stateMutability": "view",
      "type": "function"
    },
    {
      "inputs": [
        {
          "internalType": "uint256",
          "name": "tokenId",
          "type": "uint256"
        }
      ],
      "name": "getStorm",
      "outputs": [
        {
          "internalType": "string",
          "name": "",
          "type": "string"
        }
      ],
      "stateMutability": "view",
      "type": "function"
    },
    {
      "inputs": [
        {
          "internalType": "address",
          "name": "_adventurer",
          "type": "address"
        },
        {
          "internalType": "string",
          "name": "_type",
          "type": "string"
        }
      ],
      "name": "hasHelm",
      "outputs": [
        {
          "internalType": "bool",
          "name": "",
          "type": "bool"
        }
      ],
      "stateMutability": "view",
      "type": "function"
    },
    {
      "inputs": [
        {
          "internalType": "address",
          "name": "owner",
          "type": "address"
        },
        {
          "internalType": "address",
          "name": "operator",
          "type": "address"
        }
      ],
      "name": "isApprovedForAll",
      "outputs": [
        {
          "internalType": "bool",
          "name": "",
          "type": "bool"
        }
      ],
      "stateMutability": "view",
      "type": "function"
    },
    {
      "inputs": [
        {
          "internalType": "uint256",
          "name": "_max",
          "type": "uint256"
        }
      ],
      "name": "makeAvailable",
      "outputs": [],
      "stateMutability": "nonpayable",
      "type": "function"
    },
    {
      "inputs": [],
      "name": "name",
      "outputs": [
        {
          "internalType": "string",
          "name": "",
          "type": "string"
        }
      ],
      "stateMutability": "view",
      "type": "function"
    },
    {
      "inputs": [],
      "name": "owner",
      "outputs": [
        {
          "internalType": "address",
          "name": "",
          "type": "address"
        }
      ],
      "stateMutability": "view",
      "type": "function"
    },
    {
      "inputs": [],
      "name": "ownerClaim",
      "outputs": [],
      "stateMutability": "nonpayable",
      "type": "function"
    },
    {
      "inputs": [
        {
          "internalType": "uint256",
          "name": "tokenId",
          "type": "uint256"
        }
      ],
      "name": "ownerOf",
      "outputs": [
        {
          "internalType": "address",
          "name": "",
          "type": "address"
        }
      ],
      "stateMutability": "view",
      "type": "function"
    },
    {
      "inputs": [],
      "name": "renounceOwnership",
      "outputs": [],
      "stateMutability": "nonpayable",
      "type": "function"
    },
    {
      "inputs": [
        {
          "internalType": "uint256",
          "name": "",
          "type": "uint256"
        },
        {
          "internalType": "uint256",
          "name": "value",
          "type": "uint256"
        }
      ],
      "name": "royaltyInfo",
      "outputs": [
        {
          "internalType": "address",
          "name": "receiver",
          "type": "address"
        },
        {
          "internalType": "uint256",
          "name": "royaltyAmount",
          "type": "uint256"
        }
      ],
      "stateMutability": "view",
      "type": "function"
    },
    {
      "inputs": [
        {
          "internalType": "address",
          "name": "from",
          "type": "address"
        },
        {
          "internalType": "address",
          "name": "to",
          "type": "address"
        },
        {
          "internalType": "uint256",
          "name": "tokenId",
          "type": "uint256"
        }
      ],
      "name": "safeTransferFrom",
      "outputs": [],
      "stateMutability": "nonpayable",
      "type": "function"
    },
    {
      "inputs": [
        {
          "internalType": "address",
          "name": "from",
          "type": "address"
        },
        {
          "internalType": "address",
          "name": "to",
          "type": "address"
        },
        {
          "internalType": "uint256",
          "name": "tokenId",
          "type": "uint256"
        },
        {
          "internalType": "bytes",
          "name": "_data",
          "type": "bytes"
        }
      ],
      "name": "safeTransferFrom",
      "outputs": [],
      "stateMutability": "nonpayable",
      "type": "function"
    },
    {
      "inputs": [
        {
          "internalType": "address",
          "name": "operator",
          "type": "address"
        },
        {
          "internalType": "bool",
          "name": "approved",
          "type": "bool"
        }
      ],
      "name": "setApprovalForAll",
      "outputs": [],
      "stateMutability": "nonpayable",
      "type": "function"
    },
    {
      "inputs": [
        {
          "internalType": "address",
          "name": "recipient",
          "type": "address"
        },
        {
          "internalType": "uint256",
          "name": "value",
          "type": "uint256"
        }
      ],
      "name": "setRoyalties",
      "outputs": [],
      "stateMutability": "nonpayable",
      "type": "function"
    },
    {
      "inputs": [
        {
          "internalType": "bytes4",
          "name": "interfaceId",
          "type": "bytes4"
        }
      ],
      "name": "supportsInterface",
      "outputs": [
        {
          "internalType": "bool",
          "name": "",
          "type": "bool"
        }
      ],
      "stateMutability": "view",
      "type": "function"
    },
    {
      "inputs": [],
      "name": "symbol",
      "outputs": [
        {
          "internalType": "string",
          "name": "",
          "type": "string"
        }
      ],
      "stateMutability": "view",
      "type": "function"
    },
    {
      "inputs": [
        {
          "internalType": "uint256",
          "name": "index",
          "type": "uint256"
        }
      ],
      "name": "tokenByIndex",
      "outputs": [
        {
          "internalType": "uint256",
          "name": "",
          "type": "uint256"
        }
      ],
      "stateMutability": "view",
      "type": "function"
    },
    {
      "inputs": [
        {
          "internalType": "address",
          "name": "owner",
          "type": "address"
        },
        {
          "internalType": "uint256",
          "name": "index",
          "type": "uint256"
        }
      ],
      "name": "tokenOfOwnerByIndex",
      "outputs": [
        {
          "internalType": "uint256",
          "name": "",
          "type": "uint256"
        }
      ],
      "stateMutability": "view",
      "type": "function"
    },
    {
      "inputs": [
        {
          "internalType": "uint256",
          "name": "tokenId",
          "type": "uint256"
        }
      ],
      "name": "tokenURI",
      "outputs": [
        {
          "internalType": "string",
          "name": "",
          "type": "string"
        }
      ],
      "stateMutability": "view",
      "type": "function"
    },
    {
      "inputs": [],
      "name": "totalSupply",
      "outputs": [
        {
          "internalType": "uint256",
          "name": "",
          "type": "uint256"
        }
      ],
      "stateMutability": "view",
      "type": "function"
    },
    {
      "inputs": [
        {
          "internalType": "address",
          "name": "from",
          "type": "address"
        },
        {
          "internalType": "address",
          "name": "to",
          "type": "address"
        },
        {
          "internalType": "uint256",
          "name": "tokenId",
          "type": "uint256"
        }
      ],
      "name": "transferFrom",
      "outputs": [],
      "stateMutability": "nonpayable",
      "type": "function"
    },
    {
      "inputs": [
        {
          "internalType": "address",
          "name": "newOwner",
          "type": "address"
        }
      ],
      "name": "transferOwnership",
      "outputs": [],
      "stateMutability": "nonpayable",
      "type": "function"
    },
    {
      "inputs": [
        {
          "internalType": "address",
          "name": "_adventurer",
          "type": "address"
        }
      ],
      "name": "troveFor",
      "outputs": [
        {
          "internalType": "uint256[]",
          "name": "",
          "type": "uint256[]"
        }
      ],
      "stateMutability": "view",
      "type": "function"
    }
  ],
  "transactionHash": "0x2e4fcbb795cc1b40ad84695031b03fbaf0a3a2edf07954a7862eeac54cc8197e",
  "args": [],
  "solcInputHash": "3385f781ead7980bae10e300f428099b",
  "bytecode": "0x608060405260c8600d556001600e556701aa535d3d0c0000600f556040518061012001604052806040518060400160405280600781526020017f416e6369656e740000000000000000000000000000000000000000000000000081525081526020016040518060400160405280600681526020017f427269676874000000000000000000000000000000000000000000000000000081525081526020016040518060400160405280600481526020017f4461726b0000000000000000000000000000000000000000000000000000000081525081526020016040518060400160405280600881526020017f456c64726974636800000000000000000000000000000000000000000000000081525081526020016040518060400160405280600681526020017f456e6c696c73000000000000000000000000000000000000000000000000000081525081526020016040518060400160405280600881526020017f4c6f76656c65737300000000000000000000000000000000000000000000000081525081526020016040518060400160405280600581526020017f52756e696300000000000000000000000000000000000000000000000000000081525081526020016040518060400160405280600681526020017f556e64656164000000000000000000000000000000000000000000000000000081525081526020016040518060400160405280600481526020017f566f69640000000000000000000000000000000000000000000000000000000081525081525060109060096200024992919062000ac0565b50604051806101200160405280604051806101a001604052806101798152602001620068cd610179913981526020016040518061018001604052806101578152602001620070676101579139815260200160405180610140016040528061010b815260200162006b8661010b91398152602001604051806101c001604052806101828152602001620075b16101829139815260200160405180610140016040528061011f81526020016200749261011f913981526020016040518061022001604052806101e28152602001620077336101e291398152602001604051806101400160405280610103815260200162007e0561010391398152602001604051806101800160405280610159815260200162006e586101599139815260200160405180610120016040528060f8815260200162006c9160f8913981525060119060096200039692919062000ac0565b506040518060a001604052806040518060400160405280600481526020017f466972650000000000000000000000000000000000000000000000000000000081525081526020016040518060400160405280600381526020017f496365000000000000000000000000000000000000000000000000000000000081525081526020016040518060400160405280600981526020017f4c696768746e696e67000000000000000000000000000000000000000000000081525081526020016040518060400160405280600481526020017f53616e640000000000000000000000000000000000000000000000000000000081525081526020016040518060400160405280600481526020017f57696e64000000000000000000000000000000000000000000000000000000008152508152506012906005620004d992919062000b27565b506040518060a0016040528060405180610100016040528060cf815260200162006d8960cf913981526020016040518060c0016040528060918152602001620074016091913981526020016040518061020001604052806101c8815260200162007f086101c89139815260200160405180610120016040528060f381526020016200791560f39139815260200160405180610100016040528060dd815260200162007b1a60dd913981525060139060056200059692919062000b27565b506040518060e001604052806040518060400160405280600681526020017f416d756c6574000000000000000000000000000000000000000000000000000081525081526020016040518060400160405280600a81526020017f4372797374616c47656d0000000000000000000000000000000000000000000081525081526020016040518060400160405280600481526020017f48656c6d0000000000000000000000000000000000000000000000000000000081525081526020016040518060400160405280600581526020017f506c61746500000000000000000000000000000000000000000000000000000081525081526020016040518060400160405280600481526020017f536565640000000000000000000000000000000000000000000000000000000081525081526020016040518060400160405280600581526020017f536861726400000000000000000000000000000000000000000000000000000081525081526020016040518060400160405280600581526020017f53776f726400000000000000000000000000000000000000000000000000000081525081525060149060076200074f92919062000b8e565b50604051806101000160405280604051806101600160405280610140815260200162006a4661014091398152602001604051806101e001604052806101a18152602001620080d06101a1913981526020016040518060e0016040528060b6815260200162006fb160b69139815260200160405180610100016040528060c1815260200162007bf760c1913981526020016040518061014001604052806101138152602001620071be61011391398152602001604051806101400160405280610112815260200162007a08610112913981526020016040518061016001604052806101308152602001620072d16101309139815260200160405180610180016040528061014d815260200162007cb861014d913981525060159060086200087792919062000bf5565b503480156200088557600080fd5b506040518060400160405280601481526020017f53746f726d57696e6473204172746966616374730000000000000000000000008152506040518060400160405280600581526020017f53544f524d00000000000000000000000000000000000000000000000000000081525062000912620009066200096060201b60201c565b6200096860201b60201c565b81600190805190602001906200092a92919062000c5c565b5080600290805190602001906200094392919062000c5c565b5050506200095a336103e862000a2c60201b60201c565b62000e62565b600033905090565b60008060009054906101000a900473ffffffffffffffffffffffffffffffffffffffff169050816000806101000a81548173ffffffffffffffffffffffffffffffffffffffff021916908373ffffffffffffffffffffffffffffffffffffffff1602179055508173ffffffffffffffffffffffffffffffffffffffff168173ffffffffffffffffffffffffffffffffffffffff167f8be0079c531659141344cd1fd0a4f28419497f9722a3daafe3b4186f6b6457e060405160405180910390a35050565b61271081111562000a74576040517f08c379a000000000000000000000000000000000000000000000000000000000815260040162000a6b9062000da1565b60405180910390fd5b81600b60006101000a81548173ffffffffffffffffffffffffffffffffffffffff021916908373ffffffffffffffffffffffffffffffffffffffff16021790555080600c819055505050565b82805482825590600052602060002090810192821562000b14579160200282015b8281111562000b1357825182908051906020019062000b0292919062000c5c565b509160200191906001019062000ae1565b5b50905062000b23919062000ced565b5090565b82805482825590600052602060002090810192821562000b7b579160200282015b8281111562000b7a57825182908051906020019062000b6992919062000c5c565b509160200191906001019062000b48565b5b50905062000b8a919062000ced565b5090565b82805482825590600052602060002090810192821562000be2579160200282015b8281111562000be157825182908051906020019062000bd092919062000c5c565b509160200191906001019062000baf565b5b50905062000bf1919062000ced565b5090565b82805482825590600052602060002090810192821562000c49579160200282015b8281111562000c4857825182908051906020019062000c3792919062000c5c565b509160200191906001019062000c16565b5b50905062000c58919062000ced565b5090565b82805462000c6a9062000dd4565b90600052602060002090601f01602090048101928262000c8e576000855562000cda565b82601f1062000ca957805160ff191683800117855562000cda565b8280016001018555821562000cda579182015b8281111562000cd957825182559160200191906001019062000cbc565b5b50905062000ce9919062000d15565b5090565b5b8082111562000d11576000818162000d07919062000d34565b5060010162000cee565b5090565b5b8082111562000d3057600081600090555060010162000d16565b5090565b50805462000d429062000dd4565b6000825580601f1062000d56575062000d77565b601f01602090049060005260206000209081019062000d76919062000d15565b5b50565b600062000d89601a8362000dc3565b915062000d968262000e39565b602082019050919050565b6000602082019050818103600083015262000dbc8162000d7a565b9050919050565b600082825260208201905092915050565b6000600282049050600182168062000ded57607f821691505b6020821081141562000e045762000e0362000e0a565b5b50919050565b7f4e487b7100000000000000000000000000000000000000000000000000000000600052602260045260246000fd5b7f45524332393831526f79616c746965733a20546f6f2068696768000000000000600082015250565b615a5b8062000e726000396000f3fe6080604052600436106101e35760003560e01c806370a0823111610102578063ae1a7f5011610095578063e5c946ab11610064578063e5c946ab1461071e578063e985e9c51461075b578063eb91d37e14610798578063f2fde38b146107c3576101e3565b8063ae1a7f5014610664578063b88d4fde1461068f578063baa39e05146106b8578063c87b56dd146106e1576101e3565b80638d2bfe05116100d15780638d2bfe05146105db5780638da5cb5b146105e557806395d89b4114610610578063a22cb4651461063b576101e3565b806370a0823114610521578063715018a61461055e57806383196955146105755780638c7ea24b146105b2576101e3565b80632f745c591161017a5780634dbe5889116101495780634dbe5889146104535780634f6ccce71461046a5780635454d388146104a75780636352211e146104e4576101e3565b80632f745c591461038557806342842e0e146103c2578063441e56b9146103eb5780634a36e36714610428576101e3565b806318160ddd116101b657806318160ddd146102b657806323b872dd146102e1578063248457211461030a5780632a55205a14610347576101e3565b806301ffc9a7146101e857806306fdde0314610225578063081812fc14610250578063095ea7b31461028d575b600080fd5b3480156101f457600080fd5b5061020f600480360381019061020a9190613f0b565b6107ec565b60405161021c919061488f565b60405180910390f35b34801561023157600080fd5b5061023a610866565b60405161024791906148ce565b60405180910390f35b34801561025c57600080fd5b5061027760048036038101906102729190613f5d565b6108f8565b60405161028491906147dd565b60405180910390f35b34801561029957600080fd5b506102b460048036038101906102af9190613ecf565b61097d565b005b3480156102c257600080fd5b506102cb610a95565b6040516102d89190614bec565b60405180910390f35b3480156102ed57600080fd5b5061030860048036038101906103039190613d71565b610aa2565b005b34801561031657600080fd5b50610331600480360381019061032c9190613e77565b610b02565b60405161033e919061488f565b60405180910390f35b34801561035357600080fd5b5061036e60048036038101906103699190613f86565b610d3b565b60405161037c929190614844565b60405180910390f35b34801561039157600080fd5b506103ac60048036038101906103a79190613ecf565b610d87565b6040516103b99190614bec565b60405180910390f35b3480156103ce57600080fd5b506103e960048036038101906103e49190613d71565b610e2c565b005b3480156103f757600080fd5b50610412600480360381019061040d9190613d0c565b610e4c565b60405161041f919061486d565b60405180910390f35b34801561043457600080fd5b5061043d610f46565b60405161044a9190614bec565b60405180910390f35b34801561045f57600080fd5b50610468610f50565b005b34801561047657600080fd5b50610491600480360381019061048c9190613f5d565b610fd9565b60405161049e9190614bec565b60405180910390f35b3480156104b357600080fd5b506104ce60048036038101906104c99190613f5d565b611070565b6040516104db91906148ce565b60405180910390f35b3480156104f057600080fd5b5061050b60048036038101906105069190613f5d565b61118a565b60405161051891906147dd565b60405180910390f35b34801561052d57600080fd5b5061054860048036038101906105439190613d0c565b61123c565b6040516105559190614bec565b60405180910390f35b34801561056a57600080fd5b506105736112f4565b005b34801561058157600080fd5b5061059c60048036038101906105979190613f5d565b61137c565b6040516105a991906148ce565b60405180910390f35b3480156105be57600080fd5b506105d960048036038101906105d49190613ecf565b611496565b005b6105e3611520565b005b3480156105f157600080fd5b506105fa611603565b60405161060791906147dd565b60405180910390f35b34801561061c57600080fd5b5061062561162c565b60405161063291906148ce565b60405180910390f35b34801561064757600080fd5b50610662600480360381019061065d9190613e3b565b6116be565b005b34801561067057600080fd5b5061067961183f565b6040516106869190614bec565b60405180910390f35b34801561069b57600080fd5b506106b660048036038101906106b19190613dc0565b611849565b005b3480156106c457600080fd5b506106df60048036038101906106da9190613f5d565b6118ab565b005b3480156106ed57600080fd5b5061070860048036038101906107039190613f5d565b61194e565b60405161071591906148ce565b60405180910390f35b34801561072a57600080fd5b5061074560048036038101906107409190613f5d565b61225c565b60405161075291906148ce565b60405180910390f35b34801561076757600080fd5b50610782600480360381019061077d9190613d35565b612376565b60405161078f919061488f565b60405180910390f35b3480156107a457600080fd5b506107ad61240a565b6040516107ba9190614bec565b60405180910390f35b3480156107cf57600080fd5b506107ea60048036038101906107e59190613d0c565b612414565b005b60007f2a55205a000000000000000000000000000000000000000000000000000000007bffffffffffffffffffffffffffffffffffffffffffffffffffffffff1916827bffffffffffffffffffffffffffffffffffffffffffffffffffffffff1916148061085f575061085e8261250c565b5b9050919050565b60606001805461087590614ea4565b80601f01602080910402602001604051908101604052809291908181526020018280546108a190614ea4565b80156108ee5780601f106108c3576101008083540402835291602001916108ee565b820191906000526020600020905b8154815290600101906020018083116108d157829003601f168201915b5050505050905090565b600061090382612586565b610942576040517f08c379a000000000000000000000000000000000000000000000000000000000815260040161093990614b0c565b60405180910390fd5b6005600083815260200190815260200160002060009054906101000a900473ffffffffffffffffffffffffffffffffffffffff169050919050565b60006109888261118a565b90508073ffffffffffffffffffffffffffffffffffffffff168373ffffffffffffffffffffffffffffffffffffffff1614156109f9576040517f08c379a00000000000000000000000000000000000000000000000000000000081526004016109f090614b6c565b60405180910390fd5b8073ffffffffffffffffffffffffffffffffffffffff16610a186125f2565b73ffffffffffffffffffffffffffffffffffffffff161480610a475750610a4681610a416125f2565b612376565b5b610a86576040517f08c379a0000000000000000000000000000000000000000000000000000000008152600401610a7d90614a8c565b60405180910390fd5b610a9083836125fa565b505050565b6000600980549050905090565b610ab3610aad6125f2565b826126b3565b610af2576040517f08c379a0000000000000000000000000000000000000000000000000000000008152600401610ae990614b8c565b60405180910390fd5b610afd838383612791565b505050565b600080610b0e8561123c565b905060005b81811015610d2d576000610b278783610d87565b90506000811415610b3e5760019350505050610d34565b6004811015610b9d57610b8786866040518060400160405280600481526020017f46697265000000000000000000000000000000000000000000000000000000008152506129ed565b15610b985760019350505050610d34565b610d19565b6007811015610bfc57610be686866040518060400160405280600481526020017f53616e64000000000000000000000000000000000000000000000000000000008152506129ed565b15610bf75760019350505050610d34565b610d18565b600a811015610c5b57610c4586866040518060400160405280600381526020017f49636500000000000000000000000000000000000000000000000000000000008152506129ed565b15610c565760019350505050610d34565b610d17565b600d811015610cba57610ca486866040518060400160405280600481526020017f57696e64000000000000000000000000000000000000000000000000000000008152506129ed565b15610cb55760019350505050610d34565b610d16565b6010811015610d1557610d0386866040518060400160405280600981526020017f4c696768746e696e6700000000000000000000000000000000000000000000008152506129ed565b15610d145760019350505050610d34565b5b5b5b5b5b508080610d2590614f07565b915050610b13565b5060009150505b9392505050565b600080600b60009054906101000a900473ffffffffffffffffffffffffffffffffffffffff16612710600c5485610d729190614d60565b610d7c9190614d2f565b915091509250929050565b6000610d928361123c565b8210610dd3576040517f08c379a0000000000000000000000000000000000000000000000000000000008152600401610dca906149ac565b60405180910390fd5b600760008473ffffffffffffffffffffffffffffffffffffffff1673ffffffffffffffffffffffffffffffffffffffff168152602001908152602001600020600083815260200190815260200160002054905092915050565b610e4783838360405180602001604052806000815250611849565b505050565b60606000610e598361123c565b905060008167ffffffffffffffff811115610e9d577f4e487b7100000000000000000000000000000000000000000000000000000000600052604160045260246000fd5b604051908082528060200260200182016040528015610ecb5781602001602082028036833780820191505090505b50905060005b82811015610f3b57610ee38582610d87565b828281518110610f1c577f4e487b7100000000000000000000000000000000000000000000000000000000600052603260045260246000fd5b6020026020010181815250508080610f3390614f07565b915050610ed1565b508092505050919050565b6000600d54905090565b610f586125f2565b73ffffffffffffffffffffffffffffffffffffffff16610f76611603565b73ffffffffffffffffffffffffffffffffffffffff1614610fcc576040517f08c379a0000000000000000000000000000000000000000000000000000000008152600401610fc390614b2c565b60405180910390fd5b610fd7336000612a49565b565b6000610fe3610a95565b8210611024576040517f08c379a000000000000000000000000000000000000000000000000000000000815260040161101b90614bac565b60405180910390fd5b6009828154811061105e577f4e487b7100000000000000000000000000000000000000000000000000000000600052603260045260246000fd5b90600052602060002001549050919050565b6060611183826040518060400160405280600481526020017f47454152000000000000000000000000000000000000000000000000000000008152506014805480602002602001604051908101604052809291908181526020016000905b8282101561117a5783829060005260206000200180546110ed90614ea4565b80601f016020809104026020016040519081016040528092919081815260200182805461111990614ea4565b80156111665780601f1061113b57610100808354040283529160200191611166565b820191906000526020600020905b81548152906001019060200180831161114957829003601f168201915b5050505050815260200190600101906110ce565b50505050612a67565b9050919050565b6000806003600084815260200190815260200160002060009054906101000a900473ffffffffffffffffffffffffffffffffffffffff169050600073ffffffffffffffffffffffffffffffffffffffff168173ffffffffffffffffffffffffffffffffffffffff161415611233576040517f08c379a000000000000000000000000000000000000000000000000000000000815260040161122a90614acc565b60405180910390fd5b80915050919050565b60008073ffffffffffffffffffffffffffffffffffffffff168273ffffffffffffffffffffffffffffffffffffffff1614156112ad576040517f08c379a00000000000000000000000000000000000000000000000000000000081526004016112a490614aac565b60405180910390fd5b600460008373ffffffffffffffffffffffffffffffffffffffff1673ffffffffffffffffffffffffffffffffffffffff168152602001908152602001600020549050919050565b6112fc6125f2565b73ffffffffffffffffffffffffffffffffffffffff1661131a611603565b73ffffffffffffffffffffffffffffffffffffffff1614611370576040517f08c379a000000000000000000000000000000000000000000000000000000000815260040161136790614b2c565b60405180910390fd5b61137a6000612b67565b565b606061148f826040518060400160405280600581526020017f53544f524d0000000000000000000000000000000000000000000000000000008152506012805480602002602001604051908101604052809291908181526020016000905b828210156114865783829060005260206000200180546113f990614ea4565b80601f016020809104026020016040519081016040528092919081815260200182805461142590614ea4565b80156114725780601f1061144757610100808354040283529160200191611472565b820191906000526020600020905b81548152906001019060200180831161145557829003601f168201915b5050505050815260200190600101906113da565b50505050612a67565b9050919050565b61149e6125f2565b73ffffffffffffffffffffffffffffffffffffffff166114bc611603565b73ffffffffffffffffffffffffffffffffffffffff1614611512576040517f08c379a000000000000000000000000000000000000000000000000000000000815260040161150990614b2c565b60405180910390fd5b61151c8282612c2b565b5050565b600d54600e5410611566576040517f08c379a000000000000000000000000000000000000000000000000000000000815260040161155d90614bcc565b60405180910390fd5b600f543410156115ab576040517f08c379a00000000000000000000000000000000000000000000000000000000081526004016115a29061496c565b60405180910390fd5b6000600e549050600e60008154809291906115c590614f07565b91905055506115d43382612a49565b7f4272913264d3d5b2db92a5c96fd95b01c7a18745ee56b8bd44c981967bda64e160405160405180910390a150565b60008060009054906101000a900473ffffffffffffffffffffffffffffffffffffffff16905090565b60606002805461163b90614ea4565b80601f016020809104026020016040519081016040528092919081815260200182805461166790614ea4565b80156116b45780601f10611689576101008083540402835291602001916116b4565b820191906000526020600020905b81548152906001019060200180831161169757829003601f168201915b5050505050905090565b6116c66125f2565b73ffffffffffffffffffffffffffffffffffffffff168273ffffffffffffffffffffffffffffffffffffffff161415611734576040517f08c379a000000000000000000000000000000000000000000000000000000000815260040161172b90614a4c565b60405180910390fd5b80600660006117416125f2565b73ffffffffffffffffffffffffffffffffffffffff1673ffffffffffffffffffffffffffffffffffffffff16815260200190815260200160002060008473ffffffffffffffffffffffffffffffffffffffff1673ffffffffffffffffffffffffffffffffffffffff16815260200190815260200160002060006101000a81548160ff0219169083151502179055508173ffffffffffffffffffffffffffffffffffffffff166117ee6125f2565b73ffffffffffffffffffffffffffffffffffffffff167f17307eab39ab6107e8899845ad3d59bd9653f200f220920489ca2b5937696c3183604051611833919061488f565b60405180910390a35050565b6000600e54905090565b61185a6118546125f2565b836126b3565b611899576040517f08c379a000000000000000000000000000000000000000000000000000000000815260040161189090614b8c565b60405180910390fd5b6118a584848484612cbc565b50505050565b6118b36125f2565b73ffffffffffffffffffffffffffffffffffffffff166118d1611603565b73ffffffffffffffffffffffffffffffffffffffff1614611927576040517f08c379a000000000000000000000000000000000000000000000000000000000815260040161191e90614b2c565b60405180910390fd5b610fa081111561193657600080fd5b600d54811161194457600080fd5b80600d8190555050565b6060611958613bca565b6119618361225c565b8160006005811061199b577f4e487b7100000000000000000000000000000000000000000000000000000000600052603260045260246000fd5b60200201819052506040518060400160405280600181526020017f200000000000000000000000000000000000000000000000000000000000000081525081600160058110611a13577f4e487b7100000000000000000000000000000000000000000000000000000000600052603260045260246000fd5b6020020181905250611a248361137c565b81600260058110611a5e577f4e487b7100000000000000000000000000000000000000000000000000000000600052603260045260246000fd5b60200201819052506040518060400160405280600181526020017f200000000000000000000000000000000000000000000000000000000000000081525081600360058110611ad6577f4e487b7100000000000000000000000000000000000000000000000000000000600052603260045260246000fd5b6020020181905250611ae783611070565b81600460058110611b21577f4e487b7100000000000000000000000000000000000000000000000000000000600052603260045260246000fd5b6020020181905250600081600060058110611b65577f4e487b7100000000000000000000000000000000000000000000000000000000600052603260045260246000fd5b602002015182600160058110611ba4577f4e487b7100000000000000000000000000000000000000000000000000000000600052603260045260246000fd5b602002015183600260058110611be3577f4e487b7100000000000000000000000000000000000000000000000000000000600052603260045260246000fd5b602002015184600360058110611c22577f4e487b7100000000000000000000000000000000000000000000000000000000600052603260045260246000fd5b602002015185600460058110611c61577f4e487b7100000000000000000000000000000000000000000000000000000000600052603260045260246000fd5b6020020151604051602001611c7a9594939291906145df565b6040516020818303038152906040529050600060405180610120016040528060fd81526020016158e960fd9139905060006040518060400160405280600781526020017f3c2f746578743e0000000000000000000000000000000000000000000000000081525090506000611df6876040518060400160405280600e81526020017f434c415353494649434154494f4e0000000000000000000000000000000000008152506011805480602002602001604051908101604052809291908181526020016000905b82821015611ded578382906000526020600020018054611d6090614ea4565b80601f0160208091040260200160405190810160405280929190818152602001828054611d8c90614ea4565b8015611dd95780601f10611dae57610100808354040283529160200191611dd9565b820191906000526020600020905b815481529060010190602001808311611dbc57829003601f168201915b505050505081526020019060010190611d41565b50505050612a67565b604051602001611e0691906146e9565b60405160208183030381529060405290506000611f2a886040518060400160405280600581526020017f53544f524d0000000000000000000000000000000000000000000000000000008152506013805480602002602001604051908101604052809291908181526020016000905b82821015611f21578382906000526020600020018054611e9490614ea4565b80601f0160208091040260200160405190810160405280929190818152602001828054611ec090614ea4565b8015611f0d5780601f10611ee257610100808354040283529160200191611f0d565b820191906000526020600020905b815481529060010190602001808311611ef057829003601f168201915b505050505081526020019060010190611e75565b50505050612a67565b604051602001611f3a91906146bc565b6040516020818303038152906040529050600061205e896040518060400160405280600481526020017f47454152000000000000000000000000000000000000000000000000000000008152506015805480602002602001604051908101604052809291908181526020016000905b82821015612055578382906000526020600020018054611fc890614ea4565b80601f0160208091040260200160405190810160405280929190818152602001828054611ff490614ea4565b80156120415780601f1061201657610100808354040283529160200191612041565b820191906000526020600020905b81548152906001019060200180831161202457829003601f168201915b505050505081526020019060010190611fa9565b50505050612a67565b60405160200161206e919061468f565b604051602081830303815290604052905060006040518060400160405280600681526020017f3c2f7376673e000000000000000000000000000000000000000000000000000081525090506000868887878787876040516020016120d8979695949392919061462a565b6040516020818303038152906040529050612128816040518060400160405280600681526020017f4f75747075740000000000000000000000000000000000000000000000000000815250612d18565b60006122266121368d612db4565b8a61214085612f61565b8d60006005811061217a577f4e487b7100000000000000000000000000000000000000000000000000000000600052603260045260246000fd5b60200201518e6002600581106121b9577f4e487b7100000000000000000000000000000000000000000000000000000000600052603260045260246000fd5b60200201518f6004600581106121f8577f4e487b7100000000000000000000000000000000000000000000000000000000600052603260045260246000fd5b602002015160405160200161221296959493929190614716565b604051602081830303815290604052612f61565b90508060405160200161223991906147bb565b6040516020818303038152906040529150819a5050505050505050505050919050565b606061236f826040518060400160405280600e81526020017f434c415353494649434154494f4e0000000000000000000000000000000000008152506010805480602002602001604051908101604052809291908181526020016000905b828210156123665783829060005260206000200180546122d990614ea4565b80601f016020809104026020016040519081016040528092919081815260200182805461230590614ea4565b80156123525780601f1061232757610100808354040283529160200191612352565b820191906000526020600020905b81548152906001019060200180831161233557829003601f168201915b5050505050815260200190600101906122ba565b50505050612a67565b9050919050565b6000600660008473ffffffffffffffffffffffffffffffffffffffff1673ffffffffffffffffffffffffffffffffffffffff16815260200190815260200160002060008373ffffffffffffffffffffffffffffffffffffffff1673ffffffffffffffffffffffffffffffffffffffff16815260200190815260200160002060009054906101000a900460ff16905092915050565b6000600f54905090565b61241c6125f2565b73ffffffffffffffffffffffffffffffffffffffff1661243a611603565b73ffffffffffffffffffffffffffffffffffffffff1614612490576040517f08c379a000000000000000000000000000000000000000000000000000000000815260040161248790614b2c565b60405180910390fd5b600073ffffffffffffffffffffffffffffffffffffffff168173ffffffffffffffffffffffffffffffffffffffff161415612500576040517f08c379a00000000000000000000000000000000000000000000000000000000081526004016124f7906149ec565b60405180910390fd5b61250981612b67565b50565b60007f780e9d63000000000000000000000000000000000000000000000000000000007bffffffffffffffffffffffffffffffffffffffffffffffffffffffff1916827bffffffffffffffffffffffffffffffffffffffffffffffffffffffff1916148061257f575061257e8261311f565b5b9050919050565b60008073ffffffffffffffffffffffffffffffffffffffff166003600084815260200190815260200160002060009054906101000a900473ffffffffffffffffffffffffffffffffffffffff1673ffffffffffffffffffffffffffffffffffffffff1614159050919050565b600033905090565b816005600083815260200190815260200160002060006101000a81548173ffffffffffffffffffffffffffffffffffffffff021916908373ffffffffffffffffffffffffffffffffffffffff160217905550808273ffffffffffffffffffffffffffffffffffffffff1661266d8361118a565b73ffffffffffffffffffffffffffffffffffffffff167f8c5be1e5ebec7d5bd14f71427d1e84f3dd0314c0f7b2291e5b200ac8c7c3b92560405160405180910390a45050565b60006126be82612586565b6126fd576040517f08c379a00000000000000000000000000000000000000000000000000000000081526004016126f490614a6c565b60405180910390fd5b60006127088361118a565b90508073ffffffffffffffffffffffffffffffffffffffff168473ffffffffffffffffffffffffffffffffffffffff16148061277757508373ffffffffffffffffffffffffffffffffffffffff1661275f846108f8565b73ffffffffffffffffffffffffffffffffffffffff16145b8061278857506127878185612376565b5b91505092915050565b8273ffffffffffffffffffffffffffffffffffffffff166127b18261118a565b73ffffffffffffffffffffffffffffffffffffffff1614612807576040517f08c379a00000000000000000000000000000000000000000000000000000000081526004016127fe90614b4c565b60405180910390fd5b600073ffffffffffffffffffffffffffffffffffffffff168273ffffffffffffffffffffffffffffffffffffffff161415612877576040517f08c379a000000000000000000000000000000000000000000000000000000000815260040161286e90614a2c565b60405180910390fd5b612882838383613201565b61288d6000826125fa565b6001600460008573ffffffffffffffffffffffffffffffffffffffff1673ffffffffffffffffffffffffffffffffffffffff16815260200190815260200160002060008282546128dd9190614dba565b925050819055506001600460008473ffffffffffffffffffffffffffffffffffffffff1673ffffffffffffffffffffffffffffffffffffffff16815260200190815260200160002060008282546129349190614cd9565b92505081905550816003600083815260200190815260200160002060006101000a81548173ffffffffffffffffffffffffffffffffffffffff021916908373ffffffffffffffffffffffffffffffffffffffff160217905550808273ffffffffffffffffffffffffffffffffffffffff168473ffffffffffffffffffffffffffffffffffffffff167fddf252ad1be2c89b69c2b068fc378daa952ba7f163c4a11628f55a4df523b3ef60405160405180910390a4505050565b600081604051602001612a0091906148ce565b604051602081830303815290604052805190602001208484604051602001612a299291906148aa565b604051602081830303815290604052805190602001201490509392505050565b612a63828260405180602001604052806000815250613315565b5050565b60606000612a9d84612a7887612db4565b604051602001612a899291906145bb565b604051602081830303815290604052613370565b9050612aeb6040518060400160405280600581526020017f506c75636b00000000000000000000000000000000000000000000000000000081525085855184612ae69190614f50565b6133a3565b600083845183612afb9190614f50565b81518110612b32577f4e487b7100000000000000000000000000000000000000000000000000000000600052603260045260246000fd5b6020026020010151604051602001612b4a91906145a4565b604051602081830303815290604052905080925050509392505050565b60008060009054906101000a900473ffffffffffffffffffffffffffffffffffffffff169050816000806101000a81548173ffffffffffffffffffffffffffffffffffffffff021916908373ffffffffffffffffffffffffffffffffffffffff1602179055508173ffffffffffffffffffffffffffffffffffffffff168173ffffffffffffffffffffffffffffffffffffffff167f8be0079c531659141344cd1fd0a4f28419497f9722a3daafe3b4186f6b6457e060405160405180910390a35050565b612710811115612c70576040517f08c379a0000000000000000000000000000000000000000000000000000000008152600401612c679061498c565b60405180910390fd5b81600b60006101000a81548173ffffffffffffffffffffffffffffffffffffffff021916908373ffffffffffffffffffffffffffffffffffffffff16021790555080600c819055505050565b612cc7848484612791565b612cd384848484613442565b612d12576040517f08c379a0000000000000000000000000000000000000000000000000000000008152600401612d09906149cc565b60405180910390fd5b50505050565b612db08282604051602401612d2e9291906148f0565b6040516020818303038152906040527f4b5c4277000000000000000000000000000000000000000000000000000000007bffffffffffffffffffffffffffffffffffffffffffffffffffffffff19166020820180517bffffffffffffffffffffffffffffffffffffffffffffffffffffffff83818316178352505050506135d9565b5050565b60606000821415612dfc576040518060400160405280600181526020017f30000000000000000000000000000000000000000000000000000000000000008152509050612f5c565b600082905060005b60008214612e2e578080612e1790614f07565b915050600a82612e279190614d2f565b9150612e04565b60008167ffffffffffffffff811115612e70577f4e487b7100000000000000000000000000000000000000000000000000000000600052604160045260246000fd5b6040519080825280601f01601f191660200182016040528015612ea25781602001600182028036833780820191505090505b5090505b60008514612f5557600182612ebb9190614dba565b9150600a85612eca9190614f50565b6030612ed69190614cd9565b60f81b818381518110612f12577f4e487b7100000000000000000000000000000000000000000000000000000000600052603260045260246000fd5b60200101907effffffffffffffffffffffffffffffffffffffffffffffffffffffffffffff1916908160001a905350600a85612f4e9190614d2f565b9450612ea6565b8093505050505b919050565b60606000825190506000811415612f8a576040518060200160405280600081525091505061311a565b60006003600283612f9b9190614cd9565b612fa59190614d2f565b6004612fb19190614d60565b90506000602082612fc29190614cd9565b67ffffffffffffffff811115613001577f4e487b7100000000000000000000000000000000000000000000000000000000600052604160045260246000fd5b6040519080825280601f01601f1916602001820160405280156130335781602001600182028036833780820191505090505b50905060006040518060600160405280604081526020016159e6604091399050600181016020830160005b868110156130d75760038101905062ffffff818a015116603f8160121c168401518060081b905060ff603f83600c1c1686015116810190508060081b905060ff603f8360061c1686015116810190508060081b905060ff603f831686015116810190508060e01b9050808452600484019350505061305e565b5060038606600181146130f157600281146131015761310c565b613d3d60f01b600283035261310c565b603d60f81b60018303525b508484525050819450505050505b919050565b60007f80ac58cd000000000000000000000000000000000000000000000000000000007bffffffffffffffffffffffffffffffffffffffffffffffffffffffff1916827bffffffffffffffffffffffffffffffffffffffffffffffffffffffff191614806131ea57507f5b5e139f000000000000000000000000000000000000000000000000000000007bffffffffffffffffffffffffffffffffffffffffffffffffffffffff1916827bffffffffffffffffffffffffffffffffffffffffffffffffffffffff1916145b806131fa57506131f982613602565b5b9050919050565b61320c83838361366c565b600073ffffffffffffffffffffffffffffffffffffffff168373ffffffffffffffffffffffffffffffffffffffff16141561324f5761324a81613671565b61328e565b8173ffffffffffffffffffffffffffffffffffffffff168373ffffffffffffffffffffffffffffffffffffffff161461328d5761328c83826136ba565b5b5b600073ffffffffffffffffffffffffffffffffffffffff168273ffffffffffffffffffffffffffffffffffffffff1614156132d1576132cc81613827565b613310565b8273ffffffffffffffffffffffffffffffffffffffff168273ffffffffffffffffffffffffffffffffffffffff161461330f5761330e828261396a565b5b5b505050565b61331f83836139e9565b61332c6000848484613442565b61336b576040517f08c379a0000000000000000000000000000000000000000000000000000000008152600401613362906149cc565b60405180910390fd5b505050565b60008160405160200161338391906145a4565b6040516020818303038152906040528051906020012060001c9050919050565b61343d8383836040516024016133bb93929190614927565b6040516020818303038152906040527ff362ca59000000000000000000000000000000000000000000000000000000007bffffffffffffffffffffffffffffffffffffffffffffffffffffffff19166020820180517bffffffffffffffffffffffffffffffffffffffffffffffffffffffff83818316178352505050506135d9565b505050565b60006134638473ffffffffffffffffffffffffffffffffffffffff16613bb7565b156135cc578373ffffffffffffffffffffffffffffffffffffffff1663150b7a0261348c6125f2565b8786866040518563ffffffff1660e01b81526004016134ae94939291906147f8565b602060405180830381600087803b1580156134c857600080fd5b505af19250505080156134f957506040513d601f19601f820116820180604052508101906134f69190613f34565b60015b61357c573d8060008114613529576040519150601f19603f3d011682016040523d82523d6000602084013e61352e565b606091505b50600081511415613574576040517f08c379a000000000000000000000000000000000000000000000000000000000815260040161356b906149cc565b60405180910390fd5b805181602001fd5b63150b7a0260e01b7bffffffffffffffffffffffffffffffffffffffffffffffffffffffff1916817bffffffffffffffffffffffffffffffffffffffffffffffffffffffff1916149150506135d1565b600190505b949350505050565b60008151905060006a636f6e736f6c652e6c6f679050602083016000808483855afa5050505050565b60007f01ffc9a7000000000000000000000000000000000000000000000000000000007bffffffffffffffffffffffffffffffffffffffffffffffffffffffff1916827bffffffffffffffffffffffffffffffffffffffffffffffffffffffff1916149050919050565b505050565b600980549050600a600083815260200190815260200160002081905550600981908060018154018082558091505060019003906000526020600020016000909190919091505550565b600060016136c78461123c565b6136d19190614dba565b90506000600860008481526020019081526020016000205490508181146137b6576000600760008673ffffffffffffffffffffffffffffffffffffffff1673ffffffffffffffffffffffffffffffffffffffff168152602001908152602001600020600084815260200190815260200160002054905080600760008773ffffffffffffffffffffffffffffffffffffffff1673ffffffffffffffffffffffffffffffffffffffff168152602001908152602001600020600084815260200190815260200160002081905550816008600083815260200190815260200160002081905550505b6008600084815260200190815260200160002060009055600760008573ffffffffffffffffffffffffffffffffffffffff1673ffffffffffffffffffffffffffffffffffffffff16815260200190815260200160002060008381526020019081526020016000206000905550505050565b6000600160098054905061383b9190614dba565b90506000600a6000848152602001908152602001600020549050600060098381548110613891577f4e487b7100000000000000000000000000000000000000000000000000000000600052603260045260246000fd5b9060005260206000200154905080600983815481106138d9577f4e487b7100000000000000000000000000000000000000000000000000000000600052603260045260246000fd5b906000526020600020018190555081600a600083815260200190815260200160002081905550600a600085815260200190815260200160002060009055600980548061394e577f4e487b7100000000000000000000000000000000000000000000000000000000600052603160045260246000fd5b6001900381819060005260206000200160009055905550505050565b60006139758361123c565b905081600760008573ffffffffffffffffffffffffffffffffffffffff1673ffffffffffffffffffffffffffffffffffffffff168152602001908152602001600020600083815260200190815260200160002081905550806008600084815260200190815260200160002081905550505050565b600073ffffffffffffffffffffffffffffffffffffffff168273ffffffffffffffffffffffffffffffffffffffff161415613a59576040517f08c379a0000000000000000000000000000000000000000000000000000000008152600401613a5090614aec565b60405180910390fd5b613a6281612586565b15613aa2576040517f08c379a0000000000000000000000000000000000000000000000000000000008152600401613a9990614a0c565b60405180910390fd5b613aae60008383613201565b6001600460008473ffffffffffffffffffffffffffffffffffffffff1673ffffffffffffffffffffffffffffffffffffffff1681526020019081526020016000206000828254613afe9190614cd9565b92505081905550816003600083815260200190815260200160002060006101000a81548173ffffffffffffffffffffffffffffffffffffffff021916908373ffffffffffffffffffffffffffffffffffffffff160217905550808273ffffffffffffffffffffffffffffffffffffffff16600073ffffffffffffffffffffffffffffffffffffffff167fddf252ad1be2c89b69c2b068fc378daa952ba7f163c4a11628f55a4df523b3ef60405160405180910390a45050565b600080823b905060008111915050919050565b6040518060a001604052806005905b6060815260200190600190039081613bd95790505090565b6000613c04613bff84614c2c565b614c07565b905082815260208101848484011115613c1c57600080fd5b613c27848285614e62565b509392505050565b600081359050613c3e8161588c565b92915050565b600081359050613c53816158a3565b92915050565b600081359050613c68816158ba565b92915050565b600081519050613c7d816158ba565b92915050565b600082601f830112613c9457600080fd5b8135613ca4848260208601613bf1565b91505092915050565b60008083601f840112613cbf57600080fd5b8235905067ffffffffffffffff811115613cd857600080fd5b602083019150836001820283011115613cf057600080fd5b9250929050565b600081359050613d06816158d1565b92915050565b600060208284031215613d1e57600080fd5b6000613d2c84828501613c2f565b91505092915050565b60008060408385031215613d4857600080fd5b6000613d5685828601613c2f565b9250506020613d6785828601613c2f565b9150509250929050565b600080600060608486031215613d8657600080fd5b6000613d9486828701613c2f565b9350506020613da586828701613c2f565b9250506040613db686828701613cf7565b9150509250925092565b60008060008060808587031215613dd657600080fd5b6000613de487828801613c2f565b9450506020613df587828801613c2f565b9350506040613e0687828801613cf7565b925050606085013567ffffffffffffffff811115613e2357600080fd5b613e2f87828801613c83565b91505092959194509250565b60008060408385031215613e4e57600080fd5b6000613e5c85828601613c2f565b9250506020613e6d85828601613c44565b9150509250929050565b600080600060408486031215613e8c57600080fd5b6000613e9a86828701613c2f565b935050602084013567ffffffffffffffff811115613eb757600080fd5b613ec386828701613cad565b92509250509250925092565b60008060408385031215613ee257600080fd5b6000613ef085828601613c2f565b9250506020613f0185828601613cf7565b9150509250929050565b600060208284031215613f1d57600080fd5b6000613f2b84828501613c59565b91505092915050565b600060208284031215613f4657600080fd5b6000613f5484828501613c6e565b91505092915050565b600060208284031215613f6f57600080fd5b6000613f7d84828501613cf7565b91505092915050565b60008060408385031215613f9957600080fd5b6000613fa785828601613cf7565b9250506020613fb885828601613cf7565b9150509250929050565b6000613fce8383614586565b60208301905092915050565b613fe381614dee565b82525050565b6000613ff482614c6d565b613ffe8185614c9b565b935061400983614c5d565b8060005b8381101561403a5781516140218882613fc2565b975061402c83614c8e565b92505060018101905061400d565b5085935050505092915050565b61405081614e00565b82525050565b600061406182614c78565b61406b8185614cac565b935061407b818560208601614e71565b6140848161503d565b840191505092915050565b600061409b8385614cbd565b93506140a8838584614e62565b6140b18361503d565b840190509392505050565b60006140c782614c83565b6140d18185614cbd565b93506140e1818560208601614e71565b6140ea8161503d565b840191505092915050565b600061410082614c83565b61410a8185614cce565b935061411a818560208601614e71565b80840191505092915050565b6000614133601183614cce565b915061413e8261504e565b601182019050919050565b6000614156602883614cce565b915061416182615077565b602882019050919050565b6000614179600b83614cbd565b9150614184826150c6565b602082019050919050565b600061419c601a83614cbd565b91506141a7826150ef565b602082019050919050565b60006141bf600d83614cce565b91506141ca82615118565b600d82019050919050565b60006141e2602b83614cbd565b91506141ed82615141565b604082019050919050565b6000614205603283614cbd565b915061421082615190565b604082019050919050565b6000614228602683614cbd565b9150614233826151df565b604082019050919050565b600061424b601c83614cbd565b91506142568261522e565b602082019050919050565b600061426e602783614cce565b915061427982615257565b602782019050919050565b6000614291602683614cce565b915061429c826152a6565b602682019050919050565b60006142b4602483614cbd565b91506142bf826152f5565b604082019050919050565b60006142d7601983614cbd565b91506142e282615344565b602082019050919050565b60006142fa600e83614cce565b91506143058261536d565b600e82019050919050565b600061431d602c83614cbd565b915061432882615396565b604082019050919050565b6000614340603883614cbd565b915061434b826153e5565b604082019050919050565b6000614363602a83614cbd565b915061436e82615434565b604082019050919050565b6000614386602983614cbd565b915061439182615483565b604082019050919050565b60006143a9602083614cbd565b91506143b4826154d2565b602082019050919050565b60006143cc602783614cce565b91506143d7826154fb565b602782019050919050565b60006143ef601483614cce565b91506143fa8261554a565b601482019050919050565b6000614412602c83614cbd565b915061441d82615573565b604082019050919050565b6000614435608483614cce565b9150614440826155c2565b608482019050919050565b6000614458602083614cbd565b915061446382615683565b602082019050919050565b600061447b602983614cbd565b9150614486826156ac565b604082019050919050565b600061449e602183614cbd565b91506144a9826156fb565b604082019050919050565b60006144c1601d83614cce565b91506144cc8261574a565b601d82019050919050565b60006144e4603183614cbd565b91506144ef82615773565b604082019050919050565b6000614507602c83614cbd565b9150614512826157c2565b604082019050919050565b600061452a600283614cce565b915061453582615811565b600282019050919050565b600061454d600883614cbd565b91506145588261583a565b602082019050919050565b6000614570600483614cce565b915061457b82615863565b600482019050919050565b61458f81614e58565b82525050565b61459e81614e58565b82525050565b60006145b082846140f5565b915081905092915050565b60006145c782856140f5565b91506145d382846140f5565b91508190509392505050565b60006145eb82886140f5565b91506145f782876140f5565b915061460382866140f5565b915061460f82856140f5565b915061461b82846140f5565b91508190509695505050505050565b6000614636828a6140f5565b915061464282896140f5565b915061464e82886140f5565b915061465a82876140f5565b915061466682866140f5565b915061467282856140f5565b915061467e82846140f5565b915081905098975050505050505050565b600061469a82614149565b91506146a682846140f5565b91506146b182614126565b915081905092915050565b60006146c782614261565b91506146d382846140f5565b91506146de82614126565b915081905092915050565b60006146f4826143bf565b915061470082846140f5565b915061470b82614126565b915081905092915050565b6000614721826143e2565b915061472d82896140f5565b91506147388261451d565b915061474482886140f5565b915061474f82614428565b915061475b82876140f5565b915061476682614284565b915061477282866140f5565b915061477d826141b2565b915061478982856140f5565b9150614794826142ed565b91506147a082846140f5565b91506147ab82614563565b9150819050979650505050505050565b60006147c6826144b4565b91506147d282846140f5565b915081905092915050565b60006020820190506147f26000830184613fda565b92915050565b600060808201905061480d6000830187613fda565b61481a6020830186613fda565b6148276040830185614595565b81810360608301526148398184614056565b905095945050505050565b60006040820190506148596000830185613fda565b6148666020830184614595565b9392505050565b600060208201905081810360008301526148878184613fe9565b905092915050565b60006020820190506148a46000830184614047565b92915050565b600060208201905081810360008301526148c581848661408f565b90509392505050565b600060208201905081810360008301526148e881846140bc565b905092915050565b6000604082019050818103600083015261490a81856140bc565b9050818103602083015261491e81846140bc565b90509392505050565b6000606082019050818103600083015261494181866140bc565b9050818103602083015261495581856140bc565b90506149646040830184614595565b949350505050565b600060208201905081810360008301526149858161416c565b9050919050565b600060208201905081810360008301526149a58161418f565b9050919050565b600060208201905081810360008301526149c5816141d5565b9050919050565b600060208201905081810360008301526149e5816141f8565b9050919050565b60006020820190508181036000830152614a058161421b565b9050919050565b60006020820190508181036000830152614a258161423e565b9050919050565b60006020820190508181036000830152614a45816142a7565b9050919050565b60006020820190508181036000830152614a65816142ca565b9050919050565b60006020820190508181036000830152614a8581614310565b9050919050565b60006020820190508181036000830152614aa581614333565b9050919050565b60006020820190508181036000830152614ac581614356565b9050919050565b60006020820190508181036000830152614ae581614379565b9050919050565b60006020820190508181036000830152614b058161439c565b9050919050565b60006020820190508181036000830152614b2581614405565b9050919050565b60006020820190508181036000830152614b458161444b565b9050919050565b60006020820190508181036000830152614b658161446e565b9050919050565b60006020820190508181036000830152614b8581614491565b9050919050565b60006020820190508181036000830152614ba5816144d7565b9050919050565b60006020820190508181036000830152614bc5816144fa565b9050919050565b60006020820190508181036000830152614be581614540565b9050919050565b6000602082019050614c016000830184614595565b92915050565b6000614c11614c22565b9050614c1d8282614ed6565b919050565b6000604051905090565b600067ffffffffffffffff821115614c4757614c4661500e565b5b614c508261503d565b9050602081019050919050565b6000819050602082019050919050565b600081519050919050565b600081519050919050565b600081519050919050565b6000602082019050919050565b600082825260208201905092915050565b600082825260208201905092915050565b600082825260208201905092915050565b600081905092915050565b6000614ce482614e58565b9150614cef83614e58565b9250827fffffffffffffffffffffffffffffffffffffffffffffffffffffffffffffffff03821115614d2457614d23614f81565b5b828201905092915050565b6000614d3a82614e58565b9150614d4583614e58565b925082614d5557614d54614fb0565b5b828204905092915050565b6000614d6b82614e58565b9150614d7683614e58565b9250817fffffffffffffffffffffffffffffffffffffffffffffffffffffffffffffffff0483118215151615614daf57614dae614f81565b5b828202905092915050565b6000614dc582614e58565b9150614dd083614e58565b925082821015614de357614de2614f81565b5b828203905092915050565b6000614df982614e38565b9050919050565b60008115159050919050565b60007fffffffff0000000000000000000000000000000000000000000000000000000082169050919050565b600073ffffffffffffffffffffffffffffffffffffffff82169050919050565b6000819050919050565b82818337600083830152505050565b60005b83811015614e8f578082015181840152602081019050614e74565b83811115614e9e576000848401525b50505050565b60006002820490506001821680614ebc57607f821691505b60208210811415614ed057614ecf614fdf565b5b50919050565b614edf8261503d565b810181811067ffffffffffffffff82111715614efe57614efd61500e565b5b80604052505050565b6000614f1282614e58565b91507fffffffffffffffffffffffffffffffffffffffffffffffffffffffffffffffff821415614f4557614f44614f81565b5b600182019050919050565b6000614f5b82614e58565b9150614f6683614e58565b925082614f7657614f75614fb0565b5b828206905092915050565b7f4e487b7100000000000000000000000000000000000000000000000000000000600052601160045260246000fd5b7f4e487b7100000000000000000000000000000000000000000000000000000000600052601260045260246000fd5b7f4e487b7100000000000000000000000000000000000000000000000000000000600052602260045260246000fd5b7f4e487b7100000000000000000000000000000000000000000000000000000000600052604160045260246000fd5b6000601f19601f8301169050919050565b7f222066696c6c3d22776869746522202f3e000000000000000000000000000000600082015250565b7f3c70617468207472616e73666f726d3d227472616e736c6174652831302c203160008201527f3030292220643d22000000000000000000000000000000000000000000000000602082015250565b7f6465737469747574696f6e000000000000000000000000000000000000000000600082015250565b7f45524332393831526f79616c746965733a20546f6f2068696768000000000000600082015250565b7f222c202273746f726d223a202200000000000000000000000000000000000000600082015250565b7f455243373231456e756d657261626c653a206f776e657220696e646578206f7560008201527f74206f6620626f756e6473000000000000000000000000000000000000000000602082015250565b7f4552433732313a207472616e7366657220746f206e6f6e20455243373231526560008201527f63656976657220696d706c656d656e7465720000000000000000000000000000602082015250565b7f4f776e61626c653a206e6577206f776e657220697320746865207a65726f206160008201527f6464726573730000000000000000000000000000000000000000000000000000602082015250565b7f4552433732313a20746f6b656e20616c7265616479206d696e74656400000000600082015250565b7f3c70617468207472616e73666f726d3d227472616e736c6174652831302c203660008201527f30292220643d2200000000000000000000000000000000000000000000000000602082015250565b7f222c202261747472696275746573223a205b7b22636c6173736966696361746960008201527f6f6e223a20220000000000000000000000000000000000000000000000000000602082015250565b7f4552433732313a207472616e7366657220746f20746865207a65726f2061646460008201527f7265737300000000000000000000000000000000000000000000000000000000602082015250565b7f4552433732313a20617070726f766520746f2063616c6c657200000000000000600082015250565b7f222c20226f626a656374223a2022000000000000000000000000000000000000600082015250565b7f4552433732313a206f70657261746f7220717565727920666f72206e6f6e657860008201527f697374656e7420746f6b656e0000000000000000000000000000000000000000602082015250565b7f4552433732313a20617070726f76652063616c6c6572206973206e6f74206f7760008201527f6e6572206e6f7220617070726f76656420666f7220616c6c0000000000000000602082015250565b7f4552433732313a2062616c616e636520717565727920666f7220746865207a6560008201527f726f206164647265737300000000000000000000000000000000000000000000602082015250565b7f4552433732313a206f776e657220717565727920666f72206e6f6e657869737460008201527f656e7420746f6b656e0000000000000000000000000000000000000000000000602082015250565b7f4552433732313a206d696e7420746f20746865207a65726f2061646472657373600082015250565b7f3c70617468207472616e73666f726d3d227472616e736c6174652831302c203260008201527f30292220643d2200000000000000000000000000000000000000000000000000602082015250565b7f7b226e616d65223a202241727469666163742023000000000000000000000000600082015250565b7f4552433732313a20617070726f76656420717565727920666f72206e6f6e657860008201527f697374656e7420746f6b656e0000000000000000000000000000000000000000602082015250565b7f222c20226465736372697074696f6e223a202253746f726d57696e647320617260008201527f7469666163747320617265207573656420746f20636f6e74726f6c207468652060208201527f73746f726d73207468726f7567686f757420746865207265616c6d732e222c2060408201527f22696d616765223a2022646174613a696d6167652f7376672b786d6c3b62617360608201527f6536342c00000000000000000000000000000000000000000000000000000000608082015250565b7f4f776e61626c653a2063616c6c6572206973206e6f7420746865206f776e6572600082015250565b7f4552433732313a207472616e73666572206f6620746f6b656e2074686174206960008201527f73206e6f74206f776e0000000000000000000000000000000000000000000000602082015250565b7f4552433732313a20617070726f76616c20746f2063757272656e74206f776e6560008201527f7200000000000000000000000000000000000000000000000000000000000000602082015250565b7f646174613a6170706c69636174696f6e2f6a736f6e3b6261736536342c000000600082015250565b7f4552433732313a207472616e736665722063616c6c6572206973206e6f74206f60008201527f776e6572206e6f7220617070726f766564000000000000000000000000000000602082015250565b7f455243373231456e756d657261626c653a20676c6f62616c20696e646578206f60008201527f7574206f6620626f756e64730000000000000000000000000000000000000000602082015250565b7f3a20000000000000000000000000000000000000000000000000000000000000600082015250565b7f646f726d616e6379000000000000000000000000000000000000000000000000600082015250565b7f227d5d7d00000000000000000000000000000000000000000000000000000000600082015250565b61589581614dee565b81146158a057600080fd5b50565b6158ac81614e00565b81146158b757600080fd5b50565b6158c381614e0c565b81146158ce57600080fd5b50565b6158da81614e58565b81146158e557600080fd5b5056fe3c73766720786d6c6e733d22687474703a2f2f7777772e77332e6f72672f323030302f73766722207072657365727665417370656374526174696f3d22784d696e594d696e206d656574222076696577426f783d223020302033353020333530223e3c7374796c653e2e62617365207b2066696c6c3a20626c61636b3b20666f6e742d66616d696c793a2073657269663b20666f6e742d73697a653a20313470783b207d3c2f7374796c653e3c726563742077696474683d223130302522206865696768743d2231303025222066696c6c3d22626c61636b22202f3e3c7465787420783d2231302220793d2232302220636c6173733d2262617365223e4142434445464748494a4b4c4d4e4f505152535455565758595a6162636465666768696a6b6c6d6e6f707172737475767778797a303132333435363738392b2fa2646970667358221220a8f43d1a6fa3e9dc507ca6060b90c4b40daa7352a0c0a85881ef7a573ccdae2264736f6c634300080400334d302032385638483456344838563048323056344832345638483238563238483230563230483856323848305a4d3820313648323056384831365634483132563848385631365a4d333220323856384835365631324836305632384835325631324834305632384833325a4d363820323856323448363456313248363856384839325631324837325632344839325632384836385a4d31303820345630483131365634483130385a4d313030203238563234483130385631324831303456384831313656323448313234563238483130305a4d3133322032385632344831323856313248313332563848313532563132483135365632304831333656323448313532563238483133325a4d31333620313648313438563132483133365631365a4d313630203238563848313834563132483138385632384831383056313248313638563238483136305a4d3230342032385631324831393656384832303456304832313256384832323056313248323132563238483230345a4d302032385638483456344838563048323056344832345638483238563238483230563230483856323848305a4d3820313648323056384831365634483132563848385631365a4d333220323856384835365631324836305632384835325631324834385632384834305631324833365632384833325a4d3638203238563234483634563848373256323448383456384839325632384836385a4d3130302032385632344831303856344831303456304831313656323448313234563238483130305a4d3133322032385632344831323856313248313332563848313532563132483135365632304831333656323448313532563238483133325a4d31333620313648313438563132483133365631365a4d3137322032385631324831363456384831373256304831383056384831383856313248313830563238483137325a4d3020323856304832305634483234563848323856323048323456323448323056323848305a4d382032344831365632304832305638483136563448385632345a4d333620323856323448333256323048333656313648353256313248333656384835365631324836305632384833365a4d34302032344835325632304834305632345a4d373620313248383056313648373656323848363856384837365631325a4d3932203856313248383056384839325a4d39362032385630483130345631364831313256313248313136563848313234563132483132305631364831313656323048313230563234483132345632384831313656323448313132563230483130345632384839365a4d31322032385632344838563230483456313648305630483856313248313256313648313656313248323056304832385631364832345632304832305632344831365632384831325a4d333620323856323448333256313248333656384835365631324836305632344835365632384833365a4d34302032344835325631324834305632345a4d37362034563048383456344837365a4d363820323856323448373656313248373256384838345632344839325632384836385a4d31303020323856323448393656313248313030563848313136563048313234563238483130305a4d31303420323448313136563132483130345632345a4d30203238563048323856344838563132483234563136483856323848305a4d34342034563048353256344834345a4d333620323856323448343456313248343056384835325632344836305632384833365a4d373620313248383056313648373656323848363856384837365631325a4d3932203856313248383056384839325a4d31303020323856323448393656313248313030563848313230563132483132345632304831303456323448313230563238483130305a4d31303420313648313136563132483130345631365a4d34203238563234483056304838563234483230563048323856323448323456323848345a4d333220323856384835365631324836305632384835325631324834305632384833325a4d3638203238563234483634563132483638563848383456304839325632384836385a4d37322032344838345631324837325632345a4d31303020323856323448393656313248313030563848313230563132483132345632304831303456323448313230563238483130305a4d31303420313648313136563132483130345631365a4d3133322032385632344831323856323048313332563136483134385631324831333256384831353256313248313536563238483133325a4d31333620323448313438563230483133365632345a4d3136342032385632344831363056313248313634563848313830563048313838563238483136345a4d31363820323448313830563132483136385632345a4d38203238563234483456323048305638483456344838563048323856344831325638483856323048313256323448323056313648313656313248323856323848385a4d333620323856323448333256313248333656384835365631324836305632304834305632344835365632384833365a4d34302031364835325631324834305631365a4d363420323856384838385631324839325632384838345631324838305632384837325631324836385632384836345a4d302032385630483234563448323856313248323456313648323856323448323456323848305a4d38203132483230563448385631325a4d3820323448323056313648385632345a4d343420313248343856313648343456323848333656384834345631325a4d3630203856313248343856384836305a4d37362034563048383456344837365a4d363820323856323448373656313248373256384838345632344839325632384836385a4d31303020333256323848313136563234483130305632304839365631324831303056384831323456323848313230563332483130305a4d31303420323048313136563132483130345632305a4d313238203238563048313336563848313532563132483135365632384831343856313248313336563238483132385a4d3137322032385631324831363456384831373256304831383056384831383856313248313830563238483137325a4d3020323856304832345634483238563136483234563230483856323848305a4d38203136483230563448385631365a4d3336203238563234483434563448343056304835325632344836305632384833365a4d363820323856323448363456323048363856313648383456313248363856384838385631324839325632384836385a4d37322032344838345632304837325632345a4d3130382032385631324831303056384831303856304831313656384831323456313248313136563238483130385a4d3133322032385632344831323856313248313332563848313532563132483135365632304831333656323448313532563238483133325a4d31333620313648313438563132483133365631365a4d342032385632344830563230483856323448323056313648345631324830563448345630483234563448323856384832305634483856313248323456313648323856323448323456323848345a4d3332203238563048343056384835365631324836305632384835325631324834305632384833325a4d363820323856323448363456323048363856313648383456313248363856384838385631324839325632384836385a4d37322032344838345632304837325632345a4d3130382031324831313256313648313038563238483130305638483130385631325a4d3132342038563132483131325638483132345a4d3133322032385632344831323856313248313332563848313438563048313536563238483133325a4d31333620323448313438563132483133365632345a4d302032385632344838563448305630483234563448313656323448323456323848305a4d333220323856323448323856313248333256384835365631324833365632344835365632384833325a4d363420323856323448363056313248363456384838345631324838385632304836385632344838345632384836345a4d36382031364838305631324836385631365a4d30203238563048323856344838563132483234563136483856323448323856323848305a4d333220323856384835365631324836305632384835325631324834305632384833325a4d3638203238563234483736563448373256304838345632344839325632384836385a4d31303820345630483131365634483130385a4d313030203238563234483130385631324831303456384831313656323448313234563238483130305a4d3133322032385632344831343056344831333656304831343856323448313536563238483133325a4d3136302032385632344831383056323048313634563136483136305631324831363456384831383456313248313638563136483138345632304831383856323448313834563238483136305a4d30203238563048323856344838563132483234563136483856323448323856323848305a4d3336203238563234483434563448343056304835325632344836305632384833365a4d3638203238563234483634563132483638563848383456304839325632384836385a4d37322032344838345631324837325632345a4d3130382031324831313256313648313038563238483130305638483130385631325a4d3132342038563132483131325638483132345a4d31343020345630483134385634483134305a4d313332203238563234483134305631324831333656384831343856323448313536563238483133325a4d3137322032385631324831363456384831373256304831383056384831383856313248313830563238483137325a4d31393620323856323448313932563132483139365638483232305631324832303056323448323230563238483139365a4d323234203238563048323332563848323438563132483235325632384832343456313248323332563238483232345a4d302032385630483856323448323456323848305a4d333220323856323448323856313248333256384835325631324835365632344835325632384833325a4d33362032344834385631324833365632345a4d3732203238563234483638563230483634563848373256323048383056384838385632304838345632344838305632384837325a4d39362032385632344839325631324839365638483131365631324831323056323048313030563234483131365632384839365a4d31303020313648313132563132483130305631365a4d3132382032385632344831333656344831333256304831343456323448313532563238483132385a4d3136302032385632344831353656313248313630563848313830563132483138345632304831363456323448313830563238483136305a4d31363420313648313736563132483136345631365a4d3138382032385632344832303856323048313932563136483138385631324831393256384832313256313248313936563136483231325632304832313656323448323132563238483138385a4d3232302032385632344832343056323048323234563136483232305631324832323456384832343456313248323238563136483234345632304832343856323448323434563238483232305a4d342032385632344830563230483856323448323056313648345631324830563448345630483234563448323856384832305634483856313248323456313648323856323448323456323848345a4d333620323856323448333256323048333656313648353256313248333656384835365631324836305632384833365a4d34302032344835325632304834305632345a4d363420323856384838385631324839325632384838345631324837325632384836345a4d31303020323856323448393656313248313030563848313136563048313234563238483130305a4d31303420323448313136563132483130345632345a4d342032385632344830563230483856323448323056313648345631324830563448345630483234563448323856384832305634483856313248323456313648323856323448323456323848345a4d333620323856323448333256313248333656384835365631324836305632304834305632344835365632384833365a4d34302031364835325631324834305631365a4d363820323856323448363456313248363856384838385631324839325632304837325632344838385632384836385a4d37322031364838345631324837325631365a4d31303020323856323448393656313248313030563848313136563048313234563238483130305a4d31303420323448313136563132483130345632345a4d3420323856323448305630483856313648313256304831365631364832305630483238563234483234563238483230563234483136563230483132563234483856323848345a4d34342034563048353256344834345a4d333620323856323448343456313248343056384835325632344836305632384833365a4d363420323856384838385631324839325632384838345631324837325632384836345a4d31303020323856323448393656313248313030563848313136563048313234563238483130305a4d31303420323448313136563132483130345632345a4d30203238563048385631324832305630483238563238483230563136483856323848305a4d333620323856323448333256313248333656384835365631324836305632304834305632344835365632384833365a4d34302031364835325631324834305631365a4d3638203238563234483736563448373256304838345632344839325632384836385a4d393620323856384831323056313248313234563238483131365631324831313256323848313034563132483130305632384839365a4d342032385632344830563230483856323448323056313648345631324830563448345630483234563448323856384832305634483856313248323456313648323856323448323456323848345a4d343020323448343456323848333656323448333256384834305632345a4d3438203856323448343456384834385a4d3630203856323448353656323848343856323448353256384836305a4d363820323856323448363456313248363856384838385631324839325632344838385632384836385a4d37322032344838345631324837325632345a4d3130382031324831313256313648313038563238483130305638483130385631325a4d3132342038563132483131325638483132345a4d3133322032385632344831323856313248313332563848313438563048313536563238483133325a4d31333620323448313438563132483133365632345a4d3020323856304832345634483238563136483230563230483234563234483238563238483136563234483132563230483856323848305a4d38203136483136563132483230563448385631365a4d3336203238563234483332563848343056323448353256384836305632384833365a4d363420323856384838385631324839325632384838345631324837325632384836345a4d31303820345630483131365634483130385a4d313030203238563234483130385631324831303456384831313656323448313234563238483130305a4d31333220323856323448313238563132483133325638483135365631324831333656323448313536563238483133325a4d302032385630483856323448323456323848305a4d34302034563048343856344834305a4d333220323856323448343056313248333656384834385632344835365632384833325a4d363420333256323848383056323448363456323048363056313248363456384838385632384838345633324836345a4d36382032304838305631324836385632305a4d39322032385630483130305638483131365631324831323056323848313132563132483130305632384839325a4d3133362032385631324831323856384831333656304831343456384831353256313248313434563238483133365a4d313536203238563848313830563132483138345632384831373656313248313634563238483135365a4d32303020345630483230385634483230305a4d313932203238563234483230305631324831393656384832303856323448323136563238483139325a4d323230203238563848323434563132483234385632384832343056313248323238563238483232305a4d3235362033325632384832373256323448323536563230483235325631324832353656384832383056323848323736563332483235365a4d32363020323048323732563132483236305632305a4d3820323856323448345632304830563848345634483856304832345634483238563848323056344831325638483856323048313256323448323056323048323856323448323456323848385a4d343420313248343856313648343456323848333656384834345631325a4d3630203856313248343856384836305a4d3638203332563238483834563234483638563230483634563848373256323048383456384839325632384838385633324836385a4d3936203238563234483131365632304831303056313648393656313248313030563848313230563132483130345631364831323056323048313234563234483132305632384839365a4d3134302032385631324831333256384831343056304831343856384831353656313248313438563238483134305a4d3136342032385632344831363056323048313634563136483138305631324831363456384831383456313248313838563238483136345a4d31363820323448313830563230483136385632345a4d3139362032385632344832303456344832303056304832313256323448323230563238483139365a",
  "devdoc": {
    "kind": "dev",
    "methods": {
      "approve(address,uint256)": {
        "details": "See {IERC721-approve}."
      },
      "balanceOf(address)": {
        "details": "See {IERC721-balanceOf}."
      },
      "getApproved(uint256)": {
        "details": "See {IERC721-getApproved}."
      },
      "isApprovedForAll(address,address)": {
        "details": "See {IERC721-isApprovedForAll}."
      },
      "name()": {
        "details": "See {IERC721Metadata-name}."
      },
      "owner()": {
        "details": "Returns the address of the current owner."
      },
      "ownerOf(uint256)": {
        "details": "See {IERC721-ownerOf}."
      },
      "renounceOwnership()": {
        "details": "Leaves the contract without owner. It will not be possible to call `onlyOwner` functions anymore. Can only be called by the current owner. NOTE: Renouncing ownership will leave the contract without an owner, thereby removing any functionality that is only available to the owner."
      },
      "royaltyInfo(uint256,uint256)": {
        "params": {
          "_tokenId": "- the NFT asset queried for royalty information",
          "_value": "- the sale price of the NFT asset specified by _tokenId"
        },
        "returns": {
          "receiver": "- address of who should be sent the royalty payment",
          "royaltyAmount": "- the royalty payment amount for value sale price"
        }
      },
      "safeTransferFrom(address,address,uint256)": {
        "details": "See {IERC721-safeTransferFrom}."
      },
      "safeTransferFrom(address,address,uint256,bytes)": {
        "details": "See {IERC721-safeTransferFrom}."
      },
      "setApprovalForAll(address,bool)": {
        "details": "See {IERC721-setApprovalForAll}."
      },
      "setRoyalties(address,uint256)": {
        "details": "Sets token royalties",
        "params": {
          "recipient": "recipient of the royalties",
          "value": "percentage (using 2 decimals - 10000 = 100, 0 = 0)"
        }
      },
      "supportsInterface(bytes4)": {
        "details": "See {IERC165-supportsInterface}."
      },
      "symbol()": {
        "details": "See {IERC721Metadata-symbol}."
      },
      "tokenByIndex(uint256)": {
        "details": "See {IERC721Enumerable-tokenByIndex}."
      },
      "tokenOfOwnerByIndex(address,uint256)": {
        "details": "See {IERC721Enumerable-tokenOfOwnerByIndex}."
      },
      "tokenURI(uint256)": {
        "details": "See {IERC721Metadata-tokenURI}."
      },
      "totalSupply()": {
        "details": "See {IERC721Enumerable-totalSupply}."
      },
      "transferFrom(address,address,uint256)": {
        "details": "See {IERC721-transferFrom}."
      },
      "transferOwnership(address)": {
        "details": "Transfers ownership of the contract to a new account (`newOwner`). Can only be called by the current owner."
      }
    },
    "version": 1
  },
  "userdoc": {
    "kind": "user",
    "methods": {},
    "version": 1
  },
  "storageLayout": {
    "storage": [
      {
        "astId": 7,
        "contract": "contracts/Artifacts.sol:Artifacts",
        "label": "_owner",
        "offset": 0,
        "slot": "0",
        "type": "t_address"
      },
      {
        "astId": 129,
        "contract": "contracts/Artifacts.sol:Artifacts",
        "label": "_name",
        "offset": 0,
        "slot": "1",
        "type": "t_string_storage"
      },
      {
        "astId": 131,
        "contract": "contracts/Artifacts.sol:Artifacts",
        "label": "_symbol",
        "offset": 0,
        "slot": "2",
        "type": "t_string_storage"
      },
      {
        "astId": 135,
        "contract": "contracts/Artifacts.sol:Artifacts",
        "label": "_owners",
        "offset": 0,
        "slot": "3",
        "type": "t_mapping(t_uint256,t_address)"
      },
      {
        "astId": 139,
        "contract": "contracts/Artifacts.sol:Artifacts",
        "label": "_balances",
        "offset": 0,
        "slot": "4",
        "type": "t_mapping(t_address,t_uint256)"
      },
      {
        "astId": 143,
        "contract": "contracts/Artifacts.sol:Artifacts",
        "label": "_tokenApprovals",
        "offset": 0,
        "slot": "5",
        "type": "t_mapping(t_uint256,t_address)"
      },
      {
        "astId": 149,
        "contract": "contracts/Artifacts.sol:Artifacts",
        "label": "_operatorApprovals",
        "offset": 0,
        "slot": "6",
        "type": "t_mapping(t_address,t_mapping(t_address,t_bool))"
      },
      {
        "astId": 1068,
        "contract": "contracts/Artifacts.sol:Artifacts",
        "label": "_ownedTokens",
        "offset": 0,
        "slot": "7",
        "type": "t_mapping(t_address,t_mapping(t_uint256,t_uint256))"
      },
      {
        "astId": 1072,
        "contract": "contracts/Artifacts.sol:Artifacts",
        "label": "_ownedTokensIndex",
        "offset": 0,
        "slot": "8",
        "type": "t_mapping(t_uint256,t_uint256)"
      },
      {
        "astId": 1075,
        "contract": "contracts/Artifacts.sol:Artifacts",
        "label": "_allTokens",
        "offset": 0,
        "slot": "9",
        "type": "t_array(t_uint256)dyn_storage"
      },
      {
        "astId": 1079,
        "contract": "contracts/Artifacts.sol:Artifacts",
        "label": "_allTokensIndex",
        "offset": 0,
        "slot": "10",
        "type": "t_mapping(t_uint256,t_uint256)"
      },
      {
        "astId": 2923,
        "contract": "contracts/Artifacts.sol:Artifacts",
        "label": "_royaltiesRecipient",
        "offset": 0,
        "slot": "11",
        "type": "t_address"
      },
      {
        "astId": 2925,
        "contract": "contracts/Artifacts.sol:Artifacts",
        "label": "_royaltiesValue",
        "offset": 0,
        "slot": "12",
        "type": "t_uint256"
      },
      {
        "astId": 2046,
        "contract": "contracts/Artifacts.sol:Artifacts",
        "label": "currentAvailability",
        "offset": 0,
        "slot": "13",
        "type": "t_uint256"
      },
      {
        "astId": 2049,
        "contract": "contracts/Artifacts.sol:Artifacts",
        "label": "currentConjured",
        "offset": 0,
        "slot": "14",
        "type": "t_uint256"
      },
      {
        "astId": 2052,
        "contract": "contracts/Artifacts.sol:Artifacts",
        "label": "currentPrice",
        "offset": 0,
        "slot": "15",
        "type": "t_uint256"
      },
      {
        "astId": 2080,
        "contract": "contracts/Artifacts.sol:Artifacts",
        "label": "classification",
        "offset": 0,
        "slot": "16",
        "type": "t_array(t_string_storage)dyn_storage"
      },
      {
        "astId": 2093,
        "contract": "contracts/Artifacts.sol:Artifacts",
        "label": "classificationSVGs",
        "offset": 0,
        "slot": "17",
        "type": "t_array(t_string_storage)dyn_storage"
      },
      {
        "astId": 2102,
        "contract": "contracts/Artifacts.sol:Artifacts",
        "label": "storm",
        "offset": 0,
        "slot": "18",
        "type": "t_array(t_string_storage)dyn_storage"
      },
      {
        "astId": 2111,
        "contract": "contracts/Artifacts.sol:Artifacts",
        "label": "stormSVGs",
        "offset": 0,
        "slot": "19",
        "type": "t_array(t_string_storage)dyn_storage"
      },
      {
        "astId": 2122,
        "contract": "contracts/Artifacts.sol:Artifacts",
        "label": "gear",
        "offset": 0,
        "slot": "20",
        "type": "t_array(t_string_storage)dyn_storage"
      },
      {
        "astId": 2134,
        "contract": "contracts/Artifacts.sol:Artifacts",
        "label": "gearSVGs",
        "offset": 0,
        "slot": "21",
        "type": "t_array(t_string_storage)dyn_storage"
      }
    ],
    "types": {
      "t_address": {
        "encoding": "inplace",
        "label": "address",
        "numberOfBytes": "20"
      },
      "t_array(t_string_storage)dyn_storage": {
        "base": "t_string_storage",
        "encoding": "dynamic_array",
        "label": "string[]",
        "numberOfBytes": "32"
      },
      "t_array(t_uint256)dyn_storage": {
        "base": "t_uint256",
        "encoding": "dynamic_array",
        "label": "uint256[]",
        "numberOfBytes": "32"
      },
      "t_bool": {
        "encoding": "inplace",
        "label": "bool",
        "numberOfBytes": "1"
      },
      "t_mapping(t_address,t_bool)": {
        "encoding": "mapping",
        "key": "t_address",
        "label": "mapping(address => bool)",
        "numberOfBytes": "32",
        "value": "t_bool"
      },
      "t_mapping(t_address,t_mapping(t_address,t_bool))": {
        "encoding": "mapping",
        "key": "t_address",
        "label": "mapping(address => mapping(address => bool))",
        "numberOfBytes": "32",
        "value": "t_mapping(t_address,t_bool)"
      },
      "t_mapping(t_address,t_mapping(t_uint256,t_uint256))": {
        "encoding": "mapping",
        "key": "t_address",
        "label": "mapping(address => mapping(uint256 => uint256))",
        "numberOfBytes": "32",
        "value": "t_mapping(t_uint256,t_uint256)"
      },
      "t_mapping(t_address,t_uint256)": {
        "encoding": "mapping",
        "key": "t_address",
        "label": "mapping(address => uint256)",
        "numberOfBytes": "32",
        "value": "t_uint256"
      },
      "t_mapping(t_uint256,t_address)": {
        "encoding": "mapping",
        "key": "t_uint256",
        "label": "mapping(uint256 => address)",
        "numberOfBytes": "32",
        "value": "t_address"
      },
      "t_mapping(t_uint256,t_uint256)": {
        "encoding": "mapping",
        "key": "t_uint256",
        "label": "mapping(uint256 => uint256)",
        "numberOfBytes": "32",
        "value": "t_uint256"
      },
      "t_string_storage": {
        "encoding": "bytes",
        "label": "string",
        "numberOfBytes": "32"
      },
      "t_uint256": {
        "encoding": "inplace",
        "label": "uint256",
        "numberOfBytes": "32"
      }
    }
  }
}