{
  "address": "0x536684d845De4Ce55E5e5Fb252396091bF436CC9",
  "abi": [
    {
      "inputs": [
        {
          "internalType": "address",
          "name": "_svgBuilder",
          "type": "address"
        }
      ],
      "stateMutability": "nonpayable",
      "type": "constructor"
    },
    {
      "anonymous": false,
      "inputs": [
        {
          "indexed": true,
          "internalType": "address",
          "name": "owner",
          "type": "address"
        },
        {
          "indexed": true,
          "internalType": "address",
          "name": "approved",
          "type": "address"
        },
        {
          "indexed": true,
          "internalType": "uint256",
          "name": "tokenId",
          "type": "uint256"
        }
      ],
      "name": "Approval",
      "type": "event"
    },
    {
      "anonymous": false,
      "inputs": [
        {
          "indexed": true,
          "internalType": "address",
          "name": "owner",
          "type": "address"
        },
        {
          "indexed": true,
          "internalType": "address",
          "name": "operator",
          "type": "address"
        },
        {
          "indexed": false,
          "internalType": "bool",
          "name": "approved",
          "type": "bool"
        }
      ],
      "name": "ApprovalForAll",
      "type": "event"
    },
    {
      "anonymous": false,
      "inputs": [],
      "name": "ArtifactConjured",
      "type": "event"
    },
    {
      "anonymous": false,
      "inputs": [
        {
          "indexed": true,
          "internalType": "address",
          "name": "previousOwner",
          "type": "address"
        },
        {
          "indexed": true,
          "internalType": "address",
          "name": "newOwner",
          "type": "address"
        }
      ],
      "name": "OwnershipTransferred",
      "type": "event"
    },
    {
      "anonymous": false,
      "inputs": [
        {
          "indexed": true,
          "internalType": "address",
          "name": "from",
          "type": "address"
        },
        {
          "indexed": true,
          "internalType": "address",
          "name": "to",
          "type": "address"
        },
        {
          "indexed": true,
          "internalType": "uint256",
          "name": "tokenId",
          "type": "uint256"
        }
      ],
      "name": "Transfer",
      "type": "event"
    },
    {
      "inputs": [
        {
          "internalType": "address",
          "name": "to",
          "type": "address"
        },
        {
          "internalType": "uint256",
          "name": "tokenId",
          "type": "uint256"
        }
      ],
      "name": "approve",
      "outputs": [],
      "stateMutability": "nonpayable",
      "type": "function"
    },
    {
      "inputs": [
        {
          "internalType": "address",
          "name": "owner",
          "type": "address"
        }
      ],
      "name": "balanceOf",
      "outputs": [
        {
          "internalType": "uint256",
          "name": "",
          "type": "uint256"
        }
      ],
      "stateMutability": "view",
      "type": "function"
    },
    {
      "inputs": [],
      "name": "conjureArtifact",
      "outputs": [],
      "stateMutability": "payable",
      "type": "function"
    },
    {
      "inputs": [
        {
          "internalType": "uint256",
          "name": "_lootTokenId",
          "type": "uint256"
        }
      ],
      "name": "conjureWithLoot",
      "outputs": [],
      "stateMutability": "nonpayable",
      "type": "function"
    },
    {
      "inputs": [
        {
          "internalType": "uint256",
          "name": "tokenId",
          "type": "uint256"
        }
      ],
      "name": "getApproved",
      "outputs": [
        {
          "internalType": "address",
          "name": "",
          "type": "address"
        }
      ],
      "stateMutability": "view",
      "type": "function"
    },
    {
      "inputs": [
        {
          "internalType": "uint256",
          "name": "tokenId",
          "type": "uint256"
        }
      ],
      "name": "getClassification",
      "outputs": [
        {
          "internalType": "string",
          "name": "",
          "type": "string"
        }
      ],
      "stateMutability": "view",
      "type": "function"
    },
    {
      "inputs": [],
      "name": "getCurrentAvailability",
      "outputs": [
        {
          "internalType": "uint256",
          "name": "",
          "type": "uint256"
        }
      ],
      "stateMutability": "view",
      "type": "function"
    },
    {
      "inputs": [],
      "name": "getCurrentConjured",
      "outputs": [
        {
          "internalType": "uint256",
          "name": "",
          "type": "uint256"
        }
      ],
      "stateMutability": "view",
      "type": "function"
    },
    {
      "inputs": [],
      "name": "getCurrentPrice",
      "outputs": [
        {
          "internalType": "uint256",
          "name": "",
          "type": "uint256"
        }
      ],
      "stateMutability": "view",
      "type": "function"
    },
    {
      "inputs": [
        {
          "internalType": "uint256",
          "name": "tokenId",
          "type": "uint256"
        }
      ],
      "name": "getGear",
      "outputs": [
        {
          "internalType": "string",
          "name": "",
          "type": "string"
        }
      ],
      "stateMutability": "view",
      "type": "function"
    },
    {
      "inputs": [
        {
          "internalType": "uint256",
          "name": "tokenId",
          "type": "uint256"
        }
      ],
      "name": "getStorm",
      "outputs": [
        {
          "internalType": "string",
          "name": "",
          "type": "string"
        }
      ],
      "stateMutability": "view",
      "type": "function"
    },
    {
      "inputs": [
        {
          "internalType": "address",
          "name": "_adventurer",
          "type": "address"
        },
        {
          "internalType": "string",
          "name": "_type",
          "type": "string"
        }
      ],
      "name": "hasHelm",
      "outputs": [
        {
          "internalType": "bool",
          "name": "",
          "type": "bool"
        }
      ],
      "stateMutability": "view",
      "type": "function"
    },
    {
      "inputs": [
        {
          "internalType": "address",
          "name": "owner",
          "type": "address"
        },
        {
          "internalType": "address",
          "name": "operator",
          "type": "address"
        }
      ],
      "name": "isApprovedForAll",
      "outputs": [
        {
          "internalType": "bool",
          "name": "",
          "type": "bool"
        }
      ],
      "stateMutability": "view",
      "type": "function"
    },
    {
      "inputs": [
        {
          "internalType": "uint256",
          "name": "_max",
          "type": "uint256"
        }
      ],
      "name": "makeAvailable",
      "outputs": [],
      "stateMutability": "nonpayable",
      "type": "function"
    },
    {
      "inputs": [],
      "name": "name",
      "outputs": [
        {
          "internalType": "string",
          "name": "",
          "type": "string"
        }
      ],
      "stateMutability": "view",
      "type": "function"
    },
    {
      "inputs": [],
      "name": "owner",
      "outputs": [
        {
          "internalType": "address",
          "name": "",
          "type": "address"
        }
      ],
      "stateMutability": "view",
      "type": "function"
    },
    {
      "inputs": [],
      "name": "ownerClaim",
      "outputs": [],
      "stateMutability": "nonpayable",
      "type": "function"
    },
    {
      "inputs": [
        {
          "internalType": "uint256",
          "name": "tokenId",
          "type": "uint256"
        }
      ],
      "name": "ownerOf",
      "outputs": [
        {
          "internalType": "address",
          "name": "",
          "type": "address"
        }
      ],
      "stateMutability": "view",
      "type": "function"
    },
    {
      "inputs": [],
      "name": "renounceOwnership",
      "outputs": [],
      "stateMutability": "nonpayable",
      "type": "function"
    },
    {
      "inputs": [
        {
          "internalType": "uint256",
          "name": "",
          "type": "uint256"
        },
        {
          "internalType": "uint256",
          "name": "value",
          "type": "uint256"
        }
      ],
      "name": "royaltyInfo",
      "outputs": [
        {
          "internalType": "address",
          "name": "receiver",
          "type": "address"
        },
        {
          "internalType": "uint256",
          "name": "royaltyAmount",
          "type": "uint256"
        }
      ],
      "stateMutability": "view",
      "type": "function"
    },
    {
      "inputs": [
        {
          "internalType": "address",
          "name": "from",
          "type": "address"
        },
        {
          "internalType": "address",
          "name": "to",
          "type": "address"
        },
        {
          "internalType": "uint256",
          "name": "tokenId",
          "type": "uint256"
        }
      ],
      "name": "safeTransferFrom",
      "outputs": [],
      "stateMutability": "nonpayable",
      "type": "function"
    },
    {
      "inputs": [
        {
          "internalType": "address",
          "name": "from",
          "type": "address"
        },
        {
          "internalType": "address",
          "name": "to",
          "type": "address"
        },
        {
          "internalType": "uint256",
          "name": "tokenId",
          "type": "uint256"
        },
        {
          "internalType": "bytes",
          "name": "_data",
          "type": "bytes"
        }
      ],
      "name": "safeTransferFrom",
      "outputs": [],
      "stateMutability": "nonpayable",
      "type": "function"
    },
    {
      "inputs": [
        {
          "internalType": "address",
          "name": "operator",
          "type": "address"
        },
        {
          "internalType": "bool",
          "name": "approved",
          "type": "bool"
        }
      ],
      "name": "setApprovalForAll",
      "outputs": [],
      "stateMutability": "nonpayable",
      "type": "function"
    },
    {
      "inputs": [
        {
          "internalType": "address",
          "name": "_loot",
          "type": "address"
        }
      ],
      "name": "setLootAddress",
      "outputs": [],
      "stateMutability": "nonpayable",
      "type": "function"
    },
    {
      "inputs": [
        {
          "internalType": "address",
          "name": "recipient",
          "type": "address"
        },
        {
          "internalType": "uint256",
          "name": "value",
          "type": "uint256"
        }
      ],
      "name": "setRoyalties",
      "outputs": [],
      "stateMutability": "nonpayable",
      "type": "function"
    },
    {
      "inputs": [
        {
          "internalType": "address",
          "name": "_svgBuilder",
          "type": "address"
        }
      ],
      "name": "setSVGBuilderAddress",
      "outputs": [],
      "stateMutability": "nonpayable",
      "type": "function"
    },
    {
      "inputs": [
        {
          "internalType": "bytes4",
          "name": "interfaceId",
          "type": "bytes4"
        }
      ],
      "name": "supportsInterface",
      "outputs": [
        {
          "internalType": "bool",
          "name": "",
          "type": "bool"
        }
      ],
      "stateMutability": "view",
      "type": "function"
    },
    {
      "inputs": [],
      "name": "symbol",
      "outputs": [
        {
          "internalType": "string",
          "name": "",
          "type": "string"
        }
      ],
      "stateMutability": "view",
      "type": "function"
    },
    {
      "inputs": [
        {
          "internalType": "uint256",
          "name": "index",
          "type": "uint256"
        }
      ],
      "name": "tokenByIndex",
      "outputs": [
        {
          "internalType": "uint256",
          "name": "",
          "type": "uint256"
        }
      ],
      "stateMutability": "view",
      "type": "function"
    },
    {
      "inputs": [
        {
          "internalType": "address",
          "name": "owner",
          "type": "address"
        },
        {
          "internalType": "uint256",
          "name": "index",
          "type": "uint256"
        }
      ],
      "name": "tokenOfOwnerByIndex",
      "outputs": [
        {
          "internalType": "uint256",
          "name": "",
          "type": "uint256"
        }
      ],
      "stateMutability": "view",
      "type": "function"
    },
    {
      "inputs": [
        {
          "internalType": "uint256",
          "name": "tokenId",
          "type": "uint256"
        }
      ],
      "name": "tokenURI",
      "outputs": [
        {
          "internalType": "string",
          "name": "",
          "type": "string"
        }
      ],
      "stateMutability": "view",
      "type": "function"
    },
    {
      "inputs": [],
      "name": "totalSupply",
      "outputs": [
        {
          "internalType": "uint256",
          "name": "",
          "type": "uint256"
        }
      ],
      "stateMutability": "view",
      "type": "function"
    },
    {
      "inputs": [
        {
          "internalType": "address",
          "name": "from",
          "type": "address"
        },
        {
          "internalType": "address",
          "name": "to",
          "type": "address"
        },
        {
          "internalType": "uint256",
          "name": "tokenId",
          "type": "uint256"
        }
      ],
      "name": "transferFrom",
      "outputs": [],
      "stateMutability": "nonpayable",
      "type": "function"
    },
    {
      "inputs": [
        {
          "internalType": "address",
          "name": "newOwner",
          "type": "address"
        }
      ],
      "name": "transferOwnership",
      "outputs": [],
      "stateMutability": "nonpayable",
      "type": "function"
    },
    {
      "inputs": [
        {
          "internalType": "address",
          "name": "_adventurer",
          "type": "address"
        }
      ],
      "name": "troveFor",
      "outputs": [
        {
          "internalType": "uint256[]",
          "name": "",
          "type": "uint256[]"
        }
      ],
      "stateMutability": "view",
      "type": "function"
    }
  ],
  "transactionHash": "0x521d1795a9ada4a7e746b58d4b99b19157843f13473d37098632582e9c3ac9fc",
  "args": [
    "0x067CD9260B143cfcCa95A58dC74cFd596fFC99c1"
  ],
  "solcInputHash": "32e7100c89e4f2e48d05f2df82cbaf67",
  "bytecode": "0x60c8600d556001600e556701aa535d3d0c0000600f556000601055601180546001600160a01b03191673ff9c1b15b16263c61d017ee9f65c50e4ae0113d717905560076101a090815266185b98da595b9d60ca1b6101c052608090815260066101e081815265189c9a59da1d60d21b6102005260a0526004610220818152636461726b60e01b6102405260c0526008610260818152670cad8c8e4d2e8c6d60c31b6102805260e0526102a083815265656e6c696c7360d01b6102c052610100526102e0908152676c6f76656c65737360c01b610300526101205260056103209081526472756e696360d81b6103405261014052610360918252651d5b9919585960d21b61038052610160919091526103e06040526103a0908152631d9bda5960e21b6103c0526101805262000139906014906009620004d5565b506040805160e081018252600460a08201818152636669726560e01b60c0840152825282518084018452600381526269636560e81b602082810191909152808401919091528351808501855260098152686c696768746e696e6760b81b818301528385015283518085018552828152631cd85b9960e21b8183015260608401528351808501909452908352631dda5b9960e21b908301526080810191909152620001e890601590600562000539565b506040518060e0016040528060405180604001604052806006815260200165185b5d5b195d60d21b81525081526020016040518060400160405280600a8152602001696372797374616c67656d60b01b81525081526020016040518060400160405280600481526020016368656c6d60e01b815250815260200160405180604001604052806005815260200164706c61746560d81b8152508152602001604051806040016040528060048152602001631cd9595960e21b8152508152602001604051806040016040528060058152602001641cda185c9960da1b8152508152602001604051806040016040528060058152602001641cdddbdc9960da1b8152508152506016906007620002fd9291906200058b565b503480156200030b57600080fd5b50604051620037cf380380620037cf8339810160408190526200032e91620006e2565b6040518060400160405280601481526020017f53746f726d57696e6473204172746966616374730000000000000000000000008152506040518060400160405280600581526020016453544f524d60d81b8152506200039c620003966200040460201b60201c565b62000408565b8151620003b1906001906020850190620005dd565b508051620003c7906002906020840190620005dd565b505050620003de336103e86200045860201b60201c565b601280546001600160a01b0319166001600160a01b03929092169190911790556200074f565b3390565b600080546001600160a01b038381166001600160a01b0319831681178455604051919092169283917f8be0079c531659141344cd1fd0a4f28419497f9722a3daafe3b4186f6b6457e09190a35050565b612710811115620004af5760405162461bcd60e51b815260206004820152601a60248201527f45524332393831526f79616c746965733a20546f6f2068696768000000000000604482015260640160405180910390fd5b600b80546001600160a01b0319166001600160a01b039390931692909217909155600c55565b82805482825590600052602060002090810192821562000527579160200282015b8281111562000527578251805162000516918491602090910190620005dd565b5091602001919060010190620004f6565b506200053592915062000668565b5090565b82805482825590600052602060002090810192821562000527579160200282015b828111156200052757825180516200057a918491602090910190620005dd565b50916020019190600101906200055a565b82805482825590600052602060002090810192821562000527579160200282015b82811115620005275782518051620005cc918491602090910190620005dd565b5091602001919060010190620005ac565b828054620005eb9062000712565b90600052602060002090601f0160209004810192826200060f57600085556200065a565b82601f106200062a57805160ff19168380011785556200065a565b828001600101855582156200065a579182015b828111156200065a5782518255916020019190600101906200063d565b506200053592915062000689565b80821115620005355760006200067f8282620006a0565b5060010162000668565b5b808211156200053557600081556001016200068a565b508054620006ae9062000712565b6000825580601f10620006bf575050565b601f016020900490600052602060002090810190620006df919062000689565b50565b600060208284031215620006f4578081fd5b81516001600160a01b03811681146200070b578182fd5b9392505050565b600181811c908216806200072757607f821691505b602082108114156200074957634e487b7160e01b600052602260045260246000fd5b50919050565b613070806200075f6000396000f3fe6080604052600436106102345760003560e01c806370a0823111610138578063a5624232116100b0578063c87b56dd1161007f578063e985e9c511610064578063e985e9c514610644578063eb91d37e1461068d578063f2fde38b146106a257600080fd5b8063c87b56dd14610604578063e5c946ab1461062457600080fd5b8063a56242321461058f578063ae1a7f50146105af578063b88d4fde146105c4578063baa39e05146105e457600080fd5b80638c7ea24b116101075780638da5cb5b116100ec5780638da5cb5b1461053c57806395d89b411461055a578063a22cb4651461056f57600080fd5b80638c7ea24b146105145780638d2bfe051461053457600080fd5b806370a082311461049f578063715018a6146104bf57806375925921146104d457806383196955146104f457600080fd5b80632f745c59116101cb5780634a36e3671161019a5780634f6ccce71161017f5780634f6ccce71461043f5780635454d3881461045f5780636352211e1461047f57600080fd5b80634a36e367146104155780634dbe58891461042a57600080fd5b80632f745c591461038857806342842e0e146103a85780634306e4c9146103c8578063441e56b9146103e857600080fd5b806318160ddd1161020757806318160ddd146102ea57806323b872dd1461030957806324845721146103295780632a55205a1461034957600080fd5b806301ffc9a71461023957806306fdde031461026e578063081812fc14610290578063095ea7b3146102c8575b600080fd5b34801561024557600080fd5b50610259610254366004612c44565b6106c2565b60405190151581526020015b60405180910390f35b34801561027a57600080fd5b50610283610706565b6040516102659190612e1f565b34801561029c57600080fd5b506102b06102ab366004612cef565b610798565b6040516001600160a01b039091168152602001610265565b3480156102d457600080fd5b506102e86102e3366004612c19565b610832565b005b3480156102f657600080fd5b506009545b604051908152602001610265565b34801561031557600080fd5b506102e8610324366004612a81565b610964565b34801561033557600080fd5b50610259610344366004612b99565b6109eb565b34801561035557600080fd5b50610369610364366004612d07565b610cdc565b604080516001600160a01b039093168352602083019190915201610265565b34801561039457600080fd5b506102fb6103a3366004612c19565b610d16565b3480156103b457600080fd5b506102e86103c3366004612a81565b610dbe565b3480156103d457600080fd5b506102e86103e3366004612a11565b610dd9565b3480156103f457600080fd5b50610408610403366004612a11565b610e55565b6040516102659190612ddb565b34801561042157600080fd5b50600d546102fb565b34801561043657600080fd5b506102e8610f13565b34801561044b57600080fd5b506102fb61045a366004612cef565b610f7a565b34801561046b57600080fd5b5061028361047a366004612cef565b61102c565b34801561048b57600080fd5b506102b061049a366004612cef565b61113f565b3480156104ab57600080fd5b506102fb6104ba366004612a11565b6111ca565b3480156104cb57600080fd5b506102e8611264565b3480156104e057600080fd5b506102e86104ef366004612a11565b6112c8565b34801561050057600080fd5b5061028361050f366004612cef565b611344565b34801561052057600080fd5b506102e861052f366004612c19565b61144e565b6102e86114b6565b34801561054857600080fd5b506000546001600160a01b03166102b0565b34801561056657600080fd5b50610283611510565b34801561057b57600080fd5b506102e861058a366004612b68565b61151f565b34801561059b57600080fd5b506102e86105aa366004612cef565b6115e4565b3480156105bb57600080fd5b50600e546102fb565b3480156105d057600080fd5b506102e86105df366004612ac1565b61185b565b3480156105f057600080fd5b506102e86105ff366004612cef565b6118e9565b34801561061057600080fd5b5061028361061f366004612cef565b611965565b34801561063057600080fd5b5061028361063f366004612cef565b611a09565b34801561065057600080fd5b5061025961065f366004612a49565b6001600160a01b03918216600090815260066020908152604080832093909416825291909152205460ff1690565b34801561069957600080fd5b50600f546102fb565b3480156106ae57600080fd5b506102e86106bd366004612a11565b611b13565b60006001600160e01b031982167f2a55205a000000000000000000000000000000000000000000000000000000001480610700575061070082611bf5565b92915050565b60606001805461071590612f63565b80601f016020809104026020016040519081016040528092919081815260200182805461074190612f63565b801561078e5780601f106107635761010080835404028352916020019161078e565b820191906000526020600020905b81548152906001019060200180831161077157829003601f168201915b5050505050905090565b6000818152600360205260408120546001600160a01b03166108165760405162461bcd60e51b815260206004820152602c60248201527f4552433732313a20617070726f76656420717565727920666f72206e6f6e657860448201526b34b9ba32b73a103a37b5b2b760a11b60648201526084015b60405180910390fd5b506000908152600560205260409020546001600160a01b031690565b600061083d8261113f565b9050806001600160a01b0316836001600160a01b031614156108c75760405162461bcd60e51b815260206004820152602160248201527f4552433732313a20617070726f76616c20746f2063757272656e74206f776e6560448201527f7200000000000000000000000000000000000000000000000000000000000000606482015260840161080d565b336001600160a01b03821614806108e357506108e3813361065f565b6109555760405162461bcd60e51b815260206004820152603860248201527f4552433732313a20617070726f76652063616c6c6572206973206e6f74206f7760448201527f6e6572206e6f7220617070726f76656420666f7220616c6c0000000000000000606482015260840161080d565b61095f8383611c33565b505050565b61096e3382611ca1565b6109e05760405162461bcd60e51b815260206004820152603160248201527f4552433732313a207472616e736665722063616c6c6572206973206e6f74206f60448201527f776e6572206e6f7220617070726f766564000000000000000000000000000000606482015260840161080d565b61095f838383611d98565b6000806109f7856111ca565b905060005b81811015610cce576000610a108783610d16565b905080610a235760019350505050610cd5565b6004811015610ab657610aa086868080601f0160208091040260200160405190810160405280939291908181526020018383808284376000920191909152505060408051808201909152600481527f666972650000000000000000000000000000000000000000000000000000000060208201529150611f709050565b15610ab15760019350505050610cd5565b610cbb565b6007811015610b3357610aa086868080601f0160208091040260200160405190810160405280939291908181526020018383808284376000920191909152505060408051808201909152600481527f73616e640000000000000000000000000000000000000000000000000000000060208201529150611f709050565b600a811015610bb057610aa086868080601f0160208091040260200160405190810160405280939291908181526020018383808284376000920191909152505060408051808201909152600381527f696365000000000000000000000000000000000000000000000000000000000060208201529150611f709050565b600d811015610c2d57610aa086868080601f0160208091040260200160405190810160405280939291908181526020018383808284376000920191909152505060408051808201909152600481527f77696e640000000000000000000000000000000000000000000000000000000060208201529150611f709050565b6010811015610cbb57610caa86868080601f0160208091040260200160405190810160405280939291908181526020018383808284376000920191909152505060408051808201909152600981527f6c696768746e696e67000000000000000000000000000000000000000000000060208201529150611f709050565b15610cbb5760019350505050610cd5565b5080610cc681612f9e565b9150506109fc565b5060009150505b9392505050565b600b54600c5460009182916001600160a01b039091169061271090610d019086612f01565b610d0b9190612eed565b915091509250929050565b6000610d21836111ca565b8210610d955760405162461bcd60e51b815260206004820152602b60248201527f455243373231456e756d657261626c653a206f776e657220696e646578206f7560448201527f74206f6620626f756e6473000000000000000000000000000000000000000000606482015260840161080d565b506001600160a01b03919091166000908152600760209081526040808320938352929052205490565b61095f8383836040518060200160405280600081525061185b565b6000546001600160a01b03163314610e335760405162461bcd60e51b815260206004820181905260248201527f4f776e61626c653a2063616c6c6572206973206e6f7420746865206f776e6572604482015260640161080d565b601180546001600160a01b0319166001600160a01b0392909216919091179055565b60606000610e62836111ca565b905060008167ffffffffffffffff811115610e8d57634e487b7160e01b600052604160045260246000fd5b604051908082528060200260200182016040528015610eb6578160200160208202803683370190505b50905060005b82811015610f0b57610ece8582610d16565b828281518110610eee57634e487b7160e01b600052603260045260246000fd5b602090810291909101015280610f0381612f9e565b915050610ebc565b509392505050565b6000546001600160a01b03163314610f6d5760405162461bcd60e51b815260206004820181905260248201527f4f776e61626c653a2063616c6c6572206973206e6f7420746865206f776e6572604482015260640161080d565b610f78336000611fc9565b565b6000610f8560095490565b8210610ff95760405162461bcd60e51b815260206004820152602c60248201527f455243373231456e756d657261626c653a20676c6f62616c20696e646578206f60448201527f7574206f6620626f756e64730000000000000000000000000000000000000000606482015260840161080d565b6009828154811061101a57634e487b7160e01b600052603260045260246000fd5b90600052602060002001549050919050565b6060610700826040518060400160405280600481526020017f47454152000000000000000000000000000000000000000000000000000000008152506016805480602002602001604051908101604052809291908181526020016000905b828210156111365783829060005260206000200180546110a990612f63565b80601f01602080910402602001604051908101604052809291908181526020018280546110d590612f63565b80156111225780601f106110f757610100808354040283529160200191611122565b820191906000526020600020905b81548152906001019060200180831161110557829003601f168201915b50505050508152602001906001019061108a565b50505050611fe3565b6000818152600360205260408120546001600160a01b0316806107005760405162461bcd60e51b815260206004820152602960248201527f4552433732313a206f776e657220717565727920666f72206e6f6e657869737460448201527f656e7420746f6b656e0000000000000000000000000000000000000000000000606482015260840161080d565b60006001600160a01b0382166112485760405162461bcd60e51b815260206004820152602a60248201527f4552433732313a2062616c616e636520717565727920666f7220746865207a6560448201527f726f206164647265737300000000000000000000000000000000000000000000606482015260840161080d565b506001600160a01b031660009081526004602052604090205490565b6000546001600160a01b031633146112be5760405162461bcd60e51b815260206004820181905260248201527f4f776e61626c653a2063616c6c6572206973206e6f7420746865206f776e6572604482015260640161080d565b610f78600061207b565b6000546001600160a01b031633146113225760405162461bcd60e51b815260206004820181905260248201527f4f776e61626c653a2063616c6c6572206973206e6f7420746865206f776e6572604482015260640161080d565b601280546001600160a01b0319166001600160a01b0392909216919091179055565b6060610700826040518060400160405280600581526020017f53544f524d0000000000000000000000000000000000000000000000000000008152506015805480602002602001604051908101604052809291908181526020016000905b828210156111365783829060005260206000200180546113c190612f63565b80601f01602080910402602001604051908101604052809291908181526020018280546113ed90612f63565b801561143a5780601f1061140f5761010080835404028352916020019161143a565b820191906000526020600020905b81548152906001019060200180831161141d57829003601f168201915b5050505050815260200190600101906113a2565b6000546001600160a01b031633146114a85760405162461bcd60e51b815260206004820181905260248201527f4f776e61626c653a2063616c6c6572206973206e6f7420746865206f776e6572604482015260640161080d565b6114b282826120cb565b5050565b600f543410156115085760405162461bcd60e51b815260206004820152600b60248201527f6465737469747574696f6e000000000000000000000000000000000000000000604482015260640161080d565b610f78612143565b60606002805461071590612f63565b6001600160a01b0382163314156115785760405162461bcd60e51b815260206004820152601960248201527f4552433732313a20617070726f766520746f2063616c6c657200000000000000604482015260640161080d565b3360008181526006602090815260408083206001600160a01b03871680855290835292819020805460ff191686151590811790915590519081529192917f17307eab39ab6107e8899845ad3d59bd9653f200f220920489ca2b5937696c31910160405180910390a35050565b6064601054106115f357600080fd5b60008181526013602052604090205460ff16156116525760405162461bcd60e51b815260206004820152600560248201527f6772656564000000000000000000000000000000000000000000000000000000604482015260640161080d565b6011546040517f9720c969000000000000000000000000000000000000000000000000000000008152600481018390526001600160a01b03909116906000908290639720c9699060240160006040518083038186803b1580156116b457600080fd5b505afa1580156116c8573d6000803e3d6000fd5b505050506040513d6000823e601f3d908101601f191682016040526116f09190810190612c7c565b9050611731816040518060400160405280600b81526020017f446976696e6520486f6f64000000000000000000000000000000000000000000815250611f70565b61173a57600080fd5b6040517f6352211e0000000000000000000000000000000000000000000000000000000081526004810184905233906001600160a01b03841690636352211e9060240160206040518083038186803b15801561179557600080fd5b505afa1580156117a9573d6000803e3d6000fd5b505050506040513d601f19601f820116820180604052508101906117cd9190612a2d565b6001600160a01b0316146118255760405162461bcd60e51b815260040161080d9060208082526004908201527f6c69657300000000000000000000000000000000000000000000000000000000604082015260600190565b6010805490600061183583612f9e565b90915550506000838152601360205260409020805460ff1916600117905561095f612143565b6118653383611ca1565b6118d75760405162461bcd60e51b815260206004820152603160248201527f4552433732313a207472616e736665722063616c6c6572206973206e6f74206f60448201527f776e6572206e6f7220617070726f766564000000000000000000000000000000606482015260840161080d565b6118e3848484846121e3565b50505050565b6000546001600160a01b031633146119435760405162461bcd60e51b815260206004820181905260248201527f4f776e61626c653a2063616c6c6572206973206e6f7420746865206f776e6572604482015260640161080d565b610fa081111561195257600080fd5b600d54811161196057600080fd5b600d55565b6012546060906001600160a01b03168063f7b47b2b8461198481611a09565b61198d87611344565b6119968861102c565b6040518563ffffffff1660e01b81526004016119b59493929190612e32565b60006040518083038186803b1580156119cd57600080fd5b505afa1580156119e1573d6000803e3d6000fd5b505050506040513d6000823e601f3d908101601f19168201604052610cd59190810190612c7c565b6060610700826040518060400160405280600e81526020017f434c415353494649434154494f4e0000000000000000000000000000000000008152506014805480602002602001604051908101604052809291908181526020016000905b82821015611136578382906000526020600020018054611a8690612f63565b80601f0160208091040260200160405190810160405280929190818152602001828054611ab290612f63565b8015611aff5780601f10611ad457610100808354040283529160200191611aff565b820191906000526020600020905b815481529060010190602001808311611ae257829003601f168201915b505050505081526020019060010190611a67565b6000546001600160a01b03163314611b6d5760405162461bcd60e51b815260206004820181905260248201527f4f776e61626c653a2063616c6c6572206973206e6f7420746865206f776e6572604482015260640161080d565b6001600160a01b038116611be95760405162461bcd60e51b815260206004820152602660248201527f4f776e61626c653a206e6577206f776e657220697320746865207a65726f206160448201527f6464726573730000000000000000000000000000000000000000000000000000606482015260840161080d565b611bf28161207b565b50565b60006001600160e01b031982167f780e9d63000000000000000000000000000000000000000000000000000000001480610700575061070082612261565b600081815260056020526040902080546001600160a01b0319166001600160a01b0384169081179091558190611c688261113f565b6001600160a01b03167f8c5be1e5ebec7d5bd14f71427d1e84f3dd0314c0f7b2291e5b200ac8c7c3b92560405160405180910390a45050565b6000818152600360205260408120546001600160a01b0316611d1a5760405162461bcd60e51b815260206004820152602c60248201527f4552433732313a206f70657261746f7220717565727920666f72206e6f6e657860448201526b34b9ba32b73a103a37b5b2b760a11b606482015260840161080d565b6000611d258361113f565b9050806001600160a01b0316846001600160a01b03161480611d605750836001600160a01b0316611d5584610798565b6001600160a01b0316145b80611d9057506001600160a01b0380821660009081526006602090815260408083209388168352929052205460ff165b949350505050565b826001600160a01b0316611dab8261113f565b6001600160a01b031614611e275760405162461bcd60e51b815260206004820152602960248201527f4552433732313a207472616e73666572206f6620746f6b656e2074686174206960448201527f73206e6f74206f776e0000000000000000000000000000000000000000000000606482015260840161080d565b6001600160a01b038216611ea25760405162461bcd60e51b8152602060048201526024808201527f4552433732313a207472616e7366657220746f20746865207a65726f2061646460448201527f7265737300000000000000000000000000000000000000000000000000000000606482015260840161080d565b611ead8383836122fc565b611eb8600082611c33565b6001600160a01b0383166000908152600460205260408120805460019290611ee1908490612f20565b90915550506001600160a01b0382166000908152600460205260408120805460019290611f0f908490612ed5565b909155505060008181526003602052604080822080546001600160a01b0319166001600160a01b0386811691821790925591518493918716917fddf252ad1be2c89b69c2b068fc378daa952ba7f163c4a11628f55a4df523b3ef91a4505050565b600081604051602001611f839190612e1f565b6040516020818303038152906040528051906020012083604051602001611faa9190612e1f565b6040516020818303038152906040528051906020012014905092915050565b6114b28282604051806020016040528060008152506123b4565b6060600061201984611ff487612432565b604051602001612005929190612d70565b604051602081830303815290604052612580565b905060008384518361202b9190612fb9565b8151811061204957634e487b7160e01b600052603260045260246000fd5b60200260200101516040516020016120619190612d54565b60408051808303601f190181529190529695505050505050565b600080546001600160a01b038381166001600160a01b0319831681178455604051919092169283917f8be0079c531659141344cd1fd0a4f28419497f9722a3daafe3b4186f6b6457e09190a35050565b61271081111561211d5760405162461bcd60e51b815260206004820152601a60248201527f45524332393831526f79616c746965733a20546f6f2068696768000000000000604482015260640161080d565b600b80546001600160a01b0319166001600160a01b039390931692909217909155600c55565b600d54600e54106121965760405162461bcd60e51b815260206004820152600860248201527f646f726d616e6379000000000000000000000000000000000000000000000000604482015260640161080d565b600e805490819060006121a883612f9e565b91905055506121b73382611fc9565b6040517f4272913264d3d5b2db92a5c96fd95b01c7a18745ee56b8bd44c981967bda64e190600090a150565b6121ee848484611d98565b6121fa848484846125b1565b6118e35760405162461bcd60e51b815260206004820152603260248201527f4552433732313a207472616e7366657220746f206e6f6e20455243373231526560448201527131b2b4bb32b91034b6b83632b6b2b73a32b960711b606482015260840161080d565b60006001600160e01b031982167f80ac58cd0000000000000000000000000000000000000000000000000000000014806122c457506001600160e01b031982167f5b5e139f00000000000000000000000000000000000000000000000000000000145b8061070057507f01ffc9a7000000000000000000000000000000000000000000000000000000006001600160e01b0319831614610700565b6001600160a01b0383166123575761235281600980546000838152600a60205260408120829055600182018355919091527f6e1540171b6c0c960b71a7020d9f60077f6af931a8bbf590da0223dacf75c7af0155565b61237a565b816001600160a01b0316836001600160a01b03161461237a5761237a8382612709565b6001600160a01b0382166123915761095f816127a6565b826001600160a01b0316826001600160a01b03161461095f5761095f828261287f565b6123be83836128c3565b6123cb60008484846125b1565b61095f5760405162461bcd60e51b815260206004820152603260248201527f4552433732313a207472616e7366657220746f206e6f6e20455243373231526560448201527131b2b4bb32b91034b6b83632b6b2b73a32b960711b606482015260840161080d565b60608161247257505060408051808201909152600181527f3000000000000000000000000000000000000000000000000000000000000000602082015290565b8160005b811561249c578061248681612f9e565b91506124959050600a83612eed565b9150612476565b60008167ffffffffffffffff8111156124c557634e487b7160e01b600052604160045260246000fd5b6040519080825280601f01601f1916602001820160405280156124ef576020820181803683370190505b5090505b8415611d9057612504600183612f20565b9150612511600a86612fb9565b61251c906030612ed5565b60f81b81838151811061253f57634e487b7160e01b600052603260045260246000fd5b60200101907effffffffffffffffffffffffffffffffffffffffffffffffffffffffffffff1916908160001a905350612579600a86612eed565b94506124f3565b6000816040516020016125939190612d54565b60408051601f19818403018152919052805160209091012092915050565b60006001600160a01b0384163b156126fe57604051630a85bd0160e11b81526001600160a01b0385169063150b7a02906125f5903390899088908890600401612d9f565b602060405180830381600087803b15801561260f57600080fd5b505af192505050801561263f575060408051601f3d908101601f1916820190925261263c91810190612c60565b60015b6126e4573d80801561266d576040519150601f19603f3d011682016040523d82523d6000602084013e612672565b606091505b5080516126dc5760405162461bcd60e51b815260206004820152603260248201527f4552433732313a207472616e7366657220746f206e6f6e20455243373231526560448201527131b2b4bb32b91034b6b83632b6b2b73a32b960711b606482015260840161080d565b805181602001fd5b6001600160e01b031916630a85bd0160e11b149050611d90565b506001949350505050565b60006001612716846111ca565b6127209190612f20565b600083815260086020526040902054909150808214612773576001600160a01b03841660009081526007602090815260408083208584528252808320548484528184208190558352600890915290208190555b5060009182526008602090815260408084208490556001600160a01b039094168352600781528383209183525290812055565b6009546000906127b890600190612f20565b6000838152600a6020526040812054600980549394509092849081106127ee57634e487b7160e01b600052603260045260246000fd5b90600052602060002001549050806009838154811061281d57634e487b7160e01b600052603260045260246000fd5b6000918252602080832090910192909255828152600a9091526040808220849055858252812055600980548061286357634e487b7160e01b600052603160045260246000fd5b6001900381819060005260206000200160009055905550505050565b600061288a836111ca565b6001600160a01b039093166000908152600760209081526040808320868452825280832085905593825260089052919091209190915550565b6001600160a01b0382166129195760405162461bcd60e51b815260206004820181905260248201527f4552433732313a206d696e7420746f20746865207a65726f2061646472657373604482015260640161080d565b6000818152600360205260409020546001600160a01b03161561297e5760405162461bcd60e51b815260206004820152601c60248201527f4552433732313a20746f6b656e20616c7265616479206d696e74656400000000604482015260640161080d565b61298a600083836122fc565b6001600160a01b03821660009081526004602052604081208054600192906129b3908490612ed5565b909155505060008181526003602052604080822080546001600160a01b0319166001600160a01b03861690811790915590518392907fddf252ad1be2c89b69c2b068fc378daa952ba7f163c4a11628f55a4df523b3ef908290a45050565b600060208284031215612a22578081fd5b8135610cd58161300f565b600060208284031215612a3e578081fd5b8151610cd58161300f565b60008060408385031215612a5b578081fd5b8235612a668161300f565b91506020830135612a768161300f565b809150509250929050565b600080600060608486031215612a95578081fd5b8335612aa08161300f565b92506020840135612ab08161300f565b929592945050506040919091013590565b60008060008060808587031215612ad6578081fd5b8435612ae18161300f565b93506020850135612af18161300f565b925060408501359150606085013567ffffffffffffffff811115612b13578182fd5b8501601f81018713612b23578182fd5b8035612b36612b3182612ead565b612e7c565b818152886020838501011115612b4a578384fd5b81602084016020830137908101602001929092525092959194509250565b60008060408385031215612b7a578182fd5b8235612b858161300f565b915060208301358015158114612a76578182fd5b600080600060408486031215612bad578283fd5b8335612bb88161300f565b9250602084013567ffffffffffffffff80821115612bd4578384fd5b818601915086601f830112612be7578384fd5b813581811115612bf5578485fd5b876020828501011115612c06578485fd5b6020830194508093505050509250925092565b60008060408385031215612c2b578182fd5b8235612c368161300f565b946020939093013593505050565b600060208284031215612c55578081fd5b8135610cd581613024565b600060208284031215612c71578081fd5b8151610cd581613024565b600060208284031215612c8d578081fd5b815167ffffffffffffffff811115612ca3578182fd5b8201601f81018413612cb3578182fd5b8051612cc1612b3182612ead565b818152856020838501011115612cd5578384fd5b612ce6826020830160208601612f37565b95945050505050565b600060208284031215612d00578081fd5b5035919050565b60008060408385031215612d19578182fd5b50508035926020909101359150565b60008151808452612d40816020860160208601612f37565b601f01601f19169290920160200192915050565b60008251612d66818460208701612f37565b9190910192915050565b60008351612d82818460208801612f37565b835190830190612d96818360208801612f37565b01949350505050565b60006001600160a01b03808716835280861660208401525083604083015260806060830152612dd16080830184612d28565b9695505050505050565b6020808252825182820181905260009190848201906040850190845b81811015612e1357835183529284019291840191600101612df7565b50909695505050505050565b602081526000610cd56020830184612d28565b848152608060208201526000612e4b6080830186612d28565b8281036040840152612e5d8186612d28565b90508281036060840152612e718185612d28565b979650505050505050565b604051601f8201601f1916810167ffffffffffffffff81118282101715612ea557612ea5612ff9565b604052919050565b600067ffffffffffffffff821115612ec757612ec7612ff9565b50601f01601f191660200190565b60008219821115612ee857612ee8612fcd565b500190565b600082612efc57612efc612fe3565b500490565b6000816000190483118215151615612f1b57612f1b612fcd565b500290565b600082821015612f3257612f32612fcd565b500390565b60005b83811015612f52578181015183820152602001612f3a565b838111156118e35750506000910152565b600181811c90821680612f7757607f821691505b60208210811415612f9857634e487b7160e01b600052602260045260246000fd5b50919050565b6000600019821415612fb257612fb2612fcd565b5060010190565b600082612fc857612fc8612fe3565b500690565b634e487b7160e01b600052601160045260246000fd5b634e487b7160e01b600052601260045260246000fd5b634e487b7160e01b600052604160045260246000fd5b6001600160a01b0381168114611bf257600080fd5b6001600160e01b031981168114611bf257600080fdfea26469706673582212201a62d5f3d74b9590290cf15d12015f385922562cc259d027948793a35721bd4c64736f6c63430008040033",
  "devdoc": {
    "kind": "dev",
    "methods": {
      "approve(address,uint256)": {
        "details": "See {IERC721-approve}."
      },
      "balanceOf(address)": {
        "details": "See {IERC721-balanceOf}."
      },
      "getApproved(uint256)": {
        "details": "See {IERC721-getApproved}."
      },
      "isApprovedForAll(address,address)": {
        "details": "See {IERC721-isApprovedForAll}."
      },
      "name()": {
        "details": "See {IERC721Metadata-name}."
      },
      "owner()": {
        "details": "Returns the address of the current owner."
      },
      "ownerOf(uint256)": {
        "details": "See {IERC721-ownerOf}."
      },
      "renounceOwnership()": {
        "details": "Leaves the contract without owner. It will not be possible to call `onlyOwner` functions anymore. Can only be called by the current owner. NOTE: Renouncing ownership will leave the contract without an owner, thereby removing any functionality that is only available to the owner."
      },
      "royaltyInfo(uint256,uint256)": {
        "params": {
          "_tokenId": "- the NFT asset queried for royalty information",
          "_value": "- the sale price of the NFT asset specified by _tokenId"
        },
        "returns": {
          "receiver": "- address of who should be sent the royalty payment",
          "royaltyAmount": "- the royalty payment amount for value sale price"
        }
      },
      "safeTransferFrom(address,address,uint256)": {
        "details": "See {IERC721-safeTransferFrom}."
      },
      "safeTransferFrom(address,address,uint256,bytes)": {
        "details": "See {IERC721-safeTransferFrom}."
      },
      "setApprovalForAll(address,bool)": {
        "details": "See {IERC721-setApprovalForAll}."
      },
      "setRoyalties(address,uint256)": {
        "details": "Sets token royalties",
        "params": {
          "recipient": "recipient of the royalties",
          "value": "percentage (using 2 decimals - 10000 = 100, 0 = 0)"
        }
      },
      "supportsInterface(bytes4)": {
        "details": "See {IERC165-supportsInterface}."
      },
      "symbol()": {
        "details": "See {IERC721Metadata-symbol}."
      },
      "tokenByIndex(uint256)": {
        "details": "See {IERC721Enumerable-tokenByIndex}."
      },
      "tokenOfOwnerByIndex(address,uint256)": {
        "details": "See {IERC721Enumerable-tokenOfOwnerByIndex}."
      },
      "tokenURI(uint256)": {
        "details": "See {IERC721Metadata-tokenURI}."
      },
      "totalSupply()": {
        "details": "See {IERC721Enumerable-totalSupply}."
      },
      "transferFrom(address,address,uint256)": {
        "details": "See {IERC721-transferFrom}."
      },
      "transferOwnership(address)": {
        "details": "Transfers ownership of the contract to a new account (`newOwner`). Can only be called by the current owner."
      }
    },
    "version": 1
  },
  "userdoc": {
    "kind": "user",
    "methods": {},
    "version": 1
  },
  "storageLayout": {
    "storage": [
      {
        "astId": 7,
        "contract": "contracts/Artifacts.sol:Artifacts",
        "label": "_owner",
        "offset": 0,
        "slot": "0",
        "type": "t_address"
      },
      {
        "astId": 129,
        "contract": "contracts/Artifacts.sol:Artifacts",
        "label": "_name",
        "offset": 0,
        "slot": "1",
        "type": "t_string_storage"
      },
      {
        "astId": 131,
        "contract": "contracts/Artifacts.sol:Artifacts",
        "label": "_symbol",
        "offset": 0,
        "slot": "2",
        "type": "t_string_storage"
      },
      {
        "astId": 135,
        "contract": "contracts/Artifacts.sol:Artifacts",
        "label": "_owners",
        "offset": 0,
        "slot": "3",
        "type": "t_mapping(t_uint256,t_address)"
      },
      {
        "astId": 139,
        "contract": "contracts/Artifacts.sol:Artifacts",
        "label": "_balances",
        "offset": 0,
        "slot": "4",
        "type": "t_mapping(t_address,t_uint256)"
      },
      {
        "astId": 143,
        "contract": "contracts/Artifacts.sol:Artifacts",
        "label": "_tokenApprovals",
        "offset": 0,
        "slot": "5",
        "type": "t_mapping(t_uint256,t_address)"
      },
      {
        "astId": 149,
        "contract": "contracts/Artifacts.sol:Artifacts",
        "label": "_operatorApprovals",
        "offset": 0,
        "slot": "6",
        "type": "t_mapping(t_address,t_mapping(t_address,t_bool))"
      },
      {
        "astId": 1068,
        "contract": "contracts/Artifacts.sol:Artifacts",
        "label": "_ownedTokens",
        "offset": 0,
        "slot": "7",
        "type": "t_mapping(t_address,t_mapping(t_uint256,t_uint256))"
      },
      {
        "astId": 1072,
        "contract": "contracts/Artifacts.sol:Artifacts",
        "label": "_ownedTokensIndex",
        "offset": 0,
        "slot": "8",
        "type": "t_mapping(t_uint256,t_uint256)"
      },
      {
        "astId": 1075,
        "contract": "contracts/Artifacts.sol:Artifacts",
        "label": "_allTokens",
        "offset": 0,
        "slot": "9",
        "type": "t_array(t_uint256)dyn_storage"
      },
      {
        "astId": 1079,
        "contract": "contracts/Artifacts.sol:Artifacts",
        "label": "_allTokensIndex",
        "offset": 0,
        "slot": "10",
        "type": "t_mapping(t_uint256,t_uint256)"
      },
      {
        "astId": 3042,
        "contract": "contracts/Artifacts.sol:Artifacts",
        "label": "_royaltiesRecipient",
        "offset": 0,
        "slot": "11",
        "type": "t_address"
      },
      {
        "astId": 3044,
        "contract": "contracts/Artifacts.sol:Artifacts",
        "label": "_royaltiesValue",
        "offset": 0,
        "slot": "12",
        "type": "t_uint256"
      },
      {
        "astId": 2287,
        "contract": "contracts/Artifacts.sol:Artifacts",
        "label": "currentAvailability",
        "offset": 0,
        "slot": "13",
        "type": "t_uint256"
      },
      {
        "astId": 2290,
        "contract": "contracts/Artifacts.sol:Artifacts",
        "label": "currentConjured",
        "offset": 0,
        "slot": "14",
        "type": "t_uint256"
      },
      {
        "astId": 2293,
        "contract": "contracts/Artifacts.sol:Artifacts",
        "label": "currentPrice",
        "offset": 0,
        "slot": "15",
        "type": "t_uint256"
      },
      {
        "astId": 2296,
        "contract": "contracts/Artifacts.sol:Artifacts",
        "label": "lootArtifactsConjured",
        "offset": 0,
        "slot": "16",
        "type": "t_uint256"
      },
      {
        "astId": 2299,
        "contract": "contracts/Artifacts.sol:Artifacts",
        "label": "lootAddress",
        "offset": 0,
        "slot": "17",
        "type": "t_address"
      },
      {
        "astId": 2301,
        "contract": "contracts/Artifacts.sol:Artifacts",
        "label": "svgBuilder",
        "offset": 0,
        "slot": "18",
        "type": "t_address"
      },
      {
        "astId": 2305,
        "contract": "contracts/Artifacts.sol:Artifacts",
        "label": "divineHoodsClaimed",
        "offset": 0,
        "slot": "19",
        "type": "t_mapping(t_uint256,t_bool)"
      },
      {
        "astId": 2333,
        "contract": "contracts/Artifacts.sol:Artifacts",
        "label": "classification",
        "offset": 0,
        "slot": "20",
        "type": "t_array(t_string_storage)dyn_storage"
      },
      {
        "astId": 2342,
        "contract": "contracts/Artifacts.sol:Artifacts",
        "label": "storm",
        "offset": 0,
        "slot": "21",
        "type": "t_array(t_string_storage)dyn_storage"
      },
      {
        "astId": 2353,
        "contract": "contracts/Artifacts.sol:Artifacts",
        "label": "gear",
        "offset": 0,
        "slot": "22",
        "type": "t_array(t_string_storage)dyn_storage"
      }
    ],
    "types": {
      "t_address": {
        "encoding": "inplace",
        "label": "address",
        "numberOfBytes": "20"
      },
      "t_array(t_string_storage)dyn_storage": {
        "base": "t_string_storage",
        "encoding": "dynamic_array",
        "label": "string[]",
        "numberOfBytes": "32"
      },
      "t_array(t_uint256)dyn_storage": {
        "base": "t_uint256",
        "encoding": "dynamic_array",
        "label": "uint256[]",
        "numberOfBytes": "32"
      },
      "t_bool": {
        "encoding": "inplace",
        "label": "bool",
        "numberOfBytes": "1"
      },
      "t_mapping(t_address,t_bool)": {
        "encoding": "mapping",
        "key": "t_address",
        "label": "mapping(address => bool)",
        "numberOfBytes": "32",
        "value": "t_bool"
      },
      "t_mapping(t_address,t_mapping(t_address,t_bool))": {
        "encoding": "mapping",
        "key": "t_address",
        "label": "mapping(address => mapping(address => bool))",
        "numberOfBytes": "32",
        "value": "t_mapping(t_address,t_bool)"
      },
      "t_mapping(t_address,t_mapping(t_uint256,t_uint256))": {
        "encoding": "mapping",
        "key": "t_address",
        "label": "mapping(address => mapping(uint256 => uint256))",
        "numberOfBytes": "32",
        "value": "t_mapping(t_uint256,t_uint256)"
      },
      "t_mapping(t_address,t_uint256)": {
        "encoding": "mapping",
        "key": "t_address",
        "label": "mapping(address => uint256)",
        "numberOfBytes": "32",
        "value": "t_uint256"
      },
      "t_mapping(t_uint256,t_address)": {
        "encoding": "mapping",
        "key": "t_uint256",
        "label": "mapping(uint256 => address)",
        "numberOfBytes": "32",
        "value": "t_address"
      },
      "t_mapping(t_uint256,t_bool)": {
        "encoding": "mapping",
        "key": "t_uint256",
        "label": "mapping(uint256 => bool)",
        "numberOfBytes": "32",
        "value": "t_bool"
      },
      "t_mapping(t_uint256,t_uint256)": {
        "encoding": "mapping",
        "key": "t_uint256",
        "label": "mapping(uint256 => uint256)",
        "numberOfBytes": "32",
        "value": "t_uint256"
      },
      "t_string_storage": {
        "encoding": "bytes",
        "label": "string",
        "numberOfBytes": "32"
      },
      "t_uint256": {
        "encoding": "inplace",
        "label": "uint256",
        "numberOfBytes": "32"
      }
    }
  }
}