{
  "address": "0x5957E6350Bf63535CEA0Dc855c9F0cFDA539Ca1E",
  "abi": [
    {
      "inputs": [],
      "stateMutability": "nonpayable",
      "type": "constructor"
    },
    {
      "anonymous": false,
      "inputs": [
        {
          "indexed": true,
          "internalType": "address",
          "name": "owner",
          "type": "address"
        },
        {
          "indexed": true,
          "internalType": "address",
          "name": "approved",
          "type": "address"
        },
        {
          "indexed": true,
          "internalType": "uint256",
          "name": "tokenId",
          "type": "uint256"
        }
      ],
      "name": "Approval",
      "type": "event"
    },
    {
      "anonymous": false,
      "inputs": [
        {
          "indexed": true,
          "internalType": "address",
          "name": "owner",
          "type": "address"
        },
        {
          "indexed": true,
          "internalType": "address",
          "name": "operator",
          "type": "address"
        },
        {
          "indexed": false,
          "internalType": "bool",
          "name": "approved",
          "type": "bool"
        }
      ],
      "name": "ApprovalForAll",
      "type": "event"
    },
    {
      "anonymous": false,
      "inputs": [
        {
          "indexed": true,
          "internalType": "address",
          "name": "previousOwner",
          "type": "address"
        },
        {
          "indexed": true,
          "internalType": "address",
          "name": "newOwner",
          "type": "address"
        }
      ],
      "name": "OwnershipTransferred",
      "type": "event"
    },
    {
      "anonymous": false,
      "inputs": [
        {
          "indexed": true,
          "internalType": "address",
          "name": "from",
          "type": "address"
        },
        {
          "indexed": true,
          "internalType": "address",
          "name": "to",
          "type": "address"
        },
        {
          "indexed": true,
          "internalType": "uint256",
          "name": "tokenId",
          "type": "uint256"
        }
      ],
      "name": "Transfer",
      "type": "event"
    },
    {
      "inputs": [
        {
          "internalType": "address",
          "name": "to",
          "type": "address"
        },
        {
          "internalType": "uint256",
          "name": "tokenId",
          "type": "uint256"
        }
      ],
      "name": "approve",
      "outputs": [],
      "stateMutability": "nonpayable",
      "type": "function"
    },
    {
      "inputs": [
        {
          "internalType": "address",
          "name": "owner",
          "type": "address"
        }
      ],
      "name": "balanceOf",
      "outputs": [
        {
          "internalType": "uint256",
          "name": "",
          "type": "uint256"
        }
      ],
      "stateMutability": "view",
      "type": "function"
    },
    {
      "inputs": [],
      "name": "conjureArtifact",
      "outputs": [],
      "stateMutability": "payable",
      "type": "function"
    },
    {
      "inputs": [
        {
          "internalType": "uint256",
          "name": "tokenId",
          "type": "uint256"
        }
      ],
      "name": "getApproved",
      "outputs": [
        {
          "internalType": "address",
          "name": "",
          "type": "address"
        }
      ],
      "stateMutability": "view",
      "type": "function"
    },
    {
      "inputs": [
        {
          "internalType": "uint256",
          "name": "tokenId",
          "type": "uint256"
        }
      ],
      "name": "getClassification",
      "outputs": [
        {
          "internalType": "string",
          "name": "",
          "type": "string"
        }
      ],
      "stateMutability": "view",
      "type": "function"
    },
    {
      "inputs": [
        {
          "internalType": "uint256",
          "name": "tokenId",
          "type": "uint256"
        }
      ],
      "name": "getGear",
      "outputs": [
        {
          "internalType": "string",
          "name": "",
          "type": "string"
        }
      ],
      "stateMutability": "view",
      "type": "function"
    },
    {
      "inputs": [
        {
          "internalType": "uint256",
          "name": "tokenId",
          "type": "uint256"
        }
      ],
      "name": "getStorm",
      "outputs": [
        {
          "internalType": "string",
          "name": "",
          "type": "string"
        }
      ],
      "stateMutability": "view",
      "type": "function"
    },
    {
      "inputs": [
        {
          "internalType": "address",
          "name": "_adventurer",
          "type": "address"
        },
        {
          "internalType": "string",
          "name": "_type",
          "type": "string"
        }
      ],
      "name": "hasHelm",
      "outputs": [
        {
          "internalType": "bool",
          "name": "",
          "type": "bool"
        }
      ],
      "stateMutability": "view",
      "type": "function"
    },
    {
      "inputs": [
        {
          "internalType": "address",
          "name": "owner",
          "type": "address"
        },
        {
          "internalType": "address",
          "name": "operator",
          "type": "address"
        }
      ],
      "name": "isApprovedForAll",
      "outputs": [
        {
          "internalType": "bool",
          "name": "",
          "type": "bool"
        }
      ],
      "stateMutability": "view",
      "type": "function"
    },
    {
      "inputs": [
        {
          "internalType": "uint256",
          "name": "_max",
          "type": "uint256"
        }
      ],
      "name": "makeAvailable",
      "outputs": [],
      "stateMutability": "nonpayable",
      "type": "function"
    },
    {
      "inputs": [],
      "name": "name",
      "outputs": [
        {
          "internalType": "string",
          "name": "",
          "type": "string"
        }
      ],
      "stateMutability": "view",
      "type": "function"
    },
    {
      "inputs": [],
      "name": "owner",
      "outputs": [
        {
          "internalType": "address",
          "name": "",
          "type": "address"
        }
      ],
      "stateMutability": "view",
      "type": "function"
    },
    {
      "inputs": [],
      "name": "ownerClaim",
      "outputs": [],
      "stateMutability": "nonpayable",
      "type": "function"
    },
    {
      "inputs": [
        {
          "internalType": "uint256",
          "name": "tokenId",
          "type": "uint256"
        }
      ],
      "name": "ownerOf",
      "outputs": [
        {
          "internalType": "address",
          "name": "",
          "type": "address"
        }
      ],
      "stateMutability": "view",
      "type": "function"
    },
    {
      "inputs": [],
      "name": "renounceOwnership",
      "outputs": [],
      "stateMutability": "nonpayable",
      "type": "function"
    },
    {
      "inputs": [
        {
          "internalType": "uint256",
          "name": "",
          "type": "uint256"
        },
        {
          "internalType": "uint256",
          "name": "value",
          "type": "uint256"
        }
      ],
      "name": "royaltyInfo",
      "outputs": [
        {
          "internalType": "address",
          "name": "receiver",
          "type": "address"
        },
        {
          "internalType": "uint256",
          "name": "royaltyAmount",
          "type": "uint256"
        }
      ],
      "stateMutability": "view",
      "type": "function"
    },
    {
      "inputs": [
        {
          "internalType": "address",
          "name": "from",
          "type": "address"
        },
        {
          "internalType": "address",
          "name": "to",
          "type": "address"
        },
        {
          "internalType": "uint256",
          "name": "tokenId",
          "type": "uint256"
        }
      ],
      "name": "safeTransferFrom",
      "outputs": [],
      "stateMutability": "nonpayable",
      "type": "function"
    },
    {
      "inputs": [
        {
          "internalType": "address",
          "name": "from",
          "type": "address"
        },
        {
          "internalType": "address",
          "name": "to",
          "type": "address"
        },
        {
          "internalType": "uint256",
          "name": "tokenId",
          "type": "uint256"
        },
        {
          "internalType": "bytes",
          "name": "_data",
          "type": "bytes"
        }
      ],
      "name": "safeTransferFrom",
      "outputs": [],
      "stateMutability": "nonpayable",
      "type": "function"
    },
    {
      "inputs": [
        {
          "internalType": "address",
          "name": "operator",
          "type": "address"
        },
        {
          "internalType": "bool",
          "name": "approved",
          "type": "bool"
        }
      ],
      "name": "setApprovalForAll",
      "outputs": [],
      "stateMutability": "nonpayable",
      "type": "function"
    },
    {
      "inputs": [
        {
          "internalType": "address",
          "name": "recipient",
          "type": "address"
        },
        {
          "internalType": "uint256",
          "name": "value",
          "type": "uint256"
        }
      ],
      "name": "setRoyalties",
      "outputs": [],
      "stateMutability": "nonpayable",
      "type": "function"
    },
    {
      "inputs": [
        {
          "internalType": "bytes4",
          "name": "interfaceId",
          "type": "bytes4"
        }
      ],
      "name": "supportsInterface",
      "outputs": [
        {
          "internalType": "bool",
          "name": "",
          "type": "bool"
        }
      ],
      "stateMutability": "view",
      "type": "function"
    },
    {
      "inputs": [],
      "name": "symbol",
      "outputs": [
        {
          "internalType": "string",
          "name": "",
          "type": "string"
        }
      ],
      "stateMutability": "view",
      "type": "function"
    },
    {
      "inputs": [
        {
          "internalType": "uint256",
          "name": "index",
          "type": "uint256"
        }
      ],
      "name": "tokenByIndex",
      "outputs": [
        {
          "internalType": "uint256",
          "name": "",
          "type": "uint256"
        }
      ],
      "stateMutability": "view",
      "type": "function"
    },
    {
      "inputs": [
        {
          "internalType": "address",
          "name": "owner",
          "type": "address"
        },
        {
          "internalType": "uint256",
          "name": "index",
          "type": "uint256"
        }
      ],
      "name": "tokenOfOwnerByIndex",
      "outputs": [
        {
          "internalType": "uint256",
          "name": "",
          "type": "uint256"
        }
      ],
      "stateMutability": "view",
      "type": "function"
    },
    {
      "inputs": [
        {
          "internalType": "uint256",
          "name": "tokenId",
          "type": "uint256"
        }
      ],
      "name": "tokenURI",
      "outputs": [
        {
          "internalType": "string",
          "name": "",
          "type": "string"
        }
      ],
      "stateMutability": "view",
      "type": "function"
    },
    {
      "inputs": [],
      "name": "totalSupply",
      "outputs": [
        {
          "internalType": "uint256",
          "name": "",
          "type": "uint256"
        }
      ],
      "stateMutability": "view",
      "type": "function"
    },
    {
      "inputs": [
        {
          "internalType": "address",
          "name": "from",
          "type": "address"
        },
        {
          "internalType": "address",
          "name": "to",
          "type": "address"
        },
        {
          "internalType": "uint256",
          "name": "tokenId",
          "type": "uint256"
        }
      ],
      "name": "transferFrom",
      "outputs": [],
      "stateMutability": "nonpayable",
      "type": "function"
    },
    {
      "inputs": [
        {
          "internalType": "address",
          "name": "newOwner",
          "type": "address"
        }
      ],
      "name": "transferOwnership",
      "outputs": [],
      "stateMutability": "nonpayable",
      "type": "function"
    }
  ],
  "transactionHash": "0x70960198de895cb1c589444dd2011e5c56d0c130b7a699e928cff9683742c079",
  "args": [],
  "solcInputHash": "2a7e53ff7b2d0af6808cf77d9c27bd1b",
  "bytecode": "0x608060405260c8600d556001600e5567016345785d8a0000600f556040518061014001604052806040518060400160405280600781526020017f416e6369656e740000000000000000000000000000000000000000000000000081525081526020016040518060400160405280600581526020017f52756e696300000000000000000000000000000000000000000000000000000081525081526020016040518060400160405280600881526020017f456c64726974636800000000000000000000000000000000000000000000000081525081526020016040518060400160405280600881526020017f4c6f76656c65737300000000000000000000000000000000000000000000000081525081526020016040518060400160405280600681526020017f556e64656164000000000000000000000000000000000000000000000000000081525081526020016040518060400160405280600681526020017f427269676874000000000000000000000000000000000000000000000000000081525081526020016040518060400160405280600481526020017f4461726b0000000000000000000000000000000000000000000000000000000081525081526020016040518060400160405280600481526020017f566f69640000000000000000000000000000000000000000000000000000000081525081526020016040518060400160405280600681526020017f4769616e7473000000000000000000000000000000000000000000000000000081525081526020016040518060400160405280600581526020017f456e6c696c000000000000000000000000000000000000000000000000000000815250815250601090600a6200028492919062000805565b506040518060a001604052806040518060400160405280600481526020017f466972650000000000000000000000000000000000000000000000000000000081525081526020016040518060400160405280600981526020017f4c696768746e696e67000000000000000000000000000000000000000000000081525081526020016040518060400160405280600481526020017f53616e640000000000000000000000000000000000000000000000000000000081525081526020016040518060400160405280600481526020017f57696e640000000000000000000000000000000000000000000000000000000081525081526020016040518060400160405280600381526020017f49636500000000000000000000000000000000000000000000000000000000008152508152506011906005620003c79291906200086c565b506040518061010001604052806040518060400160405280600481526020017f48656c6d0000000000000000000000000000000000000000000000000000000081525081526020016040518060400160405280600581526020017f536861726400000000000000000000000000000000000000000000000000000081525081526020016040518060400160405280600581526020017f506c61746500000000000000000000000000000000000000000000000000000081525081526020016040518060400160405280600581526020017f53776f726400000000000000000000000000000000000000000000000000000081525081526020016040518060400160405280600381526020017f47656d000000000000000000000000000000000000000000000000000000000081525081526020016040518060400160405280600481526020017f536565640000000000000000000000000000000000000000000000000000000081525081526020016040518060400160405280600681526020017f416d756c6574000000000000000000000000000000000000000000000000000081525081526020016040518060400160405280600781526020017f4372797374616c000000000000000000000000000000000000000000000000008152508152506012906008620005bc929190620008d3565b50348015620005ca57600080fd5b506040518060400160405280601481526020017f53746f726d57696e6473204172746966616374730000000000000000000000008152506040518060400160405280600581526020017f53544f524d000000000000000000000000000000000000000000000000000000815250620006576200064b620006a560201b60201c565b620006ad60201b60201c565b81600190805190602001906200066f9291906200093a565b508060029080519060200190620006889291906200093a565b5050506200069f336103e86200077160201b60201c565b62000b40565b600033905090565b60008060009054906101000a900473ffffffffffffffffffffffffffffffffffffffff169050816000806101000a81548173ffffffffffffffffffffffffffffffffffffffff021916908373ffffffffffffffffffffffffffffffffffffffff1602179055508173ffffffffffffffffffffffffffffffffffffffff168173ffffffffffffffffffffffffffffffffffffffff167f8be0079c531659141344cd1fd0a4f28419497f9722a3daafe3b4186f6b6457e060405160405180910390a35050565b612710811115620007b9576040517f08c379a0000000000000000000000000000000000000000000000000000000008152600401620007b09062000a7f565b60405180910390fd5b81600b60006101000a81548173ffffffffffffffffffffffffffffffffffffffff021916908373ffffffffffffffffffffffffffffffffffffffff16021790555080600c819055505050565b82805482825590600052602060002090810192821562000859579160200282015b8281111562000858578251829080519060200190620008479291906200093a565b509160200191906001019062000826565b5b509050620008689190620009cb565b5090565b828054828255906000526020600020908101928215620008c0579160200282015b82811115620008bf578251829080519060200190620008ae9291906200093a565b50916020019190600101906200088d565b5b509050620008cf9190620009cb565b5090565b82805482825590600052602060002090810192821562000927579160200282015b8281111562000926578251829080519060200190620009159291906200093a565b5091602001919060010190620008f4565b5b509050620009369190620009cb565b5090565b828054620009489062000ab2565b90600052602060002090601f0160209004810192826200096c5760008555620009b8565b82601f106200098757805160ff1916838001178555620009b8565b82800160010185558215620009b8579182015b82811115620009b75782518255916020019190600101906200099a565b5b509050620009c79190620009f3565b5090565b5b80821115620009ef5760008181620009e5919062000a12565b50600101620009cc565b5090565b5b8082111562000a0e576000816000905550600101620009f4565b5090565b50805462000a209062000ab2565b6000825580601f1062000a34575062000a55565b601f01602090049060005260206000209081019062000a549190620009f3565b5b50565b600062000a67601a8362000aa1565b915062000a748262000b17565b602082019050919050565b6000602082019050818103600083015262000a9a8162000a58565b9050919050565b600082825260208201905092915050565b6000600282049050600182168062000acb57607f821691505b6020821081141562000ae25762000ae162000ae8565b5b50919050565b7f4e487b7100000000000000000000000000000000000000000000000000000000600052602260045260246000fd5b7f45524332393831526f79616c746965733a20546f6f2068696768000000000000600082015250565b614d328062000b506000396000f3fe6080604052600436106101b75760003560e01c806370a08231116100ec578063a22cb4651161008a578063c87b56dd11610064578063c87b56dd14610622578063e5c946ab1461065f578063e985e9c51461069c578063f2fde38b146106d9576101b7565b8063a22cb465146105a7578063b88d4fde146105d0578063baa39e05146105f9576101b7565b80638c7ea24b116100c65780638c7ea24b1461051e5780638d2bfe05146105475780638da5cb5b1461055157806395d89b411461057c576101b7565b806370a082311461048d578063715018a6146104ca57806383196955146104e1576101b7565b80632a55205a116101595780634dbe5889116101335780634dbe5889146103bf5780634f6ccce7146103d65780635454d388146104135780636352211e14610450576101b7565b80632a55205a1461031b5780632f745c591461035957806342842e0e14610396576101b7565b8063095ea7b311610195578063095ea7b31461026157806318160ddd1461028a57806323b872dd146102b557806324845721146102de576101b7565b806301ffc9a7146101bc57806306fdde03146101f9578063081812fc14610224575b600080fd5b3480156101c857600080fd5b506101e360048036038101906101de91906136f4565b610702565b6040516101f09190613d89565b60405180910390f35b34801561020557600080fd5b5061020e61077c565b60405161021b9190613dc8565b60405180910390f35b34801561023057600080fd5b5061024b60048036038101906102469190613746565b61080e565b6040516102589190613cf9565b60405180910390f35b34801561026d57600080fd5b50610288600480360381019061028391906136b8565b610893565b005b34801561029657600080fd5b5061029f6109ab565b6040516102ac919061406a565b60405180910390f35b3480156102c157600080fd5b506102dc60048036038101906102d7919061355a565b6109b8565b005b3480156102ea57600080fd5b5061030560048036038101906103009190613660565b610a18565b6040516103129190613d89565b60405180910390f35b34801561032757600080fd5b50610342600480360381019061033d919061376f565b610c51565b604051610350929190613d60565b60405180910390f35b34801561036557600080fd5b50610380600480360381019061037b91906136b8565b610c9d565b60405161038d919061406a565b60405180910390f35b3480156103a257600080fd5b506103bd60048036038101906103b8919061355a565b610d42565b005b3480156103cb57600080fd5b506103d4610d62565b005b3480156103e257600080fd5b506103fd60048036038101906103f89190613746565b610deb565b60405161040a919061406a565b60405180910390f35b34801561041f57600080fd5b5061043a60048036038101906104359190613746565b610e82565b6040516104479190613dc8565b60405180910390f35b34801561045c57600080fd5b5061047760048036038101906104729190613746565b610f9c565b6040516104849190613cf9565b60405180910390f35b34801561049957600080fd5b506104b460048036038101906104af91906134f5565b61104e565b6040516104c1919061406a565b60405180910390f35b3480156104d657600080fd5b506104df611106565b005b3480156104ed57600080fd5b5061050860048036038101906105039190613746565b61118e565b6040516105159190613dc8565b60405180910390f35b34801561052a57600080fd5b50610545600480360381019061054091906136b8565b6112a8565b005b61054f611332565b005b34801561055d57600080fd5b506105666113e8565b6040516105739190613cf9565b60405180910390f35b34801561058857600080fd5b50610591611411565b60405161059e9190613dc8565b60405180910390f35b3480156105b357600080fd5b506105ce60048036038101906105c99190613624565b6114a3565b005b3480156105dc57600080fd5b506105f760048036038101906105f291906135a9565b611624565b005b34801561060557600080fd5b50610620600480360381019061061b9190613746565b611686565b005b34801561062e57600080fd5b5061064960048036038101906106449190613746565b611729565b6040516106569190613dc8565b60405180910390f35b34801561066b57600080fd5b5061068660048036038101906106819190613746565b611bff565b6040516106939190613dc8565b60405180910390f35b3480156106a857600080fd5b506106c360048036038101906106be919061351e565b611d19565b6040516106d09190613d89565b60405180910390f35b3480156106e557600080fd5b5061070060048036038101906106fb91906134f5565b611dad565b005b60007f2a55205a000000000000000000000000000000000000000000000000000000007bffffffffffffffffffffffffffffffffffffffffffffffffffffffff1916827bffffffffffffffffffffffffffffffffffffffffffffffffffffffff19161480610775575061077482611ea5565b5b9050919050565b60606001805461078b906142e9565b80601f01602080910402602001604051908101604052809291908181526020018280546107b7906142e9565b80156108045780601f106107d957610100808354040283529160200191610804565b820191906000526020600020905b8154815290600101906020018083116107e757829003601f168201915b5050505050905090565b600061081982611f1f565b610858576040517f08c379a000000000000000000000000000000000000000000000000000000000815260040161084f90613f8a565b60405180910390fd5b6005600083815260200190815260200160002060009054906101000a900473ffffffffffffffffffffffffffffffffffffffff169050919050565b600061089e82610f9c565b90508073ffffffffffffffffffffffffffffffffffffffff168373ffffffffffffffffffffffffffffffffffffffff16141561090f576040517f08c379a000000000000000000000000000000000000000000000000000000000815260040161090690613fea565b60405180910390fd5b8073ffffffffffffffffffffffffffffffffffffffff1661092e611f8b565b73ffffffffffffffffffffffffffffffffffffffff16148061095d575061095c81610957611f8b565b611d19565b5b61099c576040517f08c379a000000000000000000000000000000000000000000000000000000000815260040161099390613f0a565b60405180910390fd5b6109a68383611f93565b505050565b6000600980549050905090565b6109c96109c3611f8b565b8261204c565b610a08576040517f08c379a00000000000000000000000000000000000000000000000000000000081526004016109ff9061400a565b60405180910390fd5b610a1383838361212a565b505050565b600080610a248561104e565b905060005b81811015610c43576000610a3d8783610c9d565b90506000811415610a545760019350505050610c4a565b6004811015610ab357610a9d86866040518060400160405280600481526020017f6669726500000000000000000000000000000000000000000000000000000000815250612386565b15610aae5760019350505050610c4a565b610c2f565b6007811015610b1257610afc86866040518060400160405280600481526020017f73616e6400000000000000000000000000000000000000000000000000000000815250612386565b15610b0d5760019350505050610c4a565b610c2e565b600a811015610b7157610b5b86866040518060400160405280600381526020017f6963650000000000000000000000000000000000000000000000000000000000815250612386565b15610b6c5760019350505050610c4a565b610c2d565b600d811015610bd057610bba86866040518060400160405280600481526020017f77696e6400000000000000000000000000000000000000000000000000000000815250612386565b15610bcb5760019350505050610c4a565b610c2c565b6010811015610c2b57610c1986866040518060400160405280600981526020017f6c696768746e696e670000000000000000000000000000000000000000000000815250612386565b15610c2a5760019350505050610c4a565b5b5b5b5b5b508080610c3b9061434c565b915050610a29565b5060009150505b9392505050565b600080600b60009054906101000a900473ffffffffffffffffffffffffffffffffffffffff16612710600c5485610c8891906141a5565b610c929190614174565b915091509250929050565b6000610ca88361104e565b8210610ce9576040517f08c379a0000000000000000000000000000000000000000000000000000000008152600401610ce090613e2a565b60405180910390fd5b600760008473ffffffffffffffffffffffffffffffffffffffff1673ffffffffffffffffffffffffffffffffffffffff168152602001908152602001600020600083815260200190815260200160002054905092915050565b610d5d83838360405180602001604052806000815250611624565b505050565b610d6a611f8b565b73ffffffffffffffffffffffffffffffffffffffff16610d886113e8565b73ffffffffffffffffffffffffffffffffffffffff1614610dde576040517f08c379a0000000000000000000000000000000000000000000000000000000008152600401610dd590613faa565b60405180910390fd5b610de93360006123e2565b565b6000610df56109ab565b8210610e36576040517f08c379a0000000000000000000000000000000000000000000000000000000008152600401610e2d9061402a565b60405180910390fd5b60098281548110610e70577f4e487b7100000000000000000000000000000000000000000000000000000000600052603260045260246000fd5b90600052602060002001549050919050565b6060610f95826040518060400160405280600481526020017f47454152000000000000000000000000000000000000000000000000000000008152506012805480602002602001604051908101604052809291908181526020016000905b82821015610f8c578382906000526020600020018054610eff906142e9565b80601f0160208091040260200160405190810160405280929190818152602001828054610f2b906142e9565b8015610f785780601f10610f4d57610100808354040283529160200191610f78565b820191906000526020600020905b815481529060010190602001808311610f5b57829003601f168201915b505050505081526020019060010190610ee0565b50505050612400565b9050919050565b6000806003600084815260200190815260200160002060009054906101000a900473ffffffffffffffffffffffffffffffffffffffff169050600073ffffffffffffffffffffffffffffffffffffffff168173ffffffffffffffffffffffffffffffffffffffff161415611045576040517f08c379a000000000000000000000000000000000000000000000000000000000815260040161103c90613f4a565b60405180910390fd5b80915050919050565b60008073ffffffffffffffffffffffffffffffffffffffff168273ffffffffffffffffffffffffffffffffffffffff1614156110bf576040517f08c379a00000000000000000000000000000000000000000000000000000000081526004016110b690613f2a565b60405180910390fd5b600460008373ffffffffffffffffffffffffffffffffffffffff1673ffffffffffffffffffffffffffffffffffffffff168152602001908152602001600020549050919050565b61110e611f8b565b73ffffffffffffffffffffffffffffffffffffffff1661112c6113e8565b73ffffffffffffffffffffffffffffffffffffffff1614611182576040517f08c379a000000000000000000000000000000000000000000000000000000000815260040161117990613faa565b60405180910390fd5b61118c60006124b4565b565b60606112a1826040518060400160405280600581526020017f53544f524d0000000000000000000000000000000000000000000000000000008152506011805480602002602001604051908101604052809291908181526020016000905b8282101561129857838290600052602060002001805461120b906142e9565b80601f0160208091040260200160405190810160405280929190818152602001828054611237906142e9565b80156112845780601f1061125957610100808354040283529160200191611284565b820191906000526020600020905b81548152906001019060200180831161126757829003601f168201915b5050505050815260200190600101906111ec565b50505050612400565b9050919050565b6112b0611f8b565b73ffffffffffffffffffffffffffffffffffffffff166112ce6113e8565b73ffffffffffffffffffffffffffffffffffffffff1614611324576040517f08c379a000000000000000000000000000000000000000000000000000000000815260040161131b90613faa565b60405180910390fd5b61132e8282612578565b5050565b600d54600e5410611378576040517f08c379a000000000000000000000000000000000000000000000000000000000815260040161136f9061404a565b60405180910390fd5b600f5434116113bc576040517f08c379a00000000000000000000000000000000000000000000000000000000081526004016113b390613dea565b60405180910390fd5b6000600e549050600e60008154809291906113d69061434c565b91905055506113e533826123e2565b50565b60008060009054906101000a900473ffffffffffffffffffffffffffffffffffffffff16905090565b606060028054611420906142e9565b80601f016020809104026020016040519081016040528092919081815260200182805461144c906142e9565b80156114995780601f1061146e57610100808354040283529160200191611499565b820191906000526020600020905b81548152906001019060200180831161147c57829003601f168201915b5050505050905090565b6114ab611f8b565b73ffffffffffffffffffffffffffffffffffffffff168273ffffffffffffffffffffffffffffffffffffffff161415611519576040517f08c379a000000000000000000000000000000000000000000000000000000000815260040161151090613eca565b60405180910390fd5b8060066000611526611f8b565b73ffffffffffffffffffffffffffffffffffffffff1673ffffffffffffffffffffffffffffffffffffffff16815260200190815260200160002060008473ffffffffffffffffffffffffffffffffffffffff1673ffffffffffffffffffffffffffffffffffffffff16815260200190815260200160002060006101000a81548160ff0219169083151502179055508173ffffffffffffffffffffffffffffffffffffffff166115d3611f8b565b73ffffffffffffffffffffffffffffffffffffffff167f17307eab39ab6107e8899845ad3d59bd9653f200f220920489ca2b5937696c31836040516116189190613d89565b60405180910390a35050565b61163561162f611f8b565b8361204c565b611674576040517f08c379a000000000000000000000000000000000000000000000000000000000815260040161166b9061400a565b60405180910390fd5b61168084848484612609565b50505050565b61168e611f8b565b73ffffffffffffffffffffffffffffffffffffffff166116ac6113e8565b73ffffffffffffffffffffffffffffffffffffffff1614611702576040517f08c379a00000000000000000000000000000000000000000000000000000000081526004016116f990613faa565b60405180910390fd5b610fa081111561171157600080fd5b600d54811161171f57600080fd5b80600d8190555050565b60606117336133b3565b60405180610120016040528060fd8152602001614bc060fd913981600060078110611787577f4e487b7100000000000000000000000000000000000000000000000000000000600052603260045260246000fd5b602002018190525061179883611bff565b816001600781106117d2577f4e487b7100000000000000000000000000000000000000000000000000000000600052603260045260246000fd5b60200201819052506040518060400160405280600181526020017f20000000000000000000000000000000000000000000000000000000000000008152508160026007811061184a577f4e487b7100000000000000000000000000000000000000000000000000000000600052603260045260246000fd5b602002018190525061185b8361118e565b81600360078110611895577f4e487b7100000000000000000000000000000000000000000000000000000000600052603260045260246000fd5b602002018190525060405180602001604052806000815250816004600781106118e7577f4e487b7100000000000000000000000000000000000000000000000000000000600052603260045260246000fd5b60200201819052506118f883610e82565b81600560078110611932577f4e487b7100000000000000000000000000000000000000000000000000000000600052603260045260246000fd5b60200201819052506040518060400160405280600d81526020017f3c2f746578743e3c2f7376673e00000000000000000000000000000000000000815250816006600781106119aa577f4e487b7100000000000000000000000000000000000000000000000000000000600052603260045260246000fd5b60200201819052506000816000600781106119ee577f4e487b7100000000000000000000000000000000000000000000000000000000600052603260045260246000fd5b602002015182600160078110611a2d577f4e487b7100000000000000000000000000000000000000000000000000000000600052603260045260246000fd5b602002015183600260078110611a6c577f4e487b7100000000000000000000000000000000000000000000000000000000600052603260045260246000fd5b602002015184600360078110611aab577f4e487b7100000000000000000000000000000000000000000000000000000000600052603260045260246000fd5b602002015185600460078110611aea577f4e487b7100000000000000000000000000000000000000000000000000000000600052603260045260246000fd5b602002015186600560078110611b29577f4e487b7100000000000000000000000000000000000000000000000000000000600052603260045260246000fd5b602002015187600660078110611b68577f4e487b7100000000000000000000000000000000000000000000000000000000600052603260045260246000fd5b6020020151604051602001611b839796959493929190613c2d565b60405160208183030381529060405290506000611bd0611ba286612665565b611bab84612812565b604051602001611bbc929190613c92565b604051602081830303815290604052612812565b905080604051602001611be39190613cd7565b6040516020818303038152906040529150819350505050919050565b6060611d12826040518060400160405280600e81526020017f434c415353494649434154494f4e0000000000000000000000000000000000008152506010805480602002602001604051908101604052809291908181526020016000905b82821015611d09578382906000526020600020018054611c7c906142e9565b80601f0160208091040260200160405190810160405280929190818152602001828054611ca8906142e9565b8015611cf55780601f10611cca57610100808354040283529160200191611cf5565b820191906000526020600020905b815481529060010190602001808311611cd857829003601f168201915b505050505081526020019060010190611c5d565b50505050612400565b9050919050565b6000600660008473ffffffffffffffffffffffffffffffffffffffff1673ffffffffffffffffffffffffffffffffffffffff16815260200190815260200160002060008373ffffffffffffffffffffffffffffffffffffffff1673ffffffffffffffffffffffffffffffffffffffff16815260200190815260200160002060009054906101000a900460ff16905092915050565b611db5611f8b565b73ffffffffffffffffffffffffffffffffffffffff16611dd36113e8565b73ffffffffffffffffffffffffffffffffffffffff1614611e29576040517f08c379a0000000000000000000000000000000000000000000000000000000008152600401611e2090613faa565b60405180910390fd5b600073ffffffffffffffffffffffffffffffffffffffff168173ffffffffffffffffffffffffffffffffffffffff161415611e99576040517f08c379a0000000000000000000000000000000000000000000000000000000008152600401611e9090613e6a565b60405180910390fd5b611ea2816124b4565b50565b60007f780e9d63000000000000000000000000000000000000000000000000000000007bffffffffffffffffffffffffffffffffffffffffffffffffffffffff1916827bffffffffffffffffffffffffffffffffffffffffffffffffffffffff19161480611f185750611f17826129d0565b5b9050919050565b60008073ffffffffffffffffffffffffffffffffffffffff166003600084815260200190815260200160002060009054906101000a900473ffffffffffffffffffffffffffffffffffffffff1673ffffffffffffffffffffffffffffffffffffffff1614159050919050565b600033905090565b816005600083815260200190815260200160002060006101000a81548173ffffffffffffffffffffffffffffffffffffffff021916908373ffffffffffffffffffffffffffffffffffffffff160217905550808273ffffffffffffffffffffffffffffffffffffffff1661200683610f9c565b73ffffffffffffffffffffffffffffffffffffffff167f8c5be1e5ebec7d5bd14f71427d1e84f3dd0314c0f7b2291e5b200ac8c7c3b92560405160405180910390a45050565b600061205782611f1f565b612096576040517f08c379a000000000000000000000000000000000000000000000000000000000815260040161208d90613eea565b60405180910390fd5b60006120a183610f9c565b90508073ffffffffffffffffffffffffffffffffffffffff168473ffffffffffffffffffffffffffffffffffffffff16148061211057508373ffffffffffffffffffffffffffffffffffffffff166120f88461080e565b73ffffffffffffffffffffffffffffffffffffffff16145b8061212157506121208185611d19565b5b91505092915050565b8273ffffffffffffffffffffffffffffffffffffffff1661214a82610f9c565b73ffffffffffffffffffffffffffffffffffffffff16146121a0576040517f08c379a000000000000000000000000000000000000000000000000000000000815260040161219790613fca565b60405180910390fd5b600073ffffffffffffffffffffffffffffffffffffffff168273ffffffffffffffffffffffffffffffffffffffff161415612210576040517f08c379a000000000000000000000000000000000000000000000000000000000815260040161220790613eaa565b60405180910390fd5b61221b838383612ab2565b612226600082611f93565b6001600460008573ffffffffffffffffffffffffffffffffffffffff1673ffffffffffffffffffffffffffffffffffffffff168152602001908152602001600020600082825461227691906141ff565b925050819055506001600460008473ffffffffffffffffffffffffffffffffffffffff1673ffffffffffffffffffffffffffffffffffffffff16815260200190815260200160002060008282546122cd919061411e565b92505081905550816003600083815260200190815260200160002060006101000a81548173ffffffffffffffffffffffffffffffffffffffff021916908373ffffffffffffffffffffffffffffffffffffffff160217905550808273ffffffffffffffffffffffffffffffffffffffff168473ffffffffffffffffffffffffffffffffffffffff167fddf252ad1be2c89b69c2b068fc378daa952ba7f163c4a11628f55a4df523b3ef60405160405180910390a4505050565b6000816040516020016123999190613dc8565b6040516020818303038152906040528051906020012084846040516020016123c2929190613da4565b604051602081830303815290604052805190602001201490509392505050565b6123fc828260405180602001604052806000815250612bc6565b5050565b606060006124368461241187612665565b604051602001612422929190613c09565b604051602081830303815290604052612c21565b90506000838451836124489190614395565b8151811061247f577f4e487b7100000000000000000000000000000000000000000000000000000000600052603260045260246000fd5b60200260200101516040516020016124979190613bf2565b604051602081830303815290604052905080925050509392505050565b60008060009054906101000a900473ffffffffffffffffffffffffffffffffffffffff169050816000806101000a81548173ffffffffffffffffffffffffffffffffffffffff021916908373ffffffffffffffffffffffffffffffffffffffff1602179055508173ffffffffffffffffffffffffffffffffffffffff168173ffffffffffffffffffffffffffffffffffffffff167f8be0079c531659141344cd1fd0a4f28419497f9722a3daafe3b4186f6b6457e060405160405180910390a35050565b6127108111156125bd576040517f08c379a00000000000000000000000000000000000000000000000000000000081526004016125b490613e0a565b60405180910390fd5b81600b60006101000a81548173ffffffffffffffffffffffffffffffffffffffff021916908373ffffffffffffffffffffffffffffffffffffffff16021790555080600c819055505050565b61261484848461212a565b61262084848484612c54565b61265f576040517f08c379a000000000000000000000000000000000000000000000000000000000815260040161265690613e4a565b60405180910390fd5b50505050565b606060008214156126ad576040518060400160405280600181526020017f3000000000000000000000000000000000000000000000000000000000000000815250905061280d565b600082905060005b600082146126df5780806126c89061434c565b915050600a826126d89190614174565b91506126b5565b60008167ffffffffffffffff811115612721577f4e487b7100000000000000000000000000000000000000000000000000000000600052604160045260246000fd5b6040519080825280601f01601f1916602001820160405280156127535781602001600182028036833780820191505090505b5090505b600085146128065760018261276c91906141ff565b9150600a8561277b9190614395565b6030612787919061411e565b60f81b8183815181106127c3577f4e487b7100000000000000000000000000000000000000000000000000000000600052603260045260246000fd5b60200101907effffffffffffffffffffffffffffffffffffffffffffffffffffffffffffff1916908160001a905350600a856127ff9190614174565b9450612757565b8093505050505b919050565b6060600082519050600081141561283b57604051806020016040528060008152509150506129cb565b6000600360028361284c919061411e565b6128569190614174565b600461286291906141a5565b90506000602082612873919061411e565b67ffffffffffffffff8111156128b2577f4e487b7100000000000000000000000000000000000000000000000000000000600052604160045260246000fd5b6040519080825280601f01601f1916602001820160405280156128e45781602001600182028036833780820191505090505b5090506000604051806060016040528060408152602001614cbd604091399050600181016020830160005b868110156129885760038101905062ffffff818a015116603f8160121c168401518060081b905060ff603f83600c1c1686015116810190508060081b905060ff603f8360061c1686015116810190508060081b905060ff603f831686015116810190508060e01b9050808452600484019350505061290f565b5060038606600181146129a257600281146129b2576129bd565b613d3d60f01b60028303526129bd565b603d60f81b60018303525b508484525050819450505050505b919050565b60007f80ac58cd000000000000000000000000000000000000000000000000000000007bffffffffffffffffffffffffffffffffffffffffffffffffffffffff1916827bffffffffffffffffffffffffffffffffffffffffffffffffffffffff19161480612a9b57507f5b5e139f000000000000000000000000000000000000000000000000000000007bffffffffffffffffffffffffffffffffffffffffffffffffffffffff1916827bffffffffffffffffffffffffffffffffffffffffffffffffffffffff1916145b80612aab5750612aaa82612deb565b5b9050919050565b612abd838383612e55565b600073ffffffffffffffffffffffffffffffffffffffff168373ffffffffffffffffffffffffffffffffffffffff161415612b0057612afb81612e5a565b612b3f565b8173ffffffffffffffffffffffffffffffffffffffff168373ffffffffffffffffffffffffffffffffffffffff1614612b3e57612b3d8382612ea3565b5b5b600073ffffffffffffffffffffffffffffffffffffffff168273ffffffffffffffffffffffffffffffffffffffff161415612b8257612b7d81613010565b612bc1565b8273ffffffffffffffffffffffffffffffffffffffff168273ffffffffffffffffffffffffffffffffffffffff1614612bc057612bbf8282613153565b5b5b505050565b612bd083836131d2565b612bdd6000848484612c54565b612c1c576040517f08c379a0000000000000000000000000000000000000000000000000000000008152600401612c1390613e4a565b60405180910390fd5b505050565b600081604051602001612c349190613bf2565b6040516020818303038152906040528051906020012060001c9050919050565b6000612c758473ffffffffffffffffffffffffffffffffffffffff166133a0565b15612dde578373ffffffffffffffffffffffffffffffffffffffff1663150b7a02612c9e611f8b565b8786866040518563ffffffff1660e01b8152600401612cc09493929190613d14565b602060405180830381600087803b158015612cda57600080fd5b505af1925050508015612d0b57506040513d601f19601f82011682018060405250810190612d08919061371d565b60015b612d8e573d8060008114612d3b576040519150601f19603f3d011682016040523d82523d6000602084013e612d40565b606091505b50600081511415612d86576040517f08c379a0000000000000000000000000000000000000000000000000000000008152600401612d7d90613e4a565b60405180910390fd5b805181602001fd5b63150b7a0260e01b7bffffffffffffffffffffffffffffffffffffffffffffffffffffffff1916817bffffffffffffffffffffffffffffffffffffffffffffffffffffffff191614915050612de3565b600190505b949350505050565b60007f01ffc9a7000000000000000000000000000000000000000000000000000000007bffffffffffffffffffffffffffffffffffffffffffffffffffffffff1916827bffffffffffffffffffffffffffffffffffffffffffffffffffffffff1916149050919050565b505050565b600980549050600a600083815260200190815260200160002081905550600981908060018154018082558091505060019003906000526020600020016000909190919091505550565b60006001612eb08461104e565b612eba91906141ff565b9050600060086000848152602001908152602001600020549050818114612f9f576000600760008673ffffffffffffffffffffffffffffffffffffffff1673ffffffffffffffffffffffffffffffffffffffff168152602001908152602001600020600084815260200190815260200160002054905080600760008773ffffffffffffffffffffffffffffffffffffffff1673ffffffffffffffffffffffffffffffffffffffff168152602001908152602001600020600084815260200190815260200160002081905550816008600083815260200190815260200160002081905550505b6008600084815260200190815260200160002060009055600760008573ffffffffffffffffffffffffffffffffffffffff1673ffffffffffffffffffffffffffffffffffffffff16815260200190815260200160002060008381526020019081526020016000206000905550505050565b6000600160098054905061302491906141ff565b90506000600a600084815260200190815260200160002054905060006009838154811061307a577f4e487b7100000000000000000000000000000000000000000000000000000000600052603260045260246000fd5b9060005260206000200154905080600983815481106130c2577f4e487b7100000000000000000000000000000000000000000000000000000000600052603260045260246000fd5b906000526020600020018190555081600a600083815260200190815260200160002081905550600a6000858152602001908152602001600020600090556009805480613137577f4e487b7100000000000000000000000000000000000000000000000000000000600052603160045260246000fd5b6001900381819060005260206000200160009055905550505050565b600061315e8361104e565b905081600760008573ffffffffffffffffffffffffffffffffffffffff1673ffffffffffffffffffffffffffffffffffffffff168152602001908152602001600020600083815260200190815260200160002081905550806008600084815260200190815260200160002081905550505050565b600073ffffffffffffffffffffffffffffffffffffffff168273ffffffffffffffffffffffffffffffffffffffff161415613242576040517f08c379a000000000000000000000000000000000000000000000000000000000815260040161323990613f6a565b60405180910390fd5b61324b81611f1f565b1561328b576040517f08c379a000000000000000000000000000000000000000000000000000000000815260040161328290613e8a565b60405180910390fd5b61329760008383612ab2565b6001600460008473ffffffffffffffffffffffffffffffffffffffff1673ffffffffffffffffffffffffffffffffffffffff16815260200190815260200160002060008282546132e7919061411e565b92505081905550816003600083815260200190815260200160002060006101000a81548173ffffffffffffffffffffffffffffffffffffffff021916908373ffffffffffffffffffffffffffffffffffffffff160217905550808273ffffffffffffffffffffffffffffffffffffffff16600073ffffffffffffffffffffffffffffffffffffffff167fddf252ad1be2c89b69c2b068fc378daa952ba7f163c4a11628f55a4df523b3ef60405160405180910390a45050565b600080823b905060008111915050919050565b6040518060e001604052806007905b60608152602001906001900390816133c25790505090565b60006133ed6133e8846140aa565b614085565b90508281526020810184848401111561340557600080fd5b6134108482856142a7565b509392505050565b60008135905061342781614b63565b92915050565b60008135905061343c81614b7a565b92915050565b60008135905061345181614b91565b92915050565b60008151905061346681614b91565b92915050565b600082601f83011261347d57600080fd5b813561348d8482602086016133da565b91505092915050565b60008083601f8401126134a857600080fd5b8235905067ffffffffffffffff8111156134c157600080fd5b6020830191508360018202830111156134d957600080fd5b9250929050565b6000813590506134ef81614ba8565b92915050565b60006020828403121561350757600080fd5b600061351584828501613418565b91505092915050565b6000806040838503121561353157600080fd5b600061353f85828601613418565b925050602061355085828601613418565b9150509250929050565b60008060006060848603121561356f57600080fd5b600061357d86828701613418565b935050602061358e86828701613418565b925050604061359f868287016134e0565b9150509250925092565b600080600080608085870312156135bf57600080fd5b60006135cd87828801613418565b94505060206135de87828801613418565b93505060406135ef878288016134e0565b925050606085013567ffffffffffffffff81111561360c57600080fd5b6136188782880161346c565b91505092959194509250565b6000806040838503121561363757600080fd5b600061364585828601613418565b92505060206136568582860161342d565b9150509250929050565b60008060006040848603121561367557600080fd5b600061368386828701613418565b935050602084013567ffffffffffffffff8111156136a057600080fd5b6136ac86828701613496565b92509250509250925092565b600080604083850312156136cb57600080fd5b60006136d985828601613418565b92505060206136ea858286016134e0565b9150509250929050565b60006020828403121561370657600080fd5b600061371484828501613442565b91505092915050565b60006020828403121561372f57600080fd5b600061373d84828501613457565b91505092915050565b60006020828403121561375857600080fd5b6000613766848285016134e0565b91505092915050565b6000806040838503121561378257600080fd5b6000613790858286016134e0565b92505060206137a1858286016134e0565b9150509250929050565b6137b481614233565b82525050565b6137c381614245565b82525050565b60006137d4826140db565b6137de81856140f1565b93506137ee8185602086016142b6565b6137f781614482565b840191505092915050565b600061380e8385614102565b935061381b8385846142a7565b61382483614482565b840190509392505050565b600061383a826140e6565b6138448185614102565b93506138548185602086016142b6565b61385d81614482565b840191505092915050565b6000613873826140e6565b61387d8185614113565b935061388d8185602086016142b6565b80840191505092915050565b60006138a6600b83614102565b91506138b182614493565b602082019050919050565b60006138c9601a83614102565b91506138d4826144bc565b602082019050919050565b60006138ec602b83614102565b91506138f7826144e5565b604082019050919050565b600061390f603283614102565b915061391a82614534565b604082019050919050565b6000613932602683614102565b915061393d82614583565b604082019050919050565b6000613955601c83614102565b9150613960826145d2565b602082019050919050565b6000613978602483614102565b9150613983826145fb565b604082019050919050565b600061399b601983614102565b91506139a68261464a565b602082019050919050565b60006139be602c83614102565b91506139c982614673565b604082019050919050565b60006139e1603883614102565b91506139ec826146c2565b604082019050919050565b6000613a04602a83614102565b9150613a0f82614711565b604082019050919050565b6000613a27602983614102565b9150613a3282614760565b604082019050919050565b6000613a4a600283614113565b9150613a55826147af565b600282019050919050565b6000613a6d600f83614113565b9150613a78826147d8565b600f82019050919050565b6000613a90602083614102565b9150613a9b82614801565b602082019050919050565b6000613ab3602c83614102565b9150613abe8261482a565b604082019050919050565b6000613ad6602083614102565b9150613ae182614879565b602082019050919050565b6000613af9602983614102565b9150613b04826148a2565b604082019050919050565b6000613b1d61010083614113565b9150613b28826148f1565b61010082019050919050565b6000613b41602183614102565b9150613b4c82614a24565b604082019050919050565b6000613b64601d83614113565b9150613b6f82614a73565b601d82019050919050565b6000613b87603183614102565b9150613b9282614a9c565b604082019050919050565b6000613baa602c83614102565b9150613bb582614aeb565b604082019050919050565b6000613bcd600883614102565b9150613bd882614b3a565b602082019050919050565b613bec8161429d565b82525050565b6000613bfe8284613868565b915081905092915050565b6000613c158285613868565b9150613c218284613868565b91508190509392505050565b6000613c39828a613868565b9150613c458289613868565b9150613c518288613868565b9150613c5d8287613868565b9150613c698286613868565b9150613c758285613868565b9150613c818284613868565b915081905098975050505050505050565b6000613c9d82613a60565b9150613ca98285613868565b9150613cb482613b0f565b9150613cc08284613868565b9150613ccb82613a3d565b91508190509392505050565b6000613ce282613b57565b9150613cee8284613868565b915081905092915050565b6000602082019050613d0e60008301846137ab565b92915050565b6000608082019050613d2960008301876137ab565b613d3660208301866137ab565b613d436040830185613be3565b8181036060830152613d5581846137c9565b905095945050505050565b6000604082019050613d7560008301856137ab565b613d826020830184613be3565b9392505050565b6000602082019050613d9e60008301846137ba565b92915050565b60006020820190508181036000830152613dbf818486613802565b90509392505050565b60006020820190508181036000830152613de2818461382f565b905092915050565b60006020820190508181036000830152613e0381613899565b9050919050565b60006020820190508181036000830152613e23816138bc565b9050919050565b60006020820190508181036000830152613e43816138df565b9050919050565b60006020820190508181036000830152613e6381613902565b9050919050565b60006020820190508181036000830152613e8381613925565b9050919050565b60006020820190508181036000830152613ea381613948565b9050919050565b60006020820190508181036000830152613ec38161396b565b9050919050565b60006020820190508181036000830152613ee38161398e565b9050919050565b60006020820190508181036000830152613f03816139b1565b9050919050565b60006020820190508181036000830152613f23816139d4565b9050919050565b60006020820190508181036000830152613f43816139f7565b9050919050565b60006020820190508181036000830152613f6381613a1a565b9050919050565b60006020820190508181036000830152613f8381613a83565b9050919050565b60006020820190508181036000830152613fa381613aa6565b9050919050565b60006020820190508181036000830152613fc381613ac9565b9050919050565b60006020820190508181036000830152613fe381613aec565b9050919050565b6000602082019050818103600083015261400381613b34565b9050919050565b6000602082019050818103600083015261402381613b7a565b9050919050565b6000602082019050818103600083015261404381613b9d565b9050919050565b6000602082019050818103600083015261406381613bc0565b9050919050565b600060208201905061407f6000830184613be3565b92915050565b600061408f6140a0565b905061409b828261431b565b919050565b6000604051905090565b600067ffffffffffffffff8211156140c5576140c4614453565b5b6140ce82614482565b9050602081019050919050565b600081519050919050565b600081519050919050565b600082825260208201905092915050565b600082825260208201905092915050565b600081905092915050565b60006141298261429d565b91506141348361429d565b9250827fffffffffffffffffffffffffffffffffffffffffffffffffffffffffffffffff03821115614169576141686143c6565b5b828201905092915050565b600061417f8261429d565b915061418a8361429d565b92508261419a576141996143f5565b5b828204905092915050565b60006141b08261429d565b91506141bb8361429d565b9250817fffffffffffffffffffffffffffffffffffffffffffffffffffffffffffffffff04831182151516156141f4576141f36143c6565b5b828202905092915050565b600061420a8261429d565b91506142158361429d565b925082821015614228576142276143c6565b5b828203905092915050565b600061423e8261427d565b9050919050565b60008115159050919050565b60007fffffffff0000000000000000000000000000000000000000000000000000000082169050919050565b600073ffffffffffffffffffffffffffffffffffffffff82169050919050565b6000819050919050565b82818337600083830152505050565b60005b838110156142d45780820151818401526020810190506142b9565b838111156142e3576000848401525b50505050565b6000600282049050600182168061430157607f821691505b6020821081141561431557614314614424565b5b50919050565b61432482614482565b810181811067ffffffffffffffff8211171561434357614342614453565b5b80604052505050565b60006143578261429d565b91507fffffffffffffffffffffffffffffffffffffffffffffffffffffffffffffffff82141561438a576143896143c6565b5b600182019050919050565b60006143a08261429d565b91506143ab8361429d565b9250826143bb576143ba6143f5565b5b828206905092915050565b7f4e487b7100000000000000000000000000000000000000000000000000000000600052601160045260246000fd5b7f4e487b7100000000000000000000000000000000000000000000000000000000600052601260045260246000fd5b7f4e487b7100000000000000000000000000000000000000000000000000000000600052602260045260246000fd5b7f4e487b7100000000000000000000000000000000000000000000000000000000600052604160045260246000fd5b6000601f19601f8301169050919050565b7f6465737469747574696f6e000000000000000000000000000000000000000000600082015250565b7f45524332393831526f79616c746965733a20546f6f2068696768000000000000600082015250565b7f455243373231456e756d657261626c653a206f776e657220696e646578206f7560008201527f74206f6620626f756e6473000000000000000000000000000000000000000000602082015250565b7f4552433732313a207472616e7366657220746f206e6f6e20455243373231526560008201527f63656976657220696d706c656d656e7465720000000000000000000000000000602082015250565b7f4f776e61626c653a206e6577206f776e657220697320746865207a65726f206160008201527f6464726573730000000000000000000000000000000000000000000000000000602082015250565b7f4552433732313a20746f6b656e20616c7265616479206d696e74656400000000600082015250565b7f4552433732313a207472616e7366657220746f20746865207a65726f2061646460008201527f7265737300000000000000000000000000000000000000000000000000000000602082015250565b7f4552433732313a20617070726f766520746f2063616c6c657200000000000000600082015250565b7f4552433732313a206f70657261746f7220717565727920666f72206e6f6e657860008201527f697374656e7420746f6b656e0000000000000000000000000000000000000000602082015250565b7f4552433732313a20617070726f76652063616c6c6572206973206e6f74206f7760008201527f6e6572206e6f7220617070726f76656420666f7220616c6c0000000000000000602082015250565b7f4552433732313a2062616c616e636520717565727920666f7220746865207a6560008201527f726f206164647265737300000000000000000000000000000000000000000000602082015250565b7f4552433732313a206f776e657220717565727920666f72206e6f6e657869737460008201527f656e7420746f6b656e0000000000000000000000000000000000000000000000602082015250565b7f227d000000000000000000000000000000000000000000000000000000000000600082015250565b7f7b226e616d65223a202242616720230000000000000000000000000000000000600082015250565b7f4552433732313a206d696e7420746f20746865207a65726f2061646472657373600082015250565b7f4552433732313a20617070726f76656420717565727920666f72206e6f6e657860008201527f697374656e7420746f6b656e0000000000000000000000000000000000000000602082015250565b7f4f776e61626c653a2063616c6c6572206973206e6f7420746865206f776e6572600082015250565b7f4552433732313a207472616e73666572206f6620746f6b656e2074686174206960008201527f73206e6f74206f776e0000000000000000000000000000000000000000000000602082015250565b7f222c20226465736372697074696f6e223a20224c6f6f742069732072616e646f60008201527f6d697a656420616476656e747572657220676561722067656e6572617465642060208201527f616e642073746f726564206f6e20636861696e2e2053746174732c20696d616760408201527f65732c20616e64206f746865722066756e6374696f6e616c697479206172652060608201527f696e74656e74696f6e616c6c79206f6d697474656420666f72206f746865727360808201527f20746f20696e746572707265742e204665656c206672656520746f207573652060a08201527f4c6f6f7420696e20616e792077617920796f752077616e742e222c2022696d6160c08201527f6765223a2022646174613a696d6167652f7376672b786d6c3b6261736536342c60e082015250565b7f4552433732313a20617070726f76616c20746f2063757272656e74206f776e6560008201527f7200000000000000000000000000000000000000000000000000000000000000602082015250565b7f646174613a6170706c69636174696f6e2f6a736f6e3b6261736536342c000000600082015250565b7f4552433732313a207472616e736665722063616c6c6572206973206e6f74206f60008201527f776e6572206e6f7220617070726f766564000000000000000000000000000000602082015250565b7f455243373231456e756d657261626c653a20676c6f62616c20696e646578206f60008201527f7574206f6620626f756e64730000000000000000000000000000000000000000602082015250565b7f646f726d616e6379000000000000000000000000000000000000000000000000600082015250565b614b6c81614233565b8114614b7757600080fd5b50565b614b8381614245565b8114614b8e57600080fd5b50565b614b9a81614251565b8114614ba557600080fd5b50565b614bb18161429d565b8114614bbc57600080fd5b5056fe3c73766720786d6c6e733d22687474703a2f2f7777772e77332e6f72672f323030302f73766722207072657365727665417370656374526174696f3d22784d696e594d696e206d656574222076696577426f783d223020302033353020333530223e3c7374796c653e2e62617365207b2066696c6c3a2077686974653b20666f6e742d66616d696c793a2073657269663b20666f6e742d73697a653a20313470783b207d3c2f7374796c653e3c726563742077696474683d223130302522206865696768743d2231303025222066696c6c3d22626c61636b22202f3e3c7465787420783d2231302220793d2232302220636c6173733d2262617365223e4142434445464748494a4b4c4d4e4f505152535455565758595a6162636465666768696a6b6c6d6e6f707172737475767778797a303132333435363738392b2fa264697066735822122085fba22a79eaf1f0dbbeb744f3bec979ed1841e41a504f8d9f59d3535a1783bb64736f6c63430008040033",
  "devdoc": {
    "kind": "dev",
    "methods": {
      "approve(address,uint256)": {
        "details": "See {IERC721-approve}."
      },
      "balanceOf(address)": {
        "details": "See {IERC721-balanceOf}."
      },
      "getApproved(uint256)": {
        "details": "See {IERC721-getApproved}."
      },
      "isApprovedForAll(address,address)": {
        "details": "See {IERC721-isApprovedForAll}."
      },
      "name()": {
        "details": "See {IERC721Metadata-name}."
      },
      "owner()": {
        "details": "Returns the address of the current owner."
      },
      "ownerOf(uint256)": {
        "details": "See {IERC721-ownerOf}."
      },
      "renounceOwnership()": {
        "details": "Leaves the contract without owner. It will not be possible to call `onlyOwner` functions anymore. Can only be called by the current owner. NOTE: Renouncing ownership will leave the contract without an owner, thereby removing any functionality that is only available to the owner."
      },
      "royaltyInfo(uint256,uint256)": {
        "params": {
          "_tokenId": "- the NFT asset queried for royalty information",
          "_value": "- the sale price of the NFT asset specified by _tokenId"
        },
        "returns": {
          "receiver": "- address of who should be sent the royalty payment",
          "royaltyAmount": "- the royalty payment amount for value sale price"
        }
      },
      "safeTransferFrom(address,address,uint256)": {
        "details": "See {IERC721-safeTransferFrom}."
      },
      "safeTransferFrom(address,address,uint256,bytes)": {
        "details": "See {IERC721-safeTransferFrom}."
      },
      "setApprovalForAll(address,bool)": {
        "details": "See {IERC721-setApprovalForAll}."
      },
      "setRoyalties(address,uint256)": {
        "details": "Sets token royalties",
        "params": {
          "recipient": "recipient of the royalties",
          "value": "percentage (using 2 decimals - 10000 = 100, 0 = 0)"
        }
      },
      "supportsInterface(bytes4)": {
        "details": "See {IERC165-supportsInterface}."
      },
      "symbol()": {
        "details": "See {IERC721Metadata-symbol}."
      },
      "tokenByIndex(uint256)": {
        "details": "See {IERC721Enumerable-tokenByIndex}."
      },
      "tokenOfOwnerByIndex(address,uint256)": {
        "details": "See {IERC721Enumerable-tokenOfOwnerByIndex}."
      },
      "tokenURI(uint256)": {
        "details": "See {IERC721Metadata-tokenURI}."
      },
      "totalSupply()": {
        "details": "See {IERC721Enumerable-totalSupply}."
      },
      "transferFrom(address,address,uint256)": {
        "details": "See {IERC721-transferFrom}."
      },
      "transferOwnership(address)": {
        "details": "Transfers ownership of the contract to a new account (`newOwner`). Can only be called by the current owner."
      }
    },
    "version": 1
  },
  "userdoc": {
    "kind": "user",
    "methods": {},
    "version": 1
  },
  "storageLayout": {
    "storage": [
      {
        "astId": 7,
        "contract": "contracts/Artifacts.sol:Artifacts",
        "label": "_owner",
        "offset": 0,
        "slot": "0",
        "type": "t_address"
      },
      {
        "astId": 129,
        "contract": "contracts/Artifacts.sol:Artifacts",
        "label": "_name",
        "offset": 0,
        "slot": "1",
        "type": "t_string_storage"
      },
      {
        "astId": 131,
        "contract": "contracts/Artifacts.sol:Artifacts",
        "label": "_symbol",
        "offset": 0,
        "slot": "2",
        "type": "t_string_storage"
      },
      {
        "astId": 135,
        "contract": "contracts/Artifacts.sol:Artifacts",
        "label": "_owners",
        "offset": 0,
        "slot": "3",
        "type": "t_mapping(t_uint256,t_address)"
      },
      {
        "astId": 139,
        "contract": "contracts/Artifacts.sol:Artifacts",
        "label": "_balances",
        "offset": 0,
        "slot": "4",
        "type": "t_mapping(t_address,t_uint256)"
      },
      {
        "astId": 143,
        "contract": "contracts/Artifacts.sol:Artifacts",
        "label": "_tokenApprovals",
        "offset": 0,
        "slot": "5",
        "type": "t_mapping(t_uint256,t_address)"
      },
      {
        "astId": 149,
        "contract": "contracts/Artifacts.sol:Artifacts",
        "label": "_operatorApprovals",
        "offset": 0,
        "slot": "6",
        "type": "t_mapping(t_address,t_mapping(t_address,t_bool))"
      },
      {
        "astId": 1068,
        "contract": "contracts/Artifacts.sol:Artifacts",
        "label": "_ownedTokens",
        "offset": 0,
        "slot": "7",
        "type": "t_mapping(t_address,t_mapping(t_uint256,t_uint256))"
      },
      {
        "astId": 1072,
        "contract": "contracts/Artifacts.sol:Artifacts",
        "label": "_ownedTokensIndex",
        "offset": 0,
        "slot": "8",
        "type": "t_mapping(t_uint256,t_uint256)"
      },
      {
        "astId": 1075,
        "contract": "contracts/Artifacts.sol:Artifacts",
        "label": "_allTokens",
        "offset": 0,
        "slot": "9",
        "type": "t_array(t_uint256)dyn_storage"
      },
      {
        "astId": 1079,
        "contract": "contracts/Artifacts.sol:Artifacts",
        "label": "_allTokensIndex",
        "offset": 0,
        "slot": "10",
        "type": "t_mapping(t_uint256,t_uint256)"
      },
      {
        "astId": 2721,
        "contract": "contracts/Artifacts.sol:Artifacts",
        "label": "_royaltiesRecipient",
        "offset": 0,
        "slot": "11",
        "type": "t_address"
      },
      {
        "astId": 2723,
        "contract": "contracts/Artifacts.sol:Artifacts",
        "label": "_royaltiesValue",
        "offset": 0,
        "slot": "12",
        "type": "t_uint256"
      },
      {
        "astId": 2043,
        "contract": "contracts/Artifacts.sol:Artifacts",
        "label": "currentAvailability",
        "offset": 0,
        "slot": "13",
        "type": "t_uint256"
      },
      {
        "astId": 2046,
        "contract": "contracts/Artifacts.sol:Artifacts",
        "label": "currentConjured",
        "offset": 0,
        "slot": "14",
        "type": "t_uint256"
      },
      {
        "astId": 2049,
        "contract": "contracts/Artifacts.sol:Artifacts",
        "label": "currentPrice",
        "offset": 0,
        "slot": "15",
        "type": "t_uint256"
      },
      {
        "astId": 2078,
        "contract": "contracts/Artifacts.sol:Artifacts",
        "label": "classification",
        "offset": 0,
        "slot": "16",
        "type": "t_array(t_string_storage)dyn_storage"
      },
      {
        "astId": 2087,
        "contract": "contracts/Artifacts.sol:Artifacts",
        "label": "storm",
        "offset": 0,
        "slot": "17",
        "type": "t_array(t_string_storage)dyn_storage"
      },
      {
        "astId": 2099,
        "contract": "contracts/Artifacts.sol:Artifacts",
        "label": "gear",
        "offset": 0,
        "slot": "18",
        "type": "t_array(t_string_storage)dyn_storage"
      }
    ],
    "types": {
      "t_address": {
        "encoding": "inplace",
        "label": "address",
        "numberOfBytes": "20"
      },
      "t_array(t_string_storage)dyn_storage": {
        "base": "t_string_storage",
        "encoding": "dynamic_array",
        "label": "string[]",
        "numberOfBytes": "32"
      },
      "t_array(t_uint256)dyn_storage": {
        "base": "t_uint256",
        "encoding": "dynamic_array",
        "label": "uint256[]",
        "numberOfBytes": "32"
      },
      "t_bool": {
        "encoding": "inplace",
        "label": "bool",
        "numberOfBytes": "1"
      },
      "t_mapping(t_address,t_bool)": {
        "encoding": "mapping",
        "key": "t_address",
        "label": "mapping(address => bool)",
        "numberOfBytes": "32",
        "value": "t_bool"
      },
      "t_mapping(t_address,t_mapping(t_address,t_bool))": {
        "encoding": "mapping",
        "key": "t_address",
        "label": "mapping(address => mapping(address => bool))",
        "numberOfBytes": "32",
        "value": "t_mapping(t_address,t_bool)"
      },
      "t_mapping(t_address,t_mapping(t_uint256,t_uint256))": {
        "encoding": "mapping",
        "key": "t_address",
        "label": "mapping(address => mapping(uint256 => uint256))",
        "numberOfBytes": "32",
        "value": "t_mapping(t_uint256,t_uint256)"
      },
      "t_mapping(t_address,t_uint256)": {
        "encoding": "mapping",
        "key": "t_address",
        "label": "mapping(address => uint256)",
        "numberOfBytes": "32",
        "value": "t_uint256"
      },
      "t_mapping(t_uint256,t_address)": {
        "encoding": "mapping",
        "key": "t_uint256",
        "label": "mapping(uint256 => address)",
        "numberOfBytes": "32",
        "value": "t_address"
      },
      "t_mapping(t_uint256,t_uint256)": {
        "encoding": "mapping",
        "key": "t_uint256",
        "label": "mapping(uint256 => uint256)",
        "numberOfBytes": "32",
        "value": "t_uint256"
      },
      "t_string_storage": {
        "encoding": "bytes",
        "label": "string",
        "numberOfBytes": "32"
      },
      "t_uint256": {
        "encoding": "inplace",
        "label": "uint256",
        "numberOfBytes": "32"
      }
    }
  }
}