{
  "address": "0x8718734d84C6dE99aC25B945DBa0bE7c3D78e66A",
  "abi": [
    {
      "inputs": [],
      "stateMutability": "nonpayable",
      "type": "constructor"
    },
    {
      "anonymous": false,
      "inputs": [
        {
          "indexed": true,
          "internalType": "address",
          "name": "owner",
          "type": "address"
        },
        {
          "indexed": true,
          "internalType": "address",
          "name": "approved",
          "type": "address"
        },
        {
          "indexed": true,
          "internalType": "uint256",
          "name": "tokenId",
          "type": "uint256"
        }
      ],
      "name": "Approval",
      "type": "event"
    },
    {
      "anonymous": false,
      "inputs": [
        {
          "indexed": true,
          "internalType": "address",
          "name": "owner",
          "type": "address"
        },
        {
          "indexed": true,
          "internalType": "address",
          "name": "operator",
          "type": "address"
        },
        {
          "indexed": false,
          "internalType": "bool",
          "name": "approved",
          "type": "bool"
        }
      ],
      "name": "ApprovalForAll",
      "type": "event"
    },
    {
      "anonymous": false,
      "inputs": [
        {
          "indexed": true,
          "internalType": "address",
          "name": "previousOwner",
          "type": "address"
        },
        {
          "indexed": true,
          "internalType": "address",
          "name": "newOwner",
          "type": "address"
        }
      ],
      "name": "OwnershipTransferred",
      "type": "event"
    },
    {
      "anonymous": false,
      "inputs": [
        {
          "indexed": true,
          "internalType": "address",
          "name": "from",
          "type": "address"
        },
        {
          "indexed": true,
          "internalType": "address",
          "name": "to",
          "type": "address"
        },
        {
          "indexed": true,
          "internalType": "uint256",
          "name": "tokenId",
          "type": "uint256"
        }
      ],
      "name": "Transfer",
      "type": "event"
    },
    {
      "inputs": [
        {
          "internalType": "address",
          "name": "to",
          "type": "address"
        },
        {
          "internalType": "uint256",
          "name": "tokenId",
          "type": "uint256"
        }
      ],
      "name": "approve",
      "outputs": [],
      "stateMutability": "nonpayable",
      "type": "function"
    },
    {
      "inputs": [
        {
          "internalType": "address",
          "name": "owner",
          "type": "address"
        }
      ],
      "name": "balanceOf",
      "outputs": [
        {
          "internalType": "uint256",
          "name": "",
          "type": "uint256"
        }
      ],
      "stateMutability": "view",
      "type": "function"
    },
    {
      "inputs": [],
      "name": "conjureHelm",
      "outputs": [],
      "stateMutability": "payable",
      "type": "function"
    },
    {
      "inputs": [],
      "name": "conjureShard",
      "outputs": [],
      "stateMutability": "payable",
      "type": "function"
    },
    {
      "inputs": [
        {
          "internalType": "uint256",
          "name": "tokenId",
          "type": "uint256"
        }
      ],
      "name": "getApproved",
      "outputs": [
        {
          "internalType": "address",
          "name": "",
          "type": "address"
        }
      ],
      "stateMutability": "view",
      "type": "function"
    },
    {
      "inputs": [
        {
          "internalType": "address",
          "name": "owner",
          "type": "address"
        },
        {
          "internalType": "address",
          "name": "operator",
          "type": "address"
        }
      ],
      "name": "isApprovedForAll",
      "outputs": [
        {
          "internalType": "bool",
          "name": "",
          "type": "bool"
        }
      ],
      "stateMutability": "view",
      "type": "function"
    },
    {
      "inputs": [],
      "name": "name",
      "outputs": [
        {
          "internalType": "string",
          "name": "",
          "type": "string"
        }
      ],
      "stateMutability": "view",
      "type": "function"
    },
    {
      "inputs": [],
      "name": "nextHelmPrice",
      "outputs": [
        {
          "internalType": "uint256",
          "name": "",
          "type": "uint256"
        }
      ],
      "stateMutability": "pure",
      "type": "function"
    },
    {
      "inputs": [],
      "name": "nextShardPrice",
      "outputs": [
        {
          "internalType": "uint256",
          "name": "",
          "type": "uint256"
        }
      ],
      "stateMutability": "pure",
      "type": "function"
    },
    {
      "inputs": [],
      "name": "owner",
      "outputs": [
        {
          "internalType": "address",
          "name": "",
          "type": "address"
        }
      ],
      "stateMutability": "view",
      "type": "function"
    },
    {
      "inputs": [
        {
          "internalType": "uint256",
          "name": "tokenId",
          "type": "uint256"
        }
      ],
      "name": "ownerOf",
      "outputs": [
        {
          "internalType": "address",
          "name": "",
          "type": "address"
        }
      ],
      "stateMutability": "view",
      "type": "function"
    },
    {
      "inputs": [],
      "name": "renounceOwnership",
      "outputs": [],
      "stateMutability": "nonpayable",
      "type": "function"
    },
    {
      "inputs": [
        {
          "internalType": "address",
          "name": "from",
          "type": "address"
        },
        {
          "internalType": "address",
          "name": "to",
          "type": "address"
        },
        {
          "internalType": "uint256",
          "name": "tokenId",
          "type": "uint256"
        }
      ],
      "name": "safeTransferFrom",
      "outputs": [],
      "stateMutability": "nonpayable",
      "type": "function"
    },
    {
      "inputs": [
        {
          "internalType": "address",
          "name": "from",
          "type": "address"
        },
        {
          "internalType": "address",
          "name": "to",
          "type": "address"
        },
        {
          "internalType": "uint256",
          "name": "tokenId",
          "type": "uint256"
        },
        {
          "internalType": "bytes",
          "name": "_data",
          "type": "bytes"
        }
      ],
      "name": "safeTransferFrom",
      "outputs": [],
      "stateMutability": "nonpayable",
      "type": "function"
    },
    {
      "inputs": [
        {
          "internalType": "address",
          "name": "operator",
          "type": "address"
        },
        {
          "internalType": "bool",
          "name": "approved",
          "type": "bool"
        }
      ],
      "name": "setApprovalForAll",
      "outputs": [],
      "stateMutability": "nonpayable",
      "type": "function"
    },
    {
      "inputs": [
        {
          "internalType": "bytes4",
          "name": "interfaceId",
          "type": "bytes4"
        }
      ],
      "name": "supportsInterface",
      "outputs": [
        {
          "internalType": "bool",
          "name": "",
          "type": "bool"
        }
      ],
      "stateMutability": "view",
      "type": "function"
    },
    {
      "inputs": [],
      "name": "symbol",
      "outputs": [
        {
          "internalType": "string",
          "name": "",
          "type": "string"
        }
      ],
      "stateMutability": "view",
      "type": "function"
    },
    {
      "inputs": [
        {
          "internalType": "uint256",
          "name": "tokenId",
          "type": "uint256"
        }
      ],
      "name": "tokenURI",
      "outputs": [
        {
          "internalType": "string",
          "name": "",
          "type": "string"
        }
      ],
      "stateMutability": "view",
      "type": "function"
    },
    {
      "inputs": [
        {
          "internalType": "address",
          "name": "from",
          "type": "address"
        },
        {
          "internalType": "address",
          "name": "to",
          "type": "address"
        },
        {
          "internalType": "uint256",
          "name": "tokenId",
          "type": "uint256"
        }
      ],
      "name": "transferFrom",
      "outputs": [],
      "stateMutability": "nonpayable",
      "type": "function"
    },
    {
      "inputs": [
        {
          "internalType": "address",
          "name": "newOwner",
          "type": "address"
        }
      ],
      "name": "transferOwnership",
      "outputs": [],
      "stateMutability": "nonpayable",
      "type": "function"
    }
  ],
  "transactionHash": "0x81c54776548128b17929cf2d40a46b5e7cb8adde8e035dfe627e4631c89e0236",
  "args": [],
  "solcInputHash": "a3a864dde8886a04cd8406f887a854a7",
  "bytecode": "0x60806040526000600760006101000a81548160ff021916908360ff16021790555060006008553480156200003257600080fd5b506040518060400160405280601481526020017f53746f726d57696e6473204172746966616374730000000000000000000000008152506040518060400160405280600581526020017f53544f524d000000000000000000000000000000000000000000000000000000815250620000bf620000b3620000f960201b60201c565b6200010160201b60201c565b8160019080519060200190620000d7929190620001c5565b508060029080519060200190620000f0929190620001c5565b505050620002da565b600033905090565b60008060009054906101000a900473ffffffffffffffffffffffffffffffffffffffff169050816000806101000a81548173ffffffffffffffffffffffffffffffffffffffff021916908373ffffffffffffffffffffffffffffffffffffffff1602179055508173ffffffffffffffffffffffffffffffffffffffff168173ffffffffffffffffffffffffffffffffffffffff167f8be0079c531659141344cd1fd0a4f28419497f9722a3daafe3b4186f6b6457e060405160405180910390a35050565b828054620001d39062000275565b90600052602060002090601f016020900481019282620001f7576000855562000243565b82601f106200021257805160ff191683800117855562000243565b8280016001018555821562000243579182015b828111156200024257825182559160200191906001019062000225565b5b50905062000252919062000256565b5090565b5b808211156200027157600081600090555060010162000257565b5090565b600060028204905060018216806200028e57607f821691505b60208210811415620002a557620002a4620002ab565b5b50919050565b7f4e487b7100000000000000000000000000000000000000000000000000000000600052602260045260246000fd5b612f5580620002ea6000396000f3fe60806040526004361061011f5760003560e01c80638da5cb5b116100a0578063c87b56dd11610064578063c87b56dd146103b2578063e6690243146103ef578063e7a22d01146103f9578063e985e9c514610424578063f2fde38b146104615761011f565b80638da5cb5b1461030057806395d89b411461032b578063a22cb46514610356578063aca8d4581461037f578063b88d4fde146103895761011f565b806342842e0e116100e757806342842e0e1461021b5780634414adb0146102445780636352211e1461026f57806370a08231146102ac578063715018a6146102e95761011f565b806301ffc9a71461012457806306fdde0314610161578063081812fc1461018c578063095ea7b3146101c957806323b872dd146101f2575b600080fd5b34801561013057600080fd5b5061014b60048036038101906101469190611eb8565b61048a565b6040516101589190612327565b60405180910390f35b34801561016d57600080fd5b5061017661056c565b6040516101839190612342565b60405180910390f35b34801561019857600080fd5b506101b360048036038101906101ae9190611f0a565b6105fe565b6040516101c091906122c0565b60405180910390f35b3480156101d557600080fd5b506101f060048036038101906101eb9190611e7c565b610683565b005b3480156101fe57600080fd5b5061021960048036038101906102149190611d76565b61079b565b005b34801561022757600080fd5b50610242600480360381019061023d9190611d76565b6107fb565b005b34801561025057600080fd5b5061025961081b565b60405161026691906125c4565b60405180910390f35b34801561027b57600080fd5b5061029660048036038101906102919190611f0a565b61082b565b6040516102a391906122c0565b60405180910390f35b3480156102b857600080fd5b506102d360048036038101906102ce9190611d11565b6108dd565b6040516102e091906125c4565b60405180910390f35b3480156102f557600080fd5b506102fe610995565b005b34801561030c57600080fd5b50610315610a1d565b60405161032291906122c0565b60405180910390f35b34801561033757600080fd5b50610340610a46565b60405161034d9190612342565b60405180910390f35b34801561036257600080fd5b5061037d60048036038101906103789190611e40565b610ad8565b005b610387610c59565b005b34801561039557600080fd5b506103b060048036038101906103ab9190611dc5565b610d1b565b005b3480156103be57600080fd5b506103d960048036038101906103d49190611f0a565b610d7d565b6040516103e69190612342565b60405180910390f35b6103f7610e24565b005b34801561040557600080fd5b5061040e610ef9565b60405161041b91906125c4565b60405180910390f35b34801561043057600080fd5b5061044b60048036038101906104469190611d3a565b610f09565b6040516104589190612327565b60405180910390f35b34801561046d57600080fd5b5061048860048036038101906104839190611d11565b610f9d565b005b60007f80ac58cd000000000000000000000000000000000000000000000000000000007bffffffffffffffffffffffffffffffffffffffffffffffffffffffff1916827bffffffffffffffffffffffffffffffffffffffffffffffffffffffff1916148061055557507f5b5e139f000000000000000000000000000000000000000000000000000000007bffffffffffffffffffffffffffffffffffffffffffffffffffffffff1916827bffffffffffffffffffffffffffffffffffffffffffffffffffffffff1916145b80610565575061056482611095565b5b9050919050565b60606001805461057b906127f6565b80601f01602080910402602001604051908101604052809291908181526020018280546105a7906127f6565b80156105f45780601f106105c9576101008083540402835291602001916105f4565b820191906000526020600020905b8154815290600101906020018083116105d757829003601f168201915b5050505050905090565b6000610609826110ff565b610648576040517f08c379a000000000000000000000000000000000000000000000000000000000815260040161063f906124c4565b60405180910390fd5b6005600083815260200190815260200160002060009054906101000a900473ffffffffffffffffffffffffffffffffffffffff169050919050565b600061068e8261082b565b90508073ffffffffffffffffffffffffffffffffffffffff168373ffffffffffffffffffffffffffffffffffffffff1614156106ff576040517f08c379a00000000000000000000000000000000000000000000000000000000081526004016106f690612564565b60405180910390fd5b8073ffffffffffffffffffffffffffffffffffffffff1661071e61116b565b73ffffffffffffffffffffffffffffffffffffffff16148061074d575061074c8161074761116b565b610f09565b5b61078c576040517f08c379a000000000000000000000000000000000000000000000000000000000815260040161078390612424565b60405180910390fd5b6107968383611173565b505050565b6107ac6107a661116b565b8261122c565b6107eb576040517f08c379a00000000000000000000000000000000000000000000000000000000081526004016107e290612584565b60405180910390fd5b6107f683838361130a565b505050565b61081683838360405180602001604052806000815250610d1b565b505050565b6000670de0b6b3a7640000905090565b6000806003600084815260200190815260200160002060009054906101000a900473ffffffffffffffffffffffffffffffffffffffff169050600073ffffffffffffffffffffffffffffffffffffffff168173ffffffffffffffffffffffffffffffffffffffff1614156108d4576040517f08c379a00000000000000000000000000000000000000000000000000000000081526004016108cb90612484565b60405180910390fd5b80915050919050565b60008073ffffffffffffffffffffffffffffffffffffffff168273ffffffffffffffffffffffffffffffffffffffff16141561094e576040517f08c379a000000000000000000000000000000000000000000000000000000000815260040161094590612464565b60405180910390fd5b600460008373ffffffffffffffffffffffffffffffffffffffff1673ffffffffffffffffffffffffffffffffffffffff168152602001908152602001600020549050919050565b61099d61116b565b73ffffffffffffffffffffffffffffffffffffffff166109bb610a1d565b73ffffffffffffffffffffffffffffffffffffffff1614610a11576040517f08c379a0000000000000000000000000000000000000000000000000000000008152600401610a08906124e4565b60405180910390fd5b610a1b6000611566565b565b60008060009054906101000a900473ffffffffffffffffffffffffffffffffffffffff16905090565b606060028054610a55906127f6565b80601f0160208091040260200160405190810160405280929190818152602001828054610a81906127f6565b8015610ace5780601f10610aa357610100808354040283529160200191610ace565b820191906000526020600020905b815481529060010190602001808311610ab157829003601f168201915b5050505050905090565b610ae061116b565b73ffffffffffffffffffffffffffffffffffffffff168273ffffffffffffffffffffffffffffffffffffffff161415610b4e576040517f08c379a0000000000000000000000000000000000000000000000000000000008152600401610b45906123e4565b60405180910390fd5b8060066000610b5b61116b565b73ffffffffffffffffffffffffffffffffffffffff1673ffffffffffffffffffffffffffffffffffffffff16815260200190815260200160002060008473ffffffffffffffffffffffffffffffffffffffff1673ffffffffffffffffffffffffffffffffffffffff16815260200190815260200160002060006101000a81548160ff0219169083151502179055508173ffffffffffffffffffffffffffffffffffffffff16610c0861116b565b73ffffffffffffffffffffffffffffffffffffffff167f17307eab39ab6107e8899845ad3d59bd9653f200f220920489ca2b5937696c3183604051610c4d9190612327565b60405180910390a35050565b601060ff16600760009054906101000a900460ff1660ff1610610cb1576040517f08c379a0000000000000000000000000000000000000000000000000000000008152600401610ca890612444565b60405180910390fd5b610cb961081b565b341015610cc557600080fd5b610ce133600760009054906101000a900460ff1660ff1661162a565b6007600081819054906101000a900460ff1680929190610d00906128a2565b91906101000a81548160ff021916908360ff16021790555050565b610d2c610d2661116b565b8361122c565b610d6b576040517f08c379a0000000000000000000000000000000000000000000000000000000008152600401610d6290612584565b60405180910390fd5b610d7784848484611648565b50505050565b6060610d88826110ff565b610dc7576040517f08c379a0000000000000000000000000000000000000000000000000000000008152600401610dbe90612544565b60405180910390fd5b6000610dd16116a4565b90506000815111610df15760405180602001604052806000815250610e1c565b80610dfb846116bb565b604051602001610e0c92919061229c565b6040516020818303038152906040525b915050919050565b6103e8600760009054906101000a900460ff1660ff1610610e7a576040517f08c379a0000000000000000000000000000000000000000000000000000000008152600401610e71906125a4565b60405180910390fd5b610e82610ef9565b341015610ec4576040517f08c379a0000000000000000000000000000000000000000000000000000000008152600401610ebb90612504565b60405180910390fd5b610edf33600854601060ff16610eda9190612678565b61162a565b60086000815480929190610ef290612859565b9190505550565b60006702c68af0bb140000905090565b6000600660008473ffffffffffffffffffffffffffffffffffffffff1673ffffffffffffffffffffffffffffffffffffffff16815260200190815260200160002060008373ffffffffffffffffffffffffffffffffffffffff1673ffffffffffffffffffffffffffffffffffffffff16815260200190815260200160002060009054906101000a900460ff16905092915050565b610fa561116b565b73ffffffffffffffffffffffffffffffffffffffff16610fc3610a1d565b73ffffffffffffffffffffffffffffffffffffffff1614611019576040517f08c379a0000000000000000000000000000000000000000000000000000000008152600401611010906124e4565b60405180910390fd5b600073ffffffffffffffffffffffffffffffffffffffff168173ffffffffffffffffffffffffffffffffffffffff161415611089576040517f08c379a000000000000000000000000000000000000000000000000000000000815260040161108090612384565b60405180910390fd5b61109281611566565b50565b60007f01ffc9a7000000000000000000000000000000000000000000000000000000007bffffffffffffffffffffffffffffffffffffffffffffffffffffffff1916827bffffffffffffffffffffffffffffffffffffffffffffffffffffffff1916149050919050565b60008073ffffffffffffffffffffffffffffffffffffffff166003600084815260200190815260200160002060009054906101000a900473ffffffffffffffffffffffffffffffffffffffff1673ffffffffffffffffffffffffffffffffffffffff1614159050919050565b600033905090565b816005600083815260200190815260200160002060006101000a81548173ffffffffffffffffffffffffffffffffffffffff021916908373ffffffffffffffffffffffffffffffffffffffff160217905550808273ffffffffffffffffffffffffffffffffffffffff166111e68361082b565b73ffffffffffffffffffffffffffffffffffffffff167f8c5be1e5ebec7d5bd14f71427d1e84f3dd0314c0f7b2291e5b200ac8c7c3b92560405160405180910390a45050565b6000611237826110ff565b611276576040517f08c379a000000000000000000000000000000000000000000000000000000000815260040161126d90612404565b60405180910390fd5b60006112818361082b565b90508073ffffffffffffffffffffffffffffffffffffffff168473ffffffffffffffffffffffffffffffffffffffff1614806112f057508373ffffffffffffffffffffffffffffffffffffffff166112d8846105fe565b73ffffffffffffffffffffffffffffffffffffffff16145b8061130157506113008185610f09565b5b91505092915050565b8273ffffffffffffffffffffffffffffffffffffffff1661132a8261082b565b73ffffffffffffffffffffffffffffffffffffffff1614611380576040517f08c379a000000000000000000000000000000000000000000000000000000000815260040161137790612524565b60405180910390fd5b600073ffffffffffffffffffffffffffffffffffffffff168273ffffffffffffffffffffffffffffffffffffffff1614156113f0576040517f08c379a00000000000000000000000000000000000000000000000000000000081526004016113e7906123c4565b60405180910390fd5b6113fb838383611868565b611406600082611173565b6001600460008573ffffffffffffffffffffffffffffffffffffffff1673ffffffffffffffffffffffffffffffffffffffff168152602001908152602001600020600082825461145691906126ff565b925050819055506001600460008473ffffffffffffffffffffffffffffffffffffffff1673ffffffffffffffffffffffffffffffffffffffff16815260200190815260200160002060008282546114ad9190612678565b92505081905550816003600083815260200190815260200160002060006101000a81548173ffffffffffffffffffffffffffffffffffffffff021916908373ffffffffffffffffffffffffffffffffffffffff160217905550808273ffffffffffffffffffffffffffffffffffffffff168473ffffffffffffffffffffffffffffffffffffffff167fddf252ad1be2c89b69c2b068fc378daa952ba7f163c4a11628f55a4df523b3ef60405160405180910390a4505050565b60008060009054906101000a900473ffffffffffffffffffffffffffffffffffffffff169050816000806101000a81548173ffffffffffffffffffffffffffffffffffffffff021916908373ffffffffffffffffffffffffffffffffffffffff1602179055508173ffffffffffffffffffffffffffffffffffffffff168173ffffffffffffffffffffffffffffffffffffffff167f8be0079c531659141344cd1fd0a4f28419497f9722a3daafe3b4186f6b6457e060405160405180910390a35050565b61164482826040518060200160405280600081525061186d565b5050565b61165384848461130a565b61165f848484846118c8565b61169e576040517f08c379a000000000000000000000000000000000000000000000000000000000815260040161169590612364565b60405180910390fd5b50505050565b606060405180602001604052806000815250905090565b60606000821415611703576040518060400160405280600181526020017f30000000000000000000000000000000000000000000000000000000000000008152509050611863565b600082905060005b6000821461173557808061171e90612859565b915050600a8261172e91906126ce565b915061170b565b60008167ffffffffffffffff811115611777577f4e487b7100000000000000000000000000000000000000000000000000000000600052604160045260246000fd5b6040519080825280601f01601f1916602001820160405280156117a95781602001600182028036833780820191505090505b5090505b6000851461185c576001826117c291906126ff565b9150600a856117d191906128cc565b60306117dd9190612678565b60f81b818381518110611819577f4e487b7100000000000000000000000000000000000000000000000000000000600052603260045260246000fd5b60200101907effffffffffffffffffffffffffffffffffffffffffffffffffffffffffffff1916908160001a905350600a8561185591906126ce565b94506117ad565b8093505050505b919050565b505050565b6118778383611a5f565b61188460008484846118c8565b6118c3576040517f08c379a00000000000000000000000000000000000000000000000000000000081526004016118ba90612364565b60405180910390fd5b505050565b60006118e98473ffffffffffffffffffffffffffffffffffffffff16611c2d565b15611a52578373ffffffffffffffffffffffffffffffffffffffff1663150b7a0261191261116b565b8786866040518563ffffffff1660e01b815260040161193494939291906122db565b602060405180830381600087803b15801561194e57600080fd5b505af192505050801561197f57506040513d601f19601f8201168201806040525081019061197c9190611ee1565b60015b611a02573d80600081146119af576040519150601f19603f3d011682016040523d82523d6000602084013e6119b4565b606091505b506000815114156119fa576040517f08c379a00000000000000000000000000000000000000000000000000000000081526004016119f190612364565b60405180910390fd5b805181602001fd5b63150b7a0260e01b7bffffffffffffffffffffffffffffffffffffffffffffffffffffffff1916817bffffffffffffffffffffffffffffffffffffffffffffffffffffffff191614915050611a57565b600190505b949350505050565b600073ffffffffffffffffffffffffffffffffffffffff168273ffffffffffffffffffffffffffffffffffffffff161415611acf576040517f08c379a0000000000000000000000000000000000000000000000000000000008152600401611ac6906124a4565b60405180910390fd5b611ad8816110ff565b15611b18576040517f08c379a0000000000000000000000000000000000000000000000000000000008152600401611b0f906123a4565b60405180910390fd5b611b2460008383611868565b6001600460008473ffffffffffffffffffffffffffffffffffffffff1673ffffffffffffffffffffffffffffffffffffffff1681526020019081526020016000206000828254611b749190612678565b92505081905550816003600083815260200190815260200160002060006101000a81548173ffffffffffffffffffffffffffffffffffffffff021916908373ffffffffffffffffffffffffffffffffffffffff160217905550808273ffffffffffffffffffffffffffffffffffffffff16600073ffffffffffffffffffffffffffffffffffffffff167fddf252ad1be2c89b69c2b068fc378daa952ba7f163c4a11628f55a4df523b3ef60405160405180910390a45050565b600080823b905060008111915050919050565b6000611c53611c4e84612604565b6125df565b905082815260208101848484011115611c6b57600080fd5b611c768482856127b4565b509392505050565b600081359050611c8d81612ec3565b92915050565b600081359050611ca281612eda565b92915050565b600081359050611cb781612ef1565b92915050565b600081519050611ccc81612ef1565b92915050565b600082601f830112611ce357600080fd5b8135611cf3848260208601611c40565b91505092915050565b600081359050611d0b81612f08565b92915050565b600060208284031215611d2357600080fd5b6000611d3184828501611c7e565b91505092915050565b60008060408385031215611d4d57600080fd5b6000611d5b85828601611c7e565b9250506020611d6c85828601611c7e565b9150509250929050565b600080600060608486031215611d8b57600080fd5b6000611d9986828701611c7e565b9350506020611daa86828701611c7e565b9250506040611dbb86828701611cfc565b9150509250925092565b60008060008060808587031215611ddb57600080fd5b6000611de987828801611c7e565b9450506020611dfa87828801611c7e565b9350506040611e0b87828801611cfc565b925050606085013567ffffffffffffffff811115611e2857600080fd5b611e3487828801611cd2565b91505092959194509250565b60008060408385031215611e5357600080fd5b6000611e6185828601611c7e565b9250506020611e7285828601611c93565b9150509250929050565b60008060408385031215611e8f57600080fd5b6000611e9d85828601611c7e565b9250506020611eae85828601611cfc565b9150509250929050565b600060208284031215611eca57600080fd5b6000611ed884828501611ca8565b91505092915050565b600060208284031215611ef357600080fd5b6000611f0184828501611cbd565b91505092915050565b600060208284031215611f1c57600080fd5b6000611f2a84828501611cfc565b91505092915050565b611f3c81612733565b82525050565b611f4b81612745565b82525050565b6000611f5c82612635565b611f66818561264b565b9350611f768185602086016127c3565b611f7f816129b9565b840191505092915050565b6000611f9582612640565b611f9f818561265c565b9350611faf8185602086016127c3565b611fb8816129b9565b840191505092915050565b6000611fce82612640565b611fd8818561266d565b9350611fe88185602086016127c3565b80840191505092915050565b600061200160328361265c565b915061200c826129ca565b604082019050919050565b600061202460268361265c565b915061202f82612a19565b604082019050919050565b6000612047601c8361265c565b915061205282612a68565b602082019050919050565b600061206a60248361265c565b915061207582612a91565b604082019050919050565b600061208d60198361265c565b915061209882612ae0565b602082019050919050565b60006120b0602c8361265c565b91506120bb82612b09565b604082019050919050565b60006120d360388361265c565b91506120de82612b58565b604082019050919050565b60006120f6601c8361265c565b915061210182612ba7565b602082019050919050565b6000612119602a8361265c565b915061212482612bd0565b604082019050919050565b600061213c60298361265c565b915061214782612c1f565b604082019050919050565b600061215f60208361265c565b915061216a82612c6e565b602082019050919050565b6000612182602c8361265c565b915061218d82612c97565b604082019050919050565b60006121a560208361265c565b91506121b082612ce6565b602082019050919050565b60006121c860238361265c565b91506121d382612d0f565b604082019050919050565b60006121eb60298361265c565b91506121f682612d5e565b604082019050919050565b600061220e602f8361265c565b915061221982612dad565b604082019050919050565b600061223160218361265c565b915061223c82612dfc565b604082019050919050565b600061225460318361265c565b915061225f82612e4b565b604082019050919050565b6000612277601d8361265c565b915061228282612e9a565b602082019050919050565b6122968161279d565b82525050565b60006122a88285611fc3565b91506122b48284611fc3565b91508190509392505050565b60006020820190506122d56000830184611f33565b92915050565b60006080820190506122f06000830187611f33565b6122fd6020830186611f33565b61230a604083018561228d565b818103606083015261231c8184611f51565b905095945050505050565b600060208201905061233c6000830184611f42565b92915050565b6000602082019050818103600083015261235c8184611f8a565b905092915050565b6000602082019050818103600083015261237d81611ff4565b9050919050565b6000602082019050818103600083015261239d81612017565b9050919050565b600060208201905081810360008301526123bd8161203a565b9050919050565b600060208201905081810360008301526123dd8161205d565b9050919050565b600060208201905081810360008301526123fd81612080565b9050919050565b6000602082019050818103600083015261241d816120a3565b9050919050565b6000602082019050818103600083015261243d816120c6565b9050919050565b6000602082019050818103600083015261245d816120e9565b9050919050565b6000602082019050818103600083015261247d8161210c565b9050919050565b6000602082019050818103600083015261249d8161212f565b9050919050565b600060208201905081810360008301526124bd81612152565b9050919050565b600060208201905081810360008301526124dd81612175565b9050919050565b600060208201905081810360008301526124fd81612198565b9050919050565b6000602082019050818103600083015261251d816121bb565b9050919050565b6000602082019050818103600083015261253d816121de565b9050919050565b6000602082019050818103600083015261255d81612201565b9050919050565b6000602082019050818103600083015261257d81612224565b9050919050565b6000602082019050818103600083015261259d81612247565b9050919050565b600060208201905081810360008301526125bd8161226a565b9050919050565b60006020820190506125d9600083018461228d565b92915050565b60006125e96125fa565b90506125f58282612828565b919050565b6000604051905090565b600067ffffffffffffffff82111561261f5761261e61298a565b5b612628826129b9565b9050602081019050919050565b600081519050919050565b600081519050919050565b600082825260208201905092915050565b600082825260208201905092915050565b600081905092915050565b60006126838261279d565b915061268e8361279d565b9250827fffffffffffffffffffffffffffffffffffffffffffffffffffffffffffffffff038211156126c3576126c26128fd565b5b828201905092915050565b60006126d98261279d565b91506126e48361279d565b9250826126f4576126f361292c565b5b828204905092915050565b600061270a8261279d565b91506127158361279d565b925082821015612728576127276128fd565b5b828203905092915050565b600061273e8261277d565b9050919050565b60008115159050919050565b60007fffffffff0000000000000000000000000000000000000000000000000000000082169050919050565b600073ffffffffffffffffffffffffffffffffffffffff82169050919050565b6000819050919050565b600060ff82169050919050565b82818337600083830152505050565b60005b838110156127e15780820151818401526020810190506127c6565b838111156127f0576000848401525b50505050565b6000600282049050600182168061280e57607f821691505b602082108114156128225761282161295b565b5b50919050565b612831826129b9565b810181811067ffffffffffffffff821117156128505761284f61298a565b5b80604052505050565b60006128648261279d565b91507fffffffffffffffffffffffffffffffffffffffffffffffffffffffffffffffff821415612897576128966128fd565b5b600182019050919050565b60006128ad826127a7565b915060ff8214156128c1576128c06128fd565b5b600182019050919050565b60006128d78261279d565b91506128e28361279d565b9250826128f2576128f161292c565b5b828206905092915050565b7f4e487b7100000000000000000000000000000000000000000000000000000000600052601160045260246000fd5b7f4e487b7100000000000000000000000000000000000000000000000000000000600052601260045260246000fd5b7f4e487b7100000000000000000000000000000000000000000000000000000000600052602260045260246000fd5b7f4e487b7100000000000000000000000000000000000000000000000000000000600052604160045260246000fd5b6000601f19601f8301169050919050565b7f4552433732313a207472616e7366657220746f206e6f6e20455243373231526560008201527f63656976657220696d706c656d656e7465720000000000000000000000000000602082015250565b7f4f776e61626c653a206e6577206f776e657220697320746865207a65726f206160008201527f6464726573730000000000000000000000000000000000000000000000000000602082015250565b7f4552433732313a20746f6b656e20616c7265616479206d696e74656400000000600082015250565b7f4552433732313a207472616e7366657220746f20746865207a65726f2061646460008201527f7265737300000000000000000000000000000000000000000000000000000000602082015250565b7f4552433732313a20617070726f766520746f2063616c6c657200000000000000600082015250565b7f4552433732313a206f70657261746f7220717565727920666f72206e6f6e657860008201527f697374656e7420746f6b656e0000000000000000000000000000000000000000602082015250565b7f4552433732313a20617070726f76652063616c6c6572206973206e6f74206f7760008201527f6e6572206e6f7220617070726f76656420666f7220616c6c0000000000000000602082015250565b7f616c6c2068656c6d732068617665206265656e20636f6e6a7572656400000000600082015250565b7f4552433732313a2062616c616e636520717565727920666f7220746865207a6560008201527f726f206164647265737300000000000000000000000000000000000000000000602082015250565b7f4552433732313a206f776e657220717565727920666f72206e6f6e657869737460008201527f656e7420746f6b656e0000000000000000000000000000000000000000000000602082015250565b7f4552433732313a206d696e7420746f20746865207a65726f2061646472657373600082015250565b7f4552433732313a20617070726f76656420717565727920666f72206e6f6e657860008201527f697374656e7420746f6b656e0000000000000000000000000000000000000000602082015250565b7f4f776e61626c653a2063616c6c6572206973206e6f7420746865206f776e6572600082015250565b7f6e6f7420656e6f75676820657468657220746f20636f6e6a757265206120736860008201527f6172640000000000000000000000000000000000000000000000000000000000602082015250565b7f4552433732313a207472616e73666572206f6620746f6b656e2074686174206960008201527f73206e6f74206f776e0000000000000000000000000000000000000000000000602082015250565b7f4552433732314d657461646174613a2055524920717565727920666f72206e6f60008201527f6e6578697374656e7420746f6b656e0000000000000000000000000000000000602082015250565b7f4552433732313a20617070726f76616c20746f2063757272656e74206f776e6560008201527f7200000000000000000000000000000000000000000000000000000000000000602082015250565b7f4552433732313a207472616e736665722063616c6c6572206973206e6f74206f60008201527f776e6572206e6f7220617070726f766564000000000000000000000000000000602082015250565b7f616c6c207368617264732068617665206265656e20636f6e6a75726564000000600082015250565b612ecc81612733565b8114612ed757600080fd5b50565b612ee381612745565b8114612eee57600080fd5b50565b612efa81612751565b8114612f0557600080fd5b50565b612f118161279d565b8114612f1c57600080fd5b5056fea2646970667358221220b6d900e3be2146aae9e1a7e5d262bf4c1c91a9b87d6d49649b22f2f11f95502364736f6c63430008040033",
  "devdoc": {
    "kind": "dev",
    "methods": {
      "approve(address,uint256)": {
        "details": "See {IERC721-approve}."
      },
      "balanceOf(address)": {
        "details": "See {IERC721-balanceOf}."
      },
      "getApproved(uint256)": {
        "details": "See {IERC721-getApproved}."
      },
      "isApprovedForAll(address,address)": {
        "details": "See {IERC721-isApprovedForAll}."
      },
      "name()": {
        "details": "See {IERC721Metadata-name}."
      },
      "owner()": {
        "details": "Returns the address of the current owner."
      },
      "ownerOf(uint256)": {
        "details": "See {IERC721-ownerOf}."
      },
      "renounceOwnership()": {
        "details": "Leaves the contract without owner. It will not be possible to call `onlyOwner` functions anymore. Can only be called by the current owner. NOTE: Renouncing ownership will leave the contract without an owner, thereby removing any functionality that is only available to the owner."
      },
      "safeTransferFrom(address,address,uint256)": {
        "details": "See {IERC721-safeTransferFrom}."
      },
      "safeTransferFrom(address,address,uint256,bytes)": {
        "details": "See {IERC721-safeTransferFrom}."
      },
      "setApprovalForAll(address,bool)": {
        "details": "See {IERC721-setApprovalForAll}."
      },
      "supportsInterface(bytes4)": {
        "details": "See {IERC165-supportsInterface}."
      },
      "symbol()": {
        "details": "See {IERC721Metadata-symbol}."
      },
      "tokenURI(uint256)": {
        "details": "See {IERC721Metadata-tokenURI}."
      },
      "transferFrom(address,address,uint256)": {
        "details": "See {IERC721-transferFrom}."
      },
      "transferOwnership(address)": {
        "details": "Transfers ownership of the contract to a new account (`newOwner`). Can only be called by the current owner."
      }
    },
    "version": 1
  },
  "userdoc": {
    "kind": "user",
    "methods": {},
    "version": 1
  },
  "storageLayout": {
    "storage": [
      {
        "astId": 7,
        "contract": "contracts/Artifacts.sol:Artifacts",
        "label": "_owner",
        "offset": 0,
        "slot": "0",
        "type": "t_address"
      },
      {
        "astId": 129,
        "contract": "contracts/Artifacts.sol:Artifacts",
        "label": "_name",
        "offset": 0,
        "slot": "1",
        "type": "t_string_storage"
      },
      {
        "astId": 131,
        "contract": "contracts/Artifacts.sol:Artifacts",
        "label": "_symbol",
        "offset": 0,
        "slot": "2",
        "type": "t_string_storage"
      },
      {
        "astId": 135,
        "contract": "contracts/Artifacts.sol:Artifacts",
        "label": "_owners",
        "offset": 0,
        "slot": "3",
        "type": "t_mapping(t_uint256,t_address)"
      },
      {
        "astId": 139,
        "contract": "contracts/Artifacts.sol:Artifacts",
        "label": "_balances",
        "offset": 0,
        "slot": "4",
        "type": "t_mapping(t_address,t_uint256)"
      },
      {
        "astId": 143,
        "contract": "contracts/Artifacts.sol:Artifacts",
        "label": "_tokenApprovals",
        "offset": 0,
        "slot": "5",
        "type": "t_mapping(t_uint256,t_address)"
      },
      {
        "astId": 149,
        "contract": "contracts/Artifacts.sol:Artifacts",
        "label": "_operatorApprovals",
        "offset": 0,
        "slot": "6",
        "type": "t_mapping(t_address,t_mapping(t_address,t_bool))"
      },
      {
        "astId": 1660,
        "contract": "contracts/Artifacts.sol:Artifacts",
        "label": "helmsConjured",
        "offset": 0,
        "slot": "7",
        "type": "t_uint8"
      },
      {
        "astId": 1663,
        "contract": "contracts/Artifacts.sol:Artifacts",
        "label": "shardsConjured",
        "offset": 0,
        "slot": "8",
        "type": "t_uint256"
      }
    ],
    "types": {
      "t_address": {
        "encoding": "inplace",
        "label": "address",
        "numberOfBytes": "20"
      },
      "t_bool": {
        "encoding": "inplace",
        "label": "bool",
        "numberOfBytes": "1"
      },
      "t_mapping(t_address,t_bool)": {
        "encoding": "mapping",
        "key": "t_address",
        "label": "mapping(address => bool)",
        "numberOfBytes": "32",
        "value": "t_bool"
      },
      "t_mapping(t_address,t_mapping(t_address,t_bool))": {
        "encoding": "mapping",
        "key": "t_address",
        "label": "mapping(address => mapping(address => bool))",
        "numberOfBytes": "32",
        "value": "t_mapping(t_address,t_bool)"
      },
      "t_mapping(t_address,t_uint256)": {
        "encoding": "mapping",
        "key": "t_address",
        "label": "mapping(address => uint256)",
        "numberOfBytes": "32",
        "value": "t_uint256"
      },
      "t_mapping(t_uint256,t_address)": {
        "encoding": "mapping",
        "key": "t_uint256",
        "label": "mapping(uint256 => address)",
        "numberOfBytes": "32",
        "value": "t_address"
      },
      "t_string_storage": {
        "encoding": "bytes",
        "label": "string",
        "numberOfBytes": "32"
      },
      "t_uint256": {
        "encoding": "inplace",
        "label": "uint256",
        "numberOfBytes": "32"
      },
      "t_uint8": {
        "encoding": "inplace",
        "label": "uint8",
        "numberOfBytes": "1"
      }
    }
  }
}