{
  "address": "0x5d61B872bDDEA32338A59dEf073A4FFe9c91fC37",
  "abi": [
    {
      "anonymous": false,
      "inputs": [
        {
          "indexed": true,
          "internalType": "address",
          "name": "previousOwner",
          "type": "address"
        },
        {
          "indexed": true,
          "internalType": "address",
          "name": "newOwner",
          "type": "address"
        }
      ],
      "name": "OwnershipTransferred",
      "type": "event"
    },
    {
      "anonymous": false,
      "inputs": [
        {
          "indexed": false,
          "internalType": "enum Storms.StormType",
          "name": "",
          "type": "uint8"
        }
      ],
      "name": "StormBegins",
      "type": "event"
    },
    {
      "inputs": [],
      "name": "activeStorms",
      "outputs": [
        {
          "internalType": "bool",
          "name": "",
          "type": "bool"
        },
        {
          "internalType": "bool",
          "name": "",
          "type": "bool"
        },
        {
          "internalType": "bool",
          "name": "",
          "type": "bool"
        },
        {
          "internalType": "bool",
          "name": "",
          "type": "bool"
        },
        {
          "internalType": "bool",
          "name": "",
          "type": "bool"
        }
      ],
      "stateMutability": "view",
      "type": "function"
    },
    {
      "inputs": [],
      "name": "owner",
      "outputs": [
        {
          "internalType": "address",
          "name": "",
          "type": "address"
        }
      ],
      "stateMutability": "view",
      "type": "function"
    },
    {
      "inputs": [
        {
          "internalType": "enum Storms.StormType",
          "name": "_storm",
          "type": "uint8"
        }
      ],
      "name": "pray",
      "outputs": [],
      "stateMutability": "nonpayable",
      "type": "function"
    },
    {
      "inputs": [],
      "name": "renounceOwnership",
      "outputs": [],
      "stateMutability": "nonpayable",
      "type": "function"
    },
    {
      "inputs": [
        {
          "internalType": "enum Storms.StormType",
          "name": "_storm",
          "type": "uint8"
        },
        {
          "internalType": "uint256",
          "name": "_endTime",
          "type": "uint256"
        }
      ],
      "name": "summon",
      "outputs": [],
      "stateMutability": "nonpayable",
      "type": "function"
    },
    {
      "inputs": [
        {
          "internalType": "address",
          "name": "newOwner",
          "type": "address"
        }
      ],
      "name": "transferOwnership",
      "outputs": [],
      "stateMutability": "nonpayable",
      "type": "function"
    },
    {
      "inputs": [],
      "name": "withdraw",
      "outputs": [],
      "stateMutability": "nonpayable",
      "type": "function"
    }
  ],
  "transactionHash": "0xb8f49b3a2d67a02f3cae405de342e8f917aba4cde5361df2bce8d9e7e956890e",
  "args": [],
  "solcInputHash": "a3a864dde8886a04cd8406f887a854a7",
  "bytecode": "0x608060405273ff9c1b15b16263c61d017ee9f65c50e4ae0113d7600160006101000a81548173ffffffffffffffffffffffffffffffffffffffff021916908373ffffffffffffffffffffffffffffffffffffffff16021790555034801561006557600080fd5b5061008261007761008760201b60201c565b61008f60201b60201c565b610153565b600033905090565b60008060009054906101000a900473ffffffffffffffffffffffffffffffffffffffff169050816000806101000a81548173ffffffffffffffffffffffffffffffffffffffff021916908373ffffffffffffffffffffffffffffffffffffffff1602179055508173ffffffffffffffffffffffffffffffffffffffff168173ffffffffffffffffffffffffffffffffffffffff167f8be0079c531659141344cd1fd0a4f28419497f9722a3daafe3b4186f6b6457e060405160405180910390a35050565b610a80806101626000396000f3fe608060405234801561001057600080fd5b506004361061007d5760003560e01c8063715018a61161005b578063715018a6146100ca5780638da5cb5b146100d45780639e2efc02146100f2578063f2fde38b1461010e5761007d565b806337da8856146100825780633ccfd60b1461009e57806344d1992c146100a8575b600080fd5b61009c60048036038101906100979190610732565b61012a565b005b6100a661012d565b005b6100b06101f8565b6040516100c1959493929190610825565b60405180910390f35b6100d26103b8565b005b6100dc610440565b6040516100e9919061080a565b60405180910390f35b61010c6004803603810190610107919061075b565b610469565b005b61012860048036038101906101239190610709565b610506565b005b50565b6101356105fe565b73ffffffffffffffffffffffffffffffffffffffff16610153610440565b73ffffffffffffffffffffffffffffffffffffffff16146101a9576040517f08c379a00000000000000000000000000000000000000000000000000000000081526004016101a0906108b3565b60405180910390fd5b60004790503373ffffffffffffffffffffffffffffffffffffffff166108fc829081150290604051600060405180830381858888f193505050501580156101f4573d6000803e3d6000fd5b5050565b6000806000806000426002600080600481111561023e577f4e487b7100000000000000000000000000000000000000000000000000000000600052602160045260246000fd5b60ff1660ff1681526020019081526020016000205411426002600060016004811115610293577f4e487b7100000000000000000000000000000000000000000000000000000000600052602160045260246000fd5b60ff1660ff16815260200190815260200160002054114260026000600260048111156102e8577f4e487b7100000000000000000000000000000000000000000000000000000000600052602160045260246000fd5b60ff1660ff168152602001908152602001600020541142600260006003600481111561033d577f4e487b7100000000000000000000000000000000000000000000000000000000600052602160045260246000fd5b60ff1660ff16815260200190815260200160002054114260026000600480811115610391577f4e487b7100000000000000000000000000000000000000000000000000000000600052602160045260246000fd5b60ff1660ff1681526020019081526020016000205411945094509450945094509091929394565b6103c06105fe565b73ffffffffffffffffffffffffffffffffffffffff166103de610440565b73ffffffffffffffffffffffffffffffffffffffff1614610434576040517f08c379a000000000000000000000000000000000000000000000000000000000815260040161042b906108b3565b60405180910390fd5b61043e6000610606565b565b60008060009054906101000a900473ffffffffffffffffffffffffffffffffffffffff16905090565b42811161047557600080fd5b80600260008460048111156104b3577f4e487b7100000000000000000000000000000000000000000000000000000000600052602160045260246000fd5b60ff1660ff168152602001908152602001600020819055507f04f8f9e90dd778496d9abf40fc80933cb654a1025a3a54c4d5c53588828a0f35826040516104fa9190610878565b60405180910390a15050565b61050e6105fe565b73ffffffffffffffffffffffffffffffffffffffff1661052c610440565b73ffffffffffffffffffffffffffffffffffffffff1614610582576040517f08c379a0000000000000000000000000000000000000000000000000000000008152600401610579906108b3565b60405180910390fd5b600073ffffffffffffffffffffffffffffffffffffffff168173ffffffffffffffffffffffffffffffffffffffff1614156105f2576040517f08c379a00000000000000000000000000000000000000000000000000000000081526004016105e990610893565b60405180910390fd5b6105fb81610606565b50565b600033905090565b60008060009054906101000a900473ffffffffffffffffffffffffffffffffffffffff169050816000806101000a81548173ffffffffffffffffffffffffffffffffffffffff021916908373ffffffffffffffffffffffffffffffffffffffff1602179055508173ffffffffffffffffffffffffffffffffffffffff168173ffffffffffffffffffffffffffffffffffffffff167f8be0079c531659141344cd1fd0a4f28419497f9722a3daafe3b4186f6b6457e060405160405180910390a35050565b6000813590506106d981610a0c565b92915050565b6000813590506106ee81610a23565b92915050565b60008135905061070381610a33565b92915050565b60006020828403121561071b57600080fd5b6000610729848285016106ca565b91505092915050565b60006020828403121561074457600080fd5b6000610752848285016106df565b91505092915050565b6000806040838503121561076e57600080fd5b600061077c858286016106df565b925050602061078d858286016106f4565b9150509250929050565b6107a0816108e4565b82525050565b6107af816108f6565b82525050565b6107be8161093f565b82525050565b60006107d16026836108d3565b91506107dc82610980565b604082019050919050565b60006107f46020836108d3565b91506107ff826109cf565b602082019050919050565b600060208201905061081f6000830184610797565b92915050565b600060a08201905061083a60008301886107a6565b61084760208301876107a6565b61085460408301866107a6565b61086160608301856107a6565b61086e60808301846107a6565b9695505050505050565b600060208201905061088d60008301846107b5565b92915050565b600060208201905081810360008301526108ac816107c4565b9050919050565b600060208201905081810360008301526108cc816107e7565b9050919050565b600082825260208201905092915050565b60006108ef82610915565b9050919050565b60008115159050919050565b6000819050610910826109f8565b919050565b600073ffffffffffffffffffffffffffffffffffffffff82169050919050565b6000819050919050565b600061094a82610902565b9050919050565b7f4e487b7100000000000000000000000000000000000000000000000000000000600052602160045260246000fd5b7f4f776e61626c653a206e6577206f776e657220697320746865207a65726f206160008201527f6464726573730000000000000000000000000000000000000000000000000000602082015250565b7f4f776e61626c653a2063616c6c6572206973206e6f7420746865206f776e6572600082015250565b60058110610a0957610a08610951565b5b50565b610a15816108e4565b8114610a2057600080fd5b50565b60058110610a3057600080fd5b50565b610a3c81610935565b8114610a4757600080fd5b5056fea264697066735822122070474c9ea6402a62c56b023a0c6388386cd0384b004a0e2042b5e92b9a86472c64736f6c63430008040033",
  "devdoc": {
    "kind": "dev",
    "methods": {
      "owner()": {
        "details": "Returns the address of the current owner."
      },
      "renounceOwnership()": {
        "details": "Leaves the contract without owner. It will not be possible to call `onlyOwner` functions anymore. Can only be called by the current owner. NOTE: Renouncing ownership will leave the contract without an owner, thereby removing any functionality that is only available to the owner."
      },
      "transferOwnership(address)": {
        "details": "Transfers ownership of the contract to a new account (`newOwner`). Can only be called by the current owner."
      }
    },
    "version": 1
  },
  "userdoc": {
    "kind": "user",
    "methods": {},
    "version": 1
  },
  "storageLayout": {
    "storage": [
      {
        "astId": 7,
        "contract": "contracts/Storms.sol:Storms",
        "label": "_owner",
        "offset": 0,
        "slot": "0",
        "type": "t_address"
      },
      {
        "astId": 1747,
        "contract": "contracts/Storms.sol:Storms",
        "label": "lootAddress",
        "offset": 0,
        "slot": "1",
        "type": "t_address"
      },
      {
        "astId": 1762,
        "contract": "contracts/Storms.sol:Storms",
        "label": "activeStormMapping",
        "offset": 0,
        "slot": "2",
        "type": "t_mapping(t_uint8,t_uint256)"
      }
    ],
    "types": {
      "t_address": {
        "encoding": "inplace",
        "label": "address",
        "numberOfBytes": "20"
      },
      "t_mapping(t_uint8,t_uint256)": {
        "encoding": "mapping",
        "key": "t_uint8",
        "label": "mapping(uint8 => uint256)",
        "numberOfBytes": "32",
        "value": "t_uint256"
      },
      "t_uint256": {
        "encoding": "inplace",
        "label": "uint256",
        "numberOfBytes": "32"
      },
      "t_uint8": {
        "encoding": "inplace",
        "label": "uint8",
        "numberOfBytes": "1"
      }
    }
  }
}