{
  "address": "0x5FbDB2315678afecb367f032d93F642f64180aa3",
  "abi": [
    {
      "inputs": [],
      "stateMutability": "nonpayable",
      "type": "constructor"
    },
    {
      "anonymous": false,
      "inputs": [
        {
          "indexed": true,
          "internalType": "address",
          "name": "owner",
          "type": "address"
        },
        {
          "indexed": true,
          "internalType": "address",
          "name": "approved",
          "type": "address"
        },
        {
          "indexed": true,
          "internalType": "uint256",
          "name": "tokenId",
          "type": "uint256"
        }
      ],
      "name": "Approval",
      "type": "event"
    },
    {
      "anonymous": false,
      "inputs": [
        {
          "indexed": true,
          "internalType": "address",
          "name": "owner",
          "type": "address"
        },
        {
          "indexed": true,
          "internalType": "address",
          "name": "operator",
          "type": "address"
        },
        {
          "indexed": false,
          "internalType": "bool",
          "name": "approved",
          "type": "bool"
        }
      ],
      "name": "ApprovalForAll",
      "type": "event"
    },
    {
      "anonymous": false,
      "inputs": [
        {
          "indexed": true,
          "internalType": "address",
          "name": "previousOwner",
          "type": "address"
        },
        {
          "indexed": true,
          "internalType": "address",
          "name": "newOwner",
          "type": "address"
        }
      ],
      "name": "OwnershipTransferred",
      "type": "event"
    },
    {
      "anonymous": false,
      "inputs": [
        {
          "indexed": true,
          "internalType": "address",
          "name": "from",
          "type": "address"
        },
        {
          "indexed": true,
          "internalType": "address",
          "name": "to",
          "type": "address"
        },
        {
          "indexed": true,
          "internalType": "uint256",
          "name": "tokenId",
          "type": "uint256"
        }
      ],
      "name": "Transfer",
      "type": "event"
    },
    {
      "inputs": [
        {
          "internalType": "address",
          "name": "to",
          "type": "address"
        },
        {
          "internalType": "uint256",
          "name": "tokenId",
          "type": "uint256"
        }
      ],
      "name": "approve",
      "outputs": [],
      "stateMutability": "nonpayable",
      "type": "function"
    },
    {
      "inputs": [
        {
          "internalType": "address",
          "name": "owner",
          "type": "address"
        }
      ],
      "name": "balanceOf",
      "outputs": [
        {
          "internalType": "uint256",
          "name": "",
          "type": "uint256"
        }
      ],
      "stateMutability": "view",
      "type": "function"
    },
    {
      "inputs": [],
      "name": "conjureHelm",
      "outputs": [],
      "stateMutability": "payable",
      "type": "function"
    },
    {
      "inputs": [],
      "name": "conjureShard",
      "outputs": [],
      "stateMutability": "payable",
      "type": "function"
    },
    {
      "inputs": [
        {
          "internalType": "uint256",
          "name": "tokenId",
          "type": "uint256"
        }
      ],
      "name": "getApproved",
      "outputs": [
        {
          "internalType": "address",
          "name": "",
          "type": "address"
        }
      ],
      "stateMutability": "view",
      "type": "function"
    },
    {
      "inputs": [
        {
          "internalType": "address",
          "name": "owner",
          "type": "address"
        },
        {
          "internalType": "address",
          "name": "operator",
          "type": "address"
        }
      ],
      "name": "isApprovedForAll",
      "outputs": [
        {
          "internalType": "bool",
          "name": "",
          "type": "bool"
        }
      ],
      "stateMutability": "view",
      "type": "function"
    },
    {
      "inputs": [],
      "name": "name",
      "outputs": [
        {
          "internalType": "string",
          "name": "",
          "type": "string"
        }
      ],
      "stateMutability": "view",
      "type": "function"
    },
    {
      "inputs": [],
      "name": "nextHelmPrice",
      "outputs": [
        {
          "internalType": "uint256",
          "name": "",
          "type": "uint256"
        }
      ],
      "stateMutability": "pure",
      "type": "function"
    },
    {
      "inputs": [],
      "name": "nextShardPrice",
      "outputs": [
        {
          "internalType": "uint256",
          "name": "",
          "type": "uint256"
        }
      ],
      "stateMutability": "pure",
      "type": "function"
    },
    {
      "inputs": [],
      "name": "owner",
      "outputs": [
        {
          "internalType": "address",
          "name": "",
          "type": "address"
        }
      ],
      "stateMutability": "view",
      "type": "function"
    },
    {
      "inputs": [],
      "name": "ownerClaim",
      "outputs": [],
      "stateMutability": "nonpayable",
      "type": "function"
    },
    {
      "inputs": [
        {
          "internalType": "uint256",
          "name": "tokenId",
          "type": "uint256"
        }
      ],
      "name": "ownerOf",
      "outputs": [
        {
          "internalType": "address",
          "name": "",
          "type": "address"
        }
      ],
      "stateMutability": "view",
      "type": "function"
    },
    {
      "inputs": [],
      "name": "renounceOwnership",
      "outputs": [],
      "stateMutability": "nonpayable",
      "type": "function"
    },
    {
      "inputs": [
        {
          "internalType": "address",
          "name": "from",
          "type": "address"
        },
        {
          "internalType": "address",
          "name": "to",
          "type": "address"
        },
        {
          "internalType": "uint256",
          "name": "tokenId",
          "type": "uint256"
        }
      ],
      "name": "safeTransferFrom",
      "outputs": [],
      "stateMutability": "nonpayable",
      "type": "function"
    },
    {
      "inputs": [
        {
          "internalType": "address",
          "name": "from",
          "type": "address"
        },
        {
          "internalType": "address",
          "name": "to",
          "type": "address"
        },
        {
          "internalType": "uint256",
          "name": "tokenId",
          "type": "uint256"
        },
        {
          "internalType": "bytes",
          "name": "_data",
          "type": "bytes"
        }
      ],
      "name": "safeTransferFrom",
      "outputs": [],
      "stateMutability": "nonpayable",
      "type": "function"
    },
    {
      "inputs": [
        {
          "internalType": "address",
          "name": "operator",
          "type": "address"
        },
        {
          "internalType": "bool",
          "name": "approved",
          "type": "bool"
        }
      ],
      "name": "setApprovalForAll",
      "outputs": [],
      "stateMutability": "nonpayable",
      "type": "function"
    },
    {
      "inputs": [
        {
          "internalType": "bytes4",
          "name": "interfaceId",
          "type": "bytes4"
        }
      ],
      "name": "supportsInterface",
      "outputs": [
        {
          "internalType": "bool",
          "name": "",
          "type": "bool"
        }
      ],
      "stateMutability": "view",
      "type": "function"
    },
    {
      "inputs": [],
      "name": "symbol",
      "outputs": [
        {
          "internalType": "string",
          "name": "",
          "type": "string"
        }
      ],
      "stateMutability": "view",
      "type": "function"
    },
    {
      "inputs": [
        {
          "internalType": "uint256",
          "name": "tokenId",
          "type": "uint256"
        }
      ],
      "name": "tokenURI",
      "outputs": [
        {
          "internalType": "string",
          "name": "",
          "type": "string"
        }
      ],
      "stateMutability": "view",
      "type": "function"
    },
    {
      "inputs": [
        {
          "internalType": "address",
          "name": "from",
          "type": "address"
        },
        {
          "internalType": "address",
          "name": "to",
          "type": "address"
        },
        {
          "internalType": "uint256",
          "name": "tokenId",
          "type": "uint256"
        }
      ],
      "name": "transferFrom",
      "outputs": [],
      "stateMutability": "nonpayable",
      "type": "function"
    },
    {
      "inputs": [
        {
          "internalType": "address",
          "name": "newOwner",
          "type": "address"
        }
      ],
      "name": "transferOwnership",
      "outputs": [],
      "stateMutability": "nonpayable",
      "type": "function"
    }
  ],
  "transactionHash": "0x140f9305704475d4a5c18d234ce2568f4eb9060d69e00ca6ee0318efa48747cb",
  "args": [],
  "solcInputHash": "ff3b890723af61b337efddad018c8dc2",
  "bytecode": "0x60806040526000600760006101000a81548160ff021916908360ff16021790555060006008553480156200003257600080fd5b506040518060400160405280601481526020017f53746f726d57696e6473204172746966616374730000000000000000000000008152506040518060400160405280600581526020017f53544f524d000000000000000000000000000000000000000000000000000000815250620000bf620000b3620000f960201b60201c565b6200010160201b60201c565b8160019080519060200190620000d7929190620001c5565b508060029080519060200190620000f0929190620001c5565b505050620002da565b600033905090565b60008060009054906101000a900473ffffffffffffffffffffffffffffffffffffffff169050816000806101000a81548173ffffffffffffffffffffffffffffffffffffffff021916908373ffffffffffffffffffffffffffffffffffffffff1602179055508173ffffffffffffffffffffffffffffffffffffffff168173ffffffffffffffffffffffffffffffffffffffff167f8be0079c531659141344cd1fd0a4f28419497f9722a3daafe3b4186f6b6457e060405160405180910390a35050565b828054620001d39062000275565b90600052602060002090601f016020900481019282620001f7576000855562000243565b82601f106200021257805160ff191683800117855562000243565b8280016001018555821562000243579182015b828111156200024257825182559160200191906001019062000225565b5b50905062000252919062000256565b5090565b5b808211156200027157600081600090555060010162000257565b5090565b600060028204905060018216806200028e57607f821691505b60208210811415620002a557620002a4620002ab565b5b50919050565b7f4e487b7100000000000000000000000000000000000000000000000000000000600052602260045260246000fd5b61300e80620002ea6000396000f3fe60806040526004361061012a5760003560e01c8063715018a6116100ab578063b88d4fde1161006f578063b88d4fde146103ab578063c87b56dd146103d4578063e669024314610411578063e7a22d011461041b578063e985e9c514610446578063f2fde38b146104835761012a565b8063715018a61461030b5780638da5cb5b1461032257806395d89b411461034d578063a22cb46514610378578063aca8d458146103a15761012a565b806342842e0e116100f257806342842e0e146102265780634414adb01461024f5780634dbe58891461027a5780636352211e1461029157806370a08231146102ce5761012a565b806301ffc9a71461012f57806306fdde031461016c578063081812fc14610197578063095ea7b3146101d457806323b872dd146101fd575b600080fd5b34801561013b57600080fd5b5061015660048036038101906101519190611f71565b6104ac565b60405161016391906123e0565b60405180910390f35b34801561017857600080fd5b5061018161058e565b60405161018e91906123fb565b60405180910390f35b3480156101a357600080fd5b506101be60048036038101906101b99190611fc3565b610620565b6040516101cb9190612379565b60405180910390f35b3480156101e057600080fd5b506101fb60048036038101906101f69190611f35565b6106a5565b005b34801561020957600080fd5b50610224600480360381019061021f9190611e2f565b6107bd565b005b34801561023257600080fd5b5061024d60048036038101906102489190611e2f565b61081d565b005b34801561025b57600080fd5b5061026461083d565b604051610271919061267d565b60405180910390f35b34801561028657600080fd5b5061028f61084d565b005b34801561029d57600080fd5b506102b860048036038101906102b39190611fc3565b6108e4565b6040516102c59190612379565b60405180910390f35b3480156102da57600080fd5b506102f560048036038101906102f09190611dca565b610996565b604051610302919061267d565b60405180910390f35b34801561031757600080fd5b50610320610a4e565b005b34801561032e57600080fd5b50610337610ad6565b6040516103449190612379565b60405180910390f35b34801561035957600080fd5b50610362610aff565b60405161036f91906123fb565b60405180910390f35b34801561038457600080fd5b5061039f600480360381019061039a9190611ef9565b610b91565b005b6103a9610d12565b005b3480156103b757600080fd5b506103d260048036038101906103cd9190611e7e565b610dd4565b005b3480156103e057600080fd5b506103fb60048036038101906103f69190611fc3565b610e36565b60405161040891906123fb565b60405180910390f35b610419610edd565b005b34801561042757600080fd5b50610430610fb2565b60405161043d919061267d565b60405180910390f35b34801561045257600080fd5b5061046d60048036038101906104689190611df3565b610fc2565b60405161047a91906123e0565b60405180910390f35b34801561048f57600080fd5b506104aa60048036038101906104a59190611dca565b611056565b005b60007f80ac58cd000000000000000000000000000000000000000000000000000000007bffffffffffffffffffffffffffffffffffffffffffffffffffffffff1916827bffffffffffffffffffffffffffffffffffffffffffffffffffffffff1916148061057757507f5b5e139f000000000000000000000000000000000000000000000000000000007bffffffffffffffffffffffffffffffffffffffffffffffffffffffff1916827bffffffffffffffffffffffffffffffffffffffffffffffffffffffff1916145b8061058757506105868261114e565b5b9050919050565b60606001805461059d906128af565b80601f01602080910402602001604051908101604052809291908181526020018280546105c9906128af565b80156106165780601f106105eb57610100808354040283529160200191610616565b820191906000526020600020905b8154815290600101906020018083116105f957829003601f168201915b5050505050905090565b600061062b826111b8565b61066a576040517f08c379a00000000000000000000000000000000000000000000000000000000081526004016106619061257d565b60405180910390fd5b6005600083815260200190815260200160002060009054906101000a900473ffffffffffffffffffffffffffffffffffffffff169050919050565b60006106b0826108e4565b90508073ffffffffffffffffffffffffffffffffffffffff168373ffffffffffffffffffffffffffffffffffffffff161415610721576040517f08c379a00000000000000000000000000000000000000000000000000000000081526004016107189061261d565b60405180910390fd5b8073ffffffffffffffffffffffffffffffffffffffff16610740611224565b73ffffffffffffffffffffffffffffffffffffffff16148061076f575061076e81610769611224565b610fc2565b5b6107ae576040517f08c379a00000000000000000000000000000000000000000000000000000000081526004016107a5906124dd565b60405180910390fd5b6107b8838361122c565b505050565b6107ce6107c8611224565b826112e5565b61080d576040517f08c379a00000000000000000000000000000000000000000000000000000000081526004016108049061263d565b60405180910390fd5b6108188383836113c3565b505050565b61083883838360405180602001604052806000815250610dd4565b505050565b6000670de0b6b3a7640000905090565b610855611224565b73ffffffffffffffffffffffffffffffffffffffff16610873610ad6565b73ffffffffffffffffffffffffffffffffffffffff16146108c9576040517f08c379a00000000000000000000000000000000000000000000000000000000081526004016108c09061259d565b60405180910390fd5b6108d433600061161f565b6108e233601060ff1661161f565b565b6000806003600084815260200190815260200160002060009054906101000a900473ffffffffffffffffffffffffffffffffffffffff169050600073ffffffffffffffffffffffffffffffffffffffff168173ffffffffffffffffffffffffffffffffffffffff16141561098d576040517f08c379a00000000000000000000000000000000000000000000000000000000081526004016109849061253d565b60405180910390fd5b80915050919050565b60008073ffffffffffffffffffffffffffffffffffffffff168273ffffffffffffffffffffffffffffffffffffffff161415610a07576040517f08c379a00000000000000000000000000000000000000000000000000000000081526004016109fe9061251d565b60405180910390fd5b600460008373ffffffffffffffffffffffffffffffffffffffff1673ffffffffffffffffffffffffffffffffffffffff168152602001908152602001600020549050919050565b610a56611224565b73ffffffffffffffffffffffffffffffffffffffff16610a74610ad6565b73ffffffffffffffffffffffffffffffffffffffff1614610aca576040517f08c379a0000000000000000000000000000000000000000000000000000000008152600401610ac19061259d565b60405180910390fd5b610ad4600061163d565b565b60008060009054906101000a900473ffffffffffffffffffffffffffffffffffffffff16905090565b606060028054610b0e906128af565b80601f0160208091040260200160405190810160405280929190818152602001828054610b3a906128af565b8015610b875780601f10610b5c57610100808354040283529160200191610b87565b820191906000526020600020905b815481529060010190602001808311610b6a57829003601f168201915b5050505050905090565b610b99611224565b73ffffffffffffffffffffffffffffffffffffffff168273ffffffffffffffffffffffffffffffffffffffff161415610c07576040517f08c379a0000000000000000000000000000000000000000000000000000000008152600401610bfe9061249d565b60405180910390fd5b8060066000610c14611224565b73ffffffffffffffffffffffffffffffffffffffff1673ffffffffffffffffffffffffffffffffffffffff16815260200190815260200160002060008473ffffffffffffffffffffffffffffffffffffffff1673ffffffffffffffffffffffffffffffffffffffff16815260200190815260200160002060006101000a81548160ff0219169083151502179055508173ffffffffffffffffffffffffffffffffffffffff16610cc1611224565b73ffffffffffffffffffffffffffffffffffffffff167f17307eab39ab6107e8899845ad3d59bd9653f200f220920489ca2b5937696c3183604051610d0691906123e0565b60405180910390a35050565b601060ff16600760009054906101000a900460ff1660ff1610610d6a576040517f08c379a0000000000000000000000000000000000000000000000000000000008152600401610d61906124fd565b60405180910390fd5b610d7261083d565b341015610d7e57600080fd5b610d9a33600760009054906101000a900460ff1660ff1661161f565b6007600081819054906101000a900460ff1680929190610db99061295b565b91906101000a81548160ff021916908360ff16021790555050565b610de5610ddf611224565b836112e5565b610e24576040517f08c379a0000000000000000000000000000000000000000000000000000000008152600401610e1b9061263d565b60405180910390fd5b610e3084848484611701565b50505050565b6060610e41826111b8565b610e80576040517f08c379a0000000000000000000000000000000000000000000000000000000008152600401610e77906125fd565b60405180910390fd5b6000610e8a61175d565b90506000815111610eaa5760405180602001604052806000815250610ed5565b80610eb484611774565b604051602001610ec5929190612355565b6040516020818303038152906040525b915050919050565b6103e8600760009054906101000a900460ff1660ff1610610f33576040517f08c379a0000000000000000000000000000000000000000000000000000000008152600401610f2a9061265d565b60405180910390fd5b610f3b610fb2565b341015610f7d576040517f08c379a0000000000000000000000000000000000000000000000000000000008152600401610f74906125bd565b60405180910390fd5b610f9833600854601060ff16610f939190612731565b61161f565b60086000815480929190610fab90612912565b9190505550565b60006702c68af0bb140000905090565b6000600660008473ffffffffffffffffffffffffffffffffffffffff1673ffffffffffffffffffffffffffffffffffffffff16815260200190815260200160002060008373ffffffffffffffffffffffffffffffffffffffff1673ffffffffffffffffffffffffffffffffffffffff16815260200190815260200160002060009054906101000a900460ff16905092915050565b61105e611224565b73ffffffffffffffffffffffffffffffffffffffff1661107c610ad6565b73ffffffffffffffffffffffffffffffffffffffff16146110d2576040517f08c379a00000000000000000000000000000000000000000000000000000000081526004016110c99061259d565b60405180910390fd5b600073ffffffffffffffffffffffffffffffffffffffff168173ffffffffffffffffffffffffffffffffffffffff161415611142576040517f08c379a00000000000000000000000000000000000000000000000000000000081526004016111399061243d565b60405180910390fd5b61114b8161163d565b50565b60007f01ffc9a7000000000000000000000000000000000000000000000000000000007bffffffffffffffffffffffffffffffffffffffffffffffffffffffff1916827bffffffffffffffffffffffffffffffffffffffffffffffffffffffff1916149050919050565b60008073ffffffffffffffffffffffffffffffffffffffff166003600084815260200190815260200160002060009054906101000a900473ffffffffffffffffffffffffffffffffffffffff1673ffffffffffffffffffffffffffffffffffffffff1614159050919050565b600033905090565b816005600083815260200190815260200160002060006101000a81548173ffffffffffffffffffffffffffffffffffffffff021916908373ffffffffffffffffffffffffffffffffffffffff160217905550808273ffffffffffffffffffffffffffffffffffffffff1661129f836108e4565b73ffffffffffffffffffffffffffffffffffffffff167f8c5be1e5ebec7d5bd14f71427d1e84f3dd0314c0f7b2291e5b200ac8c7c3b92560405160405180910390a45050565b60006112f0826111b8565b61132f576040517f08c379a0000000000000000000000000000000000000000000000000000000008152600401611326906124bd565b60405180910390fd5b600061133a836108e4565b90508073ffffffffffffffffffffffffffffffffffffffff168473ffffffffffffffffffffffffffffffffffffffff1614806113a957508373ffffffffffffffffffffffffffffffffffffffff1661139184610620565b73ffffffffffffffffffffffffffffffffffffffff16145b806113ba57506113b98185610fc2565b5b91505092915050565b8273ffffffffffffffffffffffffffffffffffffffff166113e3826108e4565b73ffffffffffffffffffffffffffffffffffffffff1614611439576040517f08c379a0000000000000000000000000000000000000000000000000000000008152600401611430906125dd565b60405180910390fd5b600073ffffffffffffffffffffffffffffffffffffffff168273ffffffffffffffffffffffffffffffffffffffff1614156114a9576040517f08c379a00000000000000000000000000000000000000000000000000000000081526004016114a09061247d565b60405180910390fd5b6114b4838383611921565b6114bf60008261122c565b6001600460008573ffffffffffffffffffffffffffffffffffffffff1673ffffffffffffffffffffffffffffffffffffffff168152602001908152602001600020600082825461150f91906127b8565b925050819055506001600460008473ffffffffffffffffffffffffffffffffffffffff1673ffffffffffffffffffffffffffffffffffffffff16815260200190815260200160002060008282546115669190612731565b92505081905550816003600083815260200190815260200160002060006101000a81548173ffffffffffffffffffffffffffffffffffffffff021916908373ffffffffffffffffffffffffffffffffffffffff160217905550808273ffffffffffffffffffffffffffffffffffffffff168473ffffffffffffffffffffffffffffffffffffffff167fddf252ad1be2c89b69c2b068fc378daa952ba7f163c4a11628f55a4df523b3ef60405160405180910390a4505050565b611639828260405180602001604052806000815250611926565b5050565b60008060009054906101000a900473ffffffffffffffffffffffffffffffffffffffff169050816000806101000a81548173ffffffffffffffffffffffffffffffffffffffff021916908373ffffffffffffffffffffffffffffffffffffffff1602179055508173ffffffffffffffffffffffffffffffffffffffff168173ffffffffffffffffffffffffffffffffffffffff167f8be0079c531659141344cd1fd0a4f28419497f9722a3daafe3b4186f6b6457e060405160405180910390a35050565b61170c8484846113c3565b61171884848484611981565b611757576040517f08c379a000000000000000000000000000000000000000000000000000000000815260040161174e9061241d565b60405180910390fd5b50505050565b606060405180602001604052806000815250905090565b606060008214156117bc576040518060400160405280600181526020017f3000000000000000000000000000000000000000000000000000000000000000815250905061191c565b600082905060005b600082146117ee5780806117d790612912565b915050600a826117e79190612787565b91506117c4565b60008167ffffffffffffffff811115611830577f4e487b7100000000000000000000000000000000000000000000000000000000600052604160045260246000fd5b6040519080825280601f01601f1916602001820160405280156118625781602001600182028036833780820191505090505b5090505b600085146119155760018261187b91906127b8565b9150600a8561188a9190612985565b60306118969190612731565b60f81b8183815181106118d2577f4e487b7100000000000000000000000000000000000000000000000000000000600052603260045260246000fd5b60200101907effffffffffffffffffffffffffffffffffffffffffffffffffffffffffffff1916908160001a905350600a8561190e9190612787565b9450611866565b8093505050505b919050565b505050565b6119308383611b18565b61193d6000848484611981565b61197c576040517f08c379a00000000000000000000000000000000000000000000000000000000081526004016119739061241d565b60405180910390fd5b505050565b60006119a28473ffffffffffffffffffffffffffffffffffffffff16611ce6565b15611b0b578373ffffffffffffffffffffffffffffffffffffffff1663150b7a026119cb611224565b8786866040518563ffffffff1660e01b81526004016119ed9493929190612394565b602060405180830381600087803b158015611a0757600080fd5b505af1925050508015611a3857506040513d601f19601f82011682018060405250810190611a359190611f9a565b60015b611abb573d8060008114611a68576040519150601f19603f3d011682016040523d82523d6000602084013e611a6d565b606091505b50600081511415611ab3576040517f08c379a0000000000000000000000000000000000000000000000000000000008152600401611aaa9061241d565b60405180910390fd5b805181602001fd5b63150b7a0260e01b7bffffffffffffffffffffffffffffffffffffffffffffffffffffffff1916817bffffffffffffffffffffffffffffffffffffffffffffffffffffffff191614915050611b10565b600190505b949350505050565b600073ffffffffffffffffffffffffffffffffffffffff168273ffffffffffffffffffffffffffffffffffffffff161415611b88576040517f08c379a0000000000000000000000000000000000000000000000000000000008152600401611b7f9061255d565b60405180910390fd5b611b91816111b8565b15611bd1576040517f08c379a0000000000000000000000000000000000000000000000000000000008152600401611bc89061245d565b60405180910390fd5b611bdd60008383611921565b6001600460008473ffffffffffffffffffffffffffffffffffffffff1673ffffffffffffffffffffffffffffffffffffffff1681526020019081526020016000206000828254611c2d9190612731565b92505081905550816003600083815260200190815260200160002060006101000a81548173ffffffffffffffffffffffffffffffffffffffff021916908373ffffffffffffffffffffffffffffffffffffffff160217905550808273ffffffffffffffffffffffffffffffffffffffff16600073ffffffffffffffffffffffffffffffffffffffff167fddf252ad1be2c89b69c2b068fc378daa952ba7f163c4a11628f55a4df523b3ef60405160405180910390a45050565b600080823b905060008111915050919050565b6000611d0c611d07846126bd565b612698565b905082815260208101848484011115611d2457600080fd5b611d2f84828561286d565b509392505050565b600081359050611d4681612f7c565b92915050565b600081359050611d5b81612f93565b92915050565b600081359050611d7081612faa565b92915050565b600081519050611d8581612faa565b92915050565b600082601f830112611d9c57600080fd5b8135611dac848260208601611cf9565b91505092915050565b600081359050611dc481612fc1565b92915050565b600060208284031215611ddc57600080fd5b6000611dea84828501611d37565b91505092915050565b60008060408385031215611e0657600080fd5b6000611e1485828601611d37565b9250506020611e2585828601611d37565b9150509250929050565b600080600060608486031215611e4457600080fd5b6000611e5286828701611d37565b9350506020611e6386828701611d37565b9250506040611e7486828701611db5565b9150509250925092565b60008060008060808587031215611e9457600080fd5b6000611ea287828801611d37565b9450506020611eb387828801611d37565b9350506040611ec487828801611db5565b925050606085013567ffffffffffffffff811115611ee157600080fd5b611eed87828801611d8b565b91505092959194509250565b60008060408385031215611f0c57600080fd5b6000611f1a85828601611d37565b9250506020611f2b85828601611d4c565b9150509250929050565b60008060408385031215611f4857600080fd5b6000611f5685828601611d37565b9250506020611f6785828601611db5565b9150509250929050565b600060208284031215611f8357600080fd5b6000611f9184828501611d61565b91505092915050565b600060208284031215611fac57600080fd5b6000611fba84828501611d76565b91505092915050565b600060208284031215611fd557600080fd5b6000611fe384828501611db5565b91505092915050565b611ff5816127ec565b82525050565b612004816127fe565b82525050565b6000612015826126ee565b61201f8185612704565b935061202f81856020860161287c565b61203881612a72565b840191505092915050565b600061204e826126f9565b6120588185612715565b935061206881856020860161287c565b61207181612a72565b840191505092915050565b6000612087826126f9565b6120918185612726565b93506120a181856020860161287c565b80840191505092915050565b60006120ba603283612715565b91506120c582612a83565b604082019050919050565b60006120dd602683612715565b91506120e882612ad2565b604082019050919050565b6000612100601c83612715565b915061210b82612b21565b602082019050919050565b6000612123602483612715565b915061212e82612b4a565b604082019050919050565b6000612146601983612715565b915061215182612b99565b602082019050919050565b6000612169602c83612715565b915061217482612bc2565b604082019050919050565b600061218c603883612715565b915061219782612c11565b604082019050919050565b60006121af601c83612715565b91506121ba82612c60565b602082019050919050565b60006121d2602a83612715565b91506121dd82612c89565b604082019050919050565b60006121f5602983612715565b915061220082612cd8565b604082019050919050565b6000612218602083612715565b915061222382612d27565b602082019050919050565b600061223b602c83612715565b915061224682612d50565b604082019050919050565b600061225e602083612715565b915061226982612d9f565b602082019050919050565b6000612281602383612715565b915061228c82612dc8565b604082019050919050565b60006122a4602983612715565b91506122af82612e17565b604082019050919050565b60006122c7602f83612715565b91506122d282612e66565b604082019050919050565b60006122ea602183612715565b91506122f582612eb5565b604082019050919050565b600061230d603183612715565b915061231882612f04565b604082019050919050565b6000612330601d83612715565b915061233b82612f53565b602082019050919050565b61234f81612856565b82525050565b6000612361828561207c565b915061236d828461207c565b91508190509392505050565b600060208201905061238e6000830184611fec565b92915050565b60006080820190506123a96000830187611fec565b6123b66020830186611fec565b6123c36040830185612346565b81810360608301526123d5818461200a565b905095945050505050565b60006020820190506123f56000830184611ffb565b92915050565b600060208201905081810360008301526124158184612043565b905092915050565b60006020820190508181036000830152612436816120ad565b9050919050565b60006020820190508181036000830152612456816120d0565b9050919050565b60006020820190508181036000830152612476816120f3565b9050919050565b6000602082019050818103600083015261249681612116565b9050919050565b600060208201905081810360008301526124b681612139565b9050919050565b600060208201905081810360008301526124d68161215c565b9050919050565b600060208201905081810360008301526124f68161217f565b9050919050565b60006020820190508181036000830152612516816121a2565b9050919050565b60006020820190508181036000830152612536816121c5565b9050919050565b60006020820190508181036000830152612556816121e8565b9050919050565b600060208201905081810360008301526125768161220b565b9050919050565b600060208201905081810360008301526125968161222e565b9050919050565b600060208201905081810360008301526125b681612251565b9050919050565b600060208201905081810360008301526125d681612274565b9050919050565b600060208201905081810360008301526125f681612297565b9050919050565b60006020820190508181036000830152612616816122ba565b9050919050565b60006020820190508181036000830152612636816122dd565b9050919050565b6000602082019050818103600083015261265681612300565b9050919050565b6000602082019050818103600083015261267681612323565b9050919050565b60006020820190506126926000830184612346565b92915050565b60006126a26126b3565b90506126ae82826128e1565b919050565b6000604051905090565b600067ffffffffffffffff8211156126d8576126d7612a43565b5b6126e182612a72565b9050602081019050919050565b600081519050919050565b600081519050919050565b600082825260208201905092915050565b600082825260208201905092915050565b600081905092915050565b600061273c82612856565b915061274783612856565b9250827fffffffffffffffffffffffffffffffffffffffffffffffffffffffffffffffff0382111561277c5761277b6129b6565b5b828201905092915050565b600061279282612856565b915061279d83612856565b9250826127ad576127ac6129e5565b5b828204905092915050565b60006127c382612856565b91506127ce83612856565b9250828210156127e1576127e06129b6565b5b828203905092915050565b60006127f782612836565b9050919050565b60008115159050919050565b60007fffffffff0000000000000000000000000000000000000000000000000000000082169050919050565b600073ffffffffffffffffffffffffffffffffffffffff82169050919050565b6000819050919050565b600060ff82169050919050565b82818337600083830152505050565b60005b8381101561289a57808201518184015260208101905061287f565b838111156128a9576000848401525b50505050565b600060028204905060018216806128c757607f821691505b602082108114156128db576128da612a14565b5b50919050565b6128ea82612a72565b810181811067ffffffffffffffff8211171561290957612908612a43565b5b80604052505050565b600061291d82612856565b91507fffffffffffffffffffffffffffffffffffffffffffffffffffffffffffffffff8214156129505761294f6129b6565b5b600182019050919050565b600061296682612860565b915060ff82141561297a576129796129b6565b5b600182019050919050565b600061299082612856565b915061299b83612856565b9250826129ab576129aa6129e5565b5b828206905092915050565b7f4e487b7100000000000000000000000000000000000000000000000000000000600052601160045260246000fd5b7f4e487b7100000000000000000000000000000000000000000000000000000000600052601260045260246000fd5b7f4e487b7100000000000000000000000000000000000000000000000000000000600052602260045260246000fd5b7f4e487b7100000000000000000000000000000000000000000000000000000000600052604160045260246000fd5b6000601f19601f8301169050919050565b7f4552433732313a207472616e7366657220746f206e6f6e20455243373231526560008201527f63656976657220696d706c656d656e7465720000000000000000000000000000602082015250565b7f4f776e61626c653a206e6577206f776e657220697320746865207a65726f206160008201527f6464726573730000000000000000000000000000000000000000000000000000602082015250565b7f4552433732313a20746f6b656e20616c7265616479206d696e74656400000000600082015250565b7f4552433732313a207472616e7366657220746f20746865207a65726f2061646460008201527f7265737300000000000000000000000000000000000000000000000000000000602082015250565b7f4552433732313a20617070726f766520746f2063616c6c657200000000000000600082015250565b7f4552433732313a206f70657261746f7220717565727920666f72206e6f6e657860008201527f697374656e7420746f6b656e0000000000000000000000000000000000000000602082015250565b7f4552433732313a20617070726f76652063616c6c6572206973206e6f74206f7760008201527f6e6572206e6f7220617070726f76656420666f7220616c6c0000000000000000602082015250565b7f616c6c2068656c6d732068617665206265656e20636f6e6a7572656400000000600082015250565b7f4552433732313a2062616c616e636520717565727920666f7220746865207a6560008201527f726f206164647265737300000000000000000000000000000000000000000000602082015250565b7f4552433732313a206f776e657220717565727920666f72206e6f6e657869737460008201527f656e7420746f6b656e0000000000000000000000000000000000000000000000602082015250565b7f4552433732313a206d696e7420746f20746865207a65726f2061646472657373600082015250565b7f4552433732313a20617070726f76656420717565727920666f72206e6f6e657860008201527f697374656e7420746f6b656e0000000000000000000000000000000000000000602082015250565b7f4f776e61626c653a2063616c6c6572206973206e6f7420746865206f776e6572600082015250565b7f6e6f7420656e6f75676820657468657220746f20636f6e6a757265206120736860008201527f6172640000000000000000000000000000000000000000000000000000000000602082015250565b7f4552433732313a207472616e73666572206f6620746f6b656e2074686174206960008201527f73206e6f74206f776e0000000000000000000000000000000000000000000000602082015250565b7f4552433732314d657461646174613a2055524920717565727920666f72206e6f60008201527f6e6578697374656e7420746f6b656e0000000000000000000000000000000000602082015250565b7f4552433732313a20617070726f76616c20746f2063757272656e74206f776e6560008201527f7200000000000000000000000000000000000000000000000000000000000000602082015250565b7f4552433732313a207472616e736665722063616c6c6572206973206e6f74206f60008201527f776e6572206e6f7220617070726f766564000000000000000000000000000000602082015250565b7f616c6c207368617264732068617665206265656e20636f6e6a75726564000000600082015250565b612f85816127ec565b8114612f9057600080fd5b50565b612f9c816127fe565b8114612fa757600080fd5b50565b612fb38161280a565b8114612fbe57600080fd5b50565b612fca81612856565b8114612fd557600080fd5b5056fea264697066735822122005a41fdf55e5ee1e79e20eb1aec1b1fb32465f5bf12193f11cef67b18601e73464736f6c63430008040033",
  "devdoc": {
    "kind": "dev",
    "methods": {
      "approve(address,uint256)": {
        "details": "See {IERC721-approve}."
      },
      "balanceOf(address)": {
        "details": "See {IERC721-balanceOf}."
      },
      "getApproved(uint256)": {
        "details": "See {IERC721-getApproved}."
      },
      "isApprovedForAll(address,address)": {
        "details": "See {IERC721-isApprovedForAll}."
      },
      "name()": {
        "details": "See {IERC721Metadata-name}."
      },
      "owner()": {
        "details": "Returns the address of the current owner."
      },
      "ownerOf(uint256)": {
        "details": "See {IERC721-ownerOf}."
      },
      "renounceOwnership()": {
        "details": "Leaves the contract without owner. It will not be possible to call `onlyOwner` functions anymore. Can only be called by the current owner. NOTE: Renouncing ownership will leave the contract without an owner, thereby removing any functionality that is only available to the owner."
      },
      "safeTransferFrom(address,address,uint256)": {
        "details": "See {IERC721-safeTransferFrom}."
      },
      "safeTransferFrom(address,address,uint256,bytes)": {
        "details": "See {IERC721-safeTransferFrom}."
      },
      "setApprovalForAll(address,bool)": {
        "details": "See {IERC721-setApprovalForAll}."
      },
      "supportsInterface(bytes4)": {
        "details": "See {IERC165-supportsInterface}."
      },
      "symbol()": {
        "details": "See {IERC721Metadata-symbol}."
      },
      "tokenURI(uint256)": {
        "details": "See {IERC721Metadata-tokenURI}."
      },
      "transferFrom(address,address,uint256)": {
        "details": "See {IERC721-transferFrom}."
      },
      "transferOwnership(address)": {
        "details": "Transfers ownership of the contract to a new account (`newOwner`). Can only be called by the current owner."
      }
    },
    "version": 1
  },
  "userdoc": {
    "kind": "user",
    "methods": {},
    "version": 1
  },
  "storageLayout": {
    "storage": [
      {
        "astId": 7,
        "contract": "contracts/Artifacts.sol:Artifacts",
        "label": "_owner",
        "offset": 0,
        "slot": "0",
        "type": "t_address"
      },
      {
        "astId": 129,
        "contract": "contracts/Artifacts.sol:Artifacts",
        "label": "_name",
        "offset": 0,
        "slot": "1",
        "type": "t_string_storage"
      },
      {
        "astId": 131,
        "contract": "contracts/Artifacts.sol:Artifacts",
        "label": "_symbol",
        "offset": 0,
        "slot": "2",
        "type": "t_string_storage"
      },
      {
        "astId": 135,
        "contract": "contracts/Artifacts.sol:Artifacts",
        "label": "_owners",
        "offset": 0,
        "slot": "3",
        "type": "t_mapping(t_uint256,t_address)"
      },
      {
        "astId": 139,
        "contract": "contracts/Artifacts.sol:Artifacts",
        "label": "_balances",
        "offset": 0,
        "slot": "4",
        "type": "t_mapping(t_address,t_uint256)"
      },
      {
        "astId": 143,
        "contract": "contracts/Artifacts.sol:Artifacts",
        "label": "_tokenApprovals",
        "offset": 0,
        "slot": "5",
        "type": "t_mapping(t_uint256,t_address)"
      },
      {
        "astId": 149,
        "contract": "contracts/Artifacts.sol:Artifacts",
        "label": "_operatorApprovals",
        "offset": 0,
        "slot": "6",
        "type": "t_mapping(t_address,t_mapping(t_address,t_bool))"
      },
      {
        "astId": 1660,
        "contract": "contracts/Artifacts.sol:Artifacts",
        "label": "helmsConjured",
        "offset": 0,
        "slot": "7",
        "type": "t_uint8"
      },
      {
        "astId": 1663,
        "contract": "contracts/Artifacts.sol:Artifacts",
        "label": "shardsConjured",
        "offset": 0,
        "slot": "8",
        "type": "t_uint256"
      }
    ],
    "types": {
      "t_address": {
        "encoding": "inplace",
        "label": "address",
        "numberOfBytes": "20"
      },
      "t_bool": {
        "encoding": "inplace",
        "label": "bool",
        "numberOfBytes": "1"
      },
      "t_mapping(t_address,t_bool)": {
        "encoding": "mapping",
        "key": "t_address",
        "label": "mapping(address => bool)",
        "numberOfBytes": "32",
        "value": "t_bool"
      },
      "t_mapping(t_address,t_mapping(t_address,t_bool))": {
        "encoding": "mapping",
        "key": "t_address",
        "label": "mapping(address => mapping(address => bool))",
        "numberOfBytes": "32",
        "value": "t_mapping(t_address,t_bool)"
      },
      "t_mapping(t_address,t_uint256)": {
        "encoding": "mapping",
        "key": "t_address",
        "label": "mapping(address => uint256)",
        "numberOfBytes": "32",
        "value": "t_uint256"
      },
      "t_mapping(t_uint256,t_address)": {
        "encoding": "mapping",
        "key": "t_uint256",
        "label": "mapping(uint256 => address)",
        "numberOfBytes": "32",
        "value": "t_address"
      },
      "t_string_storage": {
        "encoding": "bytes",
        "label": "string",
        "numberOfBytes": "32"
      },
      "t_uint256": {
        "encoding": "inplace",
        "label": "uint256",
        "numberOfBytes": "32"
      },
      "t_uint8": {
        "encoding": "inplace",
        "label": "uint8",
        "numberOfBytes": "1"
      }
    }
  }
}