{
  "address": "0x0DCd1Bf9A1b36cE34237eEaFef220932846BCD82",
  "abi": [
    {
      "inputs": [],
      "stateMutability": "nonpayable",
      "type": "constructor"
    },
    {
      "anonymous": false,
      "inputs": [
        {
          "indexed": true,
          "internalType": "address",
          "name": "owner",
          "type": "address"
        },
        {
          "indexed": true,
          "internalType": "address",
          "name": "approved",
          "type": "address"
        },
        {
          "indexed": true,
          "internalType": "uint256",
          "name": "tokenId",
          "type": "uint256"
        }
      ],
      "name": "Approval",
      "type": "event"
    },
    {
      "anonymous": false,
      "inputs": [
        {
          "indexed": true,
          "internalType": "address",
          "name": "owner",
          "type": "address"
        },
        {
          "indexed": true,
          "internalType": "address",
          "name": "operator",
          "type": "address"
        },
        {
          "indexed": false,
          "internalType": "bool",
          "name": "approved",
          "type": "bool"
        }
      ],
      "name": "ApprovalForAll",
      "type": "event"
    },
    {
      "anonymous": false,
      "inputs": [
        {
          "indexed": true,
          "internalType": "address",
          "name": "previousOwner",
          "type": "address"
        },
        {
          "indexed": true,
          "internalType": "address",
          "name": "newOwner",
          "type": "address"
        }
      ],
      "name": "OwnershipTransferred",
      "type": "event"
    },
    {
      "anonymous": false,
      "inputs": [
        {
          "indexed": true,
          "internalType": "address",
          "name": "from",
          "type": "address"
        },
        {
          "indexed": true,
          "internalType": "address",
          "name": "to",
          "type": "address"
        },
        {
          "indexed": true,
          "internalType": "uint256",
          "name": "tokenId",
          "type": "uint256"
        }
      ],
      "name": "Transfer",
      "type": "event"
    },
    {
      "inputs": [
        {
          "internalType": "address",
          "name": "to",
          "type": "address"
        },
        {
          "internalType": "uint256",
          "name": "tokenId",
          "type": "uint256"
        }
      ],
      "name": "approve",
      "outputs": [],
      "stateMutability": "nonpayable",
      "type": "function"
    },
    {
      "inputs": [
        {
          "internalType": "address",
          "name": "owner",
          "type": "address"
        }
      ],
      "name": "balanceOf",
      "outputs": [
        {
          "internalType": "uint256",
          "name": "",
          "type": "uint256"
        }
      ],
      "stateMutability": "view",
      "type": "function"
    },
    {
      "inputs": [],
      "name": "conjureHelm",
      "outputs": [],
      "stateMutability": "payable",
      "type": "function"
    },
    {
      "inputs": [],
      "name": "conjureShard",
      "outputs": [],
      "stateMutability": "payable",
      "type": "function"
    },
    {
      "inputs": [
        {
          "internalType": "uint256",
          "name": "tokenId",
          "type": "uint256"
        }
      ],
      "name": "getApproved",
      "outputs": [
        {
          "internalType": "address",
          "name": "",
          "type": "address"
        }
      ],
      "stateMutability": "view",
      "type": "function"
    },
    {
      "inputs": [
        {
          "internalType": "address",
          "name": "_adventurer",
          "type": "address"
        },
        {
          "internalType": "string",
          "name": "",
          "type": "string"
        }
      ],
      "name": "hasHelm",
      "outputs": [
        {
          "internalType": "bool",
          "name": "",
          "type": "bool"
        }
      ],
      "stateMutability": "view",
      "type": "function"
    },
    {
      "inputs": [
        {
          "internalType": "address",
          "name": "owner",
          "type": "address"
        },
        {
          "internalType": "address",
          "name": "operator",
          "type": "address"
        }
      ],
      "name": "isApprovedForAll",
      "outputs": [
        {
          "internalType": "bool",
          "name": "",
          "type": "bool"
        }
      ],
      "stateMutability": "view",
      "type": "function"
    },
    {
      "inputs": [],
      "name": "name",
      "outputs": [
        {
          "internalType": "string",
          "name": "",
          "type": "string"
        }
      ],
      "stateMutability": "view",
      "type": "function"
    },
    {
      "inputs": [],
      "name": "nextHelmPrice",
      "outputs": [
        {
          "internalType": "uint256",
          "name": "",
          "type": "uint256"
        }
      ],
      "stateMutability": "pure",
      "type": "function"
    },
    {
      "inputs": [],
      "name": "nextShardPrice",
      "outputs": [
        {
          "internalType": "uint256",
          "name": "",
          "type": "uint256"
        }
      ],
      "stateMutability": "pure",
      "type": "function"
    },
    {
      "inputs": [],
      "name": "owner",
      "outputs": [
        {
          "internalType": "address",
          "name": "",
          "type": "address"
        }
      ],
      "stateMutability": "view",
      "type": "function"
    },
    {
      "inputs": [],
      "name": "ownerClaim",
      "outputs": [],
      "stateMutability": "nonpayable",
      "type": "function"
    },
    {
      "inputs": [
        {
          "internalType": "uint256",
          "name": "tokenId",
          "type": "uint256"
        }
      ],
      "name": "ownerOf",
      "outputs": [
        {
          "internalType": "address",
          "name": "",
          "type": "address"
        }
      ],
      "stateMutability": "view",
      "type": "function"
    },
    {
      "inputs": [],
      "name": "renounceOwnership",
      "outputs": [],
      "stateMutability": "nonpayable",
      "type": "function"
    },
    {
      "inputs": [
        {
          "internalType": "address",
          "name": "from",
          "type": "address"
        },
        {
          "internalType": "address",
          "name": "to",
          "type": "address"
        },
        {
          "internalType": "uint256",
          "name": "tokenId",
          "type": "uint256"
        }
      ],
      "name": "safeTransferFrom",
      "outputs": [],
      "stateMutability": "nonpayable",
      "type": "function"
    },
    {
      "inputs": [
        {
          "internalType": "address",
          "name": "from",
          "type": "address"
        },
        {
          "internalType": "address",
          "name": "to",
          "type": "address"
        },
        {
          "internalType": "uint256",
          "name": "tokenId",
          "type": "uint256"
        },
        {
          "internalType": "bytes",
          "name": "_data",
          "type": "bytes"
        }
      ],
      "name": "safeTransferFrom",
      "outputs": [],
      "stateMutability": "nonpayable",
      "type": "function"
    },
    {
      "inputs": [
        {
          "internalType": "address",
          "name": "operator",
          "type": "address"
        },
        {
          "internalType": "bool",
          "name": "approved",
          "type": "bool"
        }
      ],
      "name": "setApprovalForAll",
      "outputs": [],
      "stateMutability": "nonpayable",
      "type": "function"
    },
    {
      "inputs": [
        {
          "internalType": "bytes4",
          "name": "interfaceId",
          "type": "bytes4"
        }
      ],
      "name": "supportsInterface",
      "outputs": [
        {
          "internalType": "bool",
          "name": "",
          "type": "bool"
        }
      ],
      "stateMutability": "view",
      "type": "function"
    },
    {
      "inputs": [],
      "name": "symbol",
      "outputs": [
        {
          "internalType": "string",
          "name": "",
          "type": "string"
        }
      ],
      "stateMutability": "view",
      "type": "function"
    },
    {
      "inputs": [
        {
          "internalType": "uint256",
          "name": "tokenId",
          "type": "uint256"
        }
      ],
      "name": "tokenURI",
      "outputs": [
        {
          "internalType": "string",
          "name": "",
          "type": "string"
        }
      ],
      "stateMutability": "view",
      "type": "function"
    },
    {
      "inputs": [
        {
          "internalType": "address",
          "name": "from",
          "type": "address"
        },
        {
          "internalType": "address",
          "name": "to",
          "type": "address"
        },
        {
          "internalType": "uint256",
          "name": "tokenId",
          "type": "uint256"
        }
      ],
      "name": "transferFrom",
      "outputs": [],
      "stateMutability": "nonpayable",
      "type": "function"
    },
    {
      "inputs": [
        {
          "internalType": "address",
          "name": "newOwner",
          "type": "address"
        }
      ],
      "name": "transferOwnership",
      "outputs": [],
      "stateMutability": "nonpayable",
      "type": "function"
    }
  ],
  "transactionHash": "0xe7a64d40c8706aa3d75b412bef4656e1143ba9ac1a7f72c609cacc8d96f5e6d6",
  "args": [],
  "solcInputHash": "8b1950ec52df01108360ec570eb636b0",
  "bytecode": "0x60806040526000600760006101000a81548160ff021916908360ff16021790555060006008553480156200003257600080fd5b506040518060400160405280601481526020017f53746f726d57696e6473204172746966616374730000000000000000000000008152506040518060400160405280600581526020017f53544f524d000000000000000000000000000000000000000000000000000000815250620000bf620000b3620000f960201b60201c565b6200010160201b60201c565b8160019080519060200190620000d7929190620001c5565b508060029080519060200190620000f0929190620001c5565b505050620002da565b600033905090565b60008060009054906101000a900473ffffffffffffffffffffffffffffffffffffffff169050816000806101000a81548173ffffffffffffffffffffffffffffffffffffffff021916908373ffffffffffffffffffffffffffffffffffffffff1602179055508173ffffffffffffffffffffffffffffffffffffffff168173ffffffffffffffffffffffffffffffffffffffff167f8be0079c531659141344cd1fd0a4f28419497f9722a3daafe3b4186f6b6457e060405160405180910390a35050565b828054620001d39062000275565b90600052602060002090601f016020900481019282620001f7576000855562000243565b82601f106200021257805160ff191683800117855562000243565b8280016001018555821562000243579182015b828111156200024257825182559160200191906001019062000225565b5b50905062000252919062000256565b5090565b5b808211156200027157600081600090555060010162000257565b5090565b600060028204905060018216806200028e57607f821691505b60208210811415620002a557620002a4620002ab565b5b50919050565b7f4e487b7100000000000000000000000000000000000000000000000000000000600052602260045260246000fd5b61324280620002ea6000396000f3fe6080604052600436106101355760003560e01c8063715018a6116100ab578063b88d4fde1161006f578063b88d4fde146103f3578063c87b56dd1461041c578063e669024314610459578063e7a22d0114610463578063e985e9c51461048e578063f2fde38b146104cb57610135565b8063715018a6146103535780638da5cb5b1461036a57806395d89b4114610395578063a22cb465146103c0578063aca8d458146103e957610135565b806324845721116100fd578063248457211461023157806342842e0e1461026e5780634414adb0146102975780634dbe5889146102c25780636352211e146102d957806370a082311461031657610135565b806301ffc9a71461013a57806306fdde0314610177578063081812fc146101a2578063095ea7b3146101df57806323b872dd14610208575b600080fd5b34801561014657600080fd5b50610161600480360381019061015c9190612175565b6104f4565b60405161016e91906125e4565b60405180910390f35b34801561018357600080fd5b5061018c6105d6565b60405161019991906125ff565b60405180910390f35b3480156101ae57600080fd5b506101c960048036038101906101c491906121c7565b610668565b6040516101d6919061257d565b60405180910390f35b3480156101eb57600080fd5b5061020660048036038101906102019190612139565b6106ed565b005b34801561021457600080fd5b5061022f600480360381019061022a9190611fdb565b610805565b005b34801561023d57600080fd5b50610258600480360381019061025391906120e1565b610865565b60405161026591906125e4565b60405180910390f35b34801561027a57600080fd5b5061029560048036038101906102909190611fdb565b61087b565b005b3480156102a357600080fd5b506102ac61089b565b6040516102b991906128b1565b60405180910390f35b3480156102ce57600080fd5b506102d76108ab565b005b3480156102e557600080fd5b5061030060048036038101906102fb91906121c7565b610942565b60405161030d919061257d565b60405180910390f35b34801561032257600080fd5b5061033d60048036038101906103389190611f76565b6109f4565b60405161034a91906128b1565b60405180910390f35b34801561035f57600080fd5b50610368610aac565b005b34801561037657600080fd5b5061037f610b34565b60405161038c919061257d565b60405180910390f35b3480156103a157600080fd5b506103aa610b5d565b6040516103b791906125ff565b60405180910390f35b3480156103cc57600080fd5b506103e760048036038101906103e291906120a5565b610bef565b005b6103f1610d70565b005b3480156103ff57600080fd5b5061041a6004803603810190610415919061202a565b610e71565b005b34801561042857600080fd5b50610443600480360381019061043e91906121c7565b610ed3565b60405161045091906125ff565b60405180910390f35b610461610f7a565b005b34801561046f57600080fd5b5061047861104f565b60405161048591906128b1565b60405180910390f35b34801561049a57600080fd5b506104b560048036038101906104b09190611f9f565b61105f565b6040516104c291906125e4565b60405180910390f35b3480156104d757600080fd5b506104f260048036038101906104ed9190611f76565b6110f3565b005b60007f80ac58cd000000000000000000000000000000000000000000000000000000007bffffffffffffffffffffffffffffffffffffffffffffffffffffffff1916827bffffffffffffffffffffffffffffffffffffffffffffffffffffffff191614806105bf57507f5b5e139f000000000000000000000000000000000000000000000000000000007bffffffffffffffffffffffffffffffffffffffffffffffffffffffff1916827bffffffffffffffffffffffffffffffffffffffffffffffffffffffff1916145b806105cf57506105ce826111eb565b5b9050919050565b6060600180546105e590612ae3565b80601f016020809104026020016040519081016040528092919081815260200182805461061190612ae3565b801561065e5780601f106106335761010080835404028352916020019161065e565b820191906000526020600020905b81548152906001019060200180831161064157829003601f168201915b5050505050905090565b600061067382611255565b6106b2576040517f08c379a00000000000000000000000000000000000000000000000000000000081526004016106a9906127b1565b60405180910390fd5b6005600083815260200190815260200160002060009054906101000a900473ffffffffffffffffffffffffffffffffffffffff169050919050565b60006106f882610942565b90508073ffffffffffffffffffffffffffffffffffffffff168373ffffffffffffffffffffffffffffffffffffffff161415610769576040517f08c379a000000000000000000000000000000000000000000000000000000000815260040161076090612851565b60405180910390fd5b8073ffffffffffffffffffffffffffffffffffffffff166107886112c1565b73ffffffffffffffffffffffffffffffffffffffff1614806107b757506107b6816107b16112c1565b61105f565b5b6107f6576040517f08c379a00000000000000000000000000000000000000000000000000000000081526004016107ed90612711565b60405180910390fd5b61080083836112c9565b505050565b6108166108106112c1565b82611382565b610855576040517f08c379a000000000000000000000000000000000000000000000000000000000815260040161084c90612871565b60405180910390fd5b610860838383611460565b505050565b600080610871856109f4565b1190509392505050565b61089683838360405180602001604052806000815250610e71565b505050565b6000670de0b6b3a7640000905090565b6108b36112c1565b73ffffffffffffffffffffffffffffffffffffffff166108d1610b34565b73ffffffffffffffffffffffffffffffffffffffff1614610927576040517f08c379a000000000000000000000000000000000000000000000000000000000815260040161091e906127d1565b60405180910390fd5b6109323360006116bc565b61094033601060ff166116bc565b565b6000806003600084815260200190815260200160002060009054906101000a900473ffffffffffffffffffffffffffffffffffffffff169050600073ffffffffffffffffffffffffffffffffffffffff168173ffffffffffffffffffffffffffffffffffffffff1614156109eb576040517f08c379a00000000000000000000000000000000000000000000000000000000081526004016109e290612771565b60405180910390fd5b80915050919050565b60008073ffffffffffffffffffffffffffffffffffffffff168273ffffffffffffffffffffffffffffffffffffffff161415610a65576040517f08c379a0000000000000000000000000000000000000000000000000000000008152600401610a5c90612751565b60405180910390fd5b600460008373ffffffffffffffffffffffffffffffffffffffff1673ffffffffffffffffffffffffffffffffffffffff168152602001908152602001600020549050919050565b610ab46112c1565b73ffffffffffffffffffffffffffffffffffffffff16610ad2610b34565b73ffffffffffffffffffffffffffffffffffffffff1614610b28576040517f08c379a0000000000000000000000000000000000000000000000000000000008152600401610b1f906127d1565b60405180910390fd5b610b3260006116da565b565b60008060009054906101000a900473ffffffffffffffffffffffffffffffffffffffff16905090565b606060028054610b6c90612ae3565b80601f0160208091040260200160405190810160405280929190818152602001828054610b9890612ae3565b8015610be55780601f10610bba57610100808354040283529160200191610be5565b820191906000526020600020905b815481529060010190602001808311610bc857829003601f168201915b5050505050905090565b610bf76112c1565b73ffffffffffffffffffffffffffffffffffffffff168273ffffffffffffffffffffffffffffffffffffffff161415610c65576040517f08c379a0000000000000000000000000000000000000000000000000000000008152600401610c5c906126d1565b60405180910390fd5b8060066000610c726112c1565b73ffffffffffffffffffffffffffffffffffffffff1673ffffffffffffffffffffffffffffffffffffffff16815260200190815260200160002060008473ffffffffffffffffffffffffffffffffffffffff1673ffffffffffffffffffffffffffffffffffffffff16815260200190815260200160002060006101000a81548160ff0219169083151502179055508173ffffffffffffffffffffffffffffffffffffffff16610d1f6112c1565b73ffffffffffffffffffffffffffffffffffffffff167f17307eab39ab6107e8899845ad3d59bd9653f200f220920489ca2b5937696c3183604051610d6491906125e4565b60405180910390a35050565b601060ff16600760009054906101000a900460ff1660ff1610610dc8576040517f08c379a0000000000000000000000000000000000000000000000000000000008152600401610dbf90612731565b60405180910390fd5b610dd061089b565b341015610ddc57600080fd5b610df833600760009054906101000a900460ff1660ff166116bc565b610e376040518060400160405280601281526020017f436f6e6a757265642068656c6d20666f722000000000000000000000000000008152503361179e565b6007600081819054906101000a900460ff1680929190610e5690612b8f565b91906101000a81548160ff021916908360ff16021790555050565b610e82610e7c6112c1565b83611382565b610ec1576040517f08c379a0000000000000000000000000000000000000000000000000000000008152600401610eb890612871565b60405180910390fd5b610ecd8484848461183a565b50505050565b6060610ede82611255565b610f1d576040517f08c379a0000000000000000000000000000000000000000000000000000000008152600401610f1490612831565b60405180910390fd5b6000610f27611896565b90506000815111610f475760405180602001604052806000815250610f72565b80610f51846118ad565b604051602001610f62929190612559565b6040516020818303038152906040525b915050919050565b6103e8600760009054906101000a900460ff1660ff1610610fd0576040517f08c379a0000000000000000000000000000000000000000000000000000000008152600401610fc790612891565b60405180910390fd5b610fd861104f565b34101561101a576040517f08c379a0000000000000000000000000000000000000000000000000000000008152600401611011906127f1565b60405180910390fd5b61103533600854601060ff166110309190612965565b6116bc565b6008600081548092919061104890612b46565b9190505550565b60006702c68af0bb140000905090565b6000600660008473ffffffffffffffffffffffffffffffffffffffff1673ffffffffffffffffffffffffffffffffffffffff16815260200190815260200160002060008373ffffffffffffffffffffffffffffffffffffffff1673ffffffffffffffffffffffffffffffffffffffff16815260200190815260200160002060009054906101000a900460ff16905092915050565b6110fb6112c1565b73ffffffffffffffffffffffffffffffffffffffff16611119610b34565b73ffffffffffffffffffffffffffffffffffffffff161461116f576040517f08c379a0000000000000000000000000000000000000000000000000000000008152600401611166906127d1565b60405180910390fd5b600073ffffffffffffffffffffffffffffffffffffffff168173ffffffffffffffffffffffffffffffffffffffff1614156111df576040517f08c379a00000000000000000000000000000000000000000000000000000000081526004016111d690612671565b60405180910390fd5b6111e8816116da565b50565b60007f01ffc9a7000000000000000000000000000000000000000000000000000000007bffffffffffffffffffffffffffffffffffffffffffffffffffffffff1916827bffffffffffffffffffffffffffffffffffffffffffffffffffffffff1916149050919050565b60008073ffffffffffffffffffffffffffffffffffffffff166003600084815260200190815260200160002060009054906101000a900473ffffffffffffffffffffffffffffffffffffffff1673ffffffffffffffffffffffffffffffffffffffff1614159050919050565b600033905090565b816005600083815260200190815260200160002060006101000a81548173ffffffffffffffffffffffffffffffffffffffff021916908373ffffffffffffffffffffffffffffffffffffffff160217905550808273ffffffffffffffffffffffffffffffffffffffff1661133c83610942565b73ffffffffffffffffffffffffffffffffffffffff167f8c5be1e5ebec7d5bd14f71427d1e84f3dd0314c0f7b2291e5b200ac8c7c3b92560405160405180910390a45050565b600061138d82611255565b6113cc576040517f08c379a00000000000000000000000000000000000000000000000000000000081526004016113c3906126f1565b60405180910390fd5b60006113d783610942565b90508073ffffffffffffffffffffffffffffffffffffffff168473ffffffffffffffffffffffffffffffffffffffff16148061144657508373ffffffffffffffffffffffffffffffffffffffff1661142e84610668565b73ffffffffffffffffffffffffffffffffffffffff16145b806114575750611456818561105f565b5b91505092915050565b8273ffffffffffffffffffffffffffffffffffffffff1661148082610942565b73ffffffffffffffffffffffffffffffffffffffff16146114d6576040517f08c379a00000000000000000000000000000000000000000000000000000000081526004016114cd90612811565b60405180910390fd5b600073ffffffffffffffffffffffffffffffffffffffff168273ffffffffffffffffffffffffffffffffffffffff161415611546576040517f08c379a000000000000000000000000000000000000000000000000000000000815260040161153d906126b1565b60405180910390fd5b611551838383611a5a565b61155c6000826112c9565b6001600460008573ffffffffffffffffffffffffffffffffffffffff1673ffffffffffffffffffffffffffffffffffffffff16815260200190815260200160002060008282546115ac91906129ec565b925050819055506001600460008473ffffffffffffffffffffffffffffffffffffffff1673ffffffffffffffffffffffffffffffffffffffff16815260200190815260200160002060008282546116039190612965565b92505081905550816003600083815260200190815260200160002060006101000a81548173ffffffffffffffffffffffffffffffffffffffff021916908373ffffffffffffffffffffffffffffffffffffffff160217905550808273ffffffffffffffffffffffffffffffffffffffff168473ffffffffffffffffffffffffffffffffffffffff167fddf252ad1be2c89b69c2b068fc378daa952ba7f163c4a11628f55a4df523b3ef60405160405180910390a4505050565b6116d6828260405180602001604052806000815250611a5f565b5050565b60008060009054906101000a900473ffffffffffffffffffffffffffffffffffffffff169050816000806101000a81548173ffffffffffffffffffffffffffffffffffffffff021916908373ffffffffffffffffffffffffffffffffffffffff1602179055508173ffffffffffffffffffffffffffffffffffffffff168173ffffffffffffffffffffffffffffffffffffffff167f8be0079c531659141344cd1fd0a4f28419497f9722a3daafe3b4186f6b6457e060405160405180910390a35050565b61183682826040516024016117b4929190612621565b6040516020818303038152906040527f319af333000000000000000000000000000000000000000000000000000000007bffffffffffffffffffffffffffffffffffffffffffffffffffffffff19166020820180517bffffffffffffffffffffffffffffffffffffffffffffffffffffffff8381831617835250505050611aba565b5050565b611845848484611460565b61185184848484611ae3565b611890576040517f08c379a000000000000000000000000000000000000000000000000000000000815260040161188790612651565b60405180910390fd5b50505050565b606060405180602001604052806000815250905090565b606060008214156118f5576040518060400160405280600181526020017f30000000000000000000000000000000000000000000000000000000000000008152509050611a55565b600082905060005b6000821461192757808061191090612b46565b915050600a8261192091906129bb565b91506118fd565b60008167ffffffffffffffff811115611969577f4e487b7100000000000000000000000000000000000000000000000000000000600052604160045260246000fd5b6040519080825280601f01601f19166020018201604052801561199b5781602001600182028036833780820191505090505b5090505b60008514611a4e576001826119b491906129ec565b9150600a856119c39190612bb9565b60306119cf9190612965565b60f81b818381518110611a0b577f4e487b7100000000000000000000000000000000000000000000000000000000600052603260045260246000fd5b60200101907effffffffffffffffffffffffffffffffffffffffffffffffffffffffffffff1916908160001a905350600a85611a4791906129bb565b945061199f565b8093505050505b919050565b505050565b611a698383611c7a565b611a766000848484611ae3565b611ab5576040517f08c379a0000000000000000000000000000000000000000000000000000000008152600401611aac90612651565b60405180910390fd5b505050565b60008151905060006a636f6e736f6c652e6c6f679050602083016000808483855afa5050505050565b6000611b048473ffffffffffffffffffffffffffffffffffffffff16611e48565b15611c6d578373ffffffffffffffffffffffffffffffffffffffff1663150b7a02611b2d6112c1565b8786866040518563ffffffff1660e01b8152600401611b4f9493929190612598565b602060405180830381600087803b158015611b6957600080fd5b505af1925050508015611b9a57506040513d601f19601f82011682018060405250810190611b97919061219e565b60015b611c1d573d8060008114611bca576040519150601f19603f3d011682016040523d82523d6000602084013e611bcf565b606091505b50600081511415611c15576040517f08c379a0000000000000000000000000000000000000000000000000000000008152600401611c0c90612651565b60405180910390fd5b805181602001fd5b63150b7a0260e01b7bffffffffffffffffffffffffffffffffffffffffffffffffffffffff1916817bffffffffffffffffffffffffffffffffffffffffffffffffffffffff191614915050611c72565b600190505b949350505050565b600073ffffffffffffffffffffffffffffffffffffffff168273ffffffffffffffffffffffffffffffffffffffff161415611cea576040517f08c379a0000000000000000000000000000000000000000000000000000000008152600401611ce190612791565b60405180910390fd5b611cf381611255565b15611d33576040517f08c379a0000000000000000000000000000000000000000000000000000000008152600401611d2a90612691565b60405180910390fd5b611d3f60008383611a5a565b6001600460008473ffffffffffffffffffffffffffffffffffffffff1673ffffffffffffffffffffffffffffffffffffffff1681526020019081526020016000206000828254611d8f9190612965565b92505081905550816003600083815260200190815260200160002060006101000a81548173ffffffffffffffffffffffffffffffffffffffff021916908373ffffffffffffffffffffffffffffffffffffffff160217905550808273ffffffffffffffffffffffffffffffffffffffff16600073ffffffffffffffffffffffffffffffffffffffff167fddf252ad1be2c89b69c2b068fc378daa952ba7f163c4a11628f55a4df523b3ef60405160405180910390a45050565b600080823b905060008111915050919050565b6000611e6e611e69846128f1565b6128cc565b905082815260208101848484011115611e8657600080fd5b611e91848285612aa1565b509392505050565b600081359050611ea8816131b0565b92915050565b600081359050611ebd816131c7565b92915050565b600081359050611ed2816131de565b92915050565b600081519050611ee7816131de565b92915050565b600082601f830112611efe57600080fd5b8135611f0e848260208601611e5b565b91505092915050565b60008083601f840112611f2957600080fd5b8235905067ffffffffffffffff811115611f4257600080fd5b602083019150836001820283011115611f5a57600080fd5b9250929050565b600081359050611f70816131f5565b92915050565b600060208284031215611f8857600080fd5b6000611f9684828501611e99565b91505092915050565b60008060408385031215611fb257600080fd5b6000611fc085828601611e99565b9250506020611fd185828601611e99565b9150509250929050565b600080600060608486031215611ff057600080fd5b6000611ffe86828701611e99565b935050602061200f86828701611e99565b925050604061202086828701611f61565b9150509250925092565b6000806000806080858703121561204057600080fd5b600061204e87828801611e99565b945050602061205f87828801611e99565b935050604061207087828801611f61565b925050606085013567ffffffffffffffff81111561208d57600080fd5b61209987828801611eed565b91505092959194509250565b600080604083850312156120b857600080fd5b60006120c685828601611e99565b92505060206120d785828601611eae565b9150509250929050565b6000806000604084860312156120f657600080fd5b600061210486828701611e99565b935050602084013567ffffffffffffffff81111561212157600080fd5b61212d86828701611f17565b92509250509250925092565b6000806040838503121561214c57600080fd5b600061215a85828601611e99565b925050602061216b85828601611f61565b9150509250929050565b60006020828403121561218757600080fd5b600061219584828501611ec3565b91505092915050565b6000602082840312156121b057600080fd5b60006121be84828501611ed8565b91505092915050565b6000602082840312156121d957600080fd5b60006121e784828501611f61565b91505092915050565b6121f981612a20565b82525050565b61220881612a32565b82525050565b600061221982612922565b6122238185612938565b9350612233818560208601612ab0565b61223c81612ca6565b840191505092915050565b60006122528261292d565b61225c8185612949565b935061226c818560208601612ab0565b61227581612ca6565b840191505092915050565b600061228b8261292d565b612295818561295a565b93506122a5818560208601612ab0565b80840191505092915050565b60006122be603283612949565b91506122c982612cb7565b604082019050919050565b60006122e1602683612949565b91506122ec82612d06565b604082019050919050565b6000612304601c83612949565b915061230f82612d55565b602082019050919050565b6000612327602483612949565b915061233282612d7e565b604082019050919050565b600061234a601983612949565b915061235582612dcd565b602082019050919050565b600061236d602c83612949565b915061237882612df6565b604082019050919050565b6000612390603883612949565b915061239b82612e45565b604082019050919050565b60006123b3601c83612949565b91506123be82612e94565b602082019050919050565b60006123d6602a83612949565b91506123e182612ebd565b604082019050919050565b60006123f9602983612949565b915061240482612f0c565b604082019050919050565b600061241c602083612949565b915061242782612f5b565b602082019050919050565b600061243f602c83612949565b915061244a82612f84565b604082019050919050565b6000612462602083612949565b915061246d82612fd3565b602082019050919050565b6000612485602383612949565b915061249082612ffc565b604082019050919050565b60006124a8602983612949565b91506124b38261304b565b604082019050919050565b60006124cb602f83612949565b91506124d68261309a565b604082019050919050565b60006124ee602183612949565b91506124f9826130e9565b604082019050919050565b6000612511603183612949565b915061251c82613138565b604082019050919050565b6000612534601d83612949565b915061253f82613187565b602082019050919050565b61255381612a8a565b82525050565b60006125658285612280565b91506125718284612280565b91508190509392505050565b600060208201905061259260008301846121f0565b92915050565b60006080820190506125ad60008301876121f0565b6125ba60208301866121f0565b6125c7604083018561254a565b81810360608301526125d9818461220e565b905095945050505050565b60006020820190506125f960008301846121ff565b92915050565b600060208201905081810360008301526126198184612247565b905092915050565b6000604082019050818103600083015261263b8185612247565b905061264a60208301846121f0565b9392505050565b6000602082019050818103600083015261266a816122b1565b9050919050565b6000602082019050818103600083015261268a816122d4565b9050919050565b600060208201905081810360008301526126aa816122f7565b9050919050565b600060208201905081810360008301526126ca8161231a565b9050919050565b600060208201905081810360008301526126ea8161233d565b9050919050565b6000602082019050818103600083015261270a81612360565b9050919050565b6000602082019050818103600083015261272a81612383565b9050919050565b6000602082019050818103600083015261274a816123a6565b9050919050565b6000602082019050818103600083015261276a816123c9565b9050919050565b6000602082019050818103600083015261278a816123ec565b9050919050565b600060208201905081810360008301526127aa8161240f565b9050919050565b600060208201905081810360008301526127ca81612432565b9050919050565b600060208201905081810360008301526127ea81612455565b9050919050565b6000602082019050818103600083015261280a81612478565b9050919050565b6000602082019050818103600083015261282a8161249b565b9050919050565b6000602082019050818103600083015261284a816124be565b9050919050565b6000602082019050818103600083015261286a816124e1565b9050919050565b6000602082019050818103600083015261288a81612504565b9050919050565b600060208201905081810360008301526128aa81612527565b9050919050565b60006020820190506128c6600083018461254a565b92915050565b60006128d66128e7565b90506128e28282612b15565b919050565b6000604051905090565b600067ffffffffffffffff82111561290c5761290b612c77565b5b61291582612ca6565b9050602081019050919050565b600081519050919050565b600081519050919050565b600082825260208201905092915050565b600082825260208201905092915050565b600081905092915050565b600061297082612a8a565b915061297b83612a8a565b9250827fffffffffffffffffffffffffffffffffffffffffffffffffffffffffffffffff038211156129b0576129af612bea565b5b828201905092915050565b60006129c682612a8a565b91506129d183612a8a565b9250826129e1576129e0612c19565b5b828204905092915050565b60006129f782612a8a565b9150612a0283612a8a565b925082821015612a1557612a14612bea565b5b828203905092915050565b6000612a2b82612a6a565b9050919050565b60008115159050919050565b60007fffffffff0000000000000000000000000000000000000000000000000000000082169050919050565b600073ffffffffffffffffffffffffffffffffffffffff82169050919050565b6000819050919050565b600060ff82169050919050565b82818337600083830152505050565b60005b83811015612ace578082015181840152602081019050612ab3565b83811115612add576000848401525b50505050565b60006002820490506001821680612afb57607f821691505b60208210811415612b0f57612b0e612c48565b5b50919050565b612b1e82612ca6565b810181811067ffffffffffffffff82111715612b3d57612b3c612c77565b5b80604052505050565b6000612b5182612a8a565b91507fffffffffffffffffffffffffffffffffffffffffffffffffffffffffffffffff821415612b8457612b83612bea565b5b600182019050919050565b6000612b9a82612a94565b915060ff821415612bae57612bad612bea565b5b600182019050919050565b6000612bc482612a8a565b9150612bcf83612a8a565b925082612bdf57612bde612c19565b5b828206905092915050565b7f4e487b7100000000000000000000000000000000000000000000000000000000600052601160045260246000fd5b7f4e487b7100000000000000000000000000000000000000000000000000000000600052601260045260246000fd5b7f4e487b7100000000000000000000000000000000000000000000000000000000600052602260045260246000fd5b7f4e487b7100000000000000000000000000000000000000000000000000000000600052604160045260246000fd5b6000601f19601f8301169050919050565b7f4552433732313a207472616e7366657220746f206e6f6e20455243373231526560008201527f63656976657220696d706c656d656e7465720000000000000000000000000000602082015250565b7f4f776e61626c653a206e6577206f776e657220697320746865207a65726f206160008201527f6464726573730000000000000000000000000000000000000000000000000000602082015250565b7f4552433732313a20746f6b656e20616c7265616479206d696e74656400000000600082015250565b7f4552433732313a207472616e7366657220746f20746865207a65726f2061646460008201527f7265737300000000000000000000000000000000000000000000000000000000602082015250565b7f4552433732313a20617070726f766520746f2063616c6c657200000000000000600082015250565b7f4552433732313a206f70657261746f7220717565727920666f72206e6f6e657860008201527f697374656e7420746f6b656e0000000000000000000000000000000000000000602082015250565b7f4552433732313a20617070726f76652063616c6c6572206973206e6f74206f7760008201527f6e6572206e6f7220617070726f76656420666f7220616c6c0000000000000000602082015250565b7f616c6c2068656c6d732068617665206265656e20636f6e6a7572656400000000600082015250565b7f4552433732313a2062616c616e636520717565727920666f7220746865207a6560008201527f726f206164647265737300000000000000000000000000000000000000000000602082015250565b7f4552433732313a206f776e657220717565727920666f72206e6f6e657869737460008201527f656e7420746f6b656e0000000000000000000000000000000000000000000000602082015250565b7f4552433732313a206d696e7420746f20746865207a65726f2061646472657373600082015250565b7f4552433732313a20617070726f76656420717565727920666f72206e6f6e657860008201527f697374656e7420746f6b656e0000000000000000000000000000000000000000602082015250565b7f4f776e61626c653a2063616c6c6572206973206e6f7420746865206f776e6572600082015250565b7f6e6f7420656e6f75676820657468657220746f20636f6e6a757265206120736860008201527f6172640000000000000000000000000000000000000000000000000000000000602082015250565b7f4552433732313a207472616e73666572206f6620746f6b656e2074686174206960008201527f73206e6f74206f776e0000000000000000000000000000000000000000000000602082015250565b7f4552433732314d657461646174613a2055524920717565727920666f72206e6f60008201527f6e6578697374656e7420746f6b656e0000000000000000000000000000000000602082015250565b7f4552433732313a20617070726f76616c20746f2063757272656e74206f776e6560008201527f7200000000000000000000000000000000000000000000000000000000000000602082015250565b7f4552433732313a207472616e736665722063616c6c6572206973206e6f74206f60008201527f776e6572206e6f7220617070726f766564000000000000000000000000000000602082015250565b7f616c6c207368617264732068617665206265656e20636f6e6a75726564000000600082015250565b6131b981612a20565b81146131c457600080fd5b50565b6131d081612a32565b81146131db57600080fd5b50565b6131e781612a3e565b81146131f257600080fd5b50565b6131fe81612a8a565b811461320957600080fd5b5056fea264697066735822122039e2ce83040a9e17f0d155d4900dd8531ccebe8d4831de34897bbcea8dfb46b164736f6c63430008040033",
  "devdoc": {
    "kind": "dev",
    "methods": {
      "approve(address,uint256)": {
        "details": "See {IERC721-approve}."
      },
      "balanceOf(address)": {
        "details": "See {IERC721-balanceOf}."
      },
      "getApproved(uint256)": {
        "details": "See {IERC721-getApproved}."
      },
      "isApprovedForAll(address,address)": {
        "details": "See {IERC721-isApprovedForAll}."
      },
      "name()": {
        "details": "See {IERC721Metadata-name}."
      },
      "owner()": {
        "details": "Returns the address of the current owner."
      },
      "ownerOf(uint256)": {
        "details": "See {IERC721-ownerOf}."
      },
      "renounceOwnership()": {
        "details": "Leaves the contract without owner. It will not be possible to call `onlyOwner` functions anymore. Can only be called by the current owner. NOTE: Renouncing ownership will leave the contract without an owner, thereby removing any functionality that is only available to the owner."
      },
      "safeTransferFrom(address,address,uint256)": {
        "details": "See {IERC721-safeTransferFrom}."
      },
      "safeTransferFrom(address,address,uint256,bytes)": {
        "details": "See {IERC721-safeTransferFrom}."
      },
      "setApprovalForAll(address,bool)": {
        "details": "See {IERC721-setApprovalForAll}."
      },
      "supportsInterface(bytes4)": {
        "details": "See {IERC165-supportsInterface}."
      },
      "symbol()": {
        "details": "See {IERC721Metadata-symbol}."
      },
      "tokenURI(uint256)": {
        "details": "See {IERC721Metadata-tokenURI}."
      },
      "transferFrom(address,address,uint256)": {
        "details": "See {IERC721-transferFrom}."
      },
      "transferOwnership(address)": {
        "details": "Transfers ownership of the contract to a new account (`newOwner`). Can only be called by the current owner."
      }
    },
    "version": 1
  },
  "userdoc": {
    "kind": "user",
    "methods": {},
    "version": 1
  },
  "storageLayout": {
    "storage": [
      {
        "astId": 7,
        "contract": "contracts/Artifacts.sol:Artifacts",
        "label": "_owner",
        "offset": 0,
        "slot": "0",
        "type": "t_address"
      },
      {
        "astId": 129,
        "contract": "contracts/Artifacts.sol:Artifacts",
        "label": "_name",
        "offset": 0,
        "slot": "1",
        "type": "t_string_storage"
      },
      {
        "astId": 131,
        "contract": "contracts/Artifacts.sol:Artifacts",
        "label": "_symbol",
        "offset": 0,
        "slot": "2",
        "type": "t_string_storage"
      },
      {
        "astId": 135,
        "contract": "contracts/Artifacts.sol:Artifacts",
        "label": "_owners",
        "offset": 0,
        "slot": "3",
        "type": "t_mapping(t_uint256,t_address)"
      },
      {
        "astId": 139,
        "contract": "contracts/Artifacts.sol:Artifacts",
        "label": "_balances",
        "offset": 0,
        "slot": "4",
        "type": "t_mapping(t_address,t_uint256)"
      },
      {
        "astId": 143,
        "contract": "contracts/Artifacts.sol:Artifacts",
        "label": "_tokenApprovals",
        "offset": 0,
        "slot": "5",
        "type": "t_mapping(t_uint256,t_address)"
      },
      {
        "astId": 149,
        "contract": "contracts/Artifacts.sol:Artifacts",
        "label": "_operatorApprovals",
        "offset": 0,
        "slot": "6",
        "type": "t_mapping(t_address,t_mapping(t_address,t_bool))"
      },
      {
        "astId": 1661,
        "contract": "contracts/Artifacts.sol:Artifacts",
        "label": "helmsConjured",
        "offset": 0,
        "slot": "7",
        "type": "t_uint8"
      },
      {
        "astId": 1664,
        "contract": "contracts/Artifacts.sol:Artifacts",
        "label": "shardsConjured",
        "offset": 0,
        "slot": "8",
        "type": "t_uint256"
      }
    ],
    "types": {
      "t_address": {
        "encoding": "inplace",
        "label": "address",
        "numberOfBytes": "20"
      },
      "t_bool": {
        "encoding": "inplace",
        "label": "bool",
        "numberOfBytes": "1"
      },
      "t_mapping(t_address,t_bool)": {
        "encoding": "mapping",
        "key": "t_address",
        "label": "mapping(address => bool)",
        "numberOfBytes": "32",
        "value": "t_bool"
      },
      "t_mapping(t_address,t_mapping(t_address,t_bool))": {
        "encoding": "mapping",
        "key": "t_address",
        "label": "mapping(address => mapping(address => bool))",
        "numberOfBytes": "32",
        "value": "t_mapping(t_address,t_bool)"
      },
      "t_mapping(t_address,t_uint256)": {
        "encoding": "mapping",
        "key": "t_address",
        "label": "mapping(address => uint256)",
        "numberOfBytes": "32",
        "value": "t_uint256"
      },
      "t_mapping(t_uint256,t_address)": {
        "encoding": "mapping",
        "key": "t_uint256",
        "label": "mapping(uint256 => address)",
        "numberOfBytes": "32",
        "value": "t_address"
      },
      "t_string_storage": {
        "encoding": "bytes",
        "label": "string",
        "numberOfBytes": "32"
      },
      "t_uint256": {
        "encoding": "inplace",
        "label": "uint256",
        "numberOfBytes": "32"
      },
      "t_uint8": {
        "encoding": "inplace",
        "label": "uint8",
        "numberOfBytes": "1"
      }
    }
  }
}