{
  "address": "0x0B306BF915C4d645ff596e518fAf3F9669b97016",
  "abi": [
    {
      "inputs": [],
      "stateMutability": "nonpayable",
      "type": "constructor"
    },
    {
      "anonymous": false,
      "inputs": [
        {
          "indexed": true,
          "internalType": "address",
          "name": "owner",
          "type": "address"
        },
        {
          "indexed": true,
          "internalType": "address",
          "name": "approved",
          "type": "address"
        },
        {
          "indexed": true,
          "internalType": "uint256",
          "name": "tokenId",
          "type": "uint256"
        }
      ],
      "name": "Approval",
      "type": "event"
    },
    {
      "anonymous": false,
      "inputs": [
        {
          "indexed": true,
          "internalType": "address",
          "name": "owner",
          "type": "address"
        },
        {
          "indexed": true,
          "internalType": "address",
          "name": "operator",
          "type": "address"
        },
        {
          "indexed": false,
          "internalType": "bool",
          "name": "approved",
          "type": "bool"
        }
      ],
      "name": "ApprovalForAll",
      "type": "event"
    },
    {
      "anonymous": false,
      "inputs": [
        {
          "indexed": true,
          "internalType": "address",
          "name": "previousOwner",
          "type": "address"
        },
        {
          "indexed": true,
          "internalType": "address",
          "name": "newOwner",
          "type": "address"
        }
      ],
      "name": "OwnershipTransferred",
      "type": "event"
    },
    {
      "anonymous": false,
      "inputs": [
        {
          "indexed": true,
          "internalType": "address",
          "name": "from",
          "type": "address"
        },
        {
          "indexed": true,
          "internalType": "address",
          "name": "to",
          "type": "address"
        },
        {
          "indexed": true,
          "internalType": "uint256",
          "name": "tokenId",
          "type": "uint256"
        }
      ],
      "name": "Transfer",
      "type": "event"
    },
    {
      "inputs": [
        {
          "internalType": "address",
          "name": "to",
          "type": "address"
        },
        {
          "internalType": "uint256",
          "name": "tokenId",
          "type": "uint256"
        }
      ],
      "name": "approve",
      "outputs": [],
      "stateMutability": "nonpayable",
      "type": "function"
    },
    {
      "inputs": [
        {
          "internalType": "address",
          "name": "owner",
          "type": "address"
        }
      ],
      "name": "balanceOf",
      "outputs": [
        {
          "internalType": "uint256",
          "name": "",
          "type": "uint256"
        }
      ],
      "stateMutability": "view",
      "type": "function"
    },
    {
      "inputs": [],
      "name": "conjureHelm",
      "outputs": [],
      "stateMutability": "payable",
      "type": "function"
    },
    {
      "inputs": [],
      "name": "conjureShard",
      "outputs": [],
      "stateMutability": "payable",
      "type": "function"
    },
    {
      "inputs": [
        {
          "internalType": "uint256",
          "name": "tokenId",
          "type": "uint256"
        }
      ],
      "name": "getApproved",
      "outputs": [
        {
          "internalType": "address",
          "name": "",
          "type": "address"
        }
      ],
      "stateMutability": "view",
      "type": "function"
    },
    {
      "inputs": [
        {
          "internalType": "address",
          "name": "_adventurer",
          "type": "address"
        },
        {
          "internalType": "string",
          "name": "",
          "type": "string"
        }
      ],
      "name": "hasHelm",
      "outputs": [
        {
          "internalType": "bool",
          "name": "",
          "type": "bool"
        }
      ],
      "stateMutability": "view",
      "type": "function"
    },
    {
      "inputs": [
        {
          "internalType": "address",
          "name": "owner",
          "type": "address"
        },
        {
          "internalType": "address",
          "name": "operator",
          "type": "address"
        }
      ],
      "name": "isApprovedForAll",
      "outputs": [
        {
          "internalType": "bool",
          "name": "",
          "type": "bool"
        }
      ],
      "stateMutability": "view",
      "type": "function"
    },
    {
      "inputs": [],
      "name": "name",
      "outputs": [
        {
          "internalType": "string",
          "name": "",
          "type": "string"
        }
      ],
      "stateMutability": "view",
      "type": "function"
    },
    {
      "inputs": [],
      "name": "nextHelmPrice",
      "outputs": [
        {
          "internalType": "uint256",
          "name": "",
          "type": "uint256"
        }
      ],
      "stateMutability": "pure",
      "type": "function"
    },
    {
      "inputs": [],
      "name": "nextShardPrice",
      "outputs": [
        {
          "internalType": "uint256",
          "name": "",
          "type": "uint256"
        }
      ],
      "stateMutability": "pure",
      "type": "function"
    },
    {
      "inputs": [],
      "name": "owner",
      "outputs": [
        {
          "internalType": "address",
          "name": "",
          "type": "address"
        }
      ],
      "stateMutability": "view",
      "type": "function"
    },
    {
      "inputs": [],
      "name": "ownerClaim",
      "outputs": [],
      "stateMutability": "nonpayable",
      "type": "function"
    },
    {
      "inputs": [
        {
          "internalType": "uint256",
          "name": "tokenId",
          "type": "uint256"
        }
      ],
      "name": "ownerOf",
      "outputs": [
        {
          "internalType": "address",
          "name": "",
          "type": "address"
        }
      ],
      "stateMutability": "view",
      "type": "function"
    },
    {
      "inputs": [],
      "name": "renounceOwnership",
      "outputs": [],
      "stateMutability": "nonpayable",
      "type": "function"
    },
    {
      "inputs": [
        {
          "internalType": "address",
          "name": "from",
          "type": "address"
        },
        {
          "internalType": "address",
          "name": "to",
          "type": "address"
        },
        {
          "internalType": "uint256",
          "name": "tokenId",
          "type": "uint256"
        }
      ],
      "name": "safeTransferFrom",
      "outputs": [],
      "stateMutability": "nonpayable",
      "type": "function"
    },
    {
      "inputs": [
        {
          "internalType": "address",
          "name": "from",
          "type": "address"
        },
        {
          "internalType": "address",
          "name": "to",
          "type": "address"
        },
        {
          "internalType": "uint256",
          "name": "tokenId",
          "type": "uint256"
        },
        {
          "internalType": "bytes",
          "name": "_data",
          "type": "bytes"
        }
      ],
      "name": "safeTransferFrom",
      "outputs": [],
      "stateMutability": "nonpayable",
      "type": "function"
    },
    {
      "inputs": [
        {
          "internalType": "address",
          "name": "operator",
          "type": "address"
        },
        {
          "internalType": "bool",
          "name": "approved",
          "type": "bool"
        }
      ],
      "name": "setApprovalForAll",
      "outputs": [],
      "stateMutability": "nonpayable",
      "type": "function"
    },
    {
      "inputs": [
        {
          "internalType": "bytes4",
          "name": "interfaceId",
          "type": "bytes4"
        }
      ],
      "name": "supportsInterface",
      "outputs": [
        {
          "internalType": "bool",
          "name": "",
          "type": "bool"
        }
      ],
      "stateMutability": "view",
      "type": "function"
    },
    {
      "inputs": [],
      "name": "symbol",
      "outputs": [
        {
          "internalType": "string",
          "name": "",
          "type": "string"
        }
      ],
      "stateMutability": "view",
      "type": "function"
    },
    {
      "inputs": [
        {
          "internalType": "uint256",
          "name": "tokenId",
          "type": "uint256"
        }
      ],
      "name": "tokenURI",
      "outputs": [
        {
          "internalType": "string",
          "name": "",
          "type": "string"
        }
      ],
      "stateMutability": "view",
      "type": "function"
    },
    {
      "inputs": [
        {
          "internalType": "address",
          "name": "from",
          "type": "address"
        },
        {
          "internalType": "address",
          "name": "to",
          "type": "address"
        },
        {
          "internalType": "uint256",
          "name": "tokenId",
          "type": "uint256"
        }
      ],
      "name": "transferFrom",
      "outputs": [],
      "stateMutability": "nonpayable",
      "type": "function"
    },
    {
      "inputs": [
        {
          "internalType": "address",
          "name": "newOwner",
          "type": "address"
        }
      ],
      "name": "transferOwnership",
      "outputs": [],
      "stateMutability": "nonpayable",
      "type": "function"
    }
  ],
  "transactionHash": "0x119959a19814f113dac752f04beee3979a1f645d2aeee762034715c785f37c8e",
  "args": [],
  "solcInputHash": "fe22cbaaa4b792127f4487b6c0e7d963",
  "bytecode": "0x60806040526000600760006101000a81548160ff021916908360ff16021790555060006008553480156200003257600080fd5b506040518060400160405280601481526020017f53746f726d57696e6473204172746966616374730000000000000000000000008152506040518060400160405280600581526020017f53544f524d000000000000000000000000000000000000000000000000000000815250620000bf620000b3620000f960201b60201c565b6200010160201b60201c565b8160019080519060200190620000d7929190620001c5565b508060029080519060200190620000f0929190620001c5565b505050620002da565b600033905090565b60008060009054906101000a900473ffffffffffffffffffffffffffffffffffffffff169050816000806101000a81548173ffffffffffffffffffffffffffffffffffffffff021916908373ffffffffffffffffffffffffffffffffffffffff1602179055508173ffffffffffffffffffffffffffffffffffffffff168173ffffffffffffffffffffffffffffffffffffffff167f8be0079c531659141344cd1fd0a4f28419497f9722a3daafe3b4186f6b6457e060405160405180910390a35050565b828054620001d39062000275565b90600052602060002090601f016020900481019282620001f7576000855562000243565b82601f106200021257805160ff191683800117855562000243565b8280016001018555821562000243579182015b828111156200024257825182559160200191906001019062000225565b5b50905062000252919062000256565b5090565b5b808211156200027157600081600090555060010162000257565b5090565b600060028204905060018216806200028e57607f821691505b60208210811415620002a557620002a4620002ab565b5b50919050565b7f4e487b7100000000000000000000000000000000000000000000000000000000600052602260045260246000fd5b6132e480620002ea6000396000f3fe6080604052600436106101355760003560e01c8063715018a6116100ab578063b88d4fde1161006f578063b88d4fde146103f3578063c87b56dd1461041c578063e669024314610459578063e7a22d0114610463578063e985e9c51461048e578063f2fde38b146104cb57610135565b8063715018a6146103535780638da5cb5b1461036a57806395d89b4114610395578063a22cb465146103c0578063aca8d458146103e957610135565b806324845721116100fd578063248457211461023157806342842e0e1461026e5780634414adb0146102975780634dbe5889146102c25780636352211e146102d957806370a082311461031657610135565b806301ffc9a71461013a57806306fdde0314610177578063081812fc146101a2578063095ea7b3146101df57806323b872dd14610208575b600080fd5b34801561014657600080fd5b50610161600480360381019061015c91906121ab565b6104f4565b60405161016e919061263d565b60405180910390f35b34801561018357600080fd5b5061018c6105d6565b6040516101999190612658565b60405180910390f35b3480156101ae57600080fd5b506101c960048036038101906101c491906121fd565b610668565b6040516101d691906125d6565b60405180910390f35b3480156101eb57600080fd5b506102066004803603810190610201919061216f565b6106ed565b005b34801561021457600080fd5b5061022f600480360381019061022a9190612011565b610805565b005b34801561023d57600080fd5b5061025860048036038101906102539190612117565b610865565b604051610265919061263d565b60405180910390f35b34801561027a57600080fd5b5061029560048036038101906102909190612011565b61087b565b005b3480156102a357600080fd5b506102ac61089b565b6040516102b9919061292a565b60405180910390f35b3480156102ce57600080fd5b506102d76108ab565b005b3480156102e557600080fd5b5061030060048036038101906102fb91906121fd565b610942565b60405161030d91906125d6565b60405180910390f35b34801561032257600080fd5b5061033d60048036038101906103389190611fac565b6109f4565b60405161034a919061292a565b60405180910390f35b34801561035f57600080fd5b50610368610aac565b005b34801561037657600080fd5b5061037f610b34565b60405161038c91906125d6565b60405180910390f35b3480156103a157600080fd5b506103aa610b5d565b6040516103b79190612658565b60405180910390f35b3480156103cc57600080fd5b506103e760048036038101906103e291906120db565b610bef565b005b6103f1610d70565b005b3480156103ff57600080fd5b5061041a60048036038101906104159190612060565b610ea7565b005b34801561042857600080fd5b50610443600480360381019061043e91906121fd565b610f09565b6040516104509190612658565b60405180910390f35b610461610fb0565b005b34801561046f57600080fd5b50610478611085565b604051610485919061292a565b60405180910390f35b34801561049a57600080fd5b506104b560048036038101906104b09190611fd5565b611095565b6040516104c2919061263d565b60405180910390f35b3480156104d757600080fd5b506104f260048036038101906104ed9190611fac565b611129565b005b60007f80ac58cd000000000000000000000000000000000000000000000000000000007bffffffffffffffffffffffffffffffffffffffffffffffffffffffff1916827bffffffffffffffffffffffffffffffffffffffffffffffffffffffff191614806105bf57507f5b5e139f000000000000000000000000000000000000000000000000000000007bffffffffffffffffffffffffffffffffffffffffffffffffffffffff1916827bffffffffffffffffffffffffffffffffffffffffffffffffffffffff1916145b806105cf57506105ce82611221565b5b9050919050565b6060600180546105e590612b5c565b80601f016020809104026020016040519081016040528092919081815260200182805461061190612b5c565b801561065e5780601f106106335761010080835404028352916020019161065e565b820191906000526020600020905b81548152906001019060200180831161064157829003601f168201915b5050505050905090565b60006106738261128b565b6106b2576040517f08c379a00000000000000000000000000000000000000000000000000000000081526004016106a99061280a565b60405180910390fd5b6005600083815260200190815260200160002060009054906101000a900473ffffffffffffffffffffffffffffffffffffffff169050919050565b60006106f882610942565b90508073ffffffffffffffffffffffffffffffffffffffff168373ffffffffffffffffffffffffffffffffffffffff161415610769576040517f08c379a0000000000000000000000000000000000000000000000000000000008152600401610760906128aa565b60405180910390fd5b8073ffffffffffffffffffffffffffffffffffffffff166107886112f7565b73ffffffffffffffffffffffffffffffffffffffff1614806107b757506107b6816107b16112f7565b611095565b5b6107f6576040517f08c379a00000000000000000000000000000000000000000000000000000000081526004016107ed9061276a565b60405180910390fd5b61080083836112ff565b505050565b6108166108106112f7565b826113b8565b610855576040517f08c379a000000000000000000000000000000000000000000000000000000000815260040161084c906128ea565b60405180910390fd5b610860838383611496565b505050565b600080610871856109f4565b1190509392505050565b61089683838360405180602001604052806000815250610ea7565b505050565b6000670de0b6b3a7640000905090565b6108b36112f7565b73ffffffffffffffffffffffffffffffffffffffff166108d1610b34565b73ffffffffffffffffffffffffffffffffffffffff1614610927576040517f08c379a000000000000000000000000000000000000000000000000000000000815260040161091e9061282a565b60405180910390fd5b6109323360006116f2565b61094033601060ff166116f2565b565b6000806003600084815260200190815260200160002060009054906101000a900473ffffffffffffffffffffffffffffffffffffffff169050600073ffffffffffffffffffffffffffffffffffffffff168173ffffffffffffffffffffffffffffffffffffffff1614156109eb576040517f08c379a00000000000000000000000000000000000000000000000000000000081526004016109e2906127ca565b60405180910390fd5b80915050919050565b60008073ffffffffffffffffffffffffffffffffffffffff168273ffffffffffffffffffffffffffffffffffffffff161415610a65576040517f08c379a0000000000000000000000000000000000000000000000000000000008152600401610a5c906127aa565b60405180910390fd5b600460008373ffffffffffffffffffffffffffffffffffffffff1673ffffffffffffffffffffffffffffffffffffffff168152602001908152602001600020549050919050565b610ab46112f7565b73ffffffffffffffffffffffffffffffffffffffff16610ad2610b34565b73ffffffffffffffffffffffffffffffffffffffff1614610b28576040517f08c379a0000000000000000000000000000000000000000000000000000000008152600401610b1f9061282a565b60405180910390fd5b610b326000611710565b565b60008060009054906101000a900473ffffffffffffffffffffffffffffffffffffffff16905090565b606060028054610b6c90612b5c565b80601f0160208091040260200160405190810160405280929190818152602001828054610b9890612b5c565b8015610be55780601f10610bba57610100808354040283529160200191610be5565b820191906000526020600020905b815481529060010190602001808311610bc857829003601f168201915b5050505050905090565b610bf76112f7565b73ffffffffffffffffffffffffffffffffffffffff168273ffffffffffffffffffffffffffffffffffffffff161415610c65576040517f08c379a0000000000000000000000000000000000000000000000000000000008152600401610c5c9061272a565b60405180910390fd5b8060066000610c726112f7565b73ffffffffffffffffffffffffffffffffffffffff1673ffffffffffffffffffffffffffffffffffffffff16815260200190815260200160002060008473ffffffffffffffffffffffffffffffffffffffff1673ffffffffffffffffffffffffffffffffffffffff16815260200190815260200160002060006101000a81548160ff0219169083151502179055508173ffffffffffffffffffffffffffffffffffffffff16610d1f6112f7565b73ffffffffffffffffffffffffffffffffffffffff167f17307eab39ab6107e8899845ad3d59bd9653f200f220920489ca2b5937696c3183604051610d64919061263d565b60405180910390a35050565b601060ff16600760009054906101000a900460ff1660ff1610610dc8576040517f08c379a0000000000000000000000000000000000000000000000000000000008152600401610dbf9061278a565b60405180910390fd5b610dd061089b565b341015610e12576040517f08c379a0000000000000000000000000000000000000000000000000000000008152600401610e09906128ca565b60405180910390fd5b610e2e33600760009054906101000a900460ff1660ff166116f2565b610e6d6040518060400160405280601281526020017f436f6e6a757265642068656c6d20666f72200000000000000000000000000000815250336117d4565b6007600081819054906101000a900460ff1680929190610e8c90612c08565b91906101000a81548160ff021916908360ff16021790555050565b610eb8610eb26112f7565b836113b8565b610ef7576040517f08c379a0000000000000000000000000000000000000000000000000000000008152600401610eee906128ea565b60405180910390fd5b610f0384848484611870565b50505050565b6060610f148261128b565b610f53576040517f08c379a0000000000000000000000000000000000000000000000000000000008152600401610f4a9061288a565b60405180910390fd5b6000610f5d6118cc565b90506000815111610f7d5760405180602001604052806000815250610fa8565b80610f87846118e3565b604051602001610f989291906125b2565b6040516020818303038152906040525b915050919050565b6103e8600760009054906101000a900460ff1660ff1610611006576040517f08c379a0000000000000000000000000000000000000000000000000000000008152600401610ffd9061290a565b60405180910390fd5b61100e611085565b341015611050576040517f08c379a00000000000000000000000000000000000000000000000000000000081526004016110479061284a565b60405180910390fd5b61106b33600854601060ff1661106691906129de565b6116f2565b6008600081548092919061107e90612bbf565b9190505550565b60006702c68af0bb140000905090565b6000600660008473ffffffffffffffffffffffffffffffffffffffff1673ffffffffffffffffffffffffffffffffffffffff16815260200190815260200160002060008373ffffffffffffffffffffffffffffffffffffffff1673ffffffffffffffffffffffffffffffffffffffff16815260200190815260200160002060009054906101000a900460ff16905092915050565b6111316112f7565b73ffffffffffffffffffffffffffffffffffffffff1661114f610b34565b73ffffffffffffffffffffffffffffffffffffffff16146111a5576040517f08c379a000000000000000000000000000000000000000000000000000000000815260040161119c9061282a565b60405180910390fd5b600073ffffffffffffffffffffffffffffffffffffffff168173ffffffffffffffffffffffffffffffffffffffff161415611215576040517f08c379a000000000000000000000000000000000000000000000000000000000815260040161120c906126ca565b60405180910390fd5b61121e81611710565b50565b60007f01ffc9a7000000000000000000000000000000000000000000000000000000007bffffffffffffffffffffffffffffffffffffffffffffffffffffffff1916827bffffffffffffffffffffffffffffffffffffffffffffffffffffffff1916149050919050565b60008073ffffffffffffffffffffffffffffffffffffffff166003600084815260200190815260200160002060009054906101000a900473ffffffffffffffffffffffffffffffffffffffff1673ffffffffffffffffffffffffffffffffffffffff1614159050919050565b600033905090565b816005600083815260200190815260200160002060006101000a81548173ffffffffffffffffffffffffffffffffffffffff021916908373ffffffffffffffffffffffffffffffffffffffff160217905550808273ffffffffffffffffffffffffffffffffffffffff1661137283610942565b73ffffffffffffffffffffffffffffffffffffffff167f8c5be1e5ebec7d5bd14f71427d1e84f3dd0314c0f7b2291e5b200ac8c7c3b92560405160405180910390a45050565b60006113c38261128b565b611402576040517f08c379a00000000000000000000000000000000000000000000000000000000081526004016113f99061274a565b60405180910390fd5b600061140d83610942565b90508073ffffffffffffffffffffffffffffffffffffffff168473ffffffffffffffffffffffffffffffffffffffff16148061147c57508373ffffffffffffffffffffffffffffffffffffffff1661146484610668565b73ffffffffffffffffffffffffffffffffffffffff16145b8061148d575061148c8185611095565b5b91505092915050565b8273ffffffffffffffffffffffffffffffffffffffff166114b682610942565b73ffffffffffffffffffffffffffffffffffffffff161461150c576040517f08c379a00000000000000000000000000000000000000000000000000000000081526004016115039061286a565b60405180910390fd5b600073ffffffffffffffffffffffffffffffffffffffff168273ffffffffffffffffffffffffffffffffffffffff16141561157c576040517f08c379a00000000000000000000000000000000000000000000000000000000081526004016115739061270a565b60405180910390fd5b611587838383611a90565b6115926000826112ff565b6001600460008573ffffffffffffffffffffffffffffffffffffffff1673ffffffffffffffffffffffffffffffffffffffff16815260200190815260200160002060008282546115e29190612a65565b925050819055506001600460008473ffffffffffffffffffffffffffffffffffffffff1673ffffffffffffffffffffffffffffffffffffffff168152602001908152602001600020600082825461163991906129de565b92505081905550816003600083815260200190815260200160002060006101000a81548173ffffffffffffffffffffffffffffffffffffffff021916908373ffffffffffffffffffffffffffffffffffffffff160217905550808273ffffffffffffffffffffffffffffffffffffffff168473ffffffffffffffffffffffffffffffffffffffff167fddf252ad1be2c89b69c2b068fc378daa952ba7f163c4a11628f55a4df523b3ef60405160405180910390a4505050565b61170c828260405180602001604052806000815250611a95565b5050565b60008060009054906101000a900473ffffffffffffffffffffffffffffffffffffffff169050816000806101000a81548173ffffffffffffffffffffffffffffffffffffffff021916908373ffffffffffffffffffffffffffffffffffffffff1602179055508173ffffffffffffffffffffffffffffffffffffffff168173ffffffffffffffffffffffffffffffffffffffff167f8be0079c531659141344cd1fd0a4f28419497f9722a3daafe3b4186f6b6457e060405160405180910390a35050565b61186c82826040516024016117ea92919061267a565b6040516020818303038152906040527f319af333000000000000000000000000000000000000000000000000000000007bffffffffffffffffffffffffffffffffffffffffffffffffffffffff19166020820180517bffffffffffffffffffffffffffffffffffffffffffffffffffffffff8381831617835250505050611af0565b5050565b61187b848484611496565b61188784848484611b19565b6118c6576040517f08c379a00000000000000000000000000000000000000000000000000000000081526004016118bd906126aa565b60405180910390fd5b50505050565b606060405180602001604052806000815250905090565b6060600082141561192b576040518060400160405280600181526020017f30000000000000000000000000000000000000000000000000000000000000008152509050611a8b565b600082905060005b6000821461195d57808061194690612bbf565b915050600a826119569190612a34565b9150611933565b60008167ffffffffffffffff81111561199f577f4e487b7100000000000000000000000000000000000000000000000000000000600052604160045260246000fd5b6040519080825280601f01601f1916602001820160405280156119d15781602001600182028036833780820191505090505b5090505b60008514611a84576001826119ea9190612a65565b9150600a856119f99190612c32565b6030611a0591906129de565b60f81b818381518110611a41577f4e487b7100000000000000000000000000000000000000000000000000000000600052603260045260246000fd5b60200101907effffffffffffffffffffffffffffffffffffffffffffffffffffffffffffff1916908160001a905350600a85611a7d9190612a34565b94506119d5565b8093505050505b919050565b505050565b611a9f8383611cb0565b611aac6000848484611b19565b611aeb576040517f08c379a0000000000000000000000000000000000000000000000000000000008152600401611ae2906126aa565b60405180910390fd5b505050565b60008151905060006a636f6e736f6c652e6c6f679050602083016000808483855afa5050505050565b6000611b3a8473ffffffffffffffffffffffffffffffffffffffff16611e7e565b15611ca3578373ffffffffffffffffffffffffffffffffffffffff1663150b7a02611b636112f7565b8786866040518563ffffffff1660e01b8152600401611b8594939291906125f1565b602060405180830381600087803b158015611b9f57600080fd5b505af1925050508015611bd057506040513d601f19601f82011682018060405250810190611bcd91906121d4565b60015b611c53573d8060008114611c00576040519150601f19603f3d011682016040523d82523d6000602084013e611c05565b606091505b50600081511415611c4b576040517f08c379a0000000000000000000000000000000000000000000000000000000008152600401611c42906126aa565b60405180910390fd5b805181602001fd5b63150b7a0260e01b7bffffffffffffffffffffffffffffffffffffffffffffffffffffffff1916817bffffffffffffffffffffffffffffffffffffffffffffffffffffffff191614915050611ca8565b600190505b949350505050565b600073ffffffffffffffffffffffffffffffffffffffff168273ffffffffffffffffffffffffffffffffffffffff161415611d20576040517f08c379a0000000000000000000000000000000000000000000000000000000008152600401611d17906127ea565b60405180910390fd5b611d298161128b565b15611d69576040517f08c379a0000000000000000000000000000000000000000000000000000000008152600401611d60906126ea565b60405180910390fd5b611d7560008383611a90565b6001600460008473ffffffffffffffffffffffffffffffffffffffff1673ffffffffffffffffffffffffffffffffffffffff1681526020019081526020016000206000828254611dc591906129de565b92505081905550816003600083815260200190815260200160002060006101000a81548173ffffffffffffffffffffffffffffffffffffffff021916908373ffffffffffffffffffffffffffffffffffffffff160217905550808273ffffffffffffffffffffffffffffffffffffffff16600073ffffffffffffffffffffffffffffffffffffffff167fddf252ad1be2c89b69c2b068fc378daa952ba7f163c4a11628f55a4df523b3ef60405160405180910390a45050565b600080823b905060008111915050919050565b6000611ea4611e9f8461296a565b612945565b905082815260208101848484011115611ebc57600080fd5b611ec7848285612b1a565b509392505050565b600081359050611ede81613252565b92915050565b600081359050611ef381613269565b92915050565b600081359050611f0881613280565b92915050565b600081519050611f1d81613280565b92915050565b600082601f830112611f3457600080fd5b8135611f44848260208601611e91565b91505092915050565b60008083601f840112611f5f57600080fd5b8235905067ffffffffffffffff811115611f7857600080fd5b602083019150836001820283011115611f9057600080fd5b9250929050565b600081359050611fa681613297565b92915050565b600060208284031215611fbe57600080fd5b6000611fcc84828501611ecf565b91505092915050565b60008060408385031215611fe857600080fd5b6000611ff685828601611ecf565b925050602061200785828601611ecf565b9150509250929050565b60008060006060848603121561202657600080fd5b600061203486828701611ecf565b935050602061204586828701611ecf565b925050604061205686828701611f97565b9150509250925092565b6000806000806080858703121561207657600080fd5b600061208487828801611ecf565b945050602061209587828801611ecf565b93505060406120a687828801611f97565b925050606085013567ffffffffffffffff8111156120c357600080fd5b6120cf87828801611f23565b91505092959194509250565b600080604083850312156120ee57600080fd5b60006120fc85828601611ecf565b925050602061210d85828601611ee4565b9150509250929050565b60008060006040848603121561212c57600080fd5b600061213a86828701611ecf565b935050602084013567ffffffffffffffff81111561215757600080fd5b61216386828701611f4d565b92509250509250925092565b6000806040838503121561218257600080fd5b600061219085828601611ecf565b92505060206121a185828601611f97565b9150509250929050565b6000602082840312156121bd57600080fd5b60006121cb84828501611ef9565b91505092915050565b6000602082840312156121e657600080fd5b60006121f484828501611f0e565b91505092915050565b60006020828403121561220f57600080fd5b600061221d84828501611f97565b91505092915050565b61222f81612a99565b82525050565b61223e81612aab565b82525050565b600061224f8261299b565b61225981856129b1565b9350612269818560208601612b29565b61227281612d1f565b840191505092915050565b6000612288826129a6565b61229281856129c2565b93506122a2818560208601612b29565b6122ab81612d1f565b840191505092915050565b60006122c1826129a6565b6122cb81856129d3565b93506122db818560208601612b29565b80840191505092915050565b60006122f46032836129c2565b91506122ff82612d30565b604082019050919050565b60006123176026836129c2565b915061232282612d7f565b604082019050919050565b600061233a601c836129c2565b915061234582612dce565b602082019050919050565b600061235d6024836129c2565b915061236882612df7565b604082019050919050565b60006123806019836129c2565b915061238b82612e46565b602082019050919050565b60006123a3602c836129c2565b91506123ae82612e6f565b604082019050919050565b60006123c66038836129c2565b91506123d182612ebe565b604082019050919050565b60006123e9601c836129c2565b91506123f482612f0d565b602082019050919050565b600061240c602a836129c2565b915061241782612f36565b604082019050919050565b600061242f6029836129c2565b915061243a82612f85565b604082019050919050565b60006124526020836129c2565b915061245d82612fd4565b602082019050919050565b6000612475602c836129c2565b915061248082612ffd565b604082019050919050565b60006124986020836129c2565b91506124a38261304c565b602082019050919050565b60006124bb6023836129c2565b91506124c682613075565b604082019050919050565b60006124de6029836129c2565b91506124e9826130c4565b604082019050919050565b6000612501602f836129c2565b915061250c82613113565b604082019050919050565b60006125246021836129c2565b915061252f82613162565b604082019050919050565b60006125476017836129c2565b9150612552826131b1565b602082019050919050565b600061256a6031836129c2565b9150612575826131da565b604082019050919050565b600061258d601d836129c2565b915061259882613229565b602082019050919050565b6125ac81612b03565b82525050565b60006125be82856122b6565b91506125ca82846122b6565b91508190509392505050565b60006020820190506125eb6000830184612226565b92915050565b60006080820190506126066000830187612226565b6126136020830186612226565b61262060408301856125a3565b81810360608301526126328184612244565b905095945050505050565b60006020820190506126526000830184612235565b92915050565b60006020820190508181036000830152612672818461227d565b905092915050565b60006040820190508181036000830152612694818561227d565b90506126a36020830184612226565b9392505050565b600060208201905081810360008301526126c3816122e7565b9050919050565b600060208201905081810360008301526126e38161230a565b9050919050565b600060208201905081810360008301526127038161232d565b9050919050565b6000602082019050818103600083015261272381612350565b9050919050565b6000602082019050818103600083015261274381612373565b9050919050565b6000602082019050818103600083015261276381612396565b9050919050565b60006020820190508181036000830152612783816123b9565b9050919050565b600060208201905081810360008301526127a3816123dc565b9050919050565b600060208201905081810360008301526127c3816123ff565b9050919050565b600060208201905081810360008301526127e381612422565b9050919050565b6000602082019050818103600083015261280381612445565b9050919050565b6000602082019050818103600083015261282381612468565b9050919050565b600060208201905081810360008301526128438161248b565b9050919050565b60006020820190508181036000830152612863816124ae565b9050919050565b60006020820190508181036000830152612883816124d1565b9050919050565b600060208201905081810360008301526128a3816124f4565b9050919050565b600060208201905081810360008301526128c381612517565b9050919050565b600060208201905081810360008301526128e38161253a565b9050919050565b600060208201905081810360008301526129038161255d565b9050919050565b6000602082019050818103600083015261292381612580565b9050919050565b600060208201905061293f60008301846125a3565b92915050565b600061294f612960565b905061295b8282612b8e565b919050565b6000604051905090565b600067ffffffffffffffff82111561298557612984612cf0565b5b61298e82612d1f565b9050602081019050919050565b600081519050919050565b600081519050919050565b600082825260208201905092915050565b600082825260208201905092915050565b600081905092915050565b60006129e982612b03565b91506129f483612b03565b9250827fffffffffffffffffffffffffffffffffffffffffffffffffffffffffffffffff03821115612a2957612a28612c63565b5b828201905092915050565b6000612a3f82612b03565b9150612a4a83612b03565b925082612a5a57612a59612c92565b5b828204905092915050565b6000612a7082612b03565b9150612a7b83612b03565b925082821015612a8e57612a8d612c63565b5b828203905092915050565b6000612aa482612ae3565b9050919050565b60008115159050919050565b60007fffffffff0000000000000000000000000000000000000000000000000000000082169050919050565b600073ffffffffffffffffffffffffffffffffffffffff82169050919050565b6000819050919050565b600060ff82169050919050565b82818337600083830152505050565b60005b83811015612b47578082015181840152602081019050612b2c565b83811115612b56576000848401525b50505050565b60006002820490506001821680612b7457607f821691505b60208210811415612b8857612b87612cc1565b5b50919050565b612b9782612d1f565b810181811067ffffffffffffffff82111715612bb657612bb5612cf0565b5b80604052505050565b6000612bca82612b03565b91507fffffffffffffffffffffffffffffffffffffffffffffffffffffffffffffffff821415612bfd57612bfc612c63565b5b600182019050919050565b6000612c1382612b0d565b915060ff821415612c2757612c26612c63565b5b600182019050919050565b6000612c3d82612b03565b9150612c4883612b03565b925082612c5857612c57612c92565b5b828206905092915050565b7f4e487b7100000000000000000000000000000000000000000000000000000000600052601160045260246000fd5b7f4e487b7100000000000000000000000000000000000000000000000000000000600052601260045260246000fd5b7f4e487b7100000000000000000000000000000000000000000000000000000000600052602260045260246000fd5b7f4e487b7100000000000000000000000000000000000000000000000000000000600052604160045260246000fd5b6000601f19601f8301169050919050565b7f4552433732313a207472616e7366657220746f206e6f6e20455243373231526560008201527f63656976657220696d706c656d656e7465720000000000000000000000000000602082015250565b7f4f776e61626c653a206e6577206f776e657220697320746865207a65726f206160008201527f6464726573730000000000000000000000000000000000000000000000000000602082015250565b7f4552433732313a20746f6b656e20616c7265616479206d696e74656400000000600082015250565b7f4552433732313a207472616e7366657220746f20746865207a65726f2061646460008201527f7265737300000000000000000000000000000000000000000000000000000000602082015250565b7f4552433732313a20617070726f766520746f2063616c6c657200000000000000600082015250565b7f4552433732313a206f70657261746f7220717565727920666f72206e6f6e657860008201527f697374656e7420746f6b656e0000000000000000000000000000000000000000602082015250565b7f4552433732313a20617070726f76652063616c6c6572206973206e6f74206f7760008201527f6e6572206e6f7220617070726f76656420666f7220616c6c0000000000000000602082015250565b7f616c6c2068656c6d732068617665206265656e20636f6e6a7572656400000000600082015250565b7f4552433732313a2062616c616e636520717565727920666f7220746865207a6560008201527f726f206164647265737300000000000000000000000000000000000000000000602082015250565b7f4552433732313a206f776e657220717565727920666f72206e6f6e657869737460008201527f656e7420746f6b656e0000000000000000000000000000000000000000000000602082015250565b7f4552433732313a206d696e7420746f20746865207a65726f2061646472657373600082015250565b7f4552433732313a20617070726f76656420717565727920666f72206e6f6e657860008201527f697374656e7420746f6b656e0000000000000000000000000000000000000000602082015250565b7f4f776e61626c653a2063616c6c6572206973206e6f7420746865206f776e6572600082015250565b7f6e6f7420656e6f75676820657468657220746f20636f6e6a757265206120736860008201527f6172640000000000000000000000000000000000000000000000000000000000602082015250565b7f4552433732313a207472616e73666572206f6620746f6b656e2074686174206960008201527f73206e6f74206f776e0000000000000000000000000000000000000000000000602082015250565b7f4552433732314d657461646174613a2055524920717565727920666f72206e6f60008201527f6e6578697374656e7420746f6b656e0000000000000000000000000000000000602082015250565b7f4552433732313a20617070726f76616c20746f2063757272656e74206f776e6560008201527f7200000000000000000000000000000000000000000000000000000000000000602082015250565b7f6e6f7420656e6f75676820657468657220746974686564000000000000000000600082015250565b7f4552433732313a207472616e736665722063616c6c6572206973206e6f74206f60008201527f776e6572206e6f7220617070726f766564000000000000000000000000000000602082015250565b7f616c6c207368617264732068617665206265656e20636f6e6a75726564000000600082015250565b61325b81612a99565b811461326657600080fd5b50565b61327281612aab565b811461327d57600080fd5b50565b61328981612ab7565b811461329457600080fd5b50565b6132a081612b03565b81146132ab57600080fd5b5056fea264697066735822122087059c601b591d51737b628f8825d88d46b17097ecf2cb0e1fa946635665613564736f6c63430008040033",
  "devdoc": {
    "kind": "dev",
    "methods": {
      "approve(address,uint256)": {
        "details": "See {IERC721-approve}."
      },
      "balanceOf(address)": {
        "details": "See {IERC721-balanceOf}."
      },
      "getApproved(uint256)": {
        "details": "See {IERC721-getApproved}."
      },
      "isApprovedForAll(address,address)": {
        "details": "See {IERC721-isApprovedForAll}."
      },
      "name()": {
        "details": "See {IERC721Metadata-name}."
      },
      "owner()": {
        "details": "Returns the address of the current owner."
      },
      "ownerOf(uint256)": {
        "details": "See {IERC721-ownerOf}."
      },
      "renounceOwnership()": {
        "details": "Leaves the contract without owner. It will not be possible to call `onlyOwner` functions anymore. Can only be called by the current owner. NOTE: Renouncing ownership will leave the contract without an owner, thereby removing any functionality that is only available to the owner."
      },
      "safeTransferFrom(address,address,uint256)": {
        "details": "See {IERC721-safeTransferFrom}."
      },
      "safeTransferFrom(address,address,uint256,bytes)": {
        "details": "See {IERC721-safeTransferFrom}."
      },
      "setApprovalForAll(address,bool)": {
        "details": "See {IERC721-setApprovalForAll}."
      },
      "supportsInterface(bytes4)": {
        "details": "See {IERC165-supportsInterface}."
      },
      "symbol()": {
        "details": "See {IERC721Metadata-symbol}."
      },
      "tokenURI(uint256)": {
        "details": "See {IERC721Metadata-tokenURI}."
      },
      "transferFrom(address,address,uint256)": {
        "details": "See {IERC721-transferFrom}."
      },
      "transferOwnership(address)": {
        "details": "Transfers ownership of the contract to a new account (`newOwner`). Can only be called by the current owner."
      }
    },
    "version": 1
  },
  "userdoc": {
    "kind": "user",
    "methods": {},
    "version": 1
  },
  "storageLayout": {
    "storage": [
      {
        "astId": 7,
        "contract": "contracts/Artifacts.sol:Artifacts",
        "label": "_owner",
        "offset": 0,
        "slot": "0",
        "type": "t_address"
      },
      {
        "astId": 129,
        "contract": "contracts/Artifacts.sol:Artifacts",
        "label": "_name",
        "offset": 0,
        "slot": "1",
        "type": "t_string_storage"
      },
      {
        "astId": 131,
        "contract": "contracts/Artifacts.sol:Artifacts",
        "label": "_symbol",
        "offset": 0,
        "slot": "2",
        "type": "t_string_storage"
      },
      {
        "astId": 135,
        "contract": "contracts/Artifacts.sol:Artifacts",
        "label": "_owners",
        "offset": 0,
        "slot": "3",
        "type": "t_mapping(t_uint256,t_address)"
      },
      {
        "astId": 139,
        "contract": "contracts/Artifacts.sol:Artifacts",
        "label": "_balances",
        "offset": 0,
        "slot": "4",
        "type": "t_mapping(t_address,t_uint256)"
      },
      {
        "astId": 143,
        "contract": "contracts/Artifacts.sol:Artifacts",
        "label": "_tokenApprovals",
        "offset": 0,
        "slot": "5",
        "type": "t_mapping(t_uint256,t_address)"
      },
      {
        "astId": 149,
        "contract": "contracts/Artifacts.sol:Artifacts",
        "label": "_operatorApprovals",
        "offset": 0,
        "slot": "6",
        "type": "t_mapping(t_address,t_mapping(t_address,t_bool))"
      },
      {
        "astId": 1661,
        "contract": "contracts/Artifacts.sol:Artifacts",
        "label": "helmsConjured",
        "offset": 0,
        "slot": "7",
        "type": "t_uint8"
      },
      {
        "astId": 1664,
        "contract": "contracts/Artifacts.sol:Artifacts",
        "label": "shardsConjured",
        "offset": 0,
        "slot": "8",
        "type": "t_uint256"
      }
    ],
    "types": {
      "t_address": {
        "encoding": "inplace",
        "label": "address",
        "numberOfBytes": "20"
      },
      "t_bool": {
        "encoding": "inplace",
        "label": "bool",
        "numberOfBytes": "1"
      },
      "t_mapping(t_address,t_bool)": {
        "encoding": "mapping",
        "key": "t_address",
        "label": "mapping(address => bool)",
        "numberOfBytes": "32",
        "value": "t_bool"
      },
      "t_mapping(t_address,t_mapping(t_address,t_bool))": {
        "encoding": "mapping",
        "key": "t_address",
        "label": "mapping(address => mapping(address => bool))",
        "numberOfBytes": "32",
        "value": "t_mapping(t_address,t_bool)"
      },
      "t_mapping(t_address,t_uint256)": {
        "encoding": "mapping",
        "key": "t_address",
        "label": "mapping(address => uint256)",
        "numberOfBytes": "32",
        "value": "t_uint256"
      },
      "t_mapping(t_uint256,t_address)": {
        "encoding": "mapping",
        "key": "t_uint256",
        "label": "mapping(uint256 => address)",
        "numberOfBytes": "32",
        "value": "t_address"
      },
      "t_string_storage": {
        "encoding": "bytes",
        "label": "string",
        "numberOfBytes": "32"
      },
      "t_uint256": {
        "encoding": "inplace",
        "label": "uint256",
        "numberOfBytes": "32"
      },
      "t_uint8": {
        "encoding": "inplace",
        "label": "uint8",
        "numberOfBytes": "1"
      }
    }
  }
}