{
  "address": "0x5FbDB2315678afecb367f032d93F642f64180aa3",
  "abi": [
    {
      "anonymous": false,
      "inputs": [
        {
          "indexed": true,
          "internalType": "address",
          "name": "previousOwner",
          "type": "address"
        },
        {
          "indexed": true,
          "internalType": "address",
          "name": "newOwner",
          "type": "address"
        }
      ],
      "name": "OwnershipTransferred",
      "type": "event"
    },
    {
      "anonymous": false,
      "inputs": [
        {
          "indexed": false,
          "internalType": "enum Storms.StormType",
          "name": "",
          "type": "uint8"
        }
      ],
      "name": "StormBegins",
      "type": "event"
    },
    {
      "inputs": [
        {
          "internalType": "enum Storms.StormType",
          "name": "_storm",
          "type": "uint8"
        },
        {
          "internalType": "uint256",
          "name": "_endTime",
          "type": "uint256"
        }
      ],
      "name": "activate",
      "outputs": [],
      "stateMutability": "nonpayable",
      "type": "function"
    },
    {
      "inputs": [],
      "name": "activeStorms",
      "outputs": [
        {
          "internalType": "bool",
          "name": "",
          "type": "bool"
        },
        {
          "internalType": "bool",
          "name": "",
          "type": "bool"
        },
        {
          "internalType": "bool",
          "name": "",
          "type": "bool"
        },
        {
          "internalType": "bool",
          "name": "",
          "type": "bool"
        },
        {
          "internalType": "bool",
          "name": "",
          "type": "bool"
        }
      ],
      "stateMutability": "view",
      "type": "function"
    },
    {
      "inputs": [],
      "name": "owner",
      "outputs": [
        {
          "internalType": "address",
          "name": "",
          "type": "address"
        }
      ],
      "stateMutability": "view",
      "type": "function"
    },
    {
      "inputs": [],
      "name": "renounceOwnership",
      "outputs": [],
      "stateMutability": "nonpayable",
      "type": "function"
    },
    {
      "inputs": [
        {
          "internalType": "address",
          "name": "newOwner",
          "type": "address"
        }
      ],
      "name": "transferOwnership",
      "outputs": [],
      "stateMutability": "nonpayable",
      "type": "function"
    }
  ],
  "transactionHash": "0x5565f1358e6541d2c1bd5d1c5263a5a5042b6e1e8c85116d6fe0dd09c4a084f5",
  "args": [],
  "solcInputHash": "c47167ecfbcdbebc62cb64ced469dff3",
  "bytecode": "0x608060405234801561001057600080fd5b5061002d61002261003260201b60201c565b61003a60201b60201c565b6100fe565b600033905090565b60008060009054906101000a900473ffffffffffffffffffffffffffffffffffffffff169050816000806101000a81548173ffffffffffffffffffffffffffffffffffffffff021916908373ffffffffffffffffffffffffffffffffffffffff1602179055508173ffffffffffffffffffffffffffffffffffffffff168173ffffffffffffffffffffffffffffffffffffffff167f8be0079c531659141344cd1fd0a4f28419497f9722a3daafe3b4186f6b6457e060405160405180910390a35050565b61093d8061010d6000396000f3fe608060405234801561001057600080fd5b50600436106100575760003560e01c806344d1992c1461005c5780635a678c911461007e578063715018a61461009a5780638da5cb5b146100a4578063f2fde38b146100c2575b600080fd5b6100646100de565b6040516100759594939291906106e2565b60405180910390f35b61009860048036038101906100939190610618565b61029e565b005b6100a261033b565b005b6100ac6103c3565b6040516100b991906106c7565b60405180910390f35b6100dc60048036038101906100d791906105ef565b6103ec565b005b60008060008060004260016000806004811115610124577f4e487b7100000000000000000000000000000000000000000000000000000000600052602160045260246000fd5b60ff1660ff1681526020019081526020016000205411426001600060016004811115610179577f4e487b7100000000000000000000000000000000000000000000000000000000600052602160045260246000fd5b60ff1660ff16815260200190815260200160002054114260016000600260048111156101ce577f4e487b7100000000000000000000000000000000000000000000000000000000600052602160045260246000fd5b60ff1660ff1681526020019081526020016000205411426001600060036004811115610223577f4e487b7100000000000000000000000000000000000000000000000000000000600052602160045260246000fd5b60ff1660ff16815260200190815260200160002054114260016000600480811115610277577f4e487b7100000000000000000000000000000000000000000000000000000000600052602160045260246000fd5b60ff1660ff1681526020019081526020016000205411945094509450945094509091929394565b4281116102aa57600080fd5b80600160008460048111156102e8577f4e487b7100000000000000000000000000000000000000000000000000000000600052602160045260246000fd5b60ff1660ff168152602001908152602001600020819055507f04f8f9e90dd778496d9abf40fc80933cb654a1025a3a54c4d5c53588828a0f358260405161032f9190610735565b60405180910390a15050565b6103436104e4565b73ffffffffffffffffffffffffffffffffffffffff166103616103c3565b73ffffffffffffffffffffffffffffffffffffffff16146103b7576040517f08c379a00000000000000000000000000000000000000000000000000000000081526004016103ae90610770565b60405180910390fd5b6103c160006104ec565b565b60008060009054906101000a900473ffffffffffffffffffffffffffffffffffffffff16905090565b6103f46104e4565b73ffffffffffffffffffffffffffffffffffffffff166104126103c3565b73ffffffffffffffffffffffffffffffffffffffff1614610468576040517f08c379a000000000000000000000000000000000000000000000000000000000815260040161045f90610770565b60405180910390fd5b600073ffffffffffffffffffffffffffffffffffffffff168173ffffffffffffffffffffffffffffffffffffffff1614156104d8576040517f08c379a00000000000000000000000000000000000000000000000000000000081526004016104cf90610750565b60405180910390fd5b6104e1816104ec565b50565b600033905090565b60008060009054906101000a900473ffffffffffffffffffffffffffffffffffffffff169050816000806101000a81548173ffffffffffffffffffffffffffffffffffffffff021916908373ffffffffffffffffffffffffffffffffffffffff1602179055508173ffffffffffffffffffffffffffffffffffffffff168173ffffffffffffffffffffffffffffffffffffffff167f8be0079c531659141344cd1fd0a4f28419497f9722a3daafe3b4186f6b6457e060405160405180910390a35050565b6000813590506105bf816108c9565b92915050565b6000813590506105d4816108e0565b92915050565b6000813590506105e9816108f0565b92915050565b60006020828403121561060157600080fd5b600061060f848285016105b0565b91505092915050565b6000806040838503121561062b57600080fd5b6000610639858286016105c5565b925050602061064a858286016105da565b9150509250929050565b61065d816107a1565b82525050565b61066c816107b3565b82525050565b61067b816107fc565b82525050565b600061068e602683610790565b91506106998261083d565b604082019050919050565b60006106b1602083610790565b91506106bc8261088c565b602082019050919050565b60006020820190506106dc6000830184610654565b92915050565b600060a0820190506106f76000830188610663565b6107046020830187610663565b6107116040830186610663565b61071e6060830185610663565b61072b6080830184610663565b9695505050505050565b600060208201905061074a6000830184610672565b92915050565b6000602082019050818103600083015261076981610681565b9050919050565b60006020820190508181036000830152610789816106a4565b9050919050565b600082825260208201905092915050565b60006107ac826107d2565b9050919050565b60008115159050919050565b60008190506107cd826108b5565b919050565b600073ffffffffffffffffffffffffffffffffffffffff82169050919050565b6000819050919050565b6000610807826107bf565b9050919050565b7f4e487b7100000000000000000000000000000000000000000000000000000000600052602160045260246000fd5b7f4f776e61626c653a206e6577206f776e657220697320746865207a65726f206160008201527f6464726573730000000000000000000000000000000000000000000000000000602082015250565b7f4f776e61626c653a2063616c6c6572206973206e6f7420746865206f776e6572600082015250565b600581106108c6576108c561080e565b5b50565b6108d2816107a1565b81146108dd57600080fd5b50565b600581106108ed57600080fd5b50565b6108f9816107f2565b811461090457600080fd5b5056fea2646970667358221220c27f41522dbb3431015451b2e5aaa1f3edf2a95f092532360256c6a4ac695cfd64736f6c63430008040033",
  "devdoc": {
    "kind": "dev",
    "methods": {
      "owner()": {
        "details": "Returns the address of the current owner."
      },
      "renounceOwnership()": {
        "details": "Leaves the contract without owner. It will not be possible to call `onlyOwner` functions anymore. Can only be called by the current owner. NOTE: Renouncing ownership will leave the contract without an owner, thereby removing any functionality that is only available to the owner."
      },
      "transferOwnership(address)": {
        "details": "Transfers ownership of the contract to a new account (`newOwner`). Can only be called by the current owner."
      }
    },
    "version": 1
  },
  "userdoc": {
    "kind": "user",
    "methods": {},
    "version": 1
  },
  "storageLayout": {
    "storage": [
      {
        "astId": 7,
        "contract": "contracts/Storms.sol:Storms",
        "label": "_owner",
        "offset": 0,
        "slot": "0",
        "type": "t_address"
      },
      {
        "astId": 146,
        "contract": "contracts/Storms.sol:Storms",
        "label": "activeStormMapping",
        "offset": 0,
        "slot": "1",
        "type": "t_mapping(t_uint8,t_uint256)"
      }
    ],
    "types": {
      "t_address": {
        "encoding": "inplace",
        "label": "address",
        "numberOfBytes": "20"
      },
      "t_mapping(t_uint8,t_uint256)": {
        "encoding": "mapping",
        "key": "t_uint8",
        "label": "mapping(uint8 => uint256)",
        "numberOfBytes": "32",
        "value": "t_uint256"
      },
      "t_uint256": {
        "encoding": "inplace",
        "label": "uint256",
        "numberOfBytes": "32"
      },
      "t_uint8": {
        "encoding": "inplace",
        "label": "uint8",
        "numberOfBytes": "1"
      }
    }
  }
}